:020000040800F2
:10800000880D00200181000809810008CB8100084B
:108010000D8100080F810008118100080000000098
:1080200000000000000000000000000013810008B4
:10803000158100080000000053810008198900081C
:108040001B8100081B8100081B8100081B810008A0
:108050001B8100081B8100081B8100081B81000890
:108060001B8100081B8100081B8100081B81000880
:108070001B8100081B8100081B8100081B81000870
:108080001B8100081B8100081B8100081B81000860
:108090001B8100081B8100081B8100081B81000850
:1080A0001B8100081B8100081B8100081B81000840
:1080B0001B8100081B8100081B8100081B81000830
:1080C0001B8100081B8100081B8100081B81000820
:1080D0001B8100081B8100081B8100081B81000810
:1080E0001B8100081B8100081B810008DFF80CD0F1
:1080F00000F0EEF800480047F5820008880D0020E7
:108100000648804706480047FEE7FEE7FEE7FEE731
:10811000FEE7FEE7FEE7FEE7FEE7FEE7CD890008A3
:10812000ED800008EFF3108072B6704780F310887E
:108130007047334A1368012B04D04FF001031360DA
:10814000304A1060304A116030484FF08051016071
:108150007047EFF3108272B62948016891B14FF071
:10816000000101602748016829B1EFF3098121E985
:10817000F00F00680160244909680968B1E8F00F50
:1081800081F3098882F310884EF0040E70471E496F
:1081900008601C494FF00000086019494FF00100C9
:1081A00008601B484FF47F01D0F8002041EA02012B
:1081B000016016484FF08051016016480068006861
:1081C00080F3088861B662B670471EF0040F0CBFDA
:1081D000EFF30880EFF3098020E9F00F40F804ED99
:1081E0001EF0040F0CBF80F3088880F3098800B5E7
:1081F00002F07EF85DF804EB4EF0040E70470000CC
:1082000030000020280000202C00002004ED00E0B9
:1082100020ED00E008ED00E040EA01039B0703D0F9
:1082200009E008C9121F08C0042AFAD203E011F8B5
:10823000013B00F8013B521EF9D27047D2B201E077
:1082400000F8012B491EFBD270470022F6E710B55B
:1082500013460A4604461946FFF7F0FF204610BDB4
:10826000421E12F8013F002BFBD111F8013B02F82E
:10827000013B002BF9D1704710B5044604E00B78A0
:1082800000F8013B03B1491C521EF8D2204610BD34
:10829000421C10F8011B0029FBD1801A70470346CD
:1082A00011F8012B00F8012B002AF9D1184670476C
:1082B00030B505460020034600E05B1C934205D222
:1082C000EC5CC85C201A01D1002CF6D130BD000056
:1082D000064C074D06E0E06840F0010394E8070013
:1082E00098471034AC42F6D3FFF704FFE4B7000818
:1082F00004B8000810B503F01BF8002010BD000002
:108300002DE9F8470346002294466EE14FF001083C
:1083100008FA02F4D1F8008008EA0400A0427DD1F6
:10832000DFF8DCA2D1F80480A8EB0A09D0453AD0E6
:1083300014DCB8F1030F50D009DCB8F1000F31D0D4
:10834000B8F1010F1CD0B8F1020F49D120E0B8F10B
:10835000110F18D0B8F1120F42D11EE0B9F5881FE5
:1083600025D006DCB9F5803F20D0B9F5801F37D184
:108370001AE0B9F5001F18D0B9F5041F30D117E085
:10838000D1F80CC02DE0D1F80C8008F1040C28E0E5
:10839000D1F80C8008F1080C23E0D1F80C8008F12A
:1083A0000C0C1EE000BF00BF00BF00BF00BF00BF3D
:1083B000D1F80880B8F1000F02D14FF0040C0BE0A7
:1083C000D1F80880B8F1010F03D14FF0080C1C61FF
:1083D00002E04FF0080C5C6103E04FF0000C00E09D
:1083E00000BF00BFFF2801D8984601E003F1040850
:1083F0004646FF2802D84FEA820803E0A2F10808A7
:108400004FEA88084746D6F800804FF00F0909FA6E
:1084100007F928EA09080CFA07F900E088E048EAB9
:108420000908C6F80080D1F8048008F08058B8F137
:10843000805F7DD100BFDFF8CC81D8F8188048F08C
:108440000108DFF8C091C9F81880C846D8F818802C
:1084500008F00108CDF8008000BF00BF4FEAB9382E
:108460004FEA920958F829504FEA82784FEA187972
:108470004FF00F0808FA09F825EA0805DFF88881A7
:10848000434502D14FF0000816E0DFF880814345F4
:1084900002D14FF001080FE0DFF87481434502D1AB
:1084A0004FF0020808E0DFF86C81434502D14FF03D
:1084B000030801E04FF004084FEA82794FEA197986
:1084C00008FA09F848EA0505DFF84C814FEA9209F5
:1084D00048F82950D1F8048008F48038B8F5803F76
:1084E0000AD1DFF83881D8F8008048EA0008DFF8C0
:1084F0002C91C9F8008009E0DFF82081D8F80080CD
:1085000028EA0008DFF81491C9F80080D1F8048047
:1085100008F40038B8F5003F10D1DFF8008108F109
:108520000408D8F8008048EA0008DFF8F09000E07E
:108530005AE009F10409C9F800800DE0DFF8DC8099
:1085400008F10408D8F8008028EA0008DFF8CC9089
:1085500009F10409C9F80080D1F8048008F48018F2
:10856000B8F5801F0ED1DFF8B48008F10808D8F8FC
:10857000008048EA0008DFF8A49009F10809C9F86A
:1085800000800DE0DFF8948008F10808D8F800803A
:1085900028EA0008DFF8849009F10809C9F800808A
:1085A000D1F8048008F40018B8F5001F0ED1DFF8E8
:1085B0006C8008F10C08D8F8008048EA0008DFF861
:1085C0005C9009F10C09C9F800800DE0DFF84C80DF
:1085D00008F10C08D8F8008028EA0008DFF83C9081
:1085E00009F10C09C9F80080521CD1F8008028FA62
:1085F00002F8B8F1000F7FF489AEBDE8F8870000FB
:10860000000011100010024000080140000C014061
:108610000010014000140140080001400004014026
:108620000AB1016101E00B04036170470148006871
:1086300070470000000000200148006870470000FB
:108640000C00002000B5FFF7F7FF04494968C1F3AB
:108650000221034A515CC84000BD000000100240E6
:1086600046B5000800B5FFF7E7FF04494968C1F3C4
:10867000C221034A515CC84000BD00000010024006
:1086800046B5000810B504460CB9012010BDA0691C
:1086900000B100E000BF94F8390028B9002084F848
:1086A0003800204600F028F8242084F8390020689B
:1086B000C06820F400502168C860204600F0B4F97A
:1086C0002068006920F490402168086120684069B2
:1086D00020F02A00216848612068C06840F40050FA
:1086E0002168C8600020E063202084F8390084F805
:1086F0003A000020CAE7000010B586B0044600200A
:1087000002900390049005903349206888422ED14E
:1087100000BF3248806940F4804030498861084693
:10872000806900F48040019000BF00BF00BF084690
:10873000806940F0040088610846806900F0040008
:10874000019000BF00BF4815029002200390032053
:10875000059002A92248FFF7D3FD4FF480600290F4
:1087600000200390049002A91D48FFF7C9FD1D4990
:10877000206888422DD100BF1848C06940F40030FD
:108780001649C8610846C06900F40030019000BF76
:1087900000BF00BF0846806940F0040088610846B9
:1087A000806900F00400019000BF00BF0420029027
:1087B000022003900320059002A90948FFF7A0FDBD
:1087C0000820029000200390049002A90448FFF7BB
:1087D00097FD06B010BD00000038014000100240B7
:1087E00000080140004400402DE9F84304460D46CE
:1087F00016461F464FF0000994F8390020285CD136
:1088000005B116B90120BDE8F88300BF94F838001F
:10881000012801D10220F6E7012084F8380000BFCA
:108820000020E063212084F83900FFF7FFFE814635
:10883000A684E6842BE0E08C401EE084A068B0F5BE
:10884000805F16D14B46002280212046009700F021
:10885000BBF908B10320D6E7A846B8F80000C0F37A
:10886000080021684860206908B9AD1C0FE06D1C44
:108870000DE04B46002280212046009700F0A4F92D
:1088800008B10320BFE715F8010B21684860E08CB0
:108890000028D0D14B46002240212046009700F00E
:1088A00093F908B10320AEE7202084F8390000BF17
:1088B000002084F8380000BFA5E70220A3E70000ED
:1088C00000B585B00020019002900390049000BF95
:1088D0000F48806940F010000D49886108468069A2
:1088E00000F01000009000BF00BF002204210948E2
:1088F000FFF796FE042001900120029000200390D3
:108900000220049001A90348FFF7FAFC05B000BD5E
:10891000001002400010014010B501F013FE02F0FB
:1089200039FA01F01FFE10BD10B500210020002211
:10893000214B5B6803F00C0121B1042906D0082902
:1089400028D107E01D4B1E4C236027E01B4B1C4C1D
:10895000236023E0184B5B6803F47010164B5B68D0
:1089600003F48032022303EB904022B9154B4343BA
:10897000134C23600DE0104B5B6803F4003323B10C
:10898000104B43430E4C236003E00C4B43430C4C11
:10899000236003E0094B0A4C236000BF00BF064B75
:1089A0005B68C3F30313084CE15C054B1B68CB40C9
:1089B000034C236010BD00000010024000127A003A
:1089C0000C00002000093D0036B500081148006881
:1089D00040F001000F490860084640680E49084011
:1089E0000C494860084600680C490840094908607D
:1089F0000846006820F4802008600846406820F49B
:108A0000FE0048604FF41F00886005480549086073
:108A100070470000001002400000FFF8FFFFF6FE64
:108A20000080000808ED00E070B50446216809697F
:108A300021F44051E2681143226811612269A16862
:108A40001143626941EA02052168C96841F20C627A
:108A5000914329432268D1602168496921F440711A
:108A6000A269114322685161564A2168914254D14A
:108A7000FFF7F8FD00EBC00101EB00116268920006
:108A8000B1FBF2F100EBC00202EB001263689B0045
:108A9000B2FBF3F26423B2FBF3F202EBC20303EB8B
:108AA0000212A1EB8201322202EB01116422B1FB1E
:108AB000F2F101F0F00100EBC00202EB001263687A
:108AC0009B00B2FBF3F26423B2FBF3F201EB021260
:108AD00000EBC00101EB001163689B00B1FBF3F1F7
:108AE00000EBC00303EB00136668B600B3FBF6F3BC
:108AF0006426B3FBF6F303EBC30606EB0313A1EB0B
:108B00008301322303EB01116423B1FBF3F101F084
:108B10000F0111442268916053E0FFF793FD00EBD1
:108B2000C00101EB001162689200B1FBF2F100EBB1
:108B3000C00202EB001263689B00B2FBF3F26423F5
:108B4000B2FBF3F202EBC20303EB0212A1EB8201D0
:108B5000322202EB01116422B1FBF2F101F0F001CB
:108B600000EBC00202EB001263689B00B2FBF3F261
:108B70006423B2FBF3F201EB021200EBC00101EB44
:108B8000001163689B00B1FBF3F100EBC00303EB42
:108B900000136668B600B3FBF6F36426B3FBF6F386
:108BA00003EBC30606EB0313A1EB8301322303EBB4
:108BB00001116423B1FBF3F101F00F0111442268AC
:108BC000916070BD003801402DE9F04104460D462A
:108BD00017469846069E21E0701CF8B12EB1FFF7AB
:108BE00025FDA0EB0800B04218D92068C06820F429
:108BF000D0702168C8602068406920F001002168B9
:108C00004861202084F8390084F83A0000BF002031
:108C100084F8380000BF0320BDE8F08120680068B8
:108C20002840A84201D1012000E00020B842D3D062
:108C30000020F1E70146481EB0F1807F01D30120FA
:108C40007047481E4FF0E0225061FF20044A107028
:108C500000204FF0E0229061072010610020EFE734
:108C600023ED00E0014609B900207047C8B220B1E9
:108C7000C8B20E4A105C401CF7E701F47F4028B1EF
:108C80000A48C1F30722805C0930EEE701F47F0057
:108C900028B10648C1F30742805C1130E5E703487C
:108CA00000EB116000781930DFE70000F5B500082F
:108CB00002E008C8121F08C1002AFAD170477047A5
:108CC000002001E001C1121F002AFBD17047000003
:108CD00003490868884201D0012070470020FCE762
:108CE000900000202DE9F04389B006468846914661
:108CF000002400E0641C305D202804D0305D092889
:108D000001D04445F6D324B94FF0FF3009B0BDE897
:108D1000F0832146304601F073F8054615B94FF04F
:108D2000FF30F3E7202101A8FFF78FFA01AA41469F
:108D3000304601F0CFF8074617B94FF0FF30E5E7AE
:108D400001A93846A847C9F800000020DEE7000066
:108D50002DE9FC5F04468B4615461E46DDE90C9A5C
:108D6000DDE90E7804F114004060006000BF1C349F
:108D70006560A660C4F80C90C4F810A02321D4E963
:108D8000030201F07AFCD4E9033C63441A1F0F4B41
:108D9000D4E9010101F0B0FB2060A77667760020DE
:108DA000E061C4F82080C4F82480606120766065AA
:108DB000A0651C3C00902346054A2146019004F121
:108DC000440002F069F80020BDE8FC9F71AA000889
:108DD000CDAC00082DE9F04704460E4617469846EC
:108DE000DDF8209084F80990607A20F0010060722C
:108DF000E66127620020A062C4F82480002506E016
:108E000004F1140101EBC50001F0E2FB6D1C012D22
:108E1000F6DBBDE8F08710B50246002001460EE003
:108E200002F1140303EBC100D0E900436360D0E911
:108E3000003423604060006000BF481C01460129E7
:108E4000EEDB10BD10B520A001F0A4FB2148017895
:108E500021A001F09FFB1F48007800F0010010B135
:108E600023A001F097FB1B48007800F0020010B12E
:108E700022A001F08FFB1748007800F0040010B129
:108E800021A001F087FB1348007800F0080010B122
:108E900021A001F07FFB0F48007800F0100010B116
:108EA00020A001F077FB0B48007800F0800030B183
:108EB00008480F3001681DA001F06CFB02E01FA004
:108EC00001F068FB10BD0000627573206661756C6F
:108ED000743A0A0029ED00E05343425F434653527F
:108EE0005F424653523A3078253032582000000015
:108EF000494255534552522000000000505245430C
:108F00004953455252200000494D50524543495360
:108F10004552522000000000554E53544B455252CA
:108F20002000000053544B45525220005343422D21
:108F30003E424641523A253038580A000A000000A5
:108F400070B504460D4600F09FFC002070BD000087
:108F500010B51448006890F82100C0F3400020B913
:108F6000002011490870084610BD1048006838B14B
:108F700080220E4801680C48FFF77EF90A48F3E7A3
:108F800000F0A6FF20B10AA10748FFF788F903E027
:108F900009A10548FFF783F909A10348FFF760F924
:108FA0000148E1E720000020940500202400002073
:108FB0006D7368200000000066696E736820000011
:108FC0003E00000010B501F055F910BD05490968D3
:108FD00091F8211060F34101024A126882F82110D1
:108FE0007047000020000020024A1060024A116011
:108FF0007047000010000020140000207FB50025FD
:1090000014491548FFF7F0FF144815490860154C3E
:109010000A2006214FF48062134BCDE90032CDE9DE
:1090200002100023114A12A1204601F0ADFD0546B1
:1090300000231A4610A10A48006801F03BFC0120F9
:10904000FFF7C4FF1CB115B9204601F007FE002050
:1090500004B070BDE4B7000874B700081C05002018
:1090600020000020A40000201C01002081900008A6
:10907000747368656C6C000073687278000000009F
:10908000E948006890F8210020F00100401CE64902
:10909000096881F82100FFF75BFF054601F07AFAC5
:1090A000C1E1FFF78FFF0446002C00DABBE11B2C67
:1090B00005D10120DC49096881F82000B3E1DA48D4
:1090C000006890F8200001280DD15B2C05D102200A
:1090D000D549096881F82000A5E10020D249096836
:1090E00081F8200045E0D048006890F82000022870
:1090F0003FD10020CC49096881F82000412C00D1E3
:1091000091E1422C00D18EE1442C11D1C648006877
:10911000B0F8740058B1C5A001F03CFAC24800682C
:10912000B0F87400401EC0490968A1F874007AE1E3
:10913000432C1ED1BC480068B0F87400BA490968D5
:10914000B1F87210884213DAB7480068B0F874209A
:10915000B54800682230815CB5A001F01BFAB24826
:109160000068B0F87400401CAF490968A1F87400A9
:1091700059E10CB1FF2C00D155E1092C1FD100257C
:1091800003E0AAA001F006FA6D1CA7480068B0F839
:109190007400A842F5DCA4480068223002F0DEF832
:1091A000A14800682230FFF773F880B29E49096831
:1091B000A1F872009C490968A1F8740033E17F2C82
:1091C00001D0082C6ED198480068B0F8740000B93E
:1091D00029E195480068B0F87200401E924909687C
:1091E000A1F8720090480068B0F87400401E8E49E3
:1091F0000968A1F874008C480068B0F872008A49C8
:109200000968B1F8741088423FDD874B1B68B3F8DA
:109210007230854E3668B6F874609A1B824B1B68B4
:10922000B3F874305B1C804E3668223699197E4B39
:109230001B68B3F874607C4B1B682233F01801F094
:10924000FBF9002278480068B0F872107648006890
:109250002230425474480068B0F8742072480068A4
:109260002230111873A001F095F96F480068B0F82A
:10927000745003E06DA001F08DF96D1C6A48006820
:10928000B0F87200A842F5DA0BE06CA001F082F9A8
:10929000002165480068B0F87220634800682230F9
:1092A0008154C0E00D2C01D00A2C2BD100F010FE0F
:1092B000012812D15C48006890F8210000F00100FC
:1092C00010B15FA001F066F957480068B0F872105D
:1092D00055480068223000F05DFDFFF739FE054675
:1092E00001F058F95021504800682230FEF7ADFFD8
:1092F00000204D490968A1F872004B490968A1F89E
:10930000740090E048480068B0F87200502804DB10
:10931000002045490968A1F8720043480068B0F888
:10932000740041490968B1F87210884245DA3E4B31
:109330001B68B3F872303C4E3668B6F874609A1BFE
:10934000394B1B68B3F87460374B1B682233F11834
:10935000354B1B68B3F874305B1C334E36682236CD
:10936000981901F069F930480068B0F874202E4867
:109370000068223084542C48006890F8210000F0E6
:10938000010050B128480068B0F8742026480068F1
:10939000223011182BA001F0FDF823480068B0F826
:1093A000745003E021A001F0F5F86D1C1E48006820
:1093B000B0F87200A842F5DC12E01B480068B0F873
:1093C000722019480068223084541748006890F8C9
:1093D000210000F0010018B1214615A001F0DAF8D3
:1093E000002411480068B0F87200401C0E4909685A
:1093F000A1F872000C480068B0F87400401C0A49DB
:109400000968A1F8740008480068B0F87200502894
:1094100008DB002004490968A1F8720002490968C4
:10942000A1F8740000BF3CE6200000200800000006
:10943000256300000825732020080000082008008C
:109440000A0000002573000010B51448006800F001
:10945000020010B112A001F09DF81048006800F061
:10946000804088B10D48C01E007808B1FFF7EAFCC3
:109470000A48001F007808B100F0C8FB0748801EAA
:10948000008808B101F0DEFF0448006800F00040E9
:1094900010B109A001F07EF810BD00002CED00E035
:1094A0006661696C656420766563746F72206665B9
:1094B0007463680A00000000646562756720657661
:1094C000656E740A0000000010B502A001F062F899
:1094D000002010BD48656C6C6F2052542D5468728A
:1094E000656164210A00000010B50CA001F052F87B
:1094F0000F4804680CE002220EA12068FEF7D8FE97
:1095000000B904E00CA0216801F044F800BF083461
:109510000A4800688442EED3002010BD2D2D467508
:109520006E6374696F6E204C6973743A0A000000B0
:10953000100000205F5F000025730A001400002067
:109540002DE9F04704460D4616461F46284601F011
:10955000CFF8814609F10408C4F8008025726660DE
:10956000E76000202061BDE8F0872DE9F84F07464D
:109570000C464FF0000A00202061E06808B1207A14
:1095800010B90020BDE8F88FD4F800801FB9454617
:109590004FF0010A00E03D46FEF7C4FD0090BAF12D
:1095A000000F0ED1A5F10C0B9BF8080020F08000F5
:1095B000217A884204D00098FEF7B8FD0020E1E748
:1095C00000BF0026D4F804900BE02D68454501D17A
:1095D000002507E0761C49F8045BE068B04200D142
:1095E00000E0F2E700BF0098FEF7A0FD26612846E4
:1095F000C8E700002DE9F04F91B000270FF2D40921
:10960000082304AA05210CA8FFF79AFF4FF00808C9
:109610004A46414631A000F0BDFF404600F0D2FC72
:1096200037A000F0B7FF00BF0CA93846FFF79DFF39
:109630000746002545E004A850F82500A0F10C06D7
:10964000FEF770FD8346307A20F080009DF83810D8
:10965000884203D05846FEF769FD31E05846FEF7D0
:1096600065FD344604F1140000F0C3FFB8B904F1FD
:10967000140000F0CEFF8246208C618C2346082225
:10968000CDE9010A0091414624A000F083FF04F1D6
:10969000140001F07FFE27A000F07CFF0FE004F132
:1096A000140000F0B6FF8246208C618C234608220D
:1096B000CDE9010A009141461FA000F06BFF00BFF9
:1096C0006D1C1098A842B6DC002FADD1002011B05F
:1096D000BDE8F08F6D61696C626F7800252D2A2ED0
:1096E0007320656E7472792073697A65207375735F
:1096F00070656E64207468726561640A0000000021
:10970000202D2D2D2D20202D2D2D2D202D2D2D2DBD
:109710002D2D2D2D2D2D2D2D2D2D0A00252D2A2ED3
:109720002A732025303464202025303464202564B9
:109730003A0000000A000000252D2A2E2A73202559
:109740003034642020253034642025640A00000071
:109750002DE9F04F8FB000270FF2CC09082302AAA1
:1097600002210AA8FFF7ECFE4FF008084A464146DE
:1097700030A000F00FFF404600F024FC34A000F0C1
:1097800009FF00BF0AA93846FFF7EFFE074600258C
:1097900041E002A850F82500A0F10C06FEF7C2FC3B
:1097A0008346307A20F080009DF83010884203D044
:1097B0005846FEF7BBFC2DE05846FEF7B7FC344692
:1097C00004F1140000F015FFA8B904F1140000F032
:1097D00020FF8246A08B234608224146CDE9000A9D
:1097E00021A000F0D7FE04F1140001F0D3FD17A072
:1097F00000F0D0FE0DE004F1140000F00AFF8246F4
:10980000A08B234608224146CDE9000A1AA000F0A9
:10981000C1FE00BF6D1C0E98A842BADC002FB1D16A
:1098200000200FB0BDE8F08F73656D6170686F72D6
:1098300065000000252D2A2E7320762020207375C8
:109840007370656E64207468726561640A0000005C
:10985000202D2D2D202D2D2D2D2D2D2D2D2D2D2D52
:109860002D2D2D0A00000000252D2A2E2A732025DB
:109870003033642025643A00252D2A2E2A732025B2
:109880003033642025640A002DE9F04FAFB04FF06B
:1098900000090FF21C1B082321AA012129A8FFF7A8
:1098A0004FFE4FF0080A5A465146434800F072FEF8
:1098B000504600F087FB41A000F06CFE00BF29A9D4
:1098C0004846FFF752FE81464FF0000865E021A8A8
:1098D00050F82800A0F10C05FEF724FC2E90287A01
:1098E00020F080009DF8AC10884203D02E98FEF73F
:1098F0001DFC50E07822294603A8FEF78DFC2E9827
:10990000FEF714FC2C4694F83500234608225146F5
:1099100000903AA000F03EFE94F8340000F00F06EC
:10992000012E03D138A000F035FE15E0022E03D140
:1099300038A000F02FFE0FE01EB939A000F02AFE7B
:109940000AE0042E03D139A000F024FE04E0032E27
:1099500002D139A000F01EFEA76A00E07F1C387813
:109960002328FBD0D4E90A10791A401A642148430D
:10997000E16AB0FBF1F00290216B206CCDE90001AF
:10998000E369A06AC01AE36AC1181A462DA0029BB7
:1099900000F000FE00BF08F101082D98404596DC5C
:1099A000B9F1000F8BD100202FB0BDE8F08F00007F
:1099B000746872656164000018B70008202D2D2DB1
:1099C00020202D2D2D2D2D2D2D202D2D2D2D2D2DEE
:1099D0002D2D2D2D202D2D2D2D2D2D2D2D2D2D20D1
:1099E000202D2D2D2D2D2D20202D2D2D2D2D2D2DCE
:1099F0002D2D2D202D2D2D0A00000000252D2A2E85
:109A00002A73202533642000207265616479202048
:109A1000000000002073757370656E640000000024
:109A200020696E69742020200000000020636C6FA4
:109A300073652020000000002072756E6E696E67ED
:109A4000000000002030782530387820307825302C
:109A50003878202020202530326425252020203011
:109A6000782530387820253033640A002DE9F04716
:109A700090B000270FF2B409082303AA0A210BA80B
:109A8000FFF75EFD4FF008084A46414629A000F066
:109A900081FD404600F096FA30A000F07BFD00BF4B
:109AA0000BA93846FFF761FD074600262DE003A805
:109AB00050F82600A0F10C04FEF734FB8246207A11
:109AC00020F080009DF83410884203D05046FEF705
:109AD0002DFB19E05046FEF729FB2546D5E9090183
:109AE0002B460822CDE90001414625A000F052FD99
:109AF000687A00F0010018B127A000F04BFD02E0E9
:109B000028A000F047FD00BF761C0F98B042CEDCC5
:109B1000002FC5D101F038F90446214625A000F0F8
:109B200039FD002010B0BDE8F087000074696D6554
:109B300072000000252D2A2E732020706572696F37
:109B400064696320202074696D656F75742020201E
:109B500020202020666C61670A000000202D2D2D3A
:109B60002D2D2D2D2D2D2D202D2D2D2D2D2D2D2D32
:109B70002D2D202D2D2D2D2D2D2D2D2D2D2D0A0072
:109B8000252D2A2E2A7320307825303878203078F9
:109B9000253038782000000061637469766174654F
:109BA000640A000064656163746976617465640ABF
:109BB0000000000063757272656E74207469636BD7
:109BC0003A3078253038780A00000000FEF778FE39
:109BD00011E0012204210848FEF722FD4FF4FA703B
:109BE00000F0ECFF002204210348FEF719FD4FF4BA
:109BF000FA7000F0E3FFECE70010014010B500F050
:109C0000E7FABDE81040FFF7E1BF000010B51CA067
:109C100000F0C0FC1F4801781FA000F0BBFC1D48ED
:109C2000007800F0010010B121A000F0B3FC194849
:109C3000007800F0020010B120A000F0ABFC154845
:109C4000007800F0080010B11FA000F0A3FC11483C
:109C5000007800F0100010B11EA000F09BFC0D4831
:109C6000007800F0800030B10A480C3001681CA078
:109C700000F090FC02E01EA000F08CFC10BD000083
:109C80006D656D206D616E616765206661756C74D0
:109C90003A0A000028ED00E05343425F4346535226
:109CA0005F4D4653523A307825303258200000003C
:109CB0004941434356494F4C20000000444143432F
:109CC00056494F4C200000004D554E53544B4552C1
:109CD000522000004D53544B4552522000000000CA
:109CE0005343422D3E4D4D41523A253038580A00DB
:109CF0000A0000002DE9F04781460026002799F868
:109D0000000028B90021084600F0A8F8BDE8F08757
:109D10001B48046827E006221AA12068FEF7C8FA4B
:109D200000B11FE0206800F106084846FEF7B0FACF
:109D30008246524641464846FEF7BAFA88B926B9E5
:109D400047463846FEF7A4FA06464146384601F033
:109D50004CFB0546B54200DA2E4641460BA000F00A
:109D600019FC00BF08340A4800688442D3D327B1E5
:109D700032463946484600F012FE00BFC6E70000F2
:109D8000100000205F5F636D645F000025730A00B0
:109D90001400002038B504460D4601E0641C6D1E19
:109DA00020782028FAD020780928F7D00DB9002093
:109DB00038BD6A4629462046FEF794FF08B9009848
:109DC000F6E7204600E0401C0178202902D0017807
:109DD0000029F8D100210170214603A000F0DAFB30
:109DE0004FF0FF30E4E7000025733A20636F6D6D9C
:109DF000616E64206E6F7420666F756E642E0A004B
:109E00002DE9F04106460D4600271048046815E08C
:109E100006220FA12068FEF74BFA00B10DE0216881
:109E2000881D2A463146FEF743FA28B9A81D216845
:109E3000085C08B9676805E000BF08340648006898
:109E40008442E5D300BF3846BDE8F0811000002011
:109E50005F5F636D645F00001400002070B505460D
:109E60000E460EA000F096FB134804680DE0062293
:109E700012A12068FEF71CFA00B105E02068811DE0
:109E800010A000F087FB00BF08340F480068844230
:109E9000EDD30EA000F07EFB002070BD52542D5477
:109EA0006872656164207368656C6C20636F6D6DAA
:109EB000616E64733A0A0000100000205F5F636DFA
:109EC000645F000025732000140000200A000000D9
:109ED000012070472DE9F04782460E4690465446D1
:109EE0000025002755E003E000202070641C6D1C55
:109EF0002078202802D02078092801D1B542F3D358
:109F0000082F12D326A000F045FB4FF0000906E011
:109F100058F829102AA000F03DFB09F10109B945C4
:109F2000F6D326A000F036FB35E0B54200D332E090
:109F3000207822281CD1641C6D1C48F827407F1C07
:109F400009E020785C2804D16078222801D1641CC3
:109F50006D1C641C6D1C2078222801D0B542F0D302
:109F6000B54200D317E000202070641C6D1C10E087
:109F700048F827407F1C01E0641C6D1C20782028D5
:109F800004D02078092801D0B542F5D3B54200D3DA
:109F900001E0B542A7D300BF3846BDE8F087000016
:109FA000546F6F206D616E7920617267732021207C
:109FB0005765206F6E6C79205573653A0A00000072
:109FC0002573200010B5044602E004A000F0E2FA78
:109FD000201EA4F10104F8D110BD00002D000000E6
:109FE0002DE9F04F86B00D469C46DDE910640196E0
:109FF0000F9B04F04008B8F1000F02D0DFF8708129
:10A0000001E0DFF87081CDF8008004F01008B8F1AD
:10A01000000F01D024F0010404F00108B8F1000F92
:10A0200002D04FF0300801E04FF02008C246002770
:10A0300004F00208B8F1000F11D0002A02DA2D272F
:10A0400052420CE004F00408B8F1000F01D02B27B5
:10A0500005E004F00808B8F1000F00D02027002127
:10A0600042B94FF0300B8846491C0DF1080909F838
:10A0700008B01DE01AE0E146B9F10A0F08D14FF02F
:10A080000A0BB2FBFBFE0BFB1E28B2FBFBF202E04D
:10A0900002F00F08120900BFDDF8009019F808B0AF
:10A0A0008846491C0DF1080909F808B0002AE2D1D8
:10A0B000B14200DD0E469B1B04F01108B8F1000F01
:10A0C00010D117B1002B00DD5B1E06E0A84203D2C1
:10A0D0004FF0200880F80080401CB3F10008A3F185
:10A0E0000103F3DC27B1A84200D207705B1E401CBD
:10A0F00004F01008B8F1000F0AD104E0A84201D220
:10A1000080F800A0401CB3F10008A3F10103F5DCC6
:10A1100006E0A84203D24FF0300880F80080401CCF
:10A12000B046761E8845F4DC08E0A84205D20DF161
:10A13000080818F8018080F80080401CB1F1000880
:10A14000A1F1010104DDDDF80480B8F1000FECD1CC
:10A1500006E0A84203D24FF0200880F80080401C9F
:10A16000B3F10008A3F10103F3DC06B0BDE8F08F02
:10A1700006B70008F5B600081FB50A4C02221423E2
:10A18000D101A4F580708DE80F000023064A07A1D5
:10A19000204600F0F9FC04B02046BDE8104000F075
:10A1A0005DBD000018070020FD9B00086D61696E11
:10A1B0000000000070B5044C044D02E020688047A8
:10A1C000241DAC42FAD370BD60B7000868B7000820
:10A1D00070B5044C044D02E020688047241DAC4259
:10A1E000FAD370BD68B7000870B7000810B5FDF766
:10A1F00099FF044604480088401C00B202490880C8
:10A200002046FDF793FF10BD8000002010B5FDF73C
:10A2100089FF04460C480088401E00B20A490880A5
:10A220000846B0F9000000280ADC0020088020461B
:10A23000FDF77CFF0548006828B100F0A7FA02E0AE
:10A240002046FDF773FF10BD800000208400002031
:10A2500010B5FEF769FB064800684FF47A71B0FB51
:10A26000F1F42046FEF7E6FCFFF7A4FF10BD000066
:10A270000C00002010B54FF0FF340848006800685B
:10A28000C0F3401020B1054800684068C4B202E045
:10A290000A2000F093FCE0B210BD00004809002045
:10A2A000F8B50546002400260D20009000BF0020D0
:10A2B0000E4981F8380000BF284600F067FB0646CB
:10A2C00000BF0FE0285D0A2805D101231A46694620
:10A2D0000648FEF789FA291901231A460348FEF7B2
:10A2E00083FA641CB442EDD3F8BD00004809002095
:10A2F00070B505462C1D3048006838B128462E49F7
:10A3000009688847064606B970BD00BF2BA0E16BFF
:10A3100000F040F92DA0216A00F03CF92FA0616AFD
:10A3200000F038F931A0A16A00F034F933A0E16AF5
:10A3300000F030F935A0216800F02CF937A06168F1
:10A3400000F028F939A0A16800F024F93BA0E168E9
:10A3500000F020F93DA0216900F01CF93FA06169DF
:10A3600000F018F941A0A16900F014F943A0E169D7
:10A3700000F010F945A0216B00F00CF947A0616BCB
:10A3800000F008F949A0A16B00F004F9287800F06A
:10A39000040048B100F03AFC0646314647A000F000
:10A3A000F9F8FFF771FA02E04CA000F0F3F8FFF7BC
:10A3B0004BF800BFFEE70000340000207073723AD3
:10A3C000203078253038780A000000007230303AAA
:10A3D000203078253038780A000000007230313A99
:10A3E000203078253038780A000000007230323A88
:10A3F000203078253038780A000000007230333A77
:10A40000203078253038780A000000007230343A65
:10A41000203078253038780A000000007230353A54
:10A42000203078253038780A000000007230363A43
:10A43000203078253038780A000000007230373A32
:10A44000203078253038780A000000007230383A21
:10A45000203078253038780A000000007230393A10
:10A46000203078253038780A000000007231303A08
:10A47000203078253038780A000000007231313AF7
:10A48000203078253038780A000000007231323AE6
:10A49000203078253038780A00000000206C723AAD
:10A4A000203078253038780A000000002070633AA8
:10A4B000203078253038780A000000006861726426
:10A4C000206661756C74206F6E20746872656164BB
:10A4D0003A2025730D0A0D0A0000000068617264BD
:10A4E000206661756C74206F6E2068616E646C65A7
:10A4F000720D0A0D0A000000F0B504460D4616461E
:10A50000301D20F0070040380146002203E00C4FC8
:10A5100041F82270521C102AF9D30D624FF0000C42
:10A52000C1F824C0C1F828C0C1F82CC0C1F830C09F
:10A530004B638C634FF0807CC1F83CC0F0BD0000E1
:10A54000EFBEADDE10B5FDF7EDFD04460448007822
:10A55000401C034908702046FDF7E8FD10BD0000CF
:10A560003C00002010B5FDF7DDFD044604480078EE
:10A57000401E034908702046FDF7D8FD10BD0000BD
:10A580003C00002010B5044604F1140000F01AF855
:10A59000002010BD0FB438B505A800907F210848F1
:10A5A000009B049A00F024FD04467F2C00D97F24F0
:10A5B0000348FFF775FE0020009038BC5DF814FBDF
:10A5C000880800204060006070474060006070476D
:10A5D0004060006070470268516002680A60016074
:10A5E000486070470268516002680A600160486014
:10A5F000704701460868884201D101207047002059
:10A60000FCE701460868884201D10120704700201C
:10A61000FCE7014600200A4601E01268401C13686E
:10A620008B42FAD17047D0E900215160D0E9001285
:10A63000116040600060704770B50C4601462346CB
:10A640008B4210D29D188D420DD91144134405E060
:10A650005D1E2B462E784D1E29462E70151EA2F12A
:10A660000102F5D108E003E013F8015B01F8015B9A
:10A67000151EA2F10102F7D170BDF0B50C460546DA
:10A68000E6B2042A15D300F0030797B9014646EA5B
:10A69000062343EA034304E008C108C108C108C116
:10A6A000103A102AF8D201E008C1121F042AFBD286
:10A6B0000D4601E005F8016B171EA2F10102F9D168
:10A6C000F0BD70B5044600202072FDF72BFD054655
:10A6D00004F10C00D0E900215160D0E900121160B2
:10A6E0004060006000BF2846FDF720FD70BD0000FF
:10A6F000024600210AE0074800EB01100078904272
:10A7000003D1044800EB01107047491C0429F2DB17
:10A710000020F9E7400000202DE9F04704460D46EF
:10A72000904600262846FFF7E3FF0746FFF75EFD49
:10A730007E6802E0A6F10C003668381D8642F9D129
:10A74000FFF764FD45F08000207208224146204654
:10A7500000F025F9FDF7E6FC8146381D04F10C01F7
:10A760000268516002680A600160486000BF4846A4
:10A77000FDF7DCFCBDE8F0870146087A00F08000B8
:10A7800008B1012070470020FCE700002DE9F041EE
:10A79000FDF7C8FC07461848008838BB1748006812
:10A7A000FEF760FA461E164850F83600A0F1140471
:10A7B00014480068844218D013490E701148056887
:10A7C00004601248007850B904F11C0105F11C0026
:10A7D000FDF7AFFC3846FDF7A9FCBDE8F08104F1B8
:10A7E0001C0105F11C00FDF7A4FC00BF3846FDF775
:10A7F0009DFC00BFF1E70000800000208C000020DD
:10A800000809002084000020880000203C0000206F
:10A8100070B50446FDF786FC054614F8340F20F0A9
:10A820000F0040F0010020706278343C0A4B03EBCB
:10A83000C20004F114014268116042684A6041603C
:10A84000086000BF0549A06B096808430349086018
:10A850002846FDF76BFC70BD080900208C00002025
:10A8600070B50446FDF75EFC054604F11400D0E91E
:10A8700000215160D0E9001211604060006000BF0B
:10A8800094F83510094A02EBC1000168814201D1F8
:10A89000012100E0002129B10548A16B006888432F
:10A8A000034908602846FDF741FC70BD08090020F7
:10A8B0008C0000202DE9F04104460D4616461F4647
:10A8C0002A4602212046FFF727FF2046FFF75AFEBF
:10A8D000A68367720020BDE8F081000008B509A0DA
:10A8E000FFF758FE0AA0FFF755FE12A0032301222E
:10A8F0001946009012A0FFF74DFE19A0FFF74AFE7F
:10A9000008BD00000A205C207C202F0A0000000007
:10A910002D205254202D2020202020546872656163
:10A9200064204F7065726174696E67205379737427
:10A93000656D0A00446563203239203230313900B8
:10A94000202F207C205C202020202025642E2564C0
:10A950002E2564206275696C642025730A0000004E
:10A960002032303036202D203230313920436F7084
:10A970007972696768742062792072742D746872C4
:10A98000656164207465616D0A00000001460A4635
:10A9900000E0521C10780028FBD1501A704770B5A7
:10A9A0000346A2B118460C4600BF14F8016B00F82C
:10A9B000016B3EB902E0002500F8015B551E2A1E1E
:10A9C000F9D102E0551E2A1EEFD100BF00BF184684
:10A9D00070BD000010B500200B490880002405E080
:10A9E0000A4901EBC400FFF7F0FD641C082CF7DBFB
:10A9F00007200749087000200649086006490860DA
:10AA00000648FFF7E2FD10BD800000200809002085
:10AA100088000020840000208C000020900000208E
:10AA200070B508480068FEF71DF9451E064850F845
:10AA30003500A0F114040548046004F11C00FDF782
:10AA4000A6FB70BD8C0000200809002084000020B7
:10AA500010B5002405E0044901EBC400FFF7B8FD80
:10AA6000641C002CF7D010BD980000207047000037
:10AA700070B512480468FDF755FB05462046FFF700
:10AA8000EFFE042084F8340004F1440000F0F4F9EF
:10AA90002046FFF771FE012805D1206F18B9204626
:10AAA000FFF70FFE04E004F114010548FFF793FDE2
:10AAB0002846FDF73BFBFFF769FE70BD84000020D0
:10AAC0009000002001E000F001F8FCE770B534E0F0
:10AAD000FDF728FB0546FEF7FBF830B31A4800687F
:10AAE000A0F1140404F11400D0E900215160D0E970
:10AAF000001211604060006000BFFFF777FB206F1D
:10AB000010B12046216F88472046FFF735FE012807
:10AB100008D12046FFF7D5FDFFF778FB2846FDF763
:10AB200005FB70BDFFF772FB03E02846FDF7FEFA58
:10AB3000F7E72846FDF7FAFA00BFFEF7C9F8002844
:10AB4000C6D100BFEDE70000900000201FB5202017
:10AB500007218022074BCDE90032CDE90210002306
:10AB6000054A06A1074800F00FF8064800F076F8FD
:10AB70001FBD000008080020C5AA00087469646CA5
:10AB800065000000900700202DE9FF5F05460C4698
:10AB900016461F46DDE910ABDDE90E89224601218C
:10ABA0002846FFF7B9FD3B463246214628468DE848
:10ABB000000FFEF7CDF804B0BDE8F09F70B5044675
:10ABC000204600F0C5F80546284600F025F870BD7F
:10ABD00070B5044694F8340000F00F00022802D04B
:10ABE0004FF0FF3070BDFDF79DFA054604F11400EB
:10ABF000FFF719FD04F1440000F0E2F92846FDF7E3
:10AC000095FA2046FFF704FE0020EBE701480068B4
:10AC1000704700008400002031B5FDF783FA054637
:10AC20000D480468204600F02FF86A46002104F120
:10AC3000440000F005F904F1440000F045F928460D
:10AC4000FDF774FAFFF7A2FD206B801C08B9002005
:10AC50002063002038BD00008400002010B50446A9
:10AC60003434A078607061780120884060600220F0
:10AC700004F834092046FFF7ABFFFFF7C7FF08B120
:10AC8000FFF784FD002010BD70B5044694F8340031
:10AC900000F00F00012802D04FF0FF3070BDFDF72B
:10ACA00041FA054694F8340020F00F0040F002000D
:10ACB00084F834002046FFF7D3FD04F1440000F08F
:10ACC0007FF92846FDF732FA0020E7E770B5044621
:10ACD00025466FF00100286305F11400FFF7A3FC7F
:10ACE0002846FFF795FDFFF751FD70BD70B5FDF7E4
:10ACF00019FA05461448046894F8340000F00F006F
:10AD000001281CD1D4E90510814218D004F11400A7
:10AD1000FFF789FC94F835200C4B03EBC20004F1DB
:10AD200014014268116042684A604160086000BFD7
:10AD30002846FDF7FBF9FFF729FD002070BD2846E6
:10AD4000FDF7F4F90020F9E784000020080900204D
:10AD50000146002902DA4FF0FF3014E04FF47A7216
:10AD600091FBF2F24FF47A7302FB03F01A4691FB67
:10AD7000F2F302FB13124FF47A735A4302F2E732F2
:10AD800092FBF3F2104470470148006870470000DE
:10AD90003800002010B50A480068401C08490860C7
:10ADA000FFF734FF0446206C401E2064206C18B965
:10ADB000E06B2064FFF79AFF00F004F810BD00007C
:10ADC0003800002070B5FFF7DFFF0546FDF7AAF950
:10ADD000064628E019480068A0F11404A06A281A61
:10ADE0006FF0004188421DD22046FEF714F8D4E9E6
:10ADF00007108847FFF7C8FF0546607A00F0020099
:10AE000058B1607A00F0010038B1607A20F001009A
:10AE10006072204600F058F805E0607A20F00100EA
:10AE2000607200E004E00548FFF7EBFB0028D1D09A
:10AE300000BF3046FDF77AF970BD00009800002091
:10AE4000034649B1012904D0022908D0032910D1B1
:10AE50000AE0586A10600CE01068586209E0587AFD
:10AE600020F00200587204E0587A40F00200587254
:10AE700000BF00BF0020704770B50446FDF752F9CF
:10AE800005462046FDF7C7FF2846FDF74FF9204647
:10AE9000FFF717FC002070BD2DE9F84307460C466C
:10AEA00015461E46DDE9088922460A213846FFF785
:10AEB00033FC4346324629463846CDF80090FDF72C
:10AEC00089FFBDE8F88300002DE9F8430546FDF74A
:10AED00029F980462846FDF79EFF687A20F0010098
:10AEE00068724046FDF722F9FFF74EFF696A084491
:10AEF000A862FDF717F980462F4F009700242AE03B
:10AF000019E05DF824201168142202EBC402881AAB
:10AF1000826AAB6AD21A00D108E0826AAB6AD21A9E
:10AF20006FF000439A4200D20CE000BF5DF82400AD
:10AF300000684DF824005DF8240007EBC40149685F
:10AF40008842DED100BF2CB15DF824000830611CBE
:10AF50004DF82100641C002CD2D018480068401C19
:10AF6000164908600846066805F114010098FFF7C5
:10AF700039FB022412E006F0030060B9C4F10103BA
:10AF800005F1140202EBC301C4F101025DF82200D5
:10AF9000FFF728FB00E003E0B608641C012CEAD9A7
:10AFA00000BF687A40F0010068724046FDF7BEF8C5
:10AFB0000020BDE8F883000098000020A0000020D9
:10AFC00070B50446607A00F0010010B94FF0FF3010
:10AFD00070BDFDF7A7F805462046FDF71CFF284683
:10AFE000FDF7A4F8607A20F0010060720020EFE71E
:10AFF0002DE9FF4F89B0804644460A9808EB0006C9
:10B00000464504D24FF0FF36A6EB08000A906FE1E8
:10B010000B980078252806D0B44202D20B9800780D
:10B020002070641C61E1002526E00B98401C0B9009
:10B030000B9800782D2802D145F010051CE00B98E4
:10B0400000782B2802D145F0040515E00B98007814
:10B05000202802D145F008050EE00B98007823283F
:10B0600002D145F0200507E00B980078302802D186
:10B0700045F0010500E000E0D7E700BF4FF0FF37E3
:10B080000B98007830380A2804D20BA800F09AF9FF
:10B0900007460EE00B9800782A280AD10B98401C2E
:10B0A0000B900C9880C80C90002F02DA7F4245F07C
:10B0B00010054FF0FF390B9800782E281CD10B9803
:10B0C000401C0B900B98007830380A2804D20BA84B
:10B0D00000F078F981460AE00B9800782A2806D11A
:10B0E0000B98401C0B900C9850F8049B0C90B9F1F5
:10B0F000000F01DA4FF00009002004900B9800784F
:10B10000682803D00B9800786C2805D10B9800783C
:10B1100004900B98401C0B900A2005900B98007827
:10B120006F2875D00CDC632813D004DC252870D080
:10B1300058286FD18DE064286DD06928F9D18FE04F
:10B1400070286AD0732825D0752878D07828F0D157
:10B1500082E005F0100040B904E0B44201D22020A2
:10B160002070641C781E071EF7DC0C9810F8041B76
:10B170000C90C8B20790B44201D207982070641CAA
:10B1800004E0B44201D220202070641C781E071E07
:10B19000F7DCAAE00C98006806900C98001D0C9053
:10B1A000069808B95CA006900698FFF7EFFB834667
:10B1B000B9F1000F02DDCB4500DDCB4605F01000F4
:10B1C00048B904E0B44201D220202070641C384603
:10B1D0007F1E5845F6DC002008900BE0B44202D2F6
:10B1E000069800782070641C0698401C0690089809
:10B1F000401C089008985845F0DB04E0B44201D2A6
:10B2000020202070641C38467F1E5845F6DC6CE018
:10B210001CE015E028E022E0FFE7781C10B90827C1
:10B2200045F00105CDE9007902950C9804C810237A
:10B2300031460C902046FEF7D3FE044655E012E05E
:10B24000B44201D225202070641C4EE008200590F5
:10B250001DE045F0400500BF1020059017E000BF3D
:10B2600045F0020500BF12E0B44201D22520207053
:10B27000641C0B98007830B1B44202D20B9800786D
:10B280002070641C02E00B98401E0B902DE000BF64
:10B2900004986C2807D10C9850F804AB0C9005F07A
:10B2A0000200B8B116E0049868280BD10C9830F869
:10B2B000041B1FFA81FA0C9005F0020050B10FFA3E
:10B2C0008AFA07E00C9850F804AB0C9005F00200E5
:10B2D00000B100BFCDE900790295524631462046C3
:10B2E000059BFEF77DFE044600BF0B98401C0B90AB
:10B2F0000B98007800287FF48BAE0A9838B1B442DE
:10B3000002D20020207002E0002006F8010CA4EB1D
:10B3100008000DB0BDE8F08F284E554C4C290000B8
:10B3200000207047002070470020704700207047C1
:10B3300010B5FCF7F7FEFEF78BFFFFF7CFFAFFF72C
:10B3400087FBFFF747FBFEF717FFFFF78FFBFFF7C2
:10B35000FDFBFFF765FB002010BD000070B5044643
:10B3600009A0FFF717F9FEF7B3FD012802D1204627
:10B37000FEF7C0FCFDF7ECFD05462246294603A07A
:10B38000FFF708F970BD00000A000000257325735F
:10B390000000000070B5044625680CE0A5F1140615
:10B3A000314606A0FFF7F6F82868A04202D004A0B4
:10B3B000FFF7F0F82D68A542F0D170BD25730000AD
:10B3C0002F0000000146002009E00B685A1C0A60AB
:10B3D0001A7800EB800302EB4302A2F130000A6806
:10B3E0001278303A0A2AF0D3704710B503461A464D
:10B3F00001E0521C491C107828B1087818B1107867
:10B400000C78A042F5D0D01A10BD000010B50B4842
:10B410000B4908604FF4E130486000210848816022
:10B42000C16001610C21416100218161C161FDF7B1
:10B4300029F908B100BFFEE7002010BD0038014027
:10B440004809002010B51EA0FFF7A4F82048018885
:10B4500020A0FFF79FF81E48008800F0010010B1FF
:10B4600022A0FFF797F81A48008800F0020010B1F8
:10B4700021A0FFF78FF81648008800F0040010B1F3
:10B4800020A0FFF787F81248008800F0080010B1EC
:10B490001EA0FFF77FF80E48008800F4807010B1FE
:10B4A0001CA0FFF777F80A48008800F4007010B17C
:10B4B0001BA0FFF76FF805A0FFF76CF810BD0000A8
:10B4C0007573616765206661756C743A0A000000E7
:10B4D0002AED00E05343425F434653525F554653C3
:10B4E000523A30782530325820000000554E4445FD
:10B4F00046494E5354522000494E565354415445E8
:10B5000020000000494E5650432000004E4F43504B
:10B5100020000000554E414C49474E454420000054
:10B5200044495642595A45524F20000010B5FFF782
:10B53000D5F9002010BD000000000000000001024D
:10B5400003040607080900000000010203046865FF
:10B550006C6C6F0076657273696F6E005F5F636D10
:10B56000645F76657273696F6E006C6973745F7483
:10B570006872656164005F5F636D645F6C697374BA
:10B580005F746872656164006C6973745F73656D84
:10B59000005F5F636D645F6C6973745F73656D00FA
:10B5A0006C6973745F6D61696C626F78005F5F6373
:10B5B0006D645F6C6973745F6D61696C626F780054
:10B5C0006C6973745F74696D6572005F5F636D644D
:10B5D0005F6C6973745F74696D6572006C69737414
:10B5E000005F5F636D645F68656C70005F5F636DD3
:10B5F000645F70730000000100020001000300019D
:10B60000000200010004000100020001000300012B
:10B61000000200010005000100020001000300011A
:10B62000000200010004000100020001000300010B
:10B6300000020001000600010002000100030001F9
:10B6400000020001000400010002000100030001EB
:10B6500000020001000500010002000100030001DA
:10B6600000020001000400010002000100030001CB
:10B6700000020001000700010002000100030001B8
:10B6800000020001000400010002000100030001AB
:10B69000000200010005000100020001000300019A
:10B6A000000200010004000100020001000300018B
:10B6B0000002000100060001000200010003000179
:10B6C000000200010004000100020001000300016B
:10B6D000000200010005000100020001000300015A
:10B6E000000200010004000100020001000300014B
:10B6F00000020001003031323334353637383961D9
:10B700006263646566003031323334353637383938
:10B710004142434445460000252D2A2E7320707275
:10B720006920207374617475732020202020207399
:10B73000702020202020737461636B2073697A6508
:10B74000206D61782075736564206C656674207463
:10B7500069636B20206572726F720A002DB3000856
:10B7600025B300080DB4000821B30008FD8F0008C0
:10B7700029B300084EB50008C994000854B5000864
:10B780002DB500085CB500082DB500086AB50008A5
:10B790008998000876B500088998000888B50008DF
:10B7A0005197000891B5000851970008A0B500080E
:10B7B000F5950008ADB50008F5950008C0B500087E
:10B7C0006D9A0008CBB500086D9A0008DCB500083A
:10B7D000E9940008E1B500085D9E0008ECB500089A
:10B7E000418F000804B8000800000020A4000000F9
:10B7F000B08C0008A8B80008A4000020E40C0000E9
:10B80000C08C0008000000001000000001000000D3
:10B8100000127A000000000000000000000000009C
:10B820000000000000000000000000000000000018
:10B830000000000000000000000000000000000008
:10B84000000000000100000044000020440000202F
:10B850007800000002000000540000205400002086
:10B8600020000000050000006400002064000020AB
:10B87000300000000A000000740000207400002066
:10B880002C0000000000000000000000000000008C
:10B8900000000000000000000000000000000000A8
:08B8A0000000000000000000A0
:04000005080080ED82
:00000001FF
