:020000040800F2
:1000000050270020450100084D0100080F0200089C
:1000100051010008530100085501000800000000CC
:100020000000000000000000000000005701000870
:100030005901000800000000970100088D0C00081D
:100040005F0100085F0100085F0100085F01000810
:100050005F0100085F0100085F0100085F01000800
:100060005F0100085F0100085F0100085F010008F0
:100070005F0100085F0100085F0100085F010008E0
:100080005F0100085F0100085F0100085F010008D0
:100090005F0100085F0100085F0100085F010008C0
:1000A0005F0100085F0100085F0100085F010008B0
:1000B0005F0100085F0100085F0100085F010008A0
:1000C0005F0100085F0100085F0100085F01000890
:1000D0005F010008310F00085F0100085F010008A0
:1000E0005F0100085F0100085F0100085F01000870
:1000F0005F0100085F0100085F0100085F01000860
:100100005F0100085F0100085F0100085F0100084F
:100110005F0100085F0100085F0100085F0100083F
:100120005F0100085F0100085F0100085F0100082F
:10013000DFF80CD000F0A2F800480047A102000848
:10014000502700200648804706480047FEE7FEE7A4
:10015000FEE7FEE7FEE7FEE7FEE7FEE7FEE7FEE777
:10016000090D000831010008EFF3108072B67047E6
:1001700080F310887047334A1368012B04D04FF086
:1001800001031360304A1060304A116030484FF06C
:10019000805101607047EFF3108272B62948016800
:1001A00091B14FF0000101602748016829B1EFF3D8
:1001B000098121E9F00F0068016024490968096894
:1001C000B1E8F00F81F3098882F310884EF0040E35
:1001D00070471E4908601C494FF00000086019492B
:1001E0004FF0010008601B484FF47F01D0F8002059
:1001F00041EA0201016016484FF080510160164843
:100200000068006880F3088861B662B670471EF027
:10021000040F0CBFEFF30880EFF3098020E9F00F23
:1002200040F804ED1EF0040F0CBF80F3088880F343
:10023000098800B501F088F95DF804EB4EF0040E72
:1002400070470000380000203000002034000020FB
:1002500004ED00E020ED00E008ED00E0202A04DBE2
:10026000203A21FA02F00021704721FA02F3D0402F
:10027000C2F120029140084319467047064C074DD1
:1002800006E0E06840F0010394E807009847103466
:10029000AC42F6D3FFF750FF1C2200083C220008B6
:1002A00010B501F000FF002010BD0000064900203D
:1002B000C8610648016941F004010161016941F02A
:1002C00040010161704700005809002000200240F1
:1002D000064A0021D16106490A6942F002020A6118
:1002E0004861086940F040000861704758090020E3
:1002F00000200240044B0022DA61044A136943F0F3
:10030000010313610180704758090020002002405A
:1003100014480022C168CB06134904D5CA6942F0CB
:100320000202CA611022C3685B0705D5CB6943F09E
:100330000103CB6142F00402C369DB0707D0CB693C
:1003400043F00403CB61C16921F00101C161A2F551
:100350008071013901D0C2607047C16921F001018B
:10036000C1617047002002405809002070B5054661
:1003700000F072FA0646114C09E0681C07D025B15E
:1003800000F06AFA801BA84201D9032070BDE06822
:10039000C007F2D1E068800601D52020E060E06867
:1003A000C00605D4E069C00702D1E068400703D564
:1003B000FFF7AEFF012070BD002070BD002002409D
:1003C0002DE9F05F90F821100024022903D00421C8
:1003D0008163012485E001680A6822F00E020A6048
:1003E00001680A6822F001020A603F4E3E4FB215D2
:1003F000DFF8F4C0DFF8F090DFF8ECA0DFF8E8B049
:10040000DFF8E4E00168783F13011502ACF1640CF9
:10041000A9F15009AAF13C0AABF1280BAEF1140E78
:100420004FF48018B14227D9B9420ED0614512D09D
:1004300049451DD0514518D0594518D0714501D1B5
:10044000424615E0294EB14201D1012210E0274E6B
:100450001436B14201D110220AE0244E2836B142AE
:1004600006D0224A3C32914201D11A4600E02A4687
:100470001E49091F0A602BE0B94213D0614517D00D
:10048000494522D051451DD059451DD0714501D156
:1004900042461AE0B14202D14FF0807215E0134E8D
:1004A000B14201D1012210E0104E1436B14201D107
:1004B00010220AE00D4E2836B14206D00B4A3C32DB
:1004C000914201D11A4600E02A46074980394A6024
:1004D000012180F82110002180F82010416B01B12A
:1004E00088472046BDE8F09F800002400804024093
:1004F0002DE9F047054626480F460126017E0129D1
:100500000FD00121814601762868DFF888804CF2FF
:100510005034022808D0A2462046FFF727FFA8B192
:1005200031E00220BDE8F0872046FFF71FFF08BB3F
:100530000120FFF7BBFE2046FFF718FFD8F8101088
:10054000064621F00401C8F810101CE04FF0FF30FF
:100550003860AC6811E02046FFF7BAFE5046FFF75E
:1005600005FFD8F81010060021F00201C8F810109D
:1005700001D03C6007E004F50064D5E9020100EB1E
:10058000C120A042E7D8002189F818103046C9E7F9
:1005900058090020002002400348016941F0800111
:1005A0000161002070470000002002402DE9F05F4B
:1005B00007461C4888460024017E15461E46012930
:1005C00009D00121814601764CF2503A5046FFF79E
:1005D000CDFE18B122E00220BDE8F09F012F02D02D
:1005E000022F00D00427D346DFF83CA02201284682
:1005F0003146FFF733FE81B208EB4400FFF77AFE85
:100600005846FFF7B3FEDAF8102022F00102CAF8CC
:10061000102018B9641CE4B2BC42E7D3002289F868
:100620001820D9E758090020002002400649002080
:100630000A69120607D5054A4A60054A4A600969EF
:10064000090600D5012070470020024023016745BC
:10065000AB89EFCD2DE9F84FDFF8C891002409F1FF
:10066000040A0AF1040B23460F270BF1040ED1E014
:100670000125A54006EA0502AA4276D1DFF8A8C105
:100680004E68A6EB0C0866452BD00DDC032E34D04B
:1006900005DC36B3012E19D0022E2FD11BE0112E0E
:1006A00016D0122E2AD119E0B8F5881F19D006DC11
:1006B000B8F5803F15D0B8F5801F1FD111E0B8F50F
:1006C000001F0ED0B8F5041F18D10AE0CB6815E062
:1006D000CB681B1D12E0CB6808330FE0CB680C33EE
:1006E0000CE08B682BB1012B4FF0080303D0456160
:1006F00004E0042302E0056100E00023FF2A01D8A2
:10070000064601E000F104064FEA840501D9A5F18F
:100710002005D6F8008007FA05FC28EA0C0803FA41
:1007200005F548EA0508C6F800804D68ED0070D56B
:100730003E4DAE6946F00106AE61AD6924F0030698
:1007400005F0010500953A4D06EB050CDCF8085064
:10075000A607360F07FA06F825EA0805DFF8D48061
:10076000404503D14FF0000825E052E0DFF8C88093
:10077000404502D14FF001081DE0DFF8C080404540
:1007800002D14FF0020816E0DFF8B480404502D1F4
:100790004FF003080FE0DFF8AC80404502D14FF086
:1007A000040808E0DFF8A080404502D14FF00508BA
:1007B00001E04FF0060808FA06F848EA0508CCF808
:1007C00008804D68D9F80060ED034D4601D5164309
:1007D00000E096432E604D68DAF80060AD035546A0
:1007E00001D5164300E096432E604D68DBF80060AB
:1007F000ED025D4601D5164300E096432E604D683C
:10080000DEF80060AD02754601D5164300E0964360
:100810002E60641C0A681646E2407FF429AFBDE8EA
:10082000F88F000000040140000011100010024089
:100830000000014000080140000C01400010014090
:100840000014014000180140001C01400AB1016180
:1008500070470904FBE7000001488068704700000A
:1008600020000020002809DB00F01F020121914038
:100870004009800000F1E020C0F80011704700003E
:10088000F0B40E4B1B680C46C3F30223C3F10705FB
:10089000042D00D90425191D072901D2002300E0E9
:1008A000DB1E012606FA05F1491E214099409E40B3
:1008B000761E16403143F0BC00F04ABB0CED00E060
:1008C0000448054900684968044AC1F30221515CA3
:1008D000C84070471C00002000100240E0200008C3
:1008E0000448054900684968044AC1F3C221515CC3
:1008F000C84070471C00002000100240E0200008A3
:100900007047000070B5026804461068D1685369EA
:1009100010F00F0F50D003F0010501F4907635432D
:100920005DD0C20705D0CA0503D5E26B42F00102D3
:10093000E263420705D5DA0703D0E26B42F0020218
:10094000E263820705D5DA0703D0E26B42F00402C6
:10095000E263020705D5DA0703D0E26B42F0080232
:10096000E263E26B002A33D0800604D5880602D504
:10097000204600F003FA20684069E16BC0F3801064
:10098000090700D428B3204600F0EAF9206841693D
:1009900049061AD5416921F040014161606BA0B15F
:1009A0001B494163606BFFF70BFD002810D0606BA3
:1009B000416BBDE870400847830610D58B060ED505
:1009C0002046BDE8704000F0D9B92046FFF798FFF7
:1009D00070BD2046FFF794FF0020E06370BD030662
:1009E00006D50B0604D52046BDE8704000F06EBA6F
:1009F0004006F3D54806F1D5D168204621F04001E4
:100A0000D160202184F8391000F0BAF870BD0000E0
:100A1000510D000870B5040004D094F83900002589
:100A200010B106E0012070BD84F83850204600F077
:100A300023F8242084F839002068C16821F400518B
:100A4000C160204600F0E6F92068016921F4904178
:100A500001612068416921F02A0141612068C16873
:100A600041F40051C160E563202084F8390084F826
:100A70003A00002070BD000010B500681E4986B025
:100A8000884236D11D48816941F004018161816944
:100A900001F004010491816941F48041816181691F
:100AA00001F480410491816941F001018161806913
:100AB000134C00F0010004904FF4007000900220ED
:100AC0000190012002900320039069462046FFF721
:100AD000C1FD201500900020019069462046FFF7D7
:100AE000B9FD2520FFF7BEFE032211462520FFF7A2
:100AF000C7FE06B010BD00000038014000100240E3
:100B00000008014090F83A30202B22D1F9B1F2B11F
:100B100090F83830012B1CD081628285C28500217B
:100B2000C163222280F83A2080F838100168CA6830
:100B300042F48072CA6001684A6942F001024A6167
:100B40000068C16841F02001C160002070470120A9
:100B5000704702207047000000680649884207D1AC
:100B60000548064B0146027848681A54401C486004
:100B700070470000003801401400002004010020EC
:100B80007047000009484FF000610A4A01600913EC
:100B90004160074981604FF4C831C1600261416121
:100BA000054981614FF4C041C1617047BC0000201C
:100BB000008000080010020800A0030870B51F4C58
:100BC0001F4D4FF47A76207820B1012815D00228E5
:100BD00027D00BE001F076F92169401AB04226D304
:100BE00001F070F9206170BD012200E0002228466A
:100BF000BDE870400421FFF729BE01F063F92169C7
:100C0000401AB042ECD201F05DF92169401AB0F50A
:100C1000967FE9D201F056F92169401AC828E5D239
:100C200005E001F04FF92169401AC828D8D201F037
:100C300049F92169401A6428D8D3D5E7000000207B
:100C40000010014010B586B0002002900D48816967
:100C500041F01001816180690B4C00F0100004909C
:100C60000420009001200190022003906946204654
:100C7000FFF7F0FC002204212046FFF7E7FD06B055
:100C800010BD0000001002400010014010B500F03F
:100C900083FC01F01DF9BDE8104000F08BBC0000A2
:100CA000144910B54868144A10F00C03134803D0D7
:100CB000042B01D0082B09D002604968104AC1F307
:100CC0000311515C0268CA40026010BD4A684B685B
:100CD00002F470124FF0020413F4803F04EB9242CE
:100CE00002D04B689B0301D5064B00E0024B5A43F0
:100CF000E2E700000010024000127A001C00002011
:100D0000D020000800093D000D48016841F00101B4
:100D1000016041680B4A1140416001680A4A114074
:100D20000160016821F480210160416821F4FE0125
:100D300041604FF41F0181600449C003086070479F
:100D4000001002400000FFF8FFFFF6FE08ED00E093
:100D500010B5406A0021C185C184FFF7D1FD10BDE7
:100D60000168CA6822F49072CA6001684A6922F078
:100D700001024A61202180F83A10704710B590F8BE
:100D80003A10222901D0022010BD8168B1F5805FA0
:100D900011D00169002901681FD0496801F07F0363
:100DA000816A4A1C82620B70C18D491E0904090CBC
:100DB000C18518D02BE00269816A002A0268526856
:100DC00005D0D2B20A80816A491C8162ECE7C2F385
:100DD00008020A80816A891CF7E74A68816A4B1C0D
:100DE00083620A70E0E70168CA6822F02002CA60E4
:100DF0000168CA6822F48072CA6001684A6922F0F8
:100E000001024A61202180F83A10FFF7A5FE002078
:100E100010BD00002DE9F041044600680169E26858
:100E200021F44051114301612169A06808436169BF
:100E300008432168CA6841F20C639A430243CA60BE
:100E400020684169A26921F44071114341611E4942
:100E5000206864253226884202D1FFF741FD01E077
:100E6000FFF72EFD00EBC00101EB001160686FF091
:100E700018078000B1FBF0F2B2FBF5F2B1FBF0F322
:100E80007A4303EB8202B1FBF0F306EB0212B2FBF2
:100E9000F5F2B3FBF5F302F0F00202EB0312B1FB43
:100EA000F0F3B1FBF0F0B0FBF5F0784303EB80001A
:100EB00006EB0010B0FBF5F0216800F00F001044C5
:100EC0008860BDE8F08100000038014090F83910DA
:100ED000212901D0022070478168B1F5805F016A45
:100EE0000BD04A1C0262026809785160C18C491E0D
:100EF0000904090CC1840ED017E009880268C1F307
:100F00000801516001690029016A02D0491C01628F
:100F1000ECE7891CFBE70168CA6822F08002CA601E
:100F20000068C16841F04001C160002070470000C6
:100F300010B50548FFF7E6FCBDE810400122034963
:100F40000148FFF7DFBD0000180100201400002059
:100F50000907090E002804DB00F1E02080F80014E6
:100F6000704700F00F0000F1E02080F8141D70477A
:100F7000002806D00E4910F0FF0F03D0C0B2085C65
:100F8000401C704710F47F4F04D0C0F30720085C6A
:100F90000930704710F47F0F04D0C0F30740085C9D
:100FA0001130704701EB1060007819307047000075
:100FB000E820000802E008C8121F08C1002AFAD180
:100FC00070477047002001E001C1121F002AFBD1C9
:100FD0007047000003480168814201D0012070473A
:100FE00000207047A80000202DE9FC411F46044660
:100FF000DDE90831DDE90A65143040600060C4E9CC
:101000000827C4E90A310A46232118461C3400F097
:10101000AFFBD4E903014218D4E90101104B121FC0
:1010200000F09EFA44F81A0B002004F801690D4AFA
:1010300004F8036BE4E8020544F8105901C404F80D
:101040003C0B01C444F874090090234601901946F2
:1010500004F1440000F0AEFF0020BDE8FC81000078
:10106000C91B00080F1E000810B5029C24F00104E3
:101070004472C0E907120021C0E909311430406010
:10108000006010BDF0E905124A60D0E9001211605D
:101090004060006070470000084880680168084AA6
:1010A0001140B1F1005F07D14168064AD1609160FB
:1010B000006880F30888084770470000BC000020E3
:1010C0000000FE2F000000201B4F1A4C41F2883810
:1010D0000126A7F120052670404600F015FEA869FC
:1010E0002622154900F020F9387D012804D0FFF7A9
:1010F0003BF8FFF7D1FFEEE7267000F01FF868B16C
:10110000267055203875A86926220B4900F0CCF8C6
:10111000A8692622084900F0C7F8DCE70020207003
:1011200002203875A8692622034900F0BDF8FFF7B0
:10113000B3FFEDE700000020DC000020F0B585B033
:1011400000240494FFF772FA0094164CA0680290F1
:1011500015488068C10A0391400501D0481C0390DE
:1011600004A96846FFF7C4F92569A66800244FF46E
:1011700000670EE03A460D49284600F0D5F83A4699
:101180000A49304600F0DCF8641C05F5006506F5F8
:1011900000660398A042EDD8FFF7FEF905B00020E5
:1011A000F0BD0000BC000020DC0000205801002041
:1011B0007CB5FFF7E7FCFFF745FD4FF4E13000F0A9
:1011C00097F80A250620CDE900054FF48073002228
:1011D0000D490EA000F0D3FC0E4C606008B100F089
:1011E000DFFD0520CDE900054FF4007300220A4918
:1011F0000AA000F0C4FC6060002803D0BDE87C4079
:1012000000F0CEBD7CBD00002512000874685F6C44
:101210006564000000000020C910000874685F6960
:1012200061700000FFF7CAFC0A2000F06DFDF9E7CD
:10123000FFF7BEFF642000F067FDFBE710B500F08C
:10124000EDF8BDE81040FFF7F3BFA0F100621346D0
:10125000D20A5B055B0D00D0521C0144A1F1006174
:10126000C80A4905490D00D0401C801A401C80B2B4
:10127000704700B585B00022A0F100630092B3F57D
:10128000802F02D3012005B000BD01920390FFF72B
:10129000DCFF0490FFF7CAF9694601A8FFF728F9B7
:1012A000FFF77AF90098EEE72DE9F0410546A0F145
:1012B00000600C461646B0F5802F02D30120BDE831
:1012C000F08111462846FFF7D4FFFFF7AFF900275A
:1012D00008E00023294602202268FFF767F9241D51
:1012E0002D1D3F1DB742F4D3FFF756F90020E6E766
:1012F0000B4910B5094AC1E9002000208860C86088
:10130000086188610C2048610846FFF783FBBDE84F
:101310001040012203490248FFF7F4BB00380140A6
:10132000180100201400002010B5002305E000BFC4
:1013300010F8014BCC545B1C9BB29342F8D310BD08
:101340002DE9F0410546A0F1006016460C46B0F5C7
:10135000802F02D30120BDE8F081FFF767F9002755
:1013600008E00023294602202268FFF71FF9241D08
:101370002D1D3F1DB742F4D3FFF70EF90020EAE719
:1013800030B5134943680A68134402F108049842CF
:101390000DD05D885DB94D68AB4208D08D689D4227
:1013A00000D188605D6845605B68851A1D5183685F
:1013B000134483420BD05D88002D08D18D6885428F
:1013C00000D18B60416859604068991A015130BD65
:1013D000440000201CB502201421CDE90001C30106
:1013E0000022044904A000F0CAFBBDE81C4000F044
:1013F000D7BC00003D1200086D61696E000000005E
:1014000070B5044C044D02E020688047241DAC42B6
:10141000FAD370BD102200081422000870B5044CE5
:10142000044D02E020688047241DAC42FAD370BD11
:10143000142200081822000810B5FEF795FE044A91
:101440005188491C5180BDE81040FEF791BE000054
:101450009C00002010B5FEF787FE0B4C6188491EEA
:1014600009B2618000290ADC00216180FEF780FE5C
:101470006068002807D0BDE8104000F029BABDE838
:101480001040FEF775BE10BD9C00002070B500280E
:1014900025D0134D2968884221D3696888421ED21D
:1014A000A0F10C044FF0FF310E4800F0B6FA002016
:1014B00060804FF4F5502080A868844200D2AC6070
:1014C00029686068611A401A2969081A286120464B
:1014D000FFF756FFBDE87040024800F083BA70BDC8
:1014E00044000020F00A002000487047500B002004
:1014F000004870475023002010B5FFF7D1FB10487B
:101500004FF47A710068B0FBF1F0401EB0F1807FBB
:1015100009D24FF0E0210B4A4861FF2010700020F3
:10152000886107200861FFF76BFFFFF7E1FF0446C2
:10153000FFF7DAFF2146BDE8104000F0B9BA00001D
:101540001C00002023ED00E0044910B5096811B12A
:101550008847002800D0FEE710BD00002C000020C6
:1015600070B50446121D22F007000022094D4038D4
:1015700040F82250521C102AFAD301620021416225
:1015800081624FF0807200F13005C263C16285E86C
:101590001A0070BDEFBEADDE10B5FEF7E5FD044AE2
:1015A0001178491C1170BDE81040FEF7E1BD000044
:1015B0004000002010B5FEF7D7FD044A1178491EFF
:1015C0001170BDE81040FEF7D3BD000040000020C0
:1015D0002DE9F041064614460D46084600F0F6FB9C
:1015E00005F11407B4B1012C18D134680EE000BF26
:1015F00095F8351094F82120A4F11400914204D2FA
:101600003946143000F022F802E02468B442EFD1E9
:10161000B44203D13946304600F018F80020BDE846
:10162000F0810268516002680A600160486070479A
:101630000268516002680A60016048607047026891
:10164000516002680A60016048607047426811603A
:1016500042684A60416008607047D0E900124A6001
:10166000D0E900121160406000607047D0E90012BC
:101670004A60D0E9001211604060006070470000CD
:101680002DE9F047002807D0374CC01C20F0030696
:10169000E068864202D90020BDE8F0870C2E00D217
:1016A0000C264FF0FF31314800F0B7F9D4F808C0EC
:1016B0002168E768ACEB0100BA1B4FE00D186B889E
:1016C000E3BB6B681B1A0C3BB34246D36A6806F156
:1016D0001803121A0C3A4FF001094FF4F55A9A42C6
:1016E0002DD383190C33CA184FF00008A2F800A0BC
:1016F000A2F80280D5F80480C2E901806B60A5F8E9
:10170000029050680C37B84202D001F108028350B1
:10171000206930440C3020616269824200D26061ED
:10172000A5F800A0654512D1A06842887AB1626828
:1017300090420CD040680844A060F6E70DE0A5F8A0
:10174000029068686A1A801A22691044E3E7074821
:1017500000F048F905F10C009EE768688242ADD8B8
:10176000024800F03FF996E744000020F00A00200C
:1017700010B50346CCB2042A1AD3810718D11946F2
:1017800044EA042343EA034306E008C1103A08C1CF
:1017900041F8083B41F8043C102AF6D201E008C1A8
:1017A000121F042AFBD20B4602E000BF03F8014BD4
:1017B000521EFBD210BD2DE9F0410F46064600F047
:1017C00045F80546C068FFF75BFF040019D000210B
:1017D000EA68FFF7CDFF26720020607208223946C2
:1017E000204600F052F9FEF7BFFC064604F10C015A
:1017F000281DFFF716FF3046FEF7BAFC2046BDE86D
:10180000F0810020FBE770B5044600202072FEF74F
:10181000ABFC054604F10C00FFF71FFF2846FEF75E
:10182000A7FC2046BDE87040FFF730BE70B5044607
:1018300000202072FEF798FC054604F10C00FFF72B
:101840000CFF2846BDE87040FEF792BC074A002115
:1018500002EB01131B78834202D102EB01107047A7
:10186000491C0429F4DB0020704700005C000020C4
:101870002DE9F041044616460D460846FFF7E6FFFF
:101880000746FFF7D9FD381D796800E009688142F5
:10189000FCD1FFF7DFFD45F08000207208223146C1
:1018A000204600F0F2F8FEF75FFC054604F10C015B
:1018B000381DFFF7B6FE2846BDE8F041FEF758BCDC
:1018C000007A000601D50120704700207047000013
:1018D00070B5FEF749FC114C05466088B0B9A068A8
:1018E000FFF746FB0E49401E626851F8301014396C
:1018F00091420BD020700B486160007801F11C010F
:10190000002802F11C0006D0FEF735FC2846BDE891
:101910007040FEF72DBCFEF72EFCF7E79C00002080
:10192000100B00204000002010B50446FEF71CFC00
:10193000024694F834000E4920F00F00401C84F851
:10194000340094F8350001EBC00104F114004B6839
:1019500018604B68A361486006486161A16B8368A9
:1019600019438160BDE810401046FEF701BC00003D
:10197000100B00209C00002010B50446FEF7F4FB7D
:1019800004F11401D1E900235360D1E900231A6066
:10199000A161616194F83520074951F8323001EBBB
:1019A000C2018B4204D10549A36B8A689A438A60BD
:1019B000BDE81040FEF7DCBB100B00209C000020AF
:1019C0002DE9F04116460A461F4605460221FFF75B
:1019D0004FFF05F11404AC616C61AE836F7200209F
:1019E000BDE8F08170B50446FEF7BEFB05466069B0
:1019F00004F11401884208D0143800F08CF928460C
:101A0000FEF7B6FBFFF764FF05E0A08B401CA08348
:101A10002846FEF7ADFB002070BD73B50546FEF706
:101A2000A3FB0646A88B28B1401EA8833046FEF7CC
:101A30009FFB21E0019808B300F08CF904460020D8
:101A400020636A7A214605F11400FFF7C1FD019871
:101A5000002809DD04F1440001AA0021054600F038
:101A600081FA284600F0BAFA3046FEF781FBFFF70C
:101A70002FFF206B002800D100207CBD3046FEF7F0
:101A800077FB6FF001007CBD704710B5002A07D0CE
:101A9000034611F8014B03F8014B2CB1521EF8D14B
:101AA00010BD03F8011B00E00021521EF9D110BD4A
:101AB000C01C10B521F0030120F0030018291FD924
:101AC000A1F1180282421BD30E4C091A1839E160A9
:101AD0004FF4F5522060028000230C31C0E901135D
:101AE0004380436818446060028001224280416064
:101AF0008160002304A10648FFF762FF2068A06010
:101B000010BD000044000020686561700000000006
:101B1000F00A002010B50A4900230A4C4B801846F1
:101B200004EBC002401C526012600828F8DB07205A
:101B3000087003484B600C308B604060006010BD43
:101B40009C000020100B002010B5074CA068FFF788
:101B50000FFA0649401E51F8300014386060BDE8A5
:101B600010401C30FEF735BB9C000020100B0020FD
:101B70000148406000607047B400002070472DE9C4
:101B8000FF478946DDE90C76824601461D469046B0
:101B90000120FFF710FE041E0DD02846FFF770FD50
:101BA00060B103968DE8A10043464A46514620465F
:101BB000FFF71AFA204604B0BDE8F0872046FFF789
:101BC00022FE0020F7E7000070B513480468FEF716
:101BD000CBFA05462046FFF7CFFE042084F83400F8
:101BE00004F1440000F0D6F92046FFF769FE012811
:101BF00001D1206F58B104F114010848FFF718FD16
:101C00002846FEF7B5FABDE87040FFF761BE2046F2
:101C1000FFF70CFEF4E70000A0000020A800002061
:101C200000F002F8FCE7000070B527E0FEF79CFA30
:101C30000546FFF7CFF958B318480168A1F114041D
:101C4000D1E900024260D1E90002106049600960F8
:101C5000FFF7F2FB216F09B1204688472046FFF7C6
:101C60002FFE01280FD0FFF7F5FB2846FEF780FA7C
:101C7000A06AFFF70BFC2046FFF7C5FDFFF7AAF9A6
:101C80000028D3D170BD2046FFF7D0FDFFF7E2FB5F
:101C90002846BDE87040FEF76BBA0000A80000209F
:101CA0001FB5202308480722D9008DE80F00002324
:101CB000064A07A1783800F00FF804B00248BDE8E2
:101CC0001040783800F06CB8F0090020211C0008A2
:101CD0007469646C650000002DE9FF5F92460EAAEE
:101CE0000C4692E8E0010A46994683460121FFF737
:101CF000BFFD8DE8E0014B46524621465846FFF7AE
:101D000073F904B0BDE8F09F10B500F0C1F8BDE86C
:101D1000104000F025B870B5044690F8340000F08B
:101D20000F00022802D04FF0FF3070BDFEF71CFA02
:101D3000054604F11400FFF799FC04F1440000F09B
:101D400093F92846FEF714FA2046FFF7EDFD002030
:101D500070BD00000148006870470000A00000202E
:101D6000F1B5FEF701FA05460C480468204600F07C
:101D70002DF804F144006A460021064600F0F2F80E
:101D8000304600F02BF92846FEF7F2F9FFF7A0FDE8
:101D9000206B801C00D120630020F8BDA000002033
:101DA00010B590F83610012280F835108A400221D3
:101DB000826380F83410FFF7AEFF0348006808B173
:101DC000FFF786FD002010BDA000002070B504467E
:101DD00090F8340000F00F00012802D04FF0FF30DF
:101DE00070BDFEF7C1F9054694F8340020F00F00ED
:101DF000801C84F834002046FFF7BEFD04F1440047
:101E000000F032F92846FEF7B3F9002070BD10B596
:101E100004466FF00100206304F11400FFF726FC74
:101E20002046FFF781FDBDE81040FFF751BD0000DF
:101E300070B5FEF799F906461348046894F8340023
:101E400000F00F00012819D1D4E90501884215D00E
:101E500004F114000546FFF709FC94F835000B491E
:101E600001EBC00041680D60416869604560286011
:101E70003046FEF77DF9FFF72BFD02E03046FEF716
:101E800077F9002070BD0000A0000020100B00209A
:101E9000002802DA4FF0FF3070474FF47A7190FB60
:101EA000F1F290FBF1F301FB130000EB40034A4316
:101EB000C3EBC0104B1E03EBC00090FBF1F01044CD
:101EC0007047000001480068704700003C00002097
:101ED000094810B50168491C0160FFF73BFF016C20
:101EE000491E016403D1C16B0164FFF7A1FFBDE886
:101EF000104000F003B800003C0000202DE9F04144
:101F0000FFF7E0FF0646FEF72FF90746144D1EE0E7
:101F100060696FF00041301A143C88421AD22046A2
:101F2000FFF7B0F8D4E907108847FFF7CBFF064664
:101F3000607A810708D5C10706D020F001006072E1
:101F4000204600F04BF802E020F0010060722C689F
:101F5000AC42DDD13846BDE8F041FEF709B90000DA
:101F6000B400002049B1012904D0022908D0032976
:101F70000ED109E0406A10600AE01168416207E092
:101F8000417A21F0020102E0417A41F002014172FE
:101F90000020704770B50546FEF7E6F8044628466F
:101FA000FFF770F82046FEF7E3F82846FFF73EFCFF
:101FB000002070BD2DE9F8439046DDE908450A464A
:101FC0001F4606460A21FFF753FC23463A46414680
:101FD00030460095FFF748F8BDE8F883F8B50446A9
:101FE000FEF7C2F805462046FFF74CF8607A20F06D
:101FF000010060722846FEF7BBF8FFF763FF616AD5
:102000000844A062FEF7B0F80546164A0020009288
:1020100002EBC002694653686FF0004C5DF8202067
:102020000BE01268A2EBC0067769A66AB74202D03D
:10203000BE1B664503D341F820209A42F1D10948DE
:10204000001F0168491C016004F114010098FFF7AA
:10205000F6FA607A40F0010060722846FEF788F8D0
:102060000020F8BDB400002070B50446407AC007D7
:102070000ED0FEF779F805462046FFF703F828460C
:10208000FEF776F8607A20F001006072002070BDE3
:102090004FF0FF3070BD00207047002070470020D7
:1020A00070470020704710B5FEF75EF8FFF724FA7E
:1020B000FFF7EAFCFFF75CFDFFF72CFDFFF78AF95D
:1020C000FFF75CFDFFF7ECFDFFF73EFD002010BDC4
:1020D00000000000000000000102030406070809D8
:1020E00000000000010203040000010002000100E2
:1020F00003000100020001000400010002000100D1
:1021000003000100020001000500010002000100BF
:1021100003000100020001000400010002000100B0
:10212000030001000200010006000100020001009E
:102130000300010002000100040001000200010090
:10214000030001000200010005000100020001007F
:102150000300010002000100040001000200010070
:10216000030001000200010007000100020001005D
:102170000300010002000100040001000200010050
:10218000030001000200010005000100020001003F
:102190000300010002000100040001000200010030
:1021A000030001000200010006000100020001001E
:1021B0000300010002000100040001000200010010
:1021C00003000100020001000500010002000100FF
:1021D00003000100020001000400010002000100F0
:1021E000030001000200010030313233343536374C
:1021F00038396162636465660030313233343536B4
:10220000373839414243444546000000A3200008C6
:102210009B200008972000089F2000083C2200080F
:1022200000000020BC000000B40F0008F8220008E5
:10223000BC00002094260000C40F0008000000002D
:10224000000000000000000000000000000000008E
:10225000000000000000000000127A0001000000F1
:10226000100000000000000000000000000000005E
:10227000000000000000000000000000000000005E
:10228000000000000000000000000000000000004E
:1022900000000000000000000100000060000020BD
:1022A00060000020780000000200000070000020A4
:1022B00070000020200000000500000080000020C9
:1022C00080000020300000000A0000009000002084
:1022D000900000202C000000000000000000000022
:1022E00000000000000000000000000000000000EE
:0822F0000000000000000000E6
:0400000508000131BD
:00000001FF
