:020000040800F2
:10000000F8260020450100084D0100080F020008F5
:1000100051010008530100085501000800000000CC
:100020000000000000000000000000005701000870
:100030005901000800000000970100083D08000871
:100040005F0100085F0100085F0100085F01000810
:100050005F0100085F0100085F0100085F01000800
:100060005F0100085F0100085F0100085F010008F0
:100070005F0100085F0100085F0100085F010008E0
:100080005F0100085F0100085F0100085F010008D0
:100090005F0100085F0100085F0100085F010008C0
:1000A0005F0100085F0100085F0100085F010008B0
:1000B0005F0100085F0100085F0100085F010008A0
:1000C0005F0100085F0100085F0100085F01000890
:1000D0005F0100085F0100085F0100085F01000880
:1000E0005F0100085F0100085F0100085F01000870
:1000F0005F0100085F0100085F0100085F01000860
:100100005F0100085F0100085F0100085F0100084F
:100110005F0100085F0100085F0100085F0100083F
:100120005F0100085F0100085F0100085F0100082F
:10013000DFF80CD000F0A2F800480047A102000848
:10014000F82600200648804706480047FEE7FEE7FD
:10015000FEE7FEE7FEE7FEE7FEE7FEE7FEE7FEE777
:10016000B908000831010008EFF3108072B670473B
:1001700080F310887047334A1368012B04D04FF086
:1001800001031360304A1060304A116030484FF06C
:10019000805101607047EFF3108272B62948016800
:1001A00091B14FF0000101602748016829B1EFF3D8
:1001B000098121E9F00F0068016024490968096894
:1001C000B1E8F00F81F3098882F310884EF0040E35
:1001D00070471E4908601C494FF00000086019492B
:1001E0004FF0010008601B484FF47F01D0F8002059
:1001F00041EA0201016016484FF080510160164843
:100200000068006880F3088861B662B670471EF027
:10021000040F0CBFEFF30880EFF3098020E9F00F23
:1002200040F804ED1EF0040F0CBF80F3088880F343
:10023000098800B500F008FE5DF804EB4EF0040EEE
:100240007047000030000020280000202C00002013
:1002500004ED00E020ED00E008ED00E0202A04DBE2
:10026000203A21FA02F00021704721FA02F3D0402F
:10027000C2F120029140084319467047064C074DD1
:1002800006E0E06840F0010394E807009847103466
:10029000AC42F6D3FFF750FF4C1B00086C1B000864
:1002A00010B501F080FB002010BD000006490020C1
:1002B000C8610648016941F004010161016941F02A
:1002C0004001016170470000000900200020024049
:1002D000064A0021D16106490A6942F002020A6118
:1002E0004861086940F0400008617047000900203B
:1002F00000200240044B0022DA61044A136943F0F3
:1003000001031361018070470009002000200240B2
:1003100014480022C168CB06134904D5CA6942F0CB
:100320000202CA611022C3685B0705D5CB6943F09E
:100330000103CB6142F00402C369DB0707D0CB693C
:1003400043F00403CB61C16921F00101C161A2F551
:100350008071013901D0C2607047C16921F001018B
:10036000C1617047002002400009002070B50546B9
:1003700000F0DAF90646114C09E0681C07D025B1F7
:1003800000F0D2F9801BA84201D9032070BDE068BB
:10039000C007F2D1E068800601D52020E060E06867
:1003A000C00605D4E069C00702D1E068400703D564
:1003B000FFF7AEFF012070BD002070BD002002409D
:1003C0002DE9F047054626480F460126017E012902
:1003D0000FD00121814601762868DFF888804CF231
:1003E0005034022808D0A2462046FFF7BFFFA8B12C
:1003F00031E00220BDE8F0872046FFF7B7FF08BBD9
:100400000120FFF753FF2046FFF7B0FFD8F8101088
:10041000064621F00401C8F810101CE04FF0FF3030
:100420003860AC6811E02046FFF752FF5046FFF7F6
:100430009DFFD8F81010060021F00201C8F8101036
:1004400001D03C6007E004F50064D5E9020100EB4F
:10045000C120A042E7D8002189F818103046C9E72A
:1004600000090020002002400348016941F080019A
:100470000161002070470000002002402DE9F05F7C
:1004800007461C4888460024017E15461E46012961
:1004900009D00121814601764CF2503A5046FFF7CF
:1004A00065FF18B122E00220BDE8F09F012F02D0C5
:1004B000022F00D00427D346DFF83CA022012846B3
:1004C0003146FFF7CBFE81B208EB4400FFF712FF85
:1004D0005846FFF74BFFDAF8102022F00102CAF865
:1004E000102018B9641CE4B2BC42E7D3002289F89A
:1004F0001820D9E70009002000200240064900200A
:100500000A69120607D5054A4A60054A4A60096920
:10051000090600D5012070470020024023016745ED
:10052000AB89EFCD2DE9F84FDFF8C891002409F130
:10053000040A0AF1040B23460F270BF1040ED1E045
:100540000125A54006EA0502AA4276D1DFF8A8C136
:100550004E68A6EB0C0866452BD00DDC032E34D07C
:1005600005DC36B3012E19D0022E2FD11BE0112E3F
:1005700016D0122E2AD119E0B8F5881F19D006DC42
:10058000B8F5803F15D0B8F5801F1FD111E0B8F540
:10059000001F0ED0B8F5041F18D10AE0CB6815E093
:1005A000CB681B1D12E0CB6808330FE0CB680C331F
:1005B0000CE08B682BB1012B4FF0080303D0456191
:1005C00004E0042302E0056100E00023FF2A01D8D3
:1005D000064601E000F104064FEA840501D9A5F1C1
:1005E0002005D6F8008007FA05FC28EA0C0803FA73
:1005F00005F548EA0508C6F800804D68ED0070D59D
:100600003E4DAE6946F00106AE61AD6924F00306C9
:1006100005F0010500953A4D06EB050CDCF8085095
:10062000A607360F07FA06F825EA0805DFF8D48092
:10063000404503D14FF0000825E052E0DFF8C880C4
:10064000404502D14FF001081DE0DFF8C080404571
:1006500002D14FF0020816E0DFF8B480404502D125
:100660004FF003080FE0DFF8AC80404502D14FF0B7
:10067000040808E0DFF8A080404502D14FF00508EB
:1006800001E04FF0060808FA06F848EA0508CCF839
:1006900008804D68D9F80060ED034D4601D516433A
:1006A00000E096432E604D68DAF80060AD035546D1
:1006B00001D5164300E096432E604D68DBF80060DC
:1006C000ED025D4601D5164300E096432E604D686D
:1006D000DEF80060AD02754601D5164300E0964392
:1006E0002E60641C0A681646E2407FF429AFBDE81C
:1006F000F88F0000000401400000111000100240BB
:100700000000014000080140000C014000100140C1
:100710000014014000180140001C01400AB10161B1
:1007200070470904FBE7000001488068704700003B
:100730001400002009484FF000610A4A01600913C3
:100740004160074981604FF4C831C1600261416175
:10075000054981614FF4C041C1617047B400002078
:10076000008000080010020800A0030870B51F4CAC
:100770001F4D4FF47A76207820B1012815D0022839
:1007800027D00BE001F01EF82169401AB04226D3B1
:1007900001F018F8206170BD012200E00022284617
:1007A000BDE870400421FFF7B9BF01F00BF82169E3
:1007B000401AB042ECD201F005F82169401AB0F5B8
:1007C000967FE9D200F0FEFF2169401AC828E5D2E1
:1007D00005E000F0F7FF2169401AC828D8D200F0E0
:1007E000F1FF2169401A6428D8D3D5E70000002022
:1007F0000010014010B586B0002002900D488169BC
:1008000041F01001816180690B4C00F010000490F0
:1008100004200090012001900220039069462046A8
:10082000FFF780FE002204212046FFF777FF06B085
:1008300010BD0000001002400010014010B500F093
:100840002BFB00F0C5FFBDE8104000F033BB0000FB
:10085000144910B54868144A10F00C03134803D02B
:10086000042B01D0082B09D002604968104AC1F35B
:100870000311515C0268CA40026010BD4A684B68AF
:1008800002F470124FF0020413F4803F04EB924222
:1008900002D04B689B0301D5064B00E0024B5A4344
:1008A000E2E700000010024000127A002000002061
:1008B000081A000800093D000D48016841F00101D7
:1008C000016041680B4A1140416001680A4A1140C9
:1008D0000160016821F480210160416821F4FE017A
:1008E00041604FF41F0181600449C00308607047F4
:1008F000001002400000FFF8FFFFF6FE08ED00E0E8
:10090000002806D00E4910F0FF0F03D0C0B2085CDB
:10091000401C704710F47F4F04D0C0F30720085CE0
:100920000930704710F47F0F04D0C0F30740085C13
:100930001130704701EB10600078193070470000EB
:10094000181A000802E008C8121F08C1002AFAD1CC
:1009500070477047002001E001C1121F002AFBD13F
:100960007047000003480168814201D001207047B0
:1009700000207047A00000202DE9FC411F460446DE
:10098000DDE90831DDE90A65143040600060C4E942
:100990000827C4E90A310A46232118461C3400F00E
:1009A00067FBD4E903014218D4E90101104B121F7F
:1009B00000F056FA44F81A0B002004F801690D4AB9
:1009C00004F8036BE4E8020544F8105901C404F884
:1009D0003C0B01C444F87409009023460190194669
:1009E00004F1440000F066FF0020BDE8FC81000037
:1009F000C91400080F17000810B5029C24F0010468
:100A00004472C0E907120021C0E909311430406086
:100A1000006010BDF0E905124A60D0E900121160D3
:100A20004060006070470000084880680168084A1C
:100A30001140B1F1005F07D14168064AD160916071
:100A4000006880F30888084770470000B400002061
:100A50000000FE2F0000002000F0BAFF184E174CD7
:100A600041F2707B4FF000084FF0020901254FF072
:100A7000550AA6F120072570584600F0C5FDB86953
:100A800026220F4900F0D0F8307D012802D0FFF770
:100A9000CBFFF0E7257000F015F840B1257086F81F
:100AA00014A0B8692622064900F08FF8E3E784F81D
:100AB000008086F81490FFF7B7FFF2E700000020EF
:100AC000D4000020F0B585B000240494FFF716FD93
:100AD0000094164CA068029015488068C10A0391E2
:100AE000400501D0481C039004A96846FFF768FC44
:100AF0002569A66800244FF400670EE03A460D49C8
:100B0000284600F091F83A460A49304600F098F835
:100B1000641C05F5006506F500660398A042EDD853
:100B2000FFF7A2FC05B00020F0BD0000B4000020DB
:100B3000D4000020FA0000207CB5FFF7FBFDFFF792
:100B400059FE0A250620CDE900054FF480730022E6
:100B50000D490EA000F093FC0E4C606008B100F04F
:100B60009FFD0520CDE900054FF4007300220A49DE
:100B70000AA000F084FC6060002803D0BDE87C403F
:100B800000F08EBD7CBD0000A50B000874685F6C92
:100B90006564000000000020590A000874685F695D
:100BA00061700000FFF7E2FD0A2000F02DFDF9E77B
:100BB000FFF7C2FF642000F027FDFBE710B500F04F
:100BC000ADF8BDE81040FFF7F3BFF0B585B00546BE
:100BD0000027A0F1006016460C460497B0F5802F60
:100BE00002D3012005B0F0BDFFF788FCF00ACDE983
:100BF00002500097700502D00398401C039004A98E
:100C00006846FFF7DDFB002708E0002329460220A5
:100C10002268FFF733FC241D2D1D3F1DB742F4D37E
:100C2000FFF722FC0020DDE710B5002305E000BF40
:100C300010F8014BCC545B1C9BB29342F8D310BD0F
:100C40002DE9F0410546A0F1006016460C46B0F5CE
:100C5000802F02D30120BDE8F081FFF74FFC002771
:100C600008E00023294602202268FFF707FC241D24
:100C70002D1D3F1DB742F4D3FFF7F6FB0020EAE736
:100C800030B5134943680A68134402F108049842D6
:100C90000DD05D885DB94D68AB4208D08D689D422E
:100CA00000D188605D6845605B68851A1D51836866
:100CB000134483420BD05D88002D08D18D68854296
:100CC00000D18B60416859604068991A015130BD6C
:100CD0003C0000201CB502201421CDE90001C30115
:100CE0000022044904A000F0CAFBBDE81C4000F04B
:100CF000D7BC0000BD0B00086D61696E00000000EC
:100D000070B5044C044D02E020688047241DAC42BD
:100D1000FAD370BD401B0008441B000870B5044C9A
:100D2000044D02E020688047241DAC42FAD370BD18
:100D3000441B0008481B000810B5FFF715FA044AC9
:100D40005188491C5180BDE81040FFF711BA0000DE
:100D50009400002010B5FFF707FA0B4C6188491E7C
:100D600009B2618000290ADC00216180FFF700FAE6
:100D70006068002807D0BDE8104000F029BABDE83F
:100D80001040FFF7F5B910BD9400002070B50028A1
:100D900025D0134D2968884221D3696888421ED224
:100DA000A0F10C044FF0FF310E4800F0B6FA00201D
:100DB00060804FF4F5502080A868844200D2AC6077
:100DC00029686068611A401A2969081A2861204652
:100DD000FFF756FFBDE87040024800F083BA70BDCF
:100DE0003C000020980A002000487047F80A0020C4
:100DF00000487047F822002010B5FFF729FD104881
:100E00004FF47A710068B0FBF1F0401EB0F1807FC2
:100E100009D24FF0E0210B4A4861FF2010700020FA
:100E2000886107200861FFF76BFFFFF7E1FF0446C9
:100E3000FFF7DAFF2146BDE8104000F0B9BA000024
:100E40002000002023ED00E0044910B5096811B12D
:100E50008847002800D0FEE710BD000024000020D5
:100E600070B50446121D22F007000022094D4038DB
:100E700040F82250521C102AFAD30162002141622C
:100E800081624FF0807200F13005C263C16285E873
:100E90001A0070BDEFBEADDE10B5FFF765F9044A6C
:100EA0001178491C1170BDE81040FFF761B90000CE
:100EB0003800002010B5FFF757F9044A1178491E91
:100EC0001170BDE81040FFF753B900003800002052
:100ED0002DE9F041064614460D46084600F0F6FBA3
:100EE00005F11407B4B1012C18D134680EE000BF2D
:100EF00095F8351094F82120A4F11400914204D201
:100F00003946143000F022F802E02468B442EFD1F0
:100F1000B44203D13946304600F018F80020BDE84D
:100F2000F0810268516002680A60016048607047A1
:100F30000268516002680A60016048607047026898
:100F4000516002680A600160486070474268116041
:100F500042684A60416008607047D0E900124A6008
:100F6000D0E900121160406000607047D0E90012C3
:100F70004A60D0E9001211604060006070470000D4
:100F80002DE9F047002807D0374CC01C20F003069D
:100F9000E068864202D90020BDE8F0870C2E00D21E
:100FA0000C264FF0FF31314800F0B7F9D4F808C0F3
:100FB0002168E768ACEB0100BA1B4FE00D186B88A5
:100FC000E3BB6B681B1A0C3BB34246D36A6806F15D
:100FD0001803121A0C3A4FF001094FF4F55A9A42CD
:100FE0002DD383190C33CA184FF00008A2F800A0C3
:100FF000A2F80280D5F80480C2E901806B60A5F8F0
:10100000029050680C37B84202D001F108028350B8
:10101000206930440C3020616269824200D26061F4
:10102000A5F800A0654512D1A06842887AB162682F
:1010300090420CD040680844A060F6E70DE0A5F8A7
:10104000029068686A1A801A22691044E3E7074828
:1010500000F048F905F10C009EE768688242ADD8BF
:10106000024800F03FF996E73C000020980A002073
:1010700010B50346CCB2042A1AD3810718D11946F9
:1010800044EA042343EA034306E008C1103A08C1D6
:1010900041F8083B41F8043C102AF6D201E008C1AF
:1010A000121F042AFBD20B4602E000BF03F8014BDB
:1010B000521EFBD210BD2DE9F0410F46064600F04E
:1010C00045F80546C068FFF75BFF040019D0002112
:1010D000EA68FFF7CDFF26720020607208223946C9
:1010E000204600F052F9FFF73FF8064604F10C01E4
:1010F000281DFFF716FF3046FFF73AF82046BDE8F7
:10110000F0810020FBE770B5044600202072FFF755
:101110002BF8054604F10C00FFF71FFF2846FFF7E8
:1011200027F82046BDE87040FFF730BE70B5044692
:1011300000202072FFF718F8054604F10C00FFF7B5
:101140000CFF2846BDE87040FFF712B8074A00219F
:1011500002EB01131B78834202D102EB01107047AE
:10116000491C0429F4DB00207047000054000020D3
:101170002DE9F041044616460D460846FFF7E6FF06
:101180000746FFF7D9FD381D796800E009688142FC
:10119000FCD1FFF7DFFD45F08000207208223146C8
:1011A000204600F0F2F8FEF7DFFF054604F10C01DF
:1011B000381DFFF7B6FE2846BDE8F041FEF7D8BF60
:1011C000007A000601D5012070470020704700001A
:1011D00070B5FEF7C9FF114C05466088B0B9A0682C
:1011E000FFF78EFB0E49401E626851F8301014392B
:1011F00091420BD020700B486160007801F11C0116
:10120000002802F11C0006D0FEF7B5FF2846BDE815
:101210007040FEF7ADBFFEF7AEFFF7E79400002089
:10122000B80A00203800002010B50446FEF79CFFE5
:10123000024694F834000E4920F00F00401C84F858
:10124000340094F8350001EBC00104F114004B6840
:1012500018604B68A361486006486161A16B8368B0
:1012600019438160BDE810401046FEF781BF0000C1
:10127000B80A00209400002010B50446FEF774FF61
:1012800004F11401D1E900235360D1E900231A606D
:10129000A161616194F83520074951F8323001EBC2
:1012A000C2018B4204D10549A36B8A689A438A60C4
:1012B000BDE81040FEF75CBFB80A00209400002093
:1012C0002DE9F04116460A461F4605460221FFF762
:1012D0004FFF05F11404AC616C61AE836F720020A6
:1012E000BDE8F08170B50446FEF73EFF0546606933
:1012F00004F11401884208D0143800F08CF9284613
:10130000FEF736FFFFF764FF05E0A08B401CA083CB
:101310002846FEF72DFF002070BD73B50546FEF789
:1013200023FF0646A88B28B1401EA8833046FEF74F
:101330001FFF21E0019808B300F08CF9044600205B
:1013400020636A7A214605F11400FFF7C1FD019878
:10135000002809DD04F1440001AA0021054600F03F
:1013600081FA284600F0BAFA3046FEF701FFFFF78F
:101370002FFF206B002800D100207CBD3046FEF7F7
:10138000F7FE6FF001007CBD704710B5002A07D052
:10139000034611F8014B03F8014B2CB1521EF8D152
:1013A00010BD03F8011B00E00021521EF9D110BD51
:1013B000C01C10B521F0030120F0030018291FD92B
:1013C000A1F1180282421BD30E4C091A1839E160B0
:1013D0004FF4F5522060028000230C31C0E9011364
:1013E000438043681844606002800122428041606B
:1013F0008160002304A10648FFF762FF2068A06017
:1014000010BD00003C000020686561700000000015
:10141000980A002010B50A4900230A4C4B80184650
:1014200004EBC002401C526012600828F8DB072061
:10143000087003484B600C308B604060006010BD4A
:1014400094000020B80A002010B5074CA068FFF7F0
:1014500057FA0649401E51F8300014386060BDE864
:1014600010401C30FEF7B5BE94000020B80A0020E2
:101470000148406000607047AC00002070472DE9D3
:10148000FF478946DDE90C76824601461D469046B7
:101490000120FFF710FE041E0DD02846FFF770FD57
:1014A00060B103968DE8A10043464A465146204666
:1014B000FFF762FA204604B0BDE8F0872046FFF748
:1014C00022FE0020F7E7000070B513480468FEF71D
:1014D0004BFE05462046FFF7CFFE042084F834007B
:1014E00004F1440000F0D6F92046FFF769FE012818
:1014F00001D1206F58B104F114010848FFF718FD1D
:101500002846FEF735FEBDE87040FFF761BE204675
:10151000FFF70CFEF4E7000098000020A000002078
:1015200000F002F8FCE7000070B527E0FEF71CFEB3
:101530000546FFF717FA58B318480168A1F11404DB
:10154000D1E900024260D1E90002106049600960FF
:10155000FFF7F2FB216F09B1204688472046FFF7CD
:101560002FFE01280FD0FFF7F5FB2846FEF700FEFF
:10157000A06AFFF70BFC2046FFF7C5FDFFF7F2F965
:101580000028D3D170BD2046FFF7D0FDFFF7E2FB66
:101590002846BDE87040FEF7EBBD0000A00000202B
:1015A0001FB5202308480722D9008DE80F0000232B
:1015B000064A07A1783800F00FF804B00248BDE8E9
:1015C0001040783800F06CB8980900202115000808
:1015D0007469646C650000002DE9FF5F92460EAAF5
:1015E0000C4692E8E0010A46994683460121FFF73E
:1015F000BFFD8DE8E0014B46524621465846FFF7B5
:10160000BBF904B0BDE8F09F10B500F0C1F8BDE82B
:10161000104000F025B870B5044690F8340000F092
:101620000F00022802D04FF0FF3070BDFEF79CFD86
:10163000054604F11400FFF799FC04F1440000F0A2
:1016400093F92846FEF794FD2046FFF7EDFD0020B4
:1016500070BD00000148006870470000980000203D
:10166000F1B5FEF781FD05460C480468204600F000
:101670002DF804F144006A460021064600F0F2F815
:10168000304600F02BF92846FEF772FDFFF7A0FD6B
:10169000206B801C00D120630020F8BD9800002042
:1016A00010B590F83610012280F835108A400221DA
:1016B000826380F83410FFF7AEFF0348006808B17A
:1016C000FFF786FD002010BD9800002070B504468D
:1016D00090F8340000F00F00012802D04FF0FF30E6
:1016E00070BDFEF741FD054694F8340020F00F0070
:1016F000801C84F834002046FFF7BEFD04F144004E
:1017000000F032F92846FEF733FD002070BD10B519
:1017100004466FF00100206304F11400FFF726FC7B
:101720002046FFF781FDBDE81040FFF751BD0000E6
:1017300070B5FEF719FD06461348046894F83400A6
:1017400000F00F00012819D1D4E90501884215D015
:1017500004F114000546FFF709FC94F835000B4925
:1017600001EBC00041680D60416869604560286018
:101770003046FEF7FDFCFFF72BFD02E03046FEF79A
:10178000F7FC002070BD000098000020B80A00207F
:10179000002802DA4FF0FF3070474FF47A7190FB67
:1017A000F1F290FBF1F301FB130000EB40034A431D
:1017B000C3EBC0104B1E03EBC00090FBF1F01044D4
:1017C00070470000014800687047000034000020A6
:1017D000094810B50168491C0160FFF73BFF016C27
:1017E000491E016403D1C16B0164FFF7A1FFBDE88D
:1017F000104000F003B80000340000202DE9F04153
:10180000FFF7E0FF0646FEF7AFFC0746144D1EE06B
:1018100060696FF00041301A143C88421AD22046A9
:10182000FFF7F8F8D4E907108847FFF7CBFF064623
:10183000607A810708D5C10706D020F001006072E8
:10184000204600F04BF802E020F0010060722C68A6
:10185000AC42DDD13846BDE8F041FEF789BC00005E
:10186000AC00002049B1012904D0022908D0032985
:101870000ED109E0406A10600AE01168416207E099
:10188000417A21F0020102E0417A41F00201417205
:101890000020704770B50546FEF766FC04462846F2
:1018A000FFF7B8F82046FEF763FC2846FFF73EFC3A
:1018B000002070BD2DE9F8439046DDE908450A4651
:1018C0001F4606460A21FFF753FC23463A46414687
:1018D00030460095FFF790F8BDE8F883F8B5044668
:1018E000FEF742FC05462046FFF794F8607A20F0A8
:1018F000010060722846FEF73BFCFFF763FF616A58
:101900000844A062FEF730FC0546164A002000920B
:1019100002EBC002694653686FF0004C5DF820206E
:101920000BE01268A2EBC0067769A66AB74202D044
:10193000BE1B664503D341F820209A42F1D10948E5
:10194000001F0168491C016004F114010098FFF7B1
:10195000F6FA607A40F0010060722846FEF708FC53
:101960000020F8BDAC00002070B50446407AC007E6
:101970000ED0FEF7F9FB05462046FFF74BF8284648
:10198000FEF7F6FB607A20F001006072002070BD67
:101990004FF0FF3070BD00207047002070470020DE
:1019A00070470020704710B5FEF7DEFBFFF724FA02
:1019B000FFF7EAFCFFF75CFDFFF72CFDFFF78AF964
:1019C000FFF75CFDFFF7ECFDFFF73EFD002010BDCB
:1019D0000C480B49016040F20311416042F6087166
:1019E00081604FF4C831C1604FF4005101610121A1
:1019F00001752038262280690249FFF7E6B8000009
:101A000045230100D4000020000000000000000079
:101A1000010203040607080900000100020001009A
:101A200003000100020001000400010002000100A7
:101A30000300010002000100050001000200010096
:101A40000300010002000100040001000200010087
:101A50000300010002000100060001000200010075
:101A60000300010002000100040001000200010067
:101A70000300010002000100050001000200010056
:101A80000300010002000100040001000200010047
:101A90000300010002000100070001000200010034
:101AA0000300010002000100040001000200010027
:101AB0000300010002000100050001000200010016
:101AC0000300010002000100040001000200010007
:101AD00003000100020001000600010002000100F5
:101AE00003000100020001000400010002000100E7
:101AF00003000100020001000500010002000100D6
:101B000003000100020001000400010002000100C6
:101B10000300010002000100303132333435363722
:101B2000383961626364656600303132333435368A
:101B3000373839414243444546000000A3190008A4
:101B40009B190008971900089F1900086C1B0008D2
:101B500000000020B400000044090008201C000818
:101B6000B4000020442600005409000800000000D2
:101B70000000000000000000000000000000000065
:101B800001000000100000000000000000127A00B8
:101B90000000000000000000000000000000000045
:101BA0000000000000000000000000000000000035
:101BB0000000000000000000000000000000000025
:101BC00001000000580000205800002078000000AC
:101BD00002000000680000206800002020000000D3
:101BE0000500000078000020780000203000000090
:101BF0000A00000088000020880000202C0000005F
:101C000000000000000000000000000000000000D4
:101C100000000000000000000000000000000000C4
:0400000508000131BD
:00000001FF
