:020000040800F2
:10800000502F0020458100084D8100080F82000894
:1080100051810008538100085581000800000000CC
:108020000000000000000000000000005781000870
:10803000598100080000000097810008D18C0008D9
:108040005F8100085F8100085F8100085F81000890
:108050005F8100085F8100085F8100085F81000880
:108060005F8100085F8100085F8100085F81000870
:108070005F8100085F8100085F8100085F81000860
:108080005F8100085F8100085F8100085F81000850
:108090005F8100085F8100085F8100085F81000840
:1080A0005F8100085F8100085F8100085F81000830
:1080B0005F8100085F8100085F8100085F81000820
:1080C0005F8100085F8100085F8100085F81000810
:1080D0005F810008798F00085F8100085F810008D8
:1080E0005F8100085F8100085F8100085F810008F0
:1080F0005F8100085F8100085F8100085F810008E0
:108100005F8100085F8100085F8100085F810008CF
:108110005F8100085F8100085F8100085F810008BF
:108120005F8100085F8100085F8100085F810008AF
:10813000DFF80CD000F0B4F800480047C582000812
:10814000502F00200648804706480047FEE7FEE71C
:10815000FEE7FEE7FEE7FEE7FEE7FEE7FEE7FEE7F7
:108160004D8D000831810008EFF3108072B6704722
:1081700080F310887047334A1368012B04D04FF006
:1081800001031360304A1060304A116030484FF0EC
:10819000805101607047EFF3108272B62948016880
:1081A00091B14FF0000101602748016829B1EFF358
:1081B000098121E9F00F0068016024490968096814
:1081C000B1E8F00F81F3098882F310884EF0040EB5
:1081D00070471E4908601C494FF0000008601949AB
:1081E0004FF0010008601B484FF47F01D0F80020D9
:1081F00041EA0201016016484FF0805101601648C3
:108200000068006880F3088861B662B670471EF0A7
:10821000040F0CBFEFF30880EFF3098020E9F00FA3
:1082200040F804ED1EF0040F0CBF80F3088880F3C3
:10823000098800B501F0C6F95DF804EB4EF0040EB4
:10824000704700003800002030000020340000207B
:1082500004ED00E020ED00E008ED00E0202A04DB62
:10826000203A21FA02F00021704721FA02F3D040AF
:10827000C2F12002914008431946704740EA0103C9
:108280009B0703D009E008C9121F08C0042AFAD2CC
:1082900003E011F8013B00F8013B521EF9D2704790
:1082A000064C074D06E0E06840F0010394E8070043
:1082B00098471034AC42F6D3FFF73EFF14A30008F2
:1082C00034A3000810B501F04EFF002010BD0000DF
:1082D00006490020C8610648016941F004010161B6
:1082E000016941F040010161704700005811002010
:1082F00000200240064A0021D16106490A6942F085
:1083000002020A614861086940F040000861704754
:108310005811002000200240044B0022DA61044A78
:10832000136943F001031361018070475811002065
:108330000020024014490020CA68D306134A04D51D
:10834000D06940F00200D0611020CB685B0705D5F2
:10835000D36943F00103D36140F00400CB69DB072C
:1083600007D0D36943F00403D361CA6922F0010244
:10837000CA61A0F58072013A01D0C8607047C8692F
:1083800020F00100C8617047002002405811002011
:1083900070B5044600F070FA0546114E09E0601C05
:1083A00007D024B100F068FA401BA04201D9032095
:1083B00070BDF068C007F2D1F068800601D52020BA
:1083C000F060F068C00605D4F069C00702D1F0681B
:1083D000400703D5FFF7AEFF012070BD002070BD40
:1083E000002002402DE9F05F90F8211000240229BE
:1083F00003D004218163012485E001680A6822F02A
:108400000E020A6001680A6822F001020A603F4E0B
:108410003E4FB215DFF8F4C0DFF8F090DFF8ECA0C3
:10842000DFF8E8B0DFF8E4E00168783F13011502F7
:10843000ACF1640CA9F15009AAF13C0AABF1280B8C
:10844000AEF1140E4FF48018B14227D9B9420ED0C4
:10845000614512D049451DD0514518D0594518D015
:10846000714501D1424615E0294EB14201D10122A8
:1084700010E0274E1436B14201D110220AE0244EFA
:108480002836B14206D0224A3C32914201D11A46E6
:1084900000E02A461E49091F0A602BE0B94213D0AA
:1084A000614517D0494522D051451DD059451DD0B1
:1084B000714501D142461AE0B14202D14FF08072BB
:1084C00015E0134EB14201D1012210E0104E1436D6
:1084D000B14201D110220AE00D4E2836B14206D039
:1084E0000B4A3C32914201D11A4600E02A46074924
:1084F00080394A60012180F82110002180F8201085
:10850000416B01B188472046BDE8F09F80000240E2
:10851000080402402DE9F047054626480F4601268B
:10852000017E01290FD00121814601762868DFF8FC
:1085300088804CF25034022808D0A2462046FFF72B
:1085400027FFA8B131E00220BDE8F0872046FFF701
:108550001FFF08BB0120FFF7BBFE2046FFF718FFF7
:10856000D8F81010064621F00401C8F810101CE0DD
:108570004FF0FF303860AC6811E02046FFF7BAFEDC
:108580005046FFF705FFD8F81010060021F0020151
:10859000C8F8101001D03C6007E004F50064D5E98C
:1085A000020100EBC120A042E7D8002189F8181091
:1085B0003046C9E7581100200020024003480169F5
:1085C00041F080010161002070470000002002405E
:1085D0002DE9F05F05461D4888460024017E1646B9
:1085E0001F46012909D00121814601764CF2503AFB
:1085F0005046FFF7CDFE18B123E00220BDE8F09F02
:10860000012D02D0022D00D00425D346DFF840A072
:1086100015E0220130463946FFF720FE81B208EB13
:108620004400FFF779FE5846FFF7B2FEDAF8102053
:1086300022F00102CAF8102018B9641CE4B2AC425E
:10864000E7D3002289F81820D8E70000581100204D
:1086500000200240064900200A69120607D5054A93
:108660004A60054A4A600969090600D50120704739
:108670000020024023016745AB89EFCD2DE9F84F7B
:10868000DFF8C091002409F1040A0AF1040B234623
:108690004FF00F080BF1040ECCE00127A7403A4041
:1086A000BA4272D1DFF8A0C14D68A5EB0C06654552
:1086B0002BD00DDC032D34D005DC35B3012D19D0C2
:1086C000022D2FD11BE0112D16D0122D2AD119E029
:1086D000B6F5881F19D006DCB6F5803F15D0B6F583
:1086E000801F1FD111E0B6F5001F0ED0B6F5041F94
:1086F00018D10AE0CB6815E0CB681B1D12E0CB68EF
:1087000008330FE0CB680C330CE08B682BB1012BE6
:108710004FF0080303D0476104E0042302E007613F
:1087200000E00023FF2A01D8064601E000F104061C
:108730004FEA840501D9A5F12005376808FA05FC40
:1087400027EA0C0703FA05F547EA050737604D6885
:10875000ED006ED53D4DAE6946F00106AE61AD69E6
:1087600024F0030605F001050095394D7719BE6820
:10877000A5072D0F08FA05FC26EA0C06DFF8D4C081
:10878000604503D14FF0000C25E052E0DFF8C8C08F
:10879000604502D14FF0010C1DE0DFF8C0C060451C
:1087A00002D14FF0020C16E0DFF8B4C0604502D1F0
:1087B0004FF0030C0FE0DFF8ACC0604502D14FF082
:1087C000040C08E0DFF8A0C0604502D14FF0050CB2
:1087D00001E04FF0060C0CFA05FC4CEA060CC7F859
:1087E00008C04D68D9F80060ED034D4601D5164329
:1087F00000E096432E604D68DAF80060AD03554600
:1088000001D5164300E096432E604D68DBF800600A
:10881000ED025D4601D5164300E096432E604D689B
:10882000DEF80060AD02754601D5164300E09643C0
:108830002E60641C0A6832FA04F57FF42EAFBDE89E
:10884000F88F0000000401400000111000100240E9
:108850000000014000080140000C014000100140F0
:108860000014014000180140001C01400AB10161E0
:1088700070470904FBE7000001488068704700006A
:1088800020000020002809DB00F01F020121914098
:108890004009800000F1E020C0F80011704700009E
:1088A000F0B40E4B1B68C3F30223C3F10704042C7E
:1088B00000D904241D1D072D01D2002300E0DB1E7A
:1088C000012606FA04F56D1E0D409D409E40761E61
:1088D000164045EA0601F0BC00F05EBB0CED00E07E
:1088E0000448054900684968044AC1F30221515C03
:1088F000C84070471C00002000100240D8A10008AA
:108900000448054900684968044AC1F3C221515C22
:10891000C84070471C00002000100240D8A1000889
:108920007047000070B5026804461068D16853694A
:1089300010F00F0F50D003F0010501F4907635438D
:108940005DD0C20705D0CA0503D5E26B42F0010233
:10895000E263420705D5DA0703D0E26B42F0020278
:10896000E263820705D5DA0703D0E26B42F0040226
:10897000E263020705D5DA0703D0E26B42F0080292
:10898000E263E26B002A33D0800604D5880602D564
:10899000204600F017FA20684069E16BC0F38010B0
:1089A000090700D428B3204600F0FEF92068416989
:1089B00049061AD5416921F040014161606BA0B1BF
:1089C0001B494163606BFFF70DFD002810D0606B01
:1089D000416BBDE870400847830610D58B060ED565
:1089E0002046BDE8704000F0EDB92046FFF798FF43
:1089F00070BD2046FFF794FF0020E06370BD0306C2
:108A000006D50B0604D52046BDE8704000F082BABA
:108A10004006F3D54806F1D5D168204621F0400143
:108A2000D160202184F8391000F0CCF870BD00002E
:108A3000998D000870B5040004D094F83900002521
:108A400010B106E0012070BD84F83850204600F0D7
:108A500023F8242084F839002068C16821F40051EB
:108A6000C160204600F0FAF92068016921F49041C4
:108A700001612068416921F02A0141612068C168D3
:108A800041F40051C160E563202084F8390084F886
:108A90003A00002070BD000010B500681E4986B085
:108AA000884236D11D48816941F0040181618169A4
:108AB00001F004010491816941F48041816181697F
:108AC00001F480410491816941F001018161806973
:108AD000134C00F0010004904FF40070009002204D
:108AE0000190012002900320039069462046FFF781
:108AF000C5FD211500910021019169462046FFF72F
:108B0000BDFD2520FFF7BEFE032211462520FFF7FD
:108B1000C7FE06B010BD0000003801400010024042
:108B20000008014090F83A30202B22D1F9B1F2B17F
:108B300090F83830012B1CD081628285C2850021DB
:108B4000C163222280F83A2080F838100168CA6890
:108B500042F48072CA6001684A6942F001024A61C7
:108B60000068C16841F02001C16000207047012009
:108B7000704702207047000070B500680D498842B8
:108B800016D10D4D0C480D496C6800780855641CD1
:108B90006C60B4F5806F0BD122460948FFF76EFB7D
:108BA0000748012112384170C0F80A40002068606F
:108BB00070BD00000038014014000020140900209E
:108BC000140100207047000009484FF000610A4A74
:108BD000016009134160074981604FF4C831C160E9
:108BE00002614161054981614FF4C041C161704733
:108BF000BC000020008000080010020800A003084C
:108C000070B51F4C1F4E4FF47A75617821B1012960
:108C100015D0022927D00BE001F0A8F92169401AEC
:108C2000A84226D301F0A2F9206170BD012200E024
:108C300000223046BDE870400421FFF717BE01F066
:108C400095F92169401AA842ECD201F08FF9216907
:108C5000401AB0F5967FE9D201F088F92169401AEF
:108C6000C828E5D205E001F081F92169401AC82839
:108C7000D8D201F07BF92169401A6428D8D3D5E70E
:108C8000000000200010014010B586B000200290C6
:108C90000D48816941F01001816180690B4C00F041
:108CA0001000049004200090012001900220039005
:108CB00069462046FFF7E2FC002204212046FFF728
:108CC000D5FD06B010BD00000010024000100140AC
:108CD00010B500F0A1FC01F04FF9BDE8104000F024
:108CE000A9BC0000144A10B55068144B10F00C01D8
:108CF000134803D0042901D0082901D0036012E0F1
:108D00005168536801F470114FF0020413F4803F6E
:108D100004EB914102D053689B0301D5094B00E05D
:108D2000064B594301605168074AC1F30311515C76
:108D30000268CA40026010BD0010024000127A00B2
:108D40001C00002000093D00C8A100080D48016872
:108D500041F00101016041680B4A11404160016826
:108D60000A4A11400160016821F4802101604168D4
:108D700021F4FE0141604FF41F0181600549044860
:108D800008607047001002400000FFF8FFFFF6FE89
:108D90000080000808ED00E010B5406A0021C185A0
:108DA000C184FFF7BDFD10BD0168CA6822F490724E
:108DB000CA6001684A6922F001024A61202180F8F4
:108DC0003A10704710B590F83A10222901D00220CD
:108DD00010BD8168B1F5805F11D00169002901687B
:108DE0001FD0496801F07F03816A4A1C82620B70C0
:108DF000C18D491E0904090CC18518D02BE00269F8
:108E0000816A002A0268526805D0D2B20A80816A5B
:108E1000491C8162ECE7C2F308020A80816A891C5E
:108E2000F7E74A68816A4B1C83620A70E0E70168D1
:108E3000CA6822F02002CA600168CA6822F48072FF
:108E4000CA6001684A6922F001024A61202180F863
:108E50003A10FFF791FE002010BD00002DE9F0410F
:108E6000044600680169E26821F440511143016140
:108E7000A16820690143606901432068C26841F22A
:108E80000C639A430A43C26020684169A26921F4D5
:108E90004071114341611E49206864253226884291
:108EA00002D1FFF72DFD01E0FFF71AFD00EBC00135
:108EB00001EB001160686FF018078000B1FBF0F261
:108EC000B2FBF5F2B1FBF0F37A4303EB8202B1FBA4
:108ED000F0F306EB0212B2FBF5F2B3FBF5F302F08E
:108EE000F00202EB0312B1FBF0F3B1FBF0F0B0FBC8
:108EF000F5F0784303EB800006EB0010B0FBF5F0D3
:108F0000216800F00F0010448860BDE8F081000087
:108F10000038014090F83910212901D00220704713
:108F20008168B1F5805F016A0BD04A1C0262026859
:108F300009785160C18C491E0904090CC1840ED006
:108F400017E009880268C1F308015160016900292E
:108F5000016A02D0491C0162ECE7891CFBE7016849
:108F6000CA6822F08002CA600068C16841F040010E
:108F7000C16000207047000010B50548FFF7D2FC23
:108F8000BDE81040012203490148FFF7CBBD0000B6
:108F900014110020140000200907090E002804DB2A
:108FA00000F1E02080F80014704700F00F0000F19D
:108FB000E02080F8141D7047002806D00E4910F0FC
:108FC000FF0F03D0C0B2085C401C704710F47F4F05
:108FD00004D0C0F30720085C0930704710F47F0FFD
:108FE00004D0C0F30740085C1130704701EB1060FB
:108FF0000078193070470000E0A1000802E008C8BE
:10900000121F08C1002AFAD170477047002001E002
:1090100001C1121F002AFBD17047000003480168FC
:10902000814201D00120704700207047A800002035
:109030002DE9FC4119460446DDE90837DDE90A65FA
:10904000143040600060C4E90821C4E90A373A4698
:10905000232118461C3400F0D7FBD4E90301421841
:10906000D4E90101104B121F00F0B8FA44F81A0BB2
:10907000002004F801690D4A04F8036BE4E80205D6
:1090800044F8105901C404F83C0B01C444F87409B5
:10909000009023460190194604F1440000F0E0FFDF
:1090A0000020BDE8FC810000719C0008B79E00080C
:1090B00010B5029C24F001044472C0E9071200219B
:1090C000C0E9093100EBC1021432491C5260126040
:1090D0000129F7DB10BD10B5002200EBC201521CC4
:1090E000F1E90534012A5C60D1E90034236049606C
:1090F0000960F2DB10BD000001F04AF83D48DFF8DE
:10910000F890002609F14604467082464FF00108A7
:10911000022704F1120B9AF80000514610B1012801
:1091200059D112E084F8008081F800808AF801703B
:109130006670C4F80E60D9F81000C4F80600B9F8DB
:10914000141089B200F0BEF845E06078012817D10C
:1091500000F00CFF44F8020F594604F8017C208906
:1091600082B2606800F02AF954F8041F6068014474
:1091700044F8081B2168084444F80D0904F8016903
:10918000207802282BD000F0F1FED4F80210401A0B
:1091900042F2107188421ED9184D194958462A6862
:1091A000FFF76CF82868C4F80A002E60677082B276
:1091B000D4F806005946A41C00F000F954F8041F26
:1091C0006068014444F8081B2168084444F80D090C
:1091D00004F801692770012000F0EAFD9BE70649C9
:1091E0002622203181F81480D9F8180000F085F883
:1091F00000F0D0F800000020BC0000201800002083
:10920000140900207CB5FFF7DFFCFFF73DFD4FF4AC
:10921000E13000F097F80A250620CDE900054FF46B
:10922000807300220D490EA000F0FDFC0E4C606022
:1092300008B100F009FE0520CDE900054FF40073E8
:1092400000220A490AA000F0EEFC6060002803D06A
:10925000BDE87C4000F0F8BD7CBD000079920008BC
:1092600074685F6C6564000000000020F9900008DD
:1092700074685F6961700000FFF7C2FC0A2000F0AB
:1092800097FDF9E7FFF7BEFF642000F091FDFBE7D3
:1092900010B500F001F9BDE81040FFF7F3BFA0F1F1
:1092A0000063DA0A5B055B0D00D0521C0144A1F19A
:1092B0000061C80A4905490D00D0401C801A401CB5
:1092C00080B2704700B585B00022A0F1006304921F
:1092D000B3F5802F02D3012005B000BD00920290AB
:1092E000FFF7DDFF0390FFF7B5F904A96846FFF724
:1092F00011F9FFF763F90498EEE72DE9F04106460E
:10930000A0F100600C461746B0F5802F02D3012073
:10931000BDE8F08111463046FFF7D4FFFFF79AF918
:10932000002508E00023314602202268FFF750F9AB
:10933000241D2D1D361DBD42F4D3FFF73FF900203B
:10934000E6E700000B4910B5094AC1E900200020FA
:109350008860C860086188610C2048610846FFF792
:1093600069FBBDE81040012203490248FFF7DABB60
:1093700000380140141100201400002010B5002313
:1093800004E010F8014BCC545B1C9BB29342F8D321
:1093900010BD0000012080F31388BFF34F8F0548F4
:1093A0000168054A01F4E06111430160BFF34F8F8A
:1093B00000BFFDE70CED00E00400FA052DE9F041E7
:1093C0000646A0F1006017460C46B0F5802F02D388
:1093D0000120BDE8F081FFF73DF9002508E00023FA
:1093E000314602202268FFF7F3F8241D2D1D361D9B
:1093F000BD42F4D3FFF7E2F80020EAE730B5134CA2
:1094000041682268114402F1080388420DD04D885A
:109410005DB96568A94208D0A5688D4200D1A060F9
:109420004D6845604968851ACD5081681144814274
:109430000BD04D88002D08D1A568854200D1A160D0
:1094400044684C604068891AC15030BD4400002017
:109450001CB502201421CDE90001C30100220449FA
:1094600004A000F0E0FBBDE81C4000F0EDBC0000F3
:10947000919200086D61696E0000000070B5044CA7
:10948000044D02E020688047241DAC42FAD370BD31
:1094900008A300080CA3000870B5044C044D02E0BA
:1094A00020688047241DAC42FAD370BD0CA300088D
:1094B00010A3000810B5FEF757FE044A5188491C56
:1094C0005180BDE81040FEF753BE00009C00002014
:1094D00010B5FEF749FE0B4C6188491E09B2618048
:1094E00000290ADC00216180FEF742FE6068002846
:1094F00007D0BDE8104000F035BABDE81040FEF7D7
:1095000037BE10BD9C00002070B5002825D0134D3B
:109510002968884221D3696888421ED2A0F10C04D0
:109520004FF0FF310E4800F0C5FA002060804FF484
:10953000F5502080A868844200D2AC602968606839
:10954000611A401A2969081A28612046FFF756FF58
:10955000BDE87040024800F091BA70BD44000020A0
:10956000F012002000487047501300200048704758
:10957000502B002010B5FFF7B5FB10484FF47A715F
:109580000068B0FBF1F0401EB0F1807F09D24FF0CF
:10959000E0210B4A4861FF201070002088610720FD
:1095A0000861FFF76BFFFFF7E1FF0446FFF7DAFF03
:1095B0002146BDE8104000F0C9BA00001C000020A0
:1095C00023ED00E0044910B5096811B1884700286F
:1095D00000D0FEE710BD00002C00002070B505464D
:1095E000121D22F0070040380A4C0646002240F8BF
:1095F0002240521C102AFAD301620021416281628A
:1096000000F13002C16282E82A004FF08071F163FC
:1096100070BD0000EFBEADDE10B5FEF7A5FD044A3B
:109620001178491C1170BDE81040FEF7A1BD000083
:109630004000002010B5FEF797FD044A1178491E3E
:109640001170BDE81040FEF793BD000040000020FF
:109650002DE9F041054614460E46084600F00AFC86
:1096600006F11407ACB1012C17D12C680DE096F867
:10967000351094F82120A4F11400914204D2394607
:10968000143000F022F802E02468AC42EFD1AC4282
:1096900003D13946284600F018F80020BDE8F081D3
:1096A0000268516002680A600160486070470268A1
:1096B000516002680A60016048607047026851604A
:1096C00002680A6001604860704742681160426841
:1096D0004A604160086070470168814201D1012001
:1096E0007047002070470168814201D10120704716
:1096F00000207047D0E900124A60D0E900121160E2
:10970000406000607047D0E900124A60D0E9001262
:1097100011604060006070472DE9F047002807D0D5
:10972000374EC01C20F00305F068854202D90020A6
:10973000BDE8F0870C2D00D20C254FF0FF313148E9
:1097400000F0B8F9D6F808C03168F768ACEB010052
:109750007A1B4FE00C186388E3BB63681B1A0C3B51
:10976000AB4246D362684FF00109131A05F11802A3
:109770000C3B4FF4F55A93422DD343190C33CA18BE
:109780004FF00008A2F800A0A2F80280D4F80480EC
:10979000C2E901806360A4F8029050680C37B842B7
:1097A00002D001F108028350306928440C30306146
:1097B0007269824200D27061A4F800A0644512D19F
:1097C000B06842887AB1726890420CD04068084410
:1097D000B060F6E70DE0A4F802906068621A801AA3
:1097E00032691044E3E7074800F048F904F10C003F
:1097F0009EE760688242ADD8024800F03FF996E7E4
:1098000044000020F012002010B50346CCB2042A18
:1098100019D3810717D1194644EA042343EA0343C5
:1098200006E008C1103A08C141F8083B41F8043C81
:10983000102AF6D201E008C1121F042AFBD20B46FF
:1098400001E003F8014B521EFBD210BD2DE9F0419F
:109850000F46064600F044F80546C068FFF75CFF77
:10986000041E17D00021EA68FFF7CEFF2672002001
:10987000607208223946204600F054F9FEF774FC65
:10988000064604F10C01281DFFF70AFF3046FEF7DB
:109890006FFC2046BDE8F08170B5044600202072C0
:1098A000FEF762FC054604F10C00FFF723FF284693
:1098B000FEF75EFC2046BDE87040FFF725BE70B5A0
:1098C000044600202072FEF74FFC054604F10C0010
:1098D000FFF710FF2846BDE87040FEF749BC0000C6
:1098E000074A002102EB01131B78834202D102EBED
:1098F00001107047491C0429F4DB00207047000068
:109900005C0000202DE9F041054617460E4608464A
:10991000FFF7E6FF0446FFF7CDFD211D606800E07C
:1099200000688842FCD1FFF7D3FD46F08000287222
:1099300008223946284600F0F5F8FEF715FC0646E1
:1099400005F10C01201DFFF7ABFE3046BDE8F041EC
:10995000FEF70EBC007A000601D5012070470020FA
:109960007047000070B5FEF7FFFB114C054660889C
:10997000B0B9A068FFF720FB0E49401E626851F89D
:109980003010143991420BD020700B486160007880
:1099900001F11C01002802F11C0006D0FEF7EBFBD0
:1099A0002846BDE87040FEF7E3BBFEF7E4FBF7E7AF
:1099B0009C000020101300204000002010B5044639
:1099C000FEF7D2FB024694F834000E4920F00F0057
:1099D000401C84F8340094F8350001EBC00104F118
:1099E00014004B6818604B68A361486006486161C9
:1099F000A16B836819438160BDE810401046FEF7F3
:109A0000B7BB0000101300209C00002070B5054675
:109A1000FEF7AAFB05F114040146D4E900024260F6
:109A2000D4E900021060AC616C6195F83500084A19
:109A300002EBC0000268824204D10648AB6B826828
:109A40009A438260BDE870400846FEF791BB000073
:109A5000101300209C0000202DE9F04116460A4614
:109A60001F4605460221FFF74DFF05F11404AC61C6
:109A70006C61AE836F720020BDE8F08170B5044662
:109A80000025FEF771FB064604F11400FFF724FEE3
:109A900050B1A08B401CA0833046FEF769FB0DB18E
:109AA000FFF760FF002070BD6069143800F087F98F
:109AB0000125F1E773B50446FEF756FB0646A08B79
:109AC00028B1401EA0833046FEF752FB21E00198EA
:109AD00008B300F093F9054600202863627A29460E
:109AE00004F11400FFF7B4FD0198002809DD05F129
:109AF000440001AA0021044600F08AFA204600F042
:109B0000C3FA3046FEF734FBFFF72CFF286B002822
:109B100000D100207CBD3046FEF72AFB6FF001002B
:109B20007CBD704710B5002A07D0034611F8014BE1
:109B300003F8014B2CB1521EF8D110BD03F8011BE4
:109B400000E00021521EF9D110BD0000C01C10B56C
:109B500021F0030120F0030018291FD9A1F11802F8
:109B600082421BD30E4C091A1839E1604FF4F552AA
:109B70002060028000230C31C0E901134380436858
:109B800018446060028001224280416081600023AD
:109B900004A10648FFF760FF2068A06010BD000028
:109BA000440000206865617000000000F012002091
:109BB00010B50A4A00230A4C5380184604EBC00132
:109BC000401C496009600828F8DB07201070034832
:109BD00053600C3093604060006010BD9C0000201A
:109BE0001013002010B5074CA068FFF7E5F90649EF
:109BF000401E51F8300014386060BDE810401C3041
:109C0000FEF7E7BA9C00002010130020044A002051
:109C100002EBC001401C49600960F9D070470000A8
:109C2000B400002070472DE9FF478946DDE90C7636
:109C3000824601461D4690460120FFF707FE041E9E
:109C40000DD02846FFF768FD60B103968DE8A100AE
:109C500043464A4651462046FFF7EAF9204604B0FB
:109C6000BDE8F0872046FFF717FE0020F7E7000069
:109C700070B513480468FEF777FA05462046FFF7EB
:109C8000C5FE042084F8340004F1440000F0D8F943
:109C90002046FFF75FFE012801D1206F58B104F183
:109CA00014010848FFF703FD2846FEF761FABDE8F6
:109CB0007040FFF757BE2046FFF701FEF4E70000B3
:109CC000A0000020A800002000F002F8FCE700003F
:109CD00070B527E0FEF748FA0546FFF79FF958B33D
:109CE00018480168A1F11404D1E900024260D1E9E9
:109CF0000002106049600960FFF7DCFB216F09B1C9
:109D0000204688472046FFF725FE01280FD0FFF7A1
:109D1000DFFB2846FEF72CFAA06AFFF7F5FB20468A
:109D2000FFF7BAFDFFF77AF90028D3D170BD2046BE
:109D3000FFF7C5FDFFF7CCFB2846BDE87040FEF7F6
:109D400017BA0000A80000201FB5202308480722EA
:109D5000D9008DE80F000023064A07A1783800F0EB
:109D60000FF804B00248BDE81040783800F06CB835
:109D7000F0110020C99C00087469646C6500000043
:109D80002DE9FF5F92460EAA0F4692E870010A463F
:109D9000994683460121FFF7B5FD8DE870014B46DA
:109DA000524639465846FFF743F904B0BDE8F09FE4
:109DB00010B500F0C1F8BDE8104000F025B870B54E
:109DC000044690F8340000F00F00022802D04FF053
:109DD000FF3070BDFEF7C8F9054604F11400FFF727
:109DE00092FC04F1440000F09FF92846FEF7C0F908
:109DF0002046FFF7E3FD002070BD00000148006829
:109E000070470000A0000020F1B5FEF7ADF905464F
:109E10000C480468204600F02DF804F144006A461E
:109E20000021064600F0F4F8304600F02DF92846EF
:109E3000FEF79EF9FFF796FD206B801C00D1206392
:109E40000020F8BDA000002010B590F836100122C7
:109E500080F835108A400221826380F83410FFF7C1
:109E6000AEFF0348006808B1FFF77CFD002010BD7D
:109E7000A000002070B5044690F8340000F00F00F8
:109E8000012802D04FF0FF3070BDFEF76DF9054696
:109E900094F8340020F00F00801C84F83400204631
:109EA000FFF7B4FD04F1440000F03EF92846FEF748
:109EB0005FF9002070BD10B504466FF0010020630B
:109EC00004F11400FFF71FFC2046FFF777FDBDE803
:109ED0001040FFF747BD000070B5FEF745F9064694
:109EE0001348046894F8340000F00F00012819D1D9
:109EF000D4E90501884215D004F114000546FFF7A6
:109F000002FC94F835000B4901EBC00041680D607C
:109F100041686960456028603046FEF729F9FFF71F
:109F200021FD02E03046FEF723F9002070BD00005D
:109F3000A000002010130020002802DA4FF0FF30AC
:109F400070474FF47A7190FBF1F290FBF1F301FB53
:109F5000130000EB40034A43C3EBC0104B1E03EB5E
:109F6000C00090FBF1F01044704700000148006809
:109F7000704700003C000020094810B50168491CEA
:109F80000160FFF73BFF016C491E016403D1C16B07
:109F90000164FFF7A1FFBDE8104000F003B8000026
:109FA0003C00002070B5FFF7E1FF0546FEF7DCF846
:109FB000064620E015486FF0004104686069143CD3
:109FC000281A88421CD22046FFF785F8D4E90710EA
:109FD0008847FFF7CBFF0546607A810708D5C107A0
:109FE00006D020F001006072204600F04DF802E03B
:109FF00020F0010060720548FFF775FB0028D9D0FA
:10A000003046BDE87040FEF7B3B80000B400002051
:10A0100049B1012904D0022908D003290ED109E051
:10A02000406A10600AE01168416207E0417A21F05D
:10A03000020102E0417A41F00201417200207047C2
:10A0400070B50546FEF790F804462846FFF743F83A
:10A050002046FEF78DF82846FFF731FC002070BD42
:10A060002DE9F8439046DDE908450A461F460646B5
:10A070000A21FFF747FC23463A4641463046009501
:10A08000FFF716F8BDE8F8832DE9F8430446FEF71C
:10A090006BF805462046FFF71EF8607A20F00100B5
:10A0A00060722846FEF764F8FFF760FF616A0844B3
:10A0B000A062FEF759F81B4F804600226D460097BC
:10A0C0000DE00668A36AA6EBC2014969994204D073
:10A0D000C91A6FF00043994208D345F8226007EB94
:10A0E000C20155F8220049688842EAD11AB105EB4D
:10A0F000820108304860521CF1D00A48001F0168F4
:10A10000491C016004F114010098FFF7D7FA607A46
:10A1100040F0010060724046FEF72AF80020BDE8DA
:10A12000F8830000B400002070B50446407AC007F0
:10A130000ED0FEF719F805462046FEF7CCFF28465C
:10A14000FEF716F8607A20F001006072002070BD02
:10A150004FF0FF3070BD0020704700207047002096
:10A1600070470020704710B5FDF7FEFFFFF702FAB9
:10A17000FFF7D7FCFFF74AFDFFF71AFDFFF768F975
:10A18000FFF750FDFFF7E0FDFFF72CFD002010BDAD
:10A190000C480B49016040F20311416042F608711E
:10A1A00081604FF4C831C1604FF40051016100215A
:10A1B00001752038262280690249FFF7DFB80000C8
:10A1C00045230100DC00002000000000000000002A
:10A1D000010203040607080900000000010203044D
:10A1E0000000010002000100030001000200010064
:10A1F0000400010002000100030001000200010050
:10A20000050001000200010003000100020001003E
:10A21000040001000200010003000100020001002F
:10A22000060001000200010003000100020001001D
:10A23000040001000200010003000100020001000F
:10A2400005000100020001000300010002000100FE
:10A2500004000100020001000300010002000100EF
:10A2600007000100020001000300010002000100DC
:10A2700004000100020001000300010002000100CF
:10A2800005000100020001000300010002000100BE
:10A2900004000100020001000300010002000100AF
:10A2A000060001000200010003000100020001009D
:10A2B000040001000200010003000100020001008F
:10A2C000050001000200010003000100020001007E
:10A2D000040001000200010003000100020001006F
:10A2E000303132333435363738396162636465660C
:10A2F0000030313233343536373839414243444502
:10A300004600000063A100085BA1000857A10008F7
:10A310005FA1000834A3000800000020BC0000007A
:10A32000FC8F0008F0A30008BC000020942E000061
:10A330000C90000800000000000000000000000079
:10A34000000000000000000000000000000000000D
:10A3500000127A0001000000100000000000000060
:10A3600000000000000000000000000000000000ED
:10A3700000000000000000000000000000000000DD
:10A3800000000000000000000000000000000000CD
:10A390000100000060000020600000207800000044
:10A3A000020000007000002070000020200000006B
:10A3B0000500000080000020800000203000000028
:10A3C0000A00000090000020900000202C000000F7
:10A3D000000000000000000000000000000000007D
:10A3E000000000000000000000000000000000006D
:04000005080081313D
:00000001FF
