:020000040800F2
:10800000582B0020458100084D8100080F82000890
:1080100051810008538100085581000800000000CC
:108020000000000000000000000000005781000870
:10803000598100080000000097810008A190000805
:108040005F8100085F8100085F8100085F81000890
:108050005F8100085F8100085F8100085F81000880
:108060005F8100085F8100085F8100085F81000870
:108070005F8100085F8100085F8100085F81000860
:108080005F8100085F8100085F8100085F81000850
:108090005F8100085F8100085F8100085F81000840
:1080A0005F8100085F8100085F8100085F81000830
:1080B0005F8100085F8100085F8100085F81000820
:1080C0005F8100085F8100085F8100085F81000810
:1080D0005F810008B59400085F8100085F81000897
:1080E0005F8100085F8100085F8100085F810008F0
:1080F0005F8100085F8100085F8100085F810008E0
:108100005F8100085F8100085F8100085F810008CF
:108110005F8100085F8100085F8100085F810008BF
:108120005F8100085F8100085F8100085F810008AF
:10813000DFF80CD000F0B4F800480047C582000812
:10814000582B00200648804706480047FEE7FEE718
:10815000FEE7FEE7FEE7FEE7FEE7FEE7FEE7FEE7F7
:108160005591000831810008EFF3108072B6704716
:1081700080F310887047334A1368012B04D04FF006
:1081800001031360304A1060304A116030484FF0EC
:10819000805101607047EFF3108272B62948016880
:1081A00091B14FF0000101602748016829B1EFF358
:1081B000098121E9F00F0068016024490968096814
:1081C000B1E8F00F81F3098882F310884EF0040EB5
:1081D00070471E4908601C494FF0000008601949AB
:1081E0004FF0010008601B484FF47F01D0F80020D9
:1081F00041EA0201016016484FF0805101601648C3
:108200000068006880F3088861B662B670471EF0A7
:10821000040F0CBFEFF30880EFF3098020E9F00FA3
:1082200040F804ED1EF0040F0CBF80F3088880F3C3
:10823000098800B501F0B4FD5DF804EB4EF0040EC2
:10824000704700003800002030000020340000207B
:1082500004ED00E020ED00E008ED00E0202A04DB62
:10826000203A21FA02F00021704721FA02F3D040AF
:10827000C2F12002914008431946704740EA0103C9
:108280009B0703D009E008C9121F08C0042AFAD2CC
:1082900003E011F8013B00F8013B521EF9D2704790
:1082A000064C074D06E0E06840F0010394E8070043
:1082B00098471034AC42F6D3FFF73EFF48AD0008B4
:1082C00068AD000810B502F077FC002010BD00007A
:1082D0000021074AD1610749096941F00401054AB3
:1082E00011611146096941F04001116170470000B8
:1082F000600D0020002002400021074AD16107499B
:10830000096941F00201054A116111464861096994
:1083100041F0400111617047600D002000200240D3
:108320000022054BDA61054A126942F00102034B53
:108330001A61018070470000600D0020002002409B
:1083400000201E49C96801F0100139B11C49C969F2
:1083500041F002011A4AD16140F010001749C96882
:1083600001F0040139B11649C96941F00101144A0B
:10837000D16140F004001149C96901F0010169B1FE
:108380000F49C96941F004010D4AD16100BF0B4991
:10839000C96921F00101094AD16100BF00BF40F263
:1083A0000111884206D10549C96921F00101034A3A
:1083B000D16101E00149C86000BF70470020024060
:1083C000600D002070B5044600F088FB054609E00A
:1083D000601C38B124B100F081FB401BA04201D9E0
:1083E000032070BD1248C06800F001000028EFD1E2
:1083F0000F48C06800F0200020B100BF20200C49C9
:10840000C86000BF0A48C06800F0100048B90848BA
:10841000C06900F0010020B90548C06800F0040000
:1084200018B1FFF78DFF0120DBE70020D9E700003E
:108430000020024070B50446002594F8210002286F
:1084400003D00420A0630125C1E02068006820F06B
:108450000E00216808602068006820F00100216893
:1084600008605C492068884252D95A4978392068A6
:10847000884201D1012047E056496439206888428A
:1084800001D1102040E0534950392068884201D181
:10849000801539E04F493C392068884201D1801469
:1084A00032E04C4928392068884202D14FF48030AC
:1084B0002AE0484914392068884202D14FF48010DC
:1084C00022E044492068884201D140041CE042492E
:1084D0002068884201D1012016E03F49143120680C
:1084E000884201D110200FE03B49283120688842A2
:1084F00001D1801508E038493C312068884201D11B
:10850000801401E04FF480303349091F086051E0C6
:10851000304978392068884201D1012047E02D494F
:1085200064392068884201D1102040E0294950393F
:108530002068884201D1801539E026493C392068FD
:10854000884201D1801432E02249283920688842CB
:1085500002D14FF480302AE01E4914392068884245
:1085600002D14FF4801022E01A492068884201D1DC
:1085700040041CE018492068884201D1012016E01F
:10858000154914312068884201D110200FE01249AA
:1085900028312068884201D1801508E00E493C311D
:1085A0002068884201D1801401E04FF480300949ED
:1085B00080394860012084F8210000BF002084F841
:1085C000200000BF606B10B12046616B88472846D1
:1085D00070BD000080000240080402402DE9F04117
:1085E00004460E460127002500BF2648007E0128CC
:1085F00002D10220BDE8F08101202249087600BFA7
:108600002068022813D14CF25030FFF7DBFE90BBFC
:108610000120FFF75DFE4CF25030FFF7D3FE074616
:108620001948006920F004001749086123E04CF262
:108630005030FFF7C7FEF0B94FF0FF303060A5684B
:1086400012E02846FFF758FE4CF25030FFF7BAFE12
:1086500007460D48006920F002000B4908610FB180
:10866000356007E005F50065D4E9021001EBC02094
:10867000A842E6D800BF00BF00200249087600BF2C
:108680003846B7E7600D002000200240034800692B
:1086900040F080000149086100207047002002403E
:1086A0002DE9FE4F05468B461746984601260024C5
:1086B0000020029000BF2448007E012802D1022041
:1086C000BDE8FE8F01202049087600BF4CF25030F3
:1086D000FFF778FE064686BB012D02D101200290ED
:1086E00006E0022D02D10220029001E00420029057
:1086F00000241EE02201B946C24648465146FFF713
:10870000ADFD80B20190022000FB04B00090019901
:10871000FFF706FE4CF25030FFF754FE06460B48BA
:10872000006920F001000949086106B104E0601CFD
:10873000C4B202988442DDDB00BF00BF00200249C2
:10874000087600BF3046BBE7600D002000200240E5
:1087500000200849096901F0800151B10649054A24
:108760005160064951601146096901F0800101B16B
:10877000012070470020024023016745AB89EFCDFF
:108780002DE9F847024600239C467BE14FF00108A3
:1087900008FA03F4D1F8008008EA0400A0427DD171
:1087A000DFF8F4A2D1F80480A8EB0A09D0453AD04A
:1087B00014DCB8F1030F50D009DCB8F1000F31D050
:1087C000B8F1010F1CD0B8F1020F49D120E0B8F187
:1087D000110F18D0B8F1120F42D11EE0B9F5881F61
:1087E00025D006DCB9F5803F20D0B9F5801F37D100
:1087F0001AE0B9F5001F18D0B9F5041F30D117E001
:10880000D1F80CC02DE0D1F80C8008F1040C28E060
:10881000D1F80C8008F1080C23E0D1F80C8008F1A5
:108820000C0C1EE000BF00BF00BF00BF00BF00BFB8
:10883000D1F80880B8F1000F02D14FF0040C0BE022
:10884000D1F80880B8F1010F03D14FF0080C146182
:1088500002E04FF0080C546103E04FF0000C00E020
:1088600000BF00BFFF2801D8904601E002F10408D4
:108870004646FF2802D84FEA830803E0A3F1080820
:108880004FEA88084746D6F800804FF00F0909FAEA
:1088900007F928EA09080CFA07F900E07AE048EA43
:1088A0000908C6F80080D1F8048008F08058B8F1B3
:1088B000805F6FD100BFDFF8E481D8F8188048F0FE
:1088C0000108DFF8D891C9F81880C846D8F8188090
:1088D00008F00108CDF8008000BF00BF4FEAB938AA
:1088E0004FEA930958F829504FEA83784FEA1879EC
:1088F0004FF00F0808FA09F825EA0805DFF8A0810B
:10890000424502D14FF0000824E0DFF8988142454B
:1089100002D14FF001081DE0DFF88C81424502D101
:108920004FF0020816E0DFF88481424502D14FF093
:1089300003080FE0DFF87881424502D14FF00408C8
:1089400008E0DFF87081424502D14FF0050801E0F0
:108950004FF006084FEA83794FEA197908FA09F8C7
:1089600048EA0505DFF850814FEA930948F8295095
:10897000D1F8048008F48038B8F5803F0BD1DFF8D7
:108980003C81D8F8008048EA0008DFF83091C9F847
:1089900000800AE075E0DFF82481D8F8008028EA3A
:1089A0000008DFF81891C9F80080D1F8048008F4B5
:1089B0000038B8F5003F0ED1DFF8008108F1040857
:1089C000D8F8008048EA0008DFF8F09009F10409BF
:1089D000C9F800800DE0DFF8E48008F10408D8F859
:1089E000008028EA0008DFF8D49009F10409C9F8EA
:1089F0000080D1F8048008F48018B8F5801F0ED1EB
:108A0000DFF8B88008F10808D8F8008048EA0008C4
:108A1000DFF8A89009F10809C9F800800DE0DFF837
:108A20009C8008F10808D8F8008028EA0008DFF8E0
:108A30008C9009F10809C9F80080D1F8048008F485
:108A40000018B8F5001F0ED1DFF8708008F10C088F
:108A5000D8F8008048EA0008DFF8609009F10C09B6
:108A6000C9F800800DE0DFF8548008F10C08D8F850
:108A7000008028EA0008DFF8449009F10C09C9F8E1
:108A800000805B1CD1F8008028FA03F8B8F1000FD1
:108A90007FF47CAEBDE8F8870000111000100240A2
:108AA00000080140000C014000100140001401408A
:108AB00000180140001C0140080001400004014072
:108AC000024693680B400BB1012000E00020704784
:108AD0000AB1016101E00B040361704701480068BD
:108AE000704700002400002001460846002809DBEA
:108AF00000F01F0301229A4043099B0003F1E02389
:108B0000C3F8002100BF70472DE9F05F80460D4695
:108B10001646002700F02CFD074639462A46334604
:108B200001F00700C0F1070ABAF1040F02D94FF0B3
:108B3000040A01E0C0F1070AD14600F1040ABAF1C3
:108B4000070F02D24FF0000A01E0A0F1030AD44659
:108B50004FF0010A0AFA09FAAAF1010A0AEA020A1E
:108B60000AFA0CFA4FF0010B0BFA0CFBABF1010BFC
:108B70000BEA030B4AEA0B042146404600F000FDD5
:108B8000BDE8F09F01480068704700002000002009
:108B900000B5FFF7F7FF04494968C1F30221034A12
:108BA000515CC84000BD0000001002400CAC000841
:108BB00000B5FFF7E7FF04494968C1F3C221034A42
:108BC000515CC84000BD0000001002400CAC000821
:108BD000704700002DE9F0470446206805682068CA
:108BE000C668206847694FF00008C14605F00F08C5
:108BF000B8F1000F0AD105F0200038B106F02000CE
:108C000020B1204600F0FEFABDE8F087B8F1000F71
:108C10006DD007F0010018B906F49070002866D0F6
:108C200005F0010030B106F4807018B1E06B40F03F
:108C30000100E06305F0040030B107F0010018B155
:108C4000E06B40F00200E06305F0020030B107F095
:108C5000010018B1E06B40F00400E06305F008008B
:108C600030B107F0010018B1E06B40F00800E0639C
:108C7000E06B68B305F0200028B106F0200010B1C9
:108C8000204600F0BFFA20684069C0F38019E06B0D
:108C900000F0080010B9B9F1000F22D0204600F012
:108CA00091FA2068406900F04000B0B12068406946
:108CB00020F0400021684861606B50B11748616B3B
:108CC0004863606BFFF7B6FB10B1606B416B884780
:108CD0000CE02046FFF77CFF08E02046FFF778FF16
:108CE00004E02046FFF774FF0020E0638CE705F006
:108CF000800030B106F0800018B1204600F0A6FBDD
:108D000082E705F0400030B106F0400018B120467F
:108D100000F068FA78E700BF76E70000B19100083C
:108D200010B504460CB9012010BDA06900B100E0E7
:108D300000BF94F8390028B9002084F83800204694
:108D400000F028F8242084F839002068C06820F456
:108D500000502168C860204600F0A8FA2068006929
:108D600020F49040216808612068406920F02A00C2
:108D7000216848612068C06840F400502168C860DC
:108D80000020E063202084F8390084F83A000020B5
:108D9000CAE7000010B586B004462549206888421D
:108DA00044D100BF2348806940F004002149886114
:108DB0000846806900F00400019000BF00BF00BFBA
:108DC0000846806940F4804088610846806900F464
:108DD0008040019000BF00BF00BF0846806940F09E
:108DE000010088610846806900F00100019000BF21
:108DF00000BF481502900220039001200490032038
:108E0000059002A90C48FFF7BBFC4FF4806002906C
:108E10000020039002A90848FFF7B2FC2520FFF7C5
:108E200063FE012203212520FFF76EFE06B010BD70
:108E300000380140001002400008014010B5034610
:108E400093F83A0020282FD101B10AB9012010BDB2
:108E500000BF93F83800012801D10220F7E7012074
:108E600083F8380000BF99629A85DA850020D863BC
:108E7000222083F83A0000BF002083F8380000BFAA
:108E80001868C06840F480701C68E0601868406929
:108E900040F001001C6860611868C06840F0200064
:108EA0001C68E0600020D2E70220D0E770477047DE
:108EB0004FF0006009490860001348600848886066
:108EC0004FF4C830C860074808614FF4C8304861A3
:108ED000054888614FF4C040C8617047C400002055
:108EE000008000080010020800A0030810B54548E3
:108EF0000078F8B901F024FD43490968401AB0F53B
:108F00007A7F04D301F01CFD3F49086079E001F04D
:108F100017FD3D490968401A642805D30122042140
:108F20003A48FFF7D5FD6CE0002204213748FFF7EF
:108F3000CFFD66E03348007801283AD101F000FD0A
:108F400031490968401AB0F57A7F04D301F0F8FC82
:108F50002D49086055E001F0F3FC2B490968401ADF
:108F6000B0F5967F05D3012204212848FFF7B0FD14
:108F700047E001F0E5FC24490968401AC82805D3F8
:108F8000002204212148FFF7A3FD3AE001F0D8FCBC
:108F90001D490968401A642805D3012204211B4891
:108FA000FFF796FD2DE0002204211848FFF790FD01
:108FB00027E01448007802281ED101F0C1FC1249B4
:108FC0000968401AC82804D301F0BAFC0E490860A9
:108FD00017E001F0B5FC0C490968401A642805D374
:108FE000012204210948FFF773FD0AE00022042151
:108FF0000648FFF76DFD04E0002204210348FFF757
:1090000067FD10BD000000200C0000200010014092
:1090100000B585B00020019002900390049000BF3D
:109020001C48806940F010001A4988610846806930
:1090300000F01000009000BF00BF0420019001204C
:109040000290002003900220049001A91248FFF72B
:1090500097FB002204211048FFF73AFD00BF0D489E
:10906000806940F008000B4988610846806900F07B
:109070000800009000BF00BF4FF4004001900020A6
:10908000029003900220049001A90448FFF778FBA6
:1090900005B000BD0010024000100140000C01406E
:1090A00010B500F0B5FE01F051FC00F0C1FE10BD9E
:1090B00010B5002100200022214B5B6803F00C0159
:1090C00021B1042906D0082928D107E01D4B1E4CE8
:1090D000236027E01B4B1C4C236023E0184B5B688C
:1090E00003F47010164B5B6803F48032022303EB29
:1090F000904022B9154B4343134C23600DE0104BB5
:109100005B6803F4003323B1104B43430E4C2360E0
:1091100003E00C4B43430C4C236003E0094B0A4C27
:10912000236000BF00BF064B5B68C3F30313084C0A
:10913000E15C054B1B68CB40034C236010BD000075
:109140000010024000127A002000002000093D00BB
:10915000FCAB00081148006840F001000F490860AE
:10916000084640680E4908400C49486008460068B7
:109170000C490840094908600846006820F480202E
:1091800008600846406820F4FE0048604FF41F0065
:1091900088600548054908607047000000100240DB
:1091A0000000FFF8FFFFF6FE0080000808ED00E079
:1091B00070B505466C6A0020E085E0842046FFF724
:1091C00007FD70BD0168C96821F490710268D16023
:1091D0000168496921F0010102685161202180F88C
:1091E0003A10704710B504462068C06820F040006F
:1091F0002168C860202084F839002046FFF757FE18
:10920000002010BD70B5044694F83A0022284AD1D7
:10921000A068B0F5805F13D1A56A206940B92068C5
:109220004068C0F308002880A06A801CA06219E092
:1092300020684068C0B22880A06A401CA06211E08B
:10924000206938B920684068C1B2A26A501CA06287
:10925000117007E02068406800F07F01A26A501C8E
:10926000A0621170E08D401E80B2E085C8B9206810
:10927000C06820F020002168C8602068C06820F421
:1092800080702168C8602068406920F00100216872
:109290004861202084F83A002046FFF707FE0020AE
:1092A00070BD0020FCE70220FAE7000070B504461C
:1092B0002168096921F44051E26811432268116173
:1092C0002269A1681143626941EA02052168C968FF
:1092D00041F20C62914329432268D16021684969B7
:1092E00021F44071A269114322685161564A2168F4
:1092F000914254D1FFF75CFC00EBC00101EB00117F
:1093000062689200B1FBF2F100EBC00202EB0012C6
:1093100063689B00B2FBF3F26423B2FBF3F202EB4F
:10932000C20303EB0212A1EB8201322202EB011114
:109330006422B1FBF2F101F0F00100EBC00202EB9C
:10934000001263689B00B2FBF3F26423B2FBF3F2FA
:1093500001EB021200EBC00101EB001163689B00FE
:10936000B1FBF3F100EBC00303EB00136668B6003A
:10937000B3FBF6F36426B3FBF6F303EBC30606EB8D
:109380000313A1EB8301322303EB01116423B1FB2F
:10939000F3F101F00F0111442268916053E0FFF7EF
:1093A000F7FB00EBC00101EB001162689200B1FB1A
:1093B000F2F100EBC00202EB001263689B00B2FB0B
:1093C000F3F26423B2FBF3F202EBC20303EB0212EB
:1093D000A1EB8201322202EB01116422B1FBF2F116
:1093E00001F0F00100EBC00202EB001263689B0089
:1093F000B2FBF3F26423B2FBF3F201EB021200EBD7
:10940000C00101EB001163689B00B1FBF3F100EBBD
:10941000C00303EB00136668B600B3FBF6F36426E3
:10942000B3FBF6F303EBC30606EB0313A1EB8301D7
:10943000322303EB01116423B1FBF3F101F00F01BF
:1094400011442268916070BD00380140014691F8D6
:10945000390021282CD18868B0F5805F0FD10A6AC5
:109460001088C0F308000B685860086918B9086ACA
:10947000801C086209E0086A401C086205E00B6A6B
:10948000581C086218780B685860C88C401E80B25F
:10949000C88458B90868C06820F080000B68D8609C
:1094A0000868C06840F040000B68D8600020704732
:1094B0000220FCE710B51C4800680068C0F34010AB
:1094C00040B31A480068C4B219481A49096844549C
:1094D00018480088401CC0F3090016490860164867
:1094E0004078022816D008460068B0F57A7F11D37C
:1094F00008460F49026810481230FEF7BFFE0D48BB
:1095000000680D49C1F80A0000200A4908600120DE
:10951000094948700448FFF75DFB012207490248EA
:10952000FFF78CFC10BD00001C0D0020043801402A
:109530001C090020180000200A0100201C00002047
:109540000146481EB0F1807F01D301207047481EBC
:109550004FF0E0225061FF20044A107000204FF0CD
:10956000E0229061072010610020EFE723ED00E08A
:1095700002480068C0F30220704700000CED00E0D4
:1095800010B5002804DB0A07130E054A135406E041
:109590000A07140E034A00F00F031B1FD45410BD1A
:1095A00000E400E018ED00E0014609B90020704732
:1095B000C8B220B1C8B20E4A105C401CF7E701F4F3
:1095C0007F4028B10A48C1F30722805C0930EEE7EA
:1095D00001F47F0028B10648C1F30742805C1130D6
:1095E000E5E7034800EB116000781930DFE7000081
:1095F00014AC000802E008C8121F08C1002AFAD102
:1096000070477047002001E001C1121F002AFBD102
:109610007047000003490868884201D00120704764
:109620000020FCE7B00000202DE9FC5F04468B46DB
:1096300015461E46DDE90C9ADDE90E7804F11400AA
:109640004060006000BF1C346560A660C4F80C90E8
:10965000C4F810A02321D4E9030200F03FFDD4E9AF
:10966000033C63441A1F0F4BD4E9010100F0AAFB2D
:109670002060A77667760020E061C4F82080C4F8F7
:109680002480606120766065A0651C3C00902346C4
:10969000054A2146019004F1440001F0D9F9002067
:1096A000BDE8FC9F1DA6000885A800082DE9F0472D
:1096B00004460E4617469846DDF8209084F8099037
:1096C000607A20F001006072E66127620020A062EB
:1096D000C4F82480002506E004F1140101EBC50064
:1096E00000F004FC6D1C012DF6DBBDE8F08710B521
:1096F0000246002001460EE002F1140303EBC10014
:10970000D0E900436360D0E900342360406000602A
:1097100000BF481C01460129EEDB10BD01F062FAD2
:10972000002074490870E4E07348007830B10128E3
:1097300024D002287ED003287DD1D3E06F48007862
:1097400001281AD16C49087000206C494870C1F892
:109750000A00C1F80E006A480069C1F80600684AAC
:10976000928A91B2664A106900F054F901F0E8F863
:109770006249C1F8020002200870B6E05F48007834
:1097800002287DD15F480068B0F57A7F11D35D482B
:1097900000685A49C1F80A0000205A490860574831
:1097A000D0F80A2058491230FEF768FD01205349CD
:1097B000487052484078012829D102204D4908704C
:1097C00001F0BEF84D49C1F80200022048704989F5
:1097D0008AB24A49D1F80600123100F0BBF9474875
:1097E000D0F806004549D1F80A1008444349C1F8A9
:1097F00006000846D0F80E00D1F80A1008443F4988
:10980000C1F80E000020C1F80A00032048703B4850
:109810004078032854D101F093F83849D1F8021068
:10982000401AB0F5FA6F36D93648006848B3354863
:10983000354901E045E057E0026830481230FEF754
:109840001DFD304800682D49C1F80A00022048700B
:1098500049898AB22949D1F80600123100F07AF913
:109860002648D0F806002549D1F80A1008442349B3
:10987000C1F806000846D0F80E00D1F80A1001E041
:1098800017E008E008441D49C1F80E0003204870A5
:1098900001201849087001F053F81849D1F8021056
:1098A000401A44F6206188420AD9032013490870FF
:1098B00006E012480078032802D102200E49087001
:1098C00013E00120114908750C48D0F80E0088609B
:1098D0000B49886926220D4900F0C0F8032006498B
:1098E000087002E000F010F900BF00BF052000F092
:1098F00041FF19E700000020100000200A010020AD
:10990000C4000020180000201C090020E4000020F2
:109910001CB5FFF7CDFAFFF77BFB4FF4E13000F009
:10992000C9F80A2006214FF480730022CDE9001007
:10993000104911A000F049FE11490860084600686E
:1099400018B10846006800F065FF0A2005214FF4B1
:1099500000630022CDE900100A490BA000F035FE9B
:10996000074908600846006818B10846006800F01A
:1099700051FF1CBD9199000874685F6C656400001C
:10998000140000201D97000874685F696170000072
:1099900010E0FFF7ABFA4FF400410748FFF790F8EB
:1099A00028B90120054908700520054908700A20DA
:1099B00000F0E0FEEDE70000000C01400A0100208D
:1099C00000000020FFF7A4FF02E0642000F0D2FEB8
:1099D000FBE710B5044600F045F9FFF7F3FF10BDB3
:1099E00070B502460020002300240025A2F1006685
:1099F000F30AC2F30A0505B15B1C5618A6F100660E
:109A0000F40A5618C6F30A0505B1641CE61A761C5A
:109A1000B0B270BD70B586B004460E460020059009
:109A2000B4F1006F02D30C48844202D3012006B087
:109A300070BD00200190039431462046FFF7D0FF0F
:109A400005460495FEF784FE05A901A8FEF7C6FDAC
:109A5000FEF71CFE0598EAE7000004082DE9F04730
:109A6000044689461546B4F1006F02D3104884427B
:109A700002D30120BDE8F08729462046FFF7CAFF40
:109A8000FEF766FEA0464F4600260BE0D7F800C062
:109A90006246002341460220FEF702FE08F1040858
:109AA0003F1D361DAE42F1D3FEF7F0FD0020E1E789
:109AB0000000040810B5044609480A490860084631
:109AC000446000218160C160016181610C214161BC
:109AD000FFF726F9012204490248FFF7AFF910BD4C
:109AE000003801401C0D00201C00002030B503464A
:109AF0001C46002004E025780D54641C451CA8B2C7
:109B00009042F8DB30BD0000012080F3138800BFD5
:109B100000BF00BF00BF00BF00BFBFF34F8F00BF3B
:109B200000BF00BF0948006800F4E060084908432E
:109B3000001D0649086000BF00BF00BFBFF34F8F84
:109B400000BF00BF00BF00BF00BFFDE70CED00E09D
:109B50000000FA052DE9F047044688469146B4F125
:109B6000006F02D30E48844202D30120BDE8F08783
:109B7000FEF7EEFD2746464600250AE0D6F800C06F
:109B80006246002339460220FEF78AFD3F1D361D3E
:109B90002D1D4D45F2D3FEF779FD0020E6E70000CC
:109BA0000000040830B51A4C43682468191988422B
:109BB00015D04B889BB9174B1B6899420FD0164B99
:109BC0001B688B4201D1144B18604B684360104BEB
:109BD0001B68C31A0E4D4C682D682C44A3600C4CB6
:109BE000836824681A19824211D053887BB90A4BC2
:109BF0001B68834201D1084B1A6043685360044BD1
:109C00001B68D31A024D44682D682C44A36030BDF4
:109C1000480000204C000020500000201CB51420FB
:109C20000221CB010022CDE90010044904A000F07C
:109C3000CCFC0446204600F0EDFD1CBDD399000885
:109C40006D61696E0000000010B5044C02E02068F0
:109C50008047241D02488442F9D310BD3CAD000862
:109C600040AD000810B5044C02E020688047241D78
:109C700002488442F9D310BD40AD000844AD00084D
:109C800010B5FEF771FA044604480088401C00B283
:109C9000024908802046FEF76BFA10BDA0000020A4
:109CA00010B5FEF761FA04460C480088401E00B269
:109CB0000A4908800846B0F9000000280ADC0020A4
:109CC00008802046FEF754FA0548006828B100F0E5
:109CD000BDFA02E02046FEF74BFA10BDA0000020BE
:109CE000A400002070B5054605B970BD164800688F
:109CF000854203D315480068854200D3F5E7A5F1F6
:109D00000C044FF0FF31124800F064FB002060802B
:109D10004FF4F55020800F480068844201D20D486E
:109D20000460094960680968611A401A0A490968AB
:109D3000081A094908602046FFF734FF044800F07C
:109D40002CFB00BFD1E70000480000204C000020A1
:109D5000F80E0020500000205800002000487047F6
:109D6000580F0020004870475827002070B5FFF7B3
:109D70009FF90A4800684FF47A71B0FBF1F420466D
:109D8000FFF7DEFBFFF760FFFFF7ECFF0446FFF78E
:109D9000E5FF0546214600F073FB70BD2000002062
:109DA00070B50446261D0648006838B120460449AF
:109DB00009688847054605B970BD00BF00BFFEE7CA
:109DC0003C000020F0B504460D461646301D20F03C
:109DD000070040380146002203E00C4F41F8227092
:109DE000521C102AF9D30D624FF0000CC1F824C0A8
:109DF000C1F828C0C1F82CC0C1F830C04B638C63D7
:109E00004FF0807CC1F83CC0F0BD0000EFBEADDE7D
:109E100010B5FEF7A9F9044604480078401C034930
:109E200008702046FEF7A4F910BD00004400002091
:109E300010B5FEF799F9044604480078401E03491E
:109E400008702046FEF794F910BD00004400002081
:109E500070B504462068A0F11405284600F094FC73
:109E6000002070BD2DE9F04105460C469046204685
:109E700000F0E6FCB8F1000F03D0B8F1010F23D1D8
:109E800005E004F11401284600F048F81CE02E68B3
:109E90000FE0A6F1140794F8350097F835108842C2
:109EA00006DA04F1140107F1140000F037F802E0BB
:109EB0003668AE42EDD100BFAE4204D104F11401C8
:109EC000284600F02BF800BF00BF0020BDE8F0815D
:109ED00010B5044604F1140000F002F8002010BD93
:109EE0004060006070474060006070474060006004
:109EF00070470268516002680A60016048607047FC
:109F00000268516002680A60016048607047026838
:109F1000516002680A6001604860704742681160E1
:109F200042684A604160086070470146086888429C
:109F300001D1012070470020FCE7014608688842F3
:109F400001D1012070470020FCE7D0E900215160D9
:109F5000D0E900121160406000607047D0E9002134
:109F60005160D0E90012116040600060704700004D
:109F70002DE9F041054615B90020BDE8F081E81C47
:109F800020F003054E480068854201D90020F4E71F
:109F90000C2D00D20C254FF0FF314A4800F01AFA80
:109FA0004948006849490968461A7EE04748006800
:109FB00084196088002874D106F10C006168081AC1
:109FC000A8426ED306F10C006168091A05F1180069
:109FD000814230D306F10C0000EB05083B480068D5
:109FE00000EB08074FF4F550388000207880606857
:109FF0007860BE60C4F804800120608030487968D1
:10A0000000680C30814205D03049786809680844FE
:10A01000C0F808802E48016805F10C0008442C495E
:10A0200008602C4800680968884219D228480068EE
:10A030002849086014E001206080244960680968AC
:10A04000611A401A224909680844214908602148D8
:10A0500000680968884203D21D4800681D490860ED
:10A060004FF4F550208018480068844212D107E070
:10A070001548006840681549096808441249086095
:10A0800011480068408828B10F48006812490968E3
:10A090008842EDD10B4800F080F904F10C006CE728
:10A0A000FFE70A4800683044466805480068401BDE
:10A0B000B0423FF67BAF034800F06FF900205CE749
:10A0C00054000020F80E002050000020480000201E
:10A0D000580000205C0000204C000020F0B50C4629
:10A0E0000546E6B2042A15D300F0030797B90146E6
:10A0F00046EA062343EA034304E008C108C108C155
:10A1000008C1103A102AF8D201E008C1121F042A2F
:10A11000FBD20D4601E005F8016B171EA2F101020A
:10A12000F9D1F0BD2DE9F04106460F46304600F06A
:10A1300045F80546E868FFF71BFF044614B9002000
:10A14000BDE8F08100212046EA68FFF7C7FF2672CC
:10A150000020607208223946204600F076F9FEF7AA
:10A1600003F8804604F10C01281DFFF7C2FE4046AB
:10A17000FDF7FEFF2046E3E770B50446002020729D
:10A18000FDF7F2FF054604F10C00FFF7DEFE28465E
:10A19000FDF7EEFF2046FFF7A5FD70BD70B5044644
:10A1A00000202072FDF7E0FF054604F10C00FFF7E8
:10A1B000CCFE2846FDF7DCFF70BD00000246002102
:10A1C0000AE0074800EB01100078904203D10448F0
:10A1D00000EB01107047491C0429F2DB0020F9E76D
:10A1E000600000202DE9F04704460D469046002609
:10A1F0002846FFF7E3FF0746FFF742FD7E6802E0CF
:10A20000A6F10C003668381D8642F9D1FFF748FDEB
:10A2100045F08000207208224146204600F015F9E2
:10A22000FDF7A2FF814604F10C01381DFFF761FE26
:10A230004846FDF79DFFBDE8F0870146087A00F02B
:10A24000800008B1012070470020FCE72DE9F041B3
:10A25000FDF78AFF07461848008838BB1748006892
:10A26000FFF7A2F9461E164850F83600A0F1140474
:10A2700014480068844218D013490E7011480568CC
:10A2800004601248007850B904F11C0105F11C006B
:10A29000FDF771FF3846FDF76BFFBDE8F08104F173
:10A2A0001C0105F11C00FDF766FF00BF3846FDF7F5
:10A2B0005FFF00BFF1E70000A0000020AC0000201D
:10A2C000180F0020A4000020A80000204400002057
:10A2D00070B50446FDF748FF054614F8340F20F02A
:10A2E0000F0040F0010020706278343C0A4B03EB11
:10A2F000C20004F114014268116042684A60416082
:10A30000086000BF0549A06B09680843034908605D
:10A310002846FDF72DFF70BD180F0020AC0000206F
:10A3200070B50446FDF720FF054604F11400D0E99E
:10A3300000215160D0E9001211604060006000BF50
:10A3400094F83510094A02EBC1000168814201D13D
:10A35000012100E0002129B10548A16B0068884374
:10A36000034908602846FDF703FF70BD180F002061
:10A37000AC0000202DE9F04104460D4616461F466C
:10A380002A4602212046FFF72DFF2046FFF7A0FDB9
:10A39000A68367720020BDE8F08170B504460025F1
:10A3A000FDF7E2FE064604F11400FFF7BEFD28B9F2
:10A3B00004F11400FFF74CFD012502E0A08B401CC6
:10A3C000A0833046FDF7D4FE012D01D1FFF73EFFFB
:10A3D000002070BD73B50546FDF7C6FE0646A88B86
:10A3E000002806DDA88B401EA8833046FDF7C0FE7E
:10A3F00028E0019828B93046FDF7BAFE6FF0010059
:10A400007CBD00F0DFF90446002020636A7A214613
:10A4100005F11400FFF726FD0198002809DD01AAC7
:10A42000002104F1440000F0E7FA04F1440000F0D8
:10A4300027FB3046FDF79CFEFFF708FF206B08B1B5
:10A44000206BDDE70020DBE7704770B50346A2B163
:10A4500018460C4600BF14F8016B00F8016B3EB9BA
:10A4600002E0002500F8015B551E2A1EF9D102E02A
:10A47000551E2A1EEFD100BF00BF184670BD000058
:10A480002DE9F04107468846F81C20F0030528F026
:10A490000306182E08D9A6F11800A84204D3701B91
:10A4A00018381C49086001E0BDE8F0811A480560D1
:10A4B00004684FF4F5502080164800680C30606046
:10A4C0000020A0606080144960680968084413494E
:10A4D00008604FF4F5500968088001200F490968A9
:10A4E00048800C4800680C300C49096848600948ED
:10A4F00000680C300949096888600023012208A11E
:10A500000948FFF737FF044800680849086000BFA2
:10A51000CAE7000054000020480000204C00002042
:10A520006865617000000000F80E002050000020F7
:10A5300010B500200B490880002405E00A4901EB12
:10A54000C400FFF7D0FC641C082CF7DB0720074988
:10A550000870002006490860064908600648FFF7B1
:10A56000C2FC10BDA0000020180F0020A800002091
:10A57000A4000020AC000020B000002070B5084806
:10A580000068FFF711F8451E064850F83500A0F1A5
:10A5900014040548046004F11C00FDF71AFE70BDA8
:10A5A000AC000020180F0020A400002010B50024EB
:10A5B00005E0044901EBC400FFF798FC641C002C83
:10A5C000F7D010BDB800002070472DE9FF5F0646A8
:10A5D0000F4690461D46DDE90EAB31460120FFF7E0
:10A5E000A1FD8146B9F1000F03D1002004B0BDE800
:10A5F000F09F2846FFF7BCFC044624B94846FFF705
:10A60000BBFD0020F2E743463A46314648468DE816
:10A61000300CFFF709F84846E8E7000070B512482B
:10A620000468FDF7A1FD05462046FFF779FE0420EA
:10A6300084F8340004F1440000F0FAF92046FFF7F2
:10A64000FCFD012805D1206F18B92046FFF7A6FDB3
:10A6500004E004F114010548FFF752FC2846FDF719
:10A6600087FDFFF7F3FD70BDA4000020B0000020BF
:10A6700001E000F001F8FCE770B53AE0FDF774FD89
:10A680000546FEF7C7FF30B31D480068A0F114046B
:10A6900004F11400D0E900215160D0E900121160EA
:10A6A0004060006000BFFFF7EBFA206F10B120465A
:10A6B000216F88472046FFF7C0FD012808D12046BA
:10A6C000FFF76CFDFFF7ECFA2846FDF751FD70BD72
:10A6D000FFF7E6FA03E02846FDF74AFDF7E72846CC
:10A6E000FDF746FDA06AFFF7FDFA2046FFF744FD9F
:10A6F00000BFFEF78FFF0028C0D100BFE7E70000D2
:10A70000B00000201FB520200721C200074BCDE973
:10A710000032CDE902100023054A06A1074800F0E7
:10A720000FF8064800F076F81FBD0000F80D002075
:10A7300071A600087469646C65000000800D00203B
:10A740002DE9FF5F05460C4616461F46DDE910ABB6
:10A75000DDE90E89224601212846FFF743FD3B46ED
:10A760003246214628468DE8000FFEF75DFF04B013
:10A77000BDE8F09F70B50446204600F0C5F80546D8
:10A78000284600F025F870BD70B5044694F83400F2
:10A7900000F00F00022802D04FF0FF3070BDFDF72F
:10A7A000E3FC054604F11400FFF7D8FB04F1440074
:10A7B00000F0E2F92846FDF7DBFC2046FFF788FDB4
:10A7C0000020EBE70148006870470000A40000206B
:10A7D00031B5FDF7C9FC05460D480468204600F078
:10A7E0002FF86A46002104F1440000F005F904F155
:10A7F000440000F045F92846FDF7BAFCFFF726FDB6
:10A80000206B801C08B900202063002038BD0000A8
:10A81000A400002010B504463434A078607061783C
:10A82000012088406060022004F834092046FFF7C8
:10A83000ABFFFFF7C7FF08B1FFF708FD002010BD11
:10A8400070B5044694F8340000F00F00012802D0DF
:10A850004FF0FF3070BDFDF787FC054694F83400DB
:10A8600020F00F0040F0020084F834002046FFF78B
:10A8700057FD04F1440000F07FF92846FDF778FC0D
:10A880000020E7E770B5044625466FF00100286315
:10A8900005F11400FFF762FB2846FFF719FDFFF7EB
:10A8A000D5FC70BD70B5FDF75FFC05461448046823
:10A8B00094F8340000F00F0001281CD1D4E90510F1
:10A8C000814218D004F11400FFF748FB94F83520BA
:10A8D0000C4B03EBC20004F11401426811604268A2
:10A8E0004A604160086000BF2846FDF741FCFFF761
:10A8F000ADFC002070BD2846FDF73AFC0020F9E7CA
:10A90000A4000020180F00200146002902DA4FF0B1
:10A91000FF3014E04FF47A7291FBF2F24FF47A7345
:10A9200002FB03F01A4691FBF2F302FB13124FF401
:10A930007A735A4302F2E73292FBF3F21044704703
:10A9400001480068704700004000002010B50A4828
:10A950000068401C08490860FFF734FF0446206C7B
:10A96000401E2064206C18B9E06B2064FFF79AFF4A
:10A9700000F004F810BD00004000002070B5FFF7A3
:10A98000DFFF0546FDF7F0FB064628E019480068A2
:10A99000A0F11404A06A281A6FF0004188421DD269
:10A9A0002046FEF7A4FED4E907108847FFF7C8FF4A
:10A9B0000546607A00F0020058B1607A00F00100AC
:10A9C00038B1607A20F001006072204600F058F83B
:10A9D00005E0607A20F00100607200E004E00548C4
:10A9E000FFF7ABFA0028D1D000BF3046FDF7C0FB1F
:10A9F00070BD0000B8000020034649B1012904D011
:10AA0000022908D0032910D10AE0586A10600CE02E
:10AA10001068586209E0587A20F00200587204E089
:10AA2000587A40F00200587200BF00BF0020704703
:10AA300070B50446FDF798FB05462046FEF757FE25
:10AA40002846FDF795FB2046FFF7A8FB002070BDC8
:10AA50002DE9F84307460C4615461E46DDE90889F0
:10AA600022460A213846FFF7BDFB434632462946B7
:10AA70003846CDF80090FEF719FEBDE8F8830000D7
:10AA80002DE9F8430546FDF76FFB80462846FEF7A3
:10AA90002EFE687A20F0010068724046FDF768FBE0
:10AAA000FFF74EFF696A0844A862FDF75DFB804628
:10AAB0002F4F009700242AE019E05DF82420116848
:10AAC000142202EBC402881A826AAB6AD21A00D13D
:10AAD00008E0826AAB6AD21A6FF000439A4200D251
:10AAE0000CE000BF5DF8240000684DF824005DF81C
:10AAF000240007EBC40149688842DED100BF2CB1B5
:10AB00005DF824000830611C4DF82100641C002C05
:10AB1000D2D018480068401C1649086008460668EC
:10AB200005F114010098FFF7F2F9022412E006F093
:10AB3000030060B9C4F1010305F1140202EBC30183
:10AB4000C4F101025DF82200FFF7E1F900E003E043
:10AB5000B608641C012CEAD900BF687A40F00100F5
:10AB600068724046FDF704FB0020BDE8F883000052
:10AB7000B8000020C000002070B50446607A00F0E4
:10AB8000010010B94FF0FF3070BDFDF7EDFA05463A
:10AB90002046FEF7ACFD2846FDF7EAFA607A20F081
:10ABA000010060720020EFE700207047002070472E
:10ABB000002070470020704710B5FDF7D5FAFFF769
:10ABC000D5F8FFF741FCFFF7F1FCFFF7B1FCFFF709
:10ABD00025F8FFF7F9FCFFF795FDFFF7CFFC002004
:10ABE00010BD000010B50349886926220249FEF70E
:10ABF0007DFF10BDC4000020E40000200000000024
:10AC0000000000000102030406070809000000001C
:10AC10000102030400000100020001000300010022
:10AC20000200010004000100020001000300010015
:10AC30000200010005000100020001000300010004
:10AC400002000100040001000200010003000100F5
:10AC500002000100060001000200010003000100E3
:10AC600002000100040001000200010003000100D5
:10AC700002000100050001000200010003000100C4
:10AC800002000100040001000200010003000100B5
:10AC900002000100070001000200010003000100A2
:10ACA0000200010004000100020001000300010095
:10ACB0000200010005000100020001000300010084
:10ACC0000200010004000100020001000300010075
:10ACD0000200010006000100020001000300010063
:10ACE0000200010004000100020001000300010055
:10ACF0000200010005000100020001000300010044
:10AD00000200010004000100020001000300010034
:10AD10000200010030313233343536373839616260
:10AD20006364656600303132333435363738394143
:10AD30004243444546000000B5AB0008ADAB0008F7
:10AD4000A9AB0008B1AB000868AD00080000002006
:10AD5000C4000000F49500082CAE0008C4000020D8
:10AD6000942A000004960008000000000000000083
:10AD700000000000000000000000000000000000D3
:10AD8000000000000000000000127A000000000037
:10AD900010000000010000000000000000000000A2
:10ADA00000000000000000000000000000000000A3
:10ADB0000000000000000000000000000000000093
:10ADC00000000000000000000100000064000020FE
:10ADD00064000020780000000200000074000020E1
:10ADE0007400002020000000050000008400002006
:10ADF00084000020300000000A00000094000020C1
:10AE0000940000202C000000000000000000000062
:10AE10000000000000000000000000000000000032
:0CAE200000000000000000000000000026
:04000005080081313D
:00000001FF
