:020000040800F2
:10000000601A0020633C00080D3A00080F3A00080F
:10001000173A00081B3A00081F3A000800000000C9
:10002000000000000000000000000000253A000869
:10003000233A000800000000AB350008C337000871
:100040002B3A00082D3A00082F3A00080000000063
:10005000313A0008333A0008353A0008373A0008C8
:10006000393A00083B3A00083D3A00083F3A000898
:10007000413A0008433A0008453A0008473A000868
:10008000493A00084B3A00084D3A00084F3A000838
:10009000513A0008533A0008553A0008573A000808
:1000A000593A00085B3A00085D3A00080000000079
:1000B000613A0008633A0008653A0008673A0008A8
:1000C000693A00086B3A00086D3A00086F3A000878
:1000D000713A0008873A0008E53B0008733A0008C7
:1000E000753A0008773A0008793A000800F002F8FB
:1000F00000F03FF80AA090E8000C82448344AAF183
:100100000107DA4501D100F034F8AFF2090EBAE880
:100110000F0013F0010F18BFFB1A43F0010318473B
:100120004461000064610000103A24BF78C878C1BF
:10013000FAD8520724BF30C830C144BF04680C60ED
:10014000704700000023002400250026103A28BF35
:1001500078C1FBD8520728BF30C148BF0B60704739
:10016000642905F0B983002070471FB51FBD10B585
:1001700010BD05F07AFD1146FFF7F7FF00F076FE9F
:1001800005F098FD03B4FFF7F2FF03BC05F0A0FDF6
:1001900010B50446ECB902F0FFFDFE490968401AAB
:1001A000B0F57A7F04D302F0F7FDFA4908606CE0FD
:1001B00002F0F2FDF7490968401A642804D30421CB
:1001C000F54804F0BCF960E00421F34804F0B9F903
:1001D0005BE0012C36D102F0DFFDEE490968401AE0
:1001E000B0F57A7F04D302F0D7FDEA4908604CE00D
:1001F00002F0D2FDE7490968401AB0F5967F04D3B2
:100200000421E54804F09BF93FE002F0C5FDE14917
:100210000968401AC82804D30421DF4804F091F982
:1002200033E002F0B9FDDB490968401A642804D3C1
:100230000421D94804F083F927E00421D64804F0CA
:1002400080F922E0022C1CD102F0A6FDD1490968F8
:10025000401AC82804D302F09FFDCE49086014E07C
:1002600002F09AFDCB490968401A642804D304219E
:10027000C94804F064F908E00421C74804F061F9B2
:1002800003E00421C44804F05CF910BD10B500245B
:100290001021C24804F039F904466CB10A23002247
:1002A0001146104602F0EEFC1021BC4804F02DF976
:1002B00004460CB1012010BD2021B84804F025F9F6
:1002C00004466CB10A2300221146104602F0DAFC03
:1002D0002021B24804F019F904460CB10220EAE7E3
:1002E0004021AE4804F011F904466CB10A23002203
:1002F0001146104602F0C6FC4021A84804F005F95A
:1003000004460CB10420D6E78021A44804F0FDF88F
:1003100004466CB10A2300221146104602F0B2FCDA
:1003200080219E4804F0F1F804460CB10820C2E791
:100330001021994804F0E9F804466CB10A23002220
:100340001146104602F09EFC1021934804F0DDF89F
:1003500004460CB11020AEE720218F4804F0D5F8F8
:1003600004466CB10A2300221146104602F08AFCB2
:100370002021894804F0C9F804460CB120209AE7EE
:100380000121874804F0C1F804466CB10A23002219
:100390001146104602F076FC0121814804F0B5F8C0
:1003A00004460CB1402086E702217D4804F0ADF8F8
:1003B00004466CB10A2300221146104602F062FC8A
:1003C0000221774804F0A1F804460CB1802072E7BE
:1003D000002070E770B5002400254FF400716E48CE
:1003E00004F093F806464FF480716B4804F08DF8E2
:1003F00046EA40068021684804F087F846EA80060D
:100400004021654804F081F846EAC0064FF40041F7
:10041000634804F07AF846EA00164FF480416048D9
:1004200004F073F846EA40164FF400515C4804F0BB
:100430006CF846EA80164FF48051594804F065F88C
:1004400046EAC010C4B2E043C5B2284670BD10B53C
:1004500003F0C0FA01225349002003F006FF51487F
:10046000007801282BD001204E490870022200207C
:1004700003F090FEF4204C490870102048700421CD
:100480004948C17010204849887008710E2247A160
:100490004548401D05F0F8FA172243494FF4006023
:1004A00003F078FE64204549087001204870002060
:1004B000887003224FF4805003F06CFE0BE017228B
:1004C00039494FF4006003F0D0FE03223B494FF45A
:1004D000805003F0CAFE10BD0024FFF7B8FF0AE009
:1004E000FFF778FF0446364804700A2300221146BD
:1004F000104602F0C7FBF3E7002442E231480470E3
:10050000FFF7C4FE0446304804702C4840780128A8
:100510003FD12C480078A04271D0082C70D007DC65
:100520007CB1012C56D0022C6FD0042C6AD17EE015
:10053000102C68D0202C67D0402C77D0802CF5D19F
:10054000DFE04FF48061144803F0FBFF4FF40061DB
:10055000114803F0F6FF4FF480510F4803F0F1FF0C
:1005600004211A4803F0EDFF20210D4803F0E9FFB4
:1005700040210B4803F0E5FF8021094803F0E1FF2B
:100580004FF48071064803F0DCFF0020104908702A
:10059000C6E0E1E00000002000100140000801403A
:1005A000000C01400C000020FC0A00204653542D92
:1005B0003230313731313233303100001C0000200D
:1005C000180000200E000020190000200014014037
:1005D0001A0000204FF40051FC4803F0B0FF4FF424
:1005E0008041FA4803F0ABFFF948007840F003007F
:1005F000F749087002F0D0FBF649086090E090E0FF
:100600002FE002E08BE046E05FE04FF40051EF485E
:1006100003F097FF4FF48041EC4803F092FFEC4861
:10062000007820F00300EA49087079E05BE04FF4BD
:100630008061E64803F083FF4FF48071E64803F0E1
:100640007EFFE648007840F00100E4490870084663
:10065000007840F08000087002F09EFBDD490860E1
:100660005EE04FF40061D94803F069FF4FF48071F8
:10067000D94803F064FFD948007840F00200D74918
:1006800008700846007840F08000087002F084FB93
:10069000D049086044E04FF48051CC4803F04FFF4C
:1006A0004FF48071CC4803F04AFFCC48007840F00A
:1006B0000400CA4908700846007840F080000870BD
:1006C00002F06AFBC34908602AE00421C44803F031
:1006D00036FF4FF48071C04803F031FF02F05CFB3D
:1006E000BC4908601CE02021BB4803F028FF4FF400
:1006F0008071B94803F023FF02F04EFBB549086052
:100700000EE04021B44803F01AFF4FF48071B24864
:1007100003F015FF02F040FBAE49086000E000BFA7
:1007200000BF02F039FBAF49086008460068A949DC
:100730000968401AAC4988420DD94FF48041A3485A
:1007400003F0FFFE4FF40051A04803F0FAFE02F060
:1007500023FBA04908600EE1A048007800F00100EA
:1007600058B94FF48061994803F0EBFE9B4800783C
:1007700020F00100994908700AE04FF48061934825
:1007800003F0DDFE9548007840F0010093490870C1
:1007900092480078C0F3400058B94FF400618B488C
:1007A00003F0CFFE8D48007820F002008B490870DE
:1007B0000AE04FF40061854803F0C1FE87480078E5
:1007C00040F002008549087084480078C0F380003A
:1007D00058B94FF480517D4803F0B3FE7F4800784C
:1007E00020F004007D4908700AE04FF480517748FA
:1007F00003F0A5FE7948007840F0040077490870BE
:1008000076480078C0F3C00050B90421744803F062
:1008100098FE7248007820F008007049087009E0DE
:1008200004216F4803F08BFE6C48007840F008000C
:100830006A49087069480078C0F3001050B9202157
:10084000654803F07EFE6548007820F0100063499B
:10085000087009E02021604803F071FE5F480078CD
:1008600040F010005D4908705C480078C0F340100B
:1008700050B94021584803F064FE5848007820F0F1
:1008800020005649087009E04021534803F057FE04
:100890005248007840F02000504908704F480078D6
:1008A000C0F3801050B980214B4803F04AFE4B48FA
:1008B000007820F040004949087009E0802146484E
:1008C00003F03DFE4548007840F040004349087081
:1008D00042480078C00958B94FF480713E4803F08F
:1008E00030FE3E48007820F080003C4908700AE065
:1008F0004FF48071384803F022FE3848007840F009
:100900008000364908703248007800F0010058B97C
:100910004FF400512D4803F014FE2D48007820F0CC
:1009200001002B4908700AE04FF40051274803F0FA
:1009300006FE2748007840F0010025490870244849
:100940000078C0F3400058B94FF480411F4803F0CD
:10095000F8FD1F48007820F002001D4908700AE0E9
:100960004FF48041194803F0EAFD1948007840F03F
:100970000200174908700A2300221146104602F0AF
:1009800081F9BBE500B585B0032000214FF48072EA
:10099000164BCDE90132CDE9031004200346144A79
:1009A0000090144801F050FF032000214FF48072A2
:1009B000114BCDE90132CDE90310052003460F4A62
:1009C00000900F4801F040FF05B000BD001001404D
:1009D0001B00002010000020000C01401A00002025
:1009E0000014014014000020E0930400BC02002029
:1009F000B8060020F9040008BC060020B80A002050
:100A0000D90400082DE9F04104460F461546F74881
:100A100090F804804079F5490871084680F805800F
:100A2000A81CC8710846C079C043C1B2EF48017222
:100A3000016821604168616001892181807AA0722A
:100A40002A46394604F10B0005F01EF8E748C07944
:100A500000F10901204600F035FA0646E348C07966
:100A600009302654310AE148C0790A3021547E21E8
:100A7000DE48C0790B302154DC48C0790C30C0B25C
:100A8000BDE8F08102F0A6FFFFF77CFFEDE100205A
:100A9000FFF77EFBD648007801287DD102F07CF973
:100AA000D4490860D4480078C21ED449CF4804F025
:100AB000EBFFD1480078C01ED049085CCB4981F8D3
:100AC0003D00CD480078801ECC49095CC74880F8BD
:100AD0003E10C9480078401EC849085CC34981F8E7
:100AE0003F000020C2490870C048C0781028D4D107
:100AF000BE4880790028D0D1BC48407A4B2806D027
:100B0000512814D0522822D053287CD156E0B7481F
:100B1000807A302803D10020B949087006E0B34834
:100B2000807A312802D10120B549087029E1AF4807
:100B3000807A42280AD11722B249B348FFF762FFF0
:100B400004462246B049012003F055F919E1A748AF
:100B5000807A4A2831D0A548807A4D280BD10122CD
:100B6000AA49A948FFF74EFF04462246A64901209C
:100B700003F041F921E09D48807A54280DD10122EB
:100B8000A249491EA048FFF73DFF044622469E4960
:100B9000012003F030F910E0F4E09448807A502806
:100BA0000BD101229949491C9748FFF72BFF0446B6
:100BB00022469549012003F01EF9E2E08B48807A35
:100BC0004A2824D19148401E407858B98748C07AB5
:100BD0008F4908708548007B8E490870032083493F
:100BE000887102E00420814988718048C079801EA4
:100BF000C2B27E490B318448FFF704FF0446224607
:100C00008149012000E0BBE003F0F5F8B7E0774848
:100C1000807A41281AD17548C07A7A49087017221B
:100C20004FF4006003F0B6FA03207049887108465B
:100C3000C079801EC2B20B317348FFF7E3FE044651
:100C400022467149012003F0D6F898E06748807A7F
:100C50004E281ED10E2265490B316A48401D04F012
:100C600013FF172267494FF4006003F093FA032043
:100C70005E4988710846C079801EC2B20B31624855
:100C8000FFF7C0FE044622465F49012003F0B3F897
:100C900075E05648807A4D281BD15448C07A5B498C
:100CA000491E487003224FF4805003F073FA03206A
:100CB0004E4988710846C079801EC2B20B31524835
:100CC000FFF7A0FE044622464F49012003F093F8A7
:100CD00055E04648807A50281CD14448C07A4B4998
:100CE000491E88700322891C4FF4805003F052FA89
:100CF00003203E4988710846C079801EC2B20B317C
:100D00004148FFF77FFE044622463F49012003F099
:100D100072F834E03548807A542830D13348C07AAC
:100D20000A281BDB3148C07A3849491E0870032263
:100D30004FF4805003F02EFA03202C4988710846A6
:100D4000C079801EC2B20B312F48FFF75BFE04460C
:100D500022462D49012003F04EF810E004202349DB
:100D600088710846C079801EC2B20B312648FFF751
:100D700049FE044622462449012003F03CF800E0E5
:100D800000BF00BF2148401E807870BB1C4800781F
:100D9000012864D102F000F816490968401A1B497D
:100DA000491E097888425AD301F0F6FF11490860BC
:100DB000EA201549087018480078487000208870AB
:100DC00016480078C87000200871114800784871F2
:100DD0001048007888710020C8710872EB204872B2
:100DE0000A22012003F007F839E019E0BC0A0020CC
:100DF0007D000020080000207B0000209C140020C3
:100E000005000020FC0A0020CE1400201D00002058
:100E10001A0000201B0000201800002019000020EC
:100E20002148807801281AD101F0B6FF1F490968CE
:100E3000401A1D490978884211D341201C49087085
:100E4000442048701B480078C04388700020C87058
:100E50000871432048710622012002F0CCFF0A23CA
:100E600000221146104601F00DFF10E600B585B0D6
:100E700002F058FC02F0ECFB02F02BFC00F063FAED
:100E80000320002180220C4BCDE90310CDE9013273
:100E900000900346094A0A4801F0D6FC00F0BCFA6B
:100EA000002005B000BD00001C000020080000204C
:100EB000CE14002018000020BC000020B802002042
:100EC000850A000870B503460C464FF6FF710026F0
:100ED00000220FE0985C4140002508E001F0010687
:100EE000491016B14AF201004140681CC5B2082DF4
:100EF000F4DB521CA242EDDB88B270BDF0B50346B4
:100F00000E461546002731460A2D05D0102D03D078
:100F1000002008703046F0BD33B9302001F8010BD5
:100F2000002008703046F6E70A2D18D1002B03DAAE
:100F30002D2001F8010B5B425D4A0DE093FBF2F4BA
:100F400004B937B104F1300001F8010B04FB12338E
:100F500001270A2092FBF0F2002AEFDC10E00722C2
:100F60000CE0900043FA00F000F00F0404B927B140
:100F70005048005D01F8010B0127521E002AF0DAEB
:100F8000002008703046C6E72DE9F05F04460E46A3
:100F900017469846404604F017FF8346584604F02B
:100FA0002FFF8246414605F043F881460025002E7A
:100FB00033D0052E06D160195A463FA104F04EFCED
:100FC000054630E0042E06D160195A463CA104F0D3
:100FD00045FC054627E0032E06D160195A463AA182
:100FE00004F03CFC05461EE0022E06D160195A466C
:100FF00037A104F033FC054615E0012E06D1601937
:101000005A4635A104F02AFC05460CE060195A4600
:1010100033A104F023FC054605E060195A4630A1CF
:1010200004F01CFC05460021484604F001FF01D2F3
:1010300089F00049002F1DDD2E2228466D1C225408
:1010400013E02849484604F027FF8146484604F04B
:10105000BBFE0A2190FBF1F201FB120A28466D1C2F
:1010600001190A225046FFF749FF381EA7F1010176
:10107000CFB2E6DC002060552046BDE8F09F10B5F9
:10108000024600200CE00B1EA1F10104E1B200D1E8
:101090000CE000EB800358001378303B1844521CDE
:1010A0001378302B02DB1378392BECDD00BF10BD39
:1010B00000CA9A3B2E61000825303564000000000C
:1010C0002530346400000000253033640000000047
:1010D000253032640000000025303164000000003B
:1010E00025640000000020410246002005E011F8C0
:1010F000013B02F8013B431CD8B20B78002BF6D120
:10110000137070472DE9F04105460E46144600273E
:10111000FE480078002804DD112020700020BDE882
:10112000F0812878012808D0022807D0032802D0AF
:10113000042804D100E000BF00BF00BF03E001208D
:1011400020700020EBE700BF02F00EFA074605F121
:1011500010013046FFF7C8FF8046384602F008FA13
:10116000002020704046DAE70146002002E0491CDA
:10117000421CD0B20A78002AF9D170472DE9F0411B
:1011800005460F4614464FF00008E0480078002856
:1011900003DD12202070BDE8F0812878012808D0F6
:1011A000022807D0032802D0042804D100E000BFA1
:1011B00000BF00BF02E001202070ECE700BF02F09A
:1011C000D3F980463846FFF7CFFF0646072E05DDE8
:1011D000404602F0CDF90B202070DCE7394605F1DE
:1011E0001000FFF781FF404602F0C2F90020207096
:1011F00000BFD0E7002400BF02F0B6F90446C4489F
:101200000068401CC2490860204602F0B1F902F0B3
:1012100038F9F1E700B587B0032000212022BD4B4B
:10122000CDE90132CDE903104FF6FF701346B94AFC
:101230007C320090AFF2430001F006FB06AAB6A193
:10124000202001F091FB07B000BD04E0002200F86F
:10125000012B4A1E91B20029F8DC704730B54FF4DB
:10126000B471AF48FFF7F1FFAD4B03F1180500244F
:101270000AE0002018705D603F2018740021597446
:1012800018331835601C84B20E2CF2DB0020187065
:1012900058603F20187400215974A148A149086082
:1012A00030BD30B54FF42B719F48FFF7CEFF84213E
:1012B0009E48FFF7CAFF9C4B03F14C0500240AE04F
:1012C0005D613F2083F8440000214520C1544C3328
:1012D0004C35601CC4B2082CF2D3002058613F206A
:1012E00083F8440000214520C15400209049086043
:1012F0008D489049086030BD00228F4B1A708F498D
:10130000002004E0002201F8012B421CD0B2052885
:10131000F8DB00228A4B1A708A4B1A708A4B1A60CB
:101320008A4B1A6070470020894908607749087025
:101330008849087088490870884908708849086099
:1013400073490860704710B502F08AF8FFF7EBFFA9
:10135000FFF7D2FFFFF7A5FFFFF780FF00F080FE49
:1013600000F07CFFFFF756FF02F01AF802F07CF85D
:1013700010BD7A480078012808D164480078FF2819
:1013800004D262480078401C604908707047754973
:10139000694A1278885C6949095C724A515C01EBC0
:1013A000C001684A1170704710B500246B4800787E
:1013B000012830D102F0D8F80446544800780028BB
:1013C00004DD52480078401E504908704F480078AC
:1013D000F0B960480078D8B9FFF7D9FF59480078CC
:1013E00057490978884213D050485649097850F82F
:1013F00021005549086008460068006B401C0968D8
:10140000086357480068401C5549086002F0C8F856
:10141000204602F0ADF810BD10B55048007890B9E4
:10142000FFF7B5FF47480078454908703F484549F0
:10143000097850F82100444908600846006843498B
:10144000086002F098F810BD70B5002602F078F838
:1014500002F08AF806463E480068401C3C49086095
:10146000304602F085F83D48007801287ED13E489C
:10147000007820B1012804D0022809D103E0012519
:101480000BE0002509E0012501203749087004E040
:10149000012500203449087000BF00BF05B970BDA8
:1014A0002348046865E002F05FF80646E08C50B31C
:1014B000E08C401E80B2E08428BB94F8280000F045
:1014C000370040B114F8280F20F0370020700120B9
:1014D0006070283C02E0002084F8290094F828007D
:1014E00000F0080078B92C34A07813490978084333
:1014F0001149087020781149085C6178084314F894
:101500002C190E4A50546469304630E02C000020FB
:1015100038000020440D00204F532D49646C6500B5
:10152000140B002024000020480E0020C40D0020D1
:101530004800002040000020300000203100002042
:101540002E0000202F000020440000203C0000203E
:10155000540000202D00002037000020360000201D
:10156000200000203F6100084C00002005E001F051
:10157000FFFF94F82A00202895D100BF8FE74FF491
:101580008F70704710B590F82C2001F10B039B5C15
:1015900090F82D40A34301F10B04A35423469B5C18
:1015A00023B98B7A90F82E40A3438B7210BD2DE99E
:1015B000F04F05460F4690469946A87AA3490E5C1F
:1015C00005F10B00805D11F800B00BEBC60000F0D8
:1015D000FF0A9F4850F82A4000202034E08027600E
:1015E000207A20EA0800207284F80990207A203CB2
:1015F00000F0080068B994F82E009649097808436D
:10160000944908709448805D94F82D1008439249DD
:10161000885529462046FFF7B5FF5046BDE8F08FB4
:1016200010B58E4A1268D0618C4A126892F82C303C
:1016300000F10B02D25C894B1B6893F82D301A43E2
:10164000864B1B6893F82C4000F10B031A55827AE5
:10165000824B1B6893F82E301A4382727F4A1268BD
:1016600092F82C107C4A525C7C4B1B6893F82D300E
:101670009A43794B5A541A46525C42B9774A1268D7
:1016800092F82E30734A12789A43724B1A7010BD3A
:101690000023837200F10B01002204E0002301F813
:1016A000013B531CDAB2052AF8DB704705E011F85C
:1016B000013B00F8013B531E9AB2002AF7DC704749
:1016C00010B5002401F050FF044665480078F0B9D9
:1016D00064480078D8B9FFF75AFE63480078634938
:1016E0000978884213D05A485F49097850F8210098
:1016F0005F49086008460068006B401C0968086381
:101700005C480068401C5B49086001F044FF2046CB
:1017100001F02EFF10BD7CB5002514E06946284677
:1017200001F0C0F9064666B9494850F8254044B171
:10173000012C06D0D4E9020100EB8100E06301989E
:101740002064681CC5B2202DE8DD7CBD2DE9F84F72
:1017500005460E4617469846DDE90BABDDF82890A6
:101760000020009001F000FF009043480468002C26
:1017700067D054F8140F40490860009801F0F8FE53
:1017800044F8146CA575002020756075608244F8DB
:1017900010AC44F8089C44F80C7C24F804BC24F8F1
:1017A000028CE810207605F00700E075217E01200C
:1017B0008840A076E17D0120884060760020A0600E
:1017C000E060E06160622062A062E0623F2084F835
:1017D0003000143C002145200155204601F0AAFEAE
:1017E000204601F042FE01F0BFFE0090184840F88C
:1017F00025402248006860610020A0611F48006801
:1018000010B11E48006884611C4804602C34A07824
:101810001049097808430F49087020780E49085C80
:101820006178084314F82C190B4A50541448007876
:10183000401C13490870009801F09AFE0020BDE892
:10184000F88F009801F094FE4220F8E73F6100080D
:10185000C40D002030000020310000203C0000209A
:101860002C0000202D0000202F0000202E00002042
:1018700044000020200000204000002048000020FC
:10188000370000202DE9F05F04460F4691461E46C2
:101890004FF0000B2078052804D001203070002084
:1018A000BDE8F09F09F0800ABAF1000F04D029F0DA
:1018B00080094FF0010801E04FF00008002030706F
:1018C00001F052FE8346B9F1000F2CD0B9F1010F9F
:1018D0003BD0B9F1020F03D0B9F1030F46D111E0AB
:1018E000208900EA0705BD4206D1B8F1010F05D1F4
:1018F0002089A843208101E070203070584601F013
:1019000037FE3AE0208900EA070535B1B8F1010F4A
:1019100005D12089A843208101E07020307058460D
:1019200001F026FE29E0208927EA0005BD4206D104
:10193000B8F1010F05D120892843208101E07020F2
:101940003070584601F014FE17E0208927EA0005A0
:1019500035B1B8F1010F05D120892843208101E07C
:1019600070203070584601F003FE06E0584601F042
:10197000FFFD00256F20307000BF00BF28468FE7B5
:101980002DE9F04106460D460027FB480078002867
:1019900004DD102028700020BDE8F08101F0E4FD96
:1019A0000746F648046894B100684068F349086047
:1019B000052020702681002060603F20A072002159
:1019C000E172384601F0D4FD0020287004E038466A
:1019D00001F0CEFD722028702046DDE710B50146EB
:1019E0004A6808682AB9CB68586028B10024446066
:1019F00002E0106000B1426010BDF0B506460F462F
:101A0000B4680020243460802780207920F02000F2
:101A10002071002060712079243C88B92C34A07892
:101A2000D74909780843D64908702078D549085C19
:101A30006178084314F82C19D24A5054012500E06B
:101A400000253046FFF7CAFF2846F0BD2DE9F047D4
:101A50000446894615464FF0000AC748007800281A
:101A600004DD0F2028702046BDE8F0872078052887
:101A700003D0012028702046F6E701F075FD82466C
:101A8000606808B1012700E00027B9F1000F03D01A
:101A9000B9F1010F40D11BE09FB93F20A072002196
:101AA000E17200202070B54800686060002020814D
:101AB000B2480460504601F05BFD0020287000260B
:101AC00005E0504601F054FD4920287026462AE0E2
:101AD000D4F8048005E000214046FFF78EFFD8F8D7
:101AE0000080B8F1000FF6D13F20A0720021E17212
:101AF00000202070A14800686060002020819F487D
:101B00000460504601F034FD012F01D1FFF7D8FDEC
:101B100000202870002606E0504601F029FD07202D
:101B20002870264600BF00BF30469DE72DE9F041F2
:101B300005460E46144600278F480078002804DD2D
:101B4000112020700020BDE8F08101F00DFD074656
:101B50002878052806D0384601F00AFD01202070BB
:101B60000020F0E705F10A013046FFF7BDFA804694
:101B7000384601F0FDFC002020704046E3E72DE9E7
:101B8000F04105460F4614464FF000087A480078A9
:101B9000002803DD12202070BDE8F08101F0E4FC94
:101BA00080462878052805D0404601F0E1FC012058
:101BB0002070F1E73846FFF7D7FA0646072E05DD15
:101BC000404601F0D5FC73202070E5E7394605F169
:101BD0000A00FFF789FA404601F0CAFC0020207095
:101BE00000BFD9E7F0B51446059E674F3F6897F8E8
:101BF000287047F02007DFF890C1DCF800C08CF8AF
:101C000028700027DFF880C1DCF800C08CF829704C
:101C10005D4F3F68FE840C828B745B4F3F688F6022
:101C200047680F6000274F60C860456805B169606C
:101C30004160554F3F6897F82C20524FBF5CDFF84A
:101C400048C1DCF800C09CF82DC027EA0C07DFF87B
:101C500034C10CF802706746BF5C5FB94A4F3F68F9
:101C600097F82EC0464F3F7827EA0C07DFF810C1DF
:101C70008CF80070F0BD2DE9F04F89B005460F4695
:101C800091469A46129E002002903B480078002818
:101C900005DD02203070002009B0BDE8F08F3B4820
:101CA0000078002803DD0D2030700020F4E728784C
:101CB000052803D0012030700020EDE709F0800BEB
:101CC000BBF1000F04D029F080094FF0010801E0BA
:101CD0004FF0000801F048FC0290B9F1000F57D016
:101CE000B9F1010F77D0B9F1020F03D0B9F1030FA9
:101CF00070D120E0288900EA0704BC420FD1B8F176
:101D0000010F02D12889A04328811F4800688484DC
:101D1000029801F02DFC002030702046BCE74B46B5
:101D20003A4604A92846CDF800A0FFF75BFF0298C9
:101D300001F01EFC77E0288900EA07047CB1B8F1C5
:101D4000010F02D12889A04328810F4800688484AC
:101D5000029801F00DFC0020307020469CE74B46B5
:101D60003A4604A92846CDF800A0FFF73BFF0298A9
:101D700001F0FEFB57E000002C00002028000020AE
:101D800030000020310000203C0000202D00002009
:101D9000288927EA0004BC420FD1B8F1010F02D113
:101DA000288920432881BF4800688484029801F074
:101DB000DFFB0020307020466EE74B463A4604A910
:101DC0002846CDF800A0FFF70DFF029801F0D0FBE8
:101DD00029E000E01FE0288927EA00047CB1B8F17F
:101DE000010F02D1288920432881AE4800688484ED
:101DF000029801F0BDFB0020307020464CE74B46B6
:101E00003A4604A92846CDF800A0FFF7EBFE029859
:101E100001F0AEFB07E0029801F0AAFB00246F205E
:101E20003070204638E700BFFFF74AFC01F09CFB0A
:101E300002909C48006890F8290020B399480068F7
:101E400090F82900039000209649096881F829003C
:101E500004A8FFF7C3FD00209249096881F8280013
:101E6000029801F085FB00240398012805D0022880
:101E700002D10E20307003E000BF0A20307000BF96
:101E800000BF204608E787480068848CB8F1010F3E
:101E90001ED1B9F1000F0ED0B9F1010F0CD0B9F17C
:101EA000020F03D0B9F1030F0AD100E000BF288967
:101EB000A04328810BE000BF28892043288106E049
:101EC000029801F055FB6F2030700020E4E600BF5F
:101ED000029801F04DFB002030702046DCE670B522
:101EE000002501F041FB05466E480068848C2846B9
:101EF00001F03EFB204670BD2DE9FC5F044689469B
:101F000092461E46002000902078052804D001202B
:101F100030700020BDE8FC9F01F026FB0090BAF174
:101F2000000F03D0BAF1010F0AD104E0208920EAA2
:101F3000090020810BE0208940EA0900208106E0A9
:101F4000009801F015FB712030700020E2E700BF1F
:101F50004FF0000B656855E0A87C40B3012838D0ED
:101F6000022802D0032844D111E02089298A00EAFE
:101F70000107288AB84209D139462846FFF73DFDB6
:101F80008046B8F1010F01D14FF0010B38E02089F4
:101F9000298A00EA01074FB139462846FFF72DFD8F
:101FA0008046B8F1010F01D14FF0010B28E0288ADB
:101FB000218920EA0107288AB84209D139462846F2
:101FC000FFF71BFD8046B8F1010F01D14FF0010B67
:101FD00016E0288A218920EA01074FB139462846B0
:101FE000FFF70BFD8046B8F1010F01D14FF0010B57
:101FF00006E0009801F0BCFA6F203070002089E7FD
:1020000000BF2D68002DA7D1009801F0B1FABBF1F7
:10201000010F01D1FFF754FB01F0A6FA00902089CF
:102020000190009801F0A4FA00203070019871E747
:102030002DE9F04104460D4600272078052804D0FC
:10204000012028700020BDE8F08101F08DFA0746DC
:102050002689384601F08CFA002028703046F2E7D5
:1020600070B5C8211048FFF7F0F80F4C04F11406C2
:1020700000250AE00020207066603F20A072002149
:10208000E17214341436681C85B2092DF2DB00208D
:10209000207060603F20A0720021E1720248034975
:1020A000086070BD3C0000207C0C0020280000204F
:1020B0002DE9F84F05460F4690469A4600200090BD
:1020C00001F052FA009076480468006820B1744824
:1020D0000068406872490860009801F049FA2CB91C
:1020E0005A208AF800000020BDE8F88F2E4605EB44
:1020F00008094FF0000B05E0C6F800904E46C144B9
:102100000BF1010B781E5845F6D800203060256091
:1021100065602761E760C4F808808AF800002046FF
:10212000E2E72DE9F04104460D46002701F01CFAD4
:102130000746206968B16668306860602069401EA3
:102140002061384601F014FA002028703046BDE8BE
:10215000F081384601F00CFA5D2028700020F6E787
:102160002DE9F04105460E46144600274D480078FB
:10217000002804DD112020700020BDE8F08101F06E
:10218000F3F9074605F114013046FEF7ADFF80462E
:10219000384601F0EDF9002020704046EDE72DE9CA
:1021A000F04106460F4614464FF000083D480078BF
:1021B000002803DD12202070BDE8F08101F0D4F981
:1021C00080463846FEF7D0FF05460F2D05DD404618
:1021D00001F0CEF963202070EEE7394606F11400D5
:1021E000FEF782FF404601F0C3F90020207000BFD7
:1021F000E2E770B504460D46002601F0B5F9064643
:10220000D4E90310884204D3304601F0B1F95E20CE
:1022100070BD6068286065602069401C20613046A0
:1022200001F0A6F90020F3E770B505460C4600263C
:1022300001F09AF906462868206068686060A8681E
:10224000A060E868E06028692061304601F090F9FC
:10225000D4E90301401A6061002070BD70B5B4215B
:102260001148FEF7F2FF104C00250DE0681C00EB52
:10227000C0000D4901EB800060603F202075002107
:1022800061752434681C85B2042DEFDB002060608A
:102290003F2020750021617503480149086070BD29
:1022A000500000202C000020F410002070B50446DF
:1022B00000262078032801D0002070BD01F054F9D9
:1022C00006462589002D02DD2089401E20813046EA
:1022D00001F04EF92846F0E770B505460026DD48C6
:1022E0000078002801DD002070BD01F03DF90646B0
:1022F000D9480468006820B1D74800684068D649CA
:102300000860304601F034F95CB10320207025816B
:10231000002060603F202074002161742046FFF798
:10232000B7F92046E0E72DE9F04704468846154610
:102330004FF000092078032804D00120287020469F
:10234000BDE8F087C3480078002803DD0F2028701F
:102350002046F5E701F008F98146A07A08B1012787
:1023600000E00027B8F1000F03D0B8F1010F3ED113
:102370001BE09FB93F202074002161740020207071
:10238000B5480068606000202081B348046048467A
:1023900001F0EEF800202870002605E0484601F024
:1023A000E7F849202870264628E005E000230122AE
:1023B00019462046FFF7FBF8A07A0028F6D13F2007
:1023C00020740021617400202070A34800686060C0
:1023D00000202081A0480460484601F0C9F8012F80
:1023E00001D1FFF76DF900202870002606E048466D
:1023F00001F0BEF807202870264600BF00BF304617
:102400009EE72DE9F04105460E4614460027287840
:10241000032803D001202070BDE8F0818D480078AA
:10242000002802DD02202070F6E78C4800780028A2
:1024300002DD0D202070EFE701F096F807462889AD
:10244000002808DD2889401E2881384601F090F8D0
:1024500000202070E0E78248006890F8280040F0F3
:1024600001007F49096881F8280000207C4909683B
:1024700081F829007A480068C6842846FFF7D0F81A
:10248000384601F075F8FFF71BF901F06DF80746C3
:102490007348006890F8290020B1012809D002286B
:1024A00006D102E0002020700BE00E20207008E032
:1024B00000BF29466A480068FFF764F80A202070C8
:1024C00000BF00BF00206649096881F82800644900
:1024D000096881F8290062490968C861384601F035
:1024E00047F800BF98E72DE9F04104460F4615462E
:1024F0004FF000082078032804D001202870002025
:10250000BDE8F08101F030F88046A07A20B30026C3
:102510007FB1012F0CD107E00223012200212046C8
:10252000FFF745F8701CC6B2A07A0028F4D109E084
:1025300000BF0223012200212046FFF738F8701C5B
:10254000C6B200BF00BF404601F012F8FFF7B8F86E
:102550000E2028703046D3E7404601F009F80020ED
:10256000287000BFCCE770B504460025207803280A
:1025700001D0012070BD00F0F7FF0546A07A60B1E0
:102580000023012219462046FFF711F8284600F0E3
:10259000EFFFFFF795F80020ECE720894FF6FF7179
:1025A000884207D22089401C2081284600F0E0FFA5
:1025B0000020DFE7284600F0DBFF3220DAE72DE9D4
:1025C000F04704460D464FF000092078032802D05A
:1025D0000120BDE8F08700F0C7FF8146A07AE871CE
:1025E00004F10B07AE1C4FF0000807E017F8010BD1
:1025F00006F8010B08F1010000F0FF08B8F1050F23
:10260000F4DB20892880484600F0B2FF0020E0E794
:102610002DE9F04104460E46154600272078032890
:1026200003D001202870BDE8F08100F09DFF07462F
:10263000002028702089002801DD268105E0A07A8D
:1026400008B9268101E049202870384600F090FF43
:1026500000BFE8E72C000020240000202D0000200F
:102660003C0000202DE9FF5F814688460020009055
:1026700000F07AFF0090FD4850F8280030B1009833
:1026800000F076FF282004B0BDE8F09FB9F1FF0FFD
:1026900003D1F748006890F82A90F44850F8294090
:1026A00024B9009800F064FF2920ECE7012C04D144
:1026B000009800F05DFF4320E5E74FEAE80708F0E7
:1026C000070003900120B84000F0FF0A01210398A1
:1026D000814001F0FF0B0020E44941F82900084641
:1026E00040F8284014F82C6FA078029060782C3CB9
:1026F0000190E048815D01980140D1B1DD48805DE5
:1027000001998843DB4988550846805D28B9DA4835
:10271000007802998843D8490870D748007840EA81
:102720000A00D5490870D348C05D40EA0B00D14982
:10273000C855E569D5B105F10B00805D0199884365
:1027400005F10B0188550846805D18B9A87A0299F1
:102750008843A872A87A40EA0A00A87205F10B0023
:10276000C05D40EA0B0005F10B01C85584F82A80D2
:1027700084F82C70039884F82B0084F82EA084F839
:102780002DB0009800F0F4FEBC480078012801D17B
:10279000FEF796FF002076E72DE9FE4F06460F462E
:1027A00090461C464FF0000900F0DEFE8146B4481A
:1027B0000078002805DD484600F0DAFE3C20BDE840
:1027C000FE8FAA4850F8240060BB0120A74941F8B9
:1027D0002400484600F0CCFE0023424639463046ED
:1027E00000F057FE8246002000900190034602460A
:1027F000514602902046FEF7A9FF054635B99F488D
:10280000007801280CD1FEF75BFF09E000F0ACFE78
:1028100081460020954941F82400484600F0A8FE72
:102820002846CCE7484600F0A3FE2820C7E702F080
:10283000010343B102F002032BB102E0491E002361
:1028400008C00029FAD170472DE9F04F85B08146C4
:102850008A4693461C46DDE90F78129D00200390BE
:1028600000F082FE039086480078002806DD039879
:1028700000F07EFE3C2005B0BDE8F08F7B4850F8AC
:10288000240088BB0120794941F82400039800F016
:102890006FFE2A4641463846FFF7C9FF2B465A4687
:1028A0005146484600F0F5FD04901198CDE90080AE
:1028B00002953A4620460E9B0499FEF747FF0646CE
:1028C00036B96E48007801280CD1FEF7F9FE09E010
:1028D00000F04AFE03900020644941F82400039868
:1028E00000F046FE3046C6E7FFE7039800F040FEE2
:1028F0002820C0E72DE9F04706460F4614464FF062
:1029000000085F480078002804DD112020700020B6
:10291000BDE8F08700F028FE8046FF2E03D1544822
:10292000006890F82A60514850F8265035B9404662
:1029300000F01EFE432020700020E9E7012D06D1A3
:10294000404600F015FE432020700020E0E705F12E
:1029500044013846FEF7C8FB8146404600F008FEB9
:10296000002020704846D3E72DE9F0470646884608
:1029700014464FF0000942480078002803DD122079
:102980002070BDE8F08700F0EFFD8146FF2E03D1F7
:102990003748006890F82A60344850F826502DB91E
:1029A000484600F0E5FD43202070EAE7012D05D1FF
:1029B000484600F0DDFD43202070E2E74046FEF788
:1029C000D3FB0746072F05DD484600F0D1FD412027
:1029D0002070D6E7414605F14400FEF785FB4846E6
:1029E00000F0C6FD0020207000BFCAE770B50546A4
:1029F000002600F0B9FD06461C4850F8254024B9D1
:102A0000304600F0B5FD462070BD012C04D13046A3
:102A100000F0AEFD4320F7E794F8280000F008002E
:102A200018B314F8280F20F00800207014F82809B3
:102A300040BBE08C38BB2C34A0780F4909780843A0
:102A40000D49087020780B49085C6178084314F838
:102A50002C19084A5054304600F08AFD0748007887
:102A6000012818D1FEF72CFE15E016E0C40D002059
:102A70003C00002031000020300000203600002003
:102A80002C00002004E0FFE7304600F071FD02E07A
:102A9000304600F06DFD0020B6E7304600F068FDDE
:102AA0004420B1E72DE9F04707460D464FF0000AF4
:102AB00000202860686000F057FD8246FF2F03D198
:102AC0005448006890F82A70534850F827402CB9B1
:102AD000504600F04DFD4320BDE8F087012C04D1A5
:102AE000504600F045FD4320F6E7207C00F0010051
:102AF00020B9504600F03CFD4520EDE70026D4F813
:102B00000C90D4F80880504600F032FD00E0761CAE
:102B100058F8041B0029FAD0B0002860A9EB060081
:102B2000800068600020D7E72DE9F04105464FF0AE
:102B3000000800F019FD8046FF2D05D135480068DA
:102B400090F82A50012608E03248006890F82A00E0
:102B5000A84201D1012600E000262F4850F8254068
:102B60002CB9404600F004FD4820BDE8F081012C5E
:102B700004D1404600F0FCFC4320F6E794F82C70AA
:102B80002648C05D94F82D1088432449C85508464E
:102B9000C05D30B994F82E10214800788843204950
:102BA000087094F8280040F0080084F82800404697
:102BB00000F0DEFC012E01D1FEF782FD0020D4E7FB
:102BC0002DE9F04105460E46002700F0CDFC0746F2
:102BD000FF2D03D10F48006890F82A500E4850F896
:102BE00025402CB9384600F0C3FC2920BDE8F0810F
:102BF000012C04D1384600F0BBFC4320F6E74C2200
:102C000021463046FEF752FD384600F0B1FC002068
:102C1000ECE700003C000020C40D00203100002043
:102C20003000002070B5054600266748007800286F
:102C300000DD70BD002D23DD00F096FC06466348E4
:102C4000006890F82C406248005D6049096891F87E
:102C50002D1088435E4908550846005D40B95B4821
:102C6000006890F82E105B48007888435949087036
:102C700056480068C584304600F07AFCFEF720FD17
:102C800000BFD6E72DE9F0470746884691461D4626
:102C90004D480078002802DD5520BDE8F0874FF44C
:102CA0007A7068434FF47A71B0FBF1F14FF46160D0
:102CB0007843C8EB081200EB8200484400EB400266
:102CC000C2EBC01001EBC004260CA4B22046FFF7F3
:102CD000A9FF09E04FF40040FFF7A4FF4FF40040C4
:102CE000FFF7A0FF701E86B2002EF3DC0020D4E7B1
:102CF00070B505460026202D01DB2A2070BD00F0AE
:102D000033FC0646344850F8254024B9304600F0DC
:102D10002FFC4320F2E7012C04D1304600F028FCC0
:102D20004320EBE7E08C20B9304600F021FC502036
:102D3000E4E70020E08494F8280000F0370040B178
:102D400014F8280F20F03700207001206070283C14
:102D500002E0002084F8290094F8280000F0080020
:102D6000A8B92C34A0781B49097808431949087080
:102D700020781749085C6178084314F82C19144A24
:102D80005054304600F0F4FBFEF79AFC02E0304667
:102D900000F0EEFB0020B1E770B5002500F0E4FB89
:102DA00005460E480468284600F0E2FB204670BD48
:102DB00070B50446002500F0D7FB054607480460BF
:102DC000284600F0D5FB70BD2C0000203C00002000
:102DD0003100002030000020C40D002054000020ED
:102DE00010B5FE480068FFF7BEFB10BDFC48006848
:102DF00008B900207047FA480168F94AC8681060AD
:102E00000020C8600861F7480088401CF54A10801F
:102E1000F5480088401EF44A10800846EAE708B5E5
:102E20006A460021ED480068FFF7EBFA08BD2DE97E
:102E3000F05F8046894692469B46DDE90B65EB488C
:102E40000078002804DD8B2028700020BDE8F09F6A
:102E5000FFF7E5FFFFF7CAFF04462CB9FFF7C0FFF5
:102E6000862028700020F1E7012084F83100C4F8A2
:102E70001880C4F81C9084F830A0C4F804B00A98F4
:102E8000A060BEB13046FEF76FF90746102F05DA95
:102E9000314604F12000FEF727F90BE0232084F8E7
:102EA00020000021212001558C202870FFF798FF79
:102EB0002046CBE7FFF794FF002028702046C5E7A7
:102EC000002180F8311080F83010C161416141600B
:102ED00081603F2180F82010002221210A54002126
:102EE0000161BF490968C160BD490860BD490988E1
:102EF000491EBC4A1180BC490988491CBA4A118044
:102F0000704730B5057D05F00704B94D05EBC403E6
:102F10001D68854205D1C168196039B100250D6170
:102F200004E00169C268CA6002B11161012580F83C
:102F300031500025C56005619D886D1E9D8030BDA6
:102F400070B505460C462878642803D08920207087
:102F5000002070BDA5480078002803DD8B2020707C
:102F60000020F6E7FFF75BFF95F83100D8B10128A4
:102F70000FD002280ED003281BD12846FFF7C1FF2F
:102F80002846FFF79DFFFFF72BFF00202070012050
:102F9000DFE700BF2846FFF793FFFFF721FF002080
:102FA00020700120D5E7FFF71BFF8720207000204D
:102FB000CFE7FFF715FF8D2020700020C9E72DE92E
:102FC000F04105460E4614462878642804D089202E
:102FD00020700020BDE8F08184480078002803DDDF
:102FE000112020700020F5E7FFF719FF95F8310058
:102FF00098B1012804D0022803D0032813D100BFC0
:1030000000BF05F120013046FEF76EF80746FFF7D6
:10301000E7FE002020703846DCE7FFF7E1FE87205E
:1030200020700020D6E7FFF7DBFE8D202070002007
:10303000D0E770B504460D462078642803D0892077
:103040002870002070BD69480078002803DD8B20BF
:1030500028700020F6E7FFF7E2FE94F8310070B325
:1030600001280DD0022825D003282FD1614960699D
:103070000968461AFFF7B4FE002028703046E1E7E1
:1030800094F8300001280CD0022809D1A06908B9B1
:10309000E66900E0A669FFF7A3FE0020287006E0BD
:1030A00000BFA669FFF79CFE0020287000BF00BF8C
:1030B0003046C7E7FFF794FE00202870C2E7FFE71D
:1030C000FFF78EFE872028700020BBE7FFF788FE01
:1030D0008D2028700020B5E770B505460C4628788D
:1030E000642803D089202070002070BD3F480078FC
:1030F000002803DD8B2020700020F6E7FFF78FFE0D
:1031000095F8316036B1012E05D0022E04D0032E81
:1031100006D102E000BF00BF00BF0020207002E027
:103120008D20207000BF00BFFFF75AFE3046DCE75D
:1031300070B50B46032580F83150012B05D12D4E7B
:10314000C5693668354445610CE085692DB9294E5D
:10315000C56936683544456104E0264E85693668A0
:1031600035444561057D05F00704214D05EBC4019B
:103170000D682DB908600025C56001258D8006E029
:103180000A680860C26010618D886D1C8D80002502
:10319000056170BD70B505460C462878642803D0DB
:1031A00089202070002070BD10480078002803DDC1
:1031B0008B2020700020F6E7FFF731FE95F83100F4
:1031C00068B3012820D002281FD003282DD128461B
:1031D000FFF797FE002128460EE000006000002067
:1031E000680000205A000020580000202C00002019
:1031F000481400205C000020FFF79AFFFFF7F0FD65
:10320000002020700120CEE700BF00212846FFF7F4
:103210008FFFFFF7E5FD002020700120C3E7FFF7D7
:10322000DFFD872020700020BDE7FFF7D9FD8D204E
:1032300020700020B7E72DE9F04105460F46904683
:103240001C462878642804D0892020700020BDE81E
:10325000F08176480078002803DD8B202070002064
:10326000F5E7FFF7DCFD95F83100002832D00128A2
:103270002AD0022827D0032832D12846FFF741FE62
:1032800000202070B7B1032F02D0042F13D108E023
:103290006E681EB12846A968B04701E08F202070F3
:1032A0000CE06E681EB141462846B04701E08F2011
:1032B000207003E002E08420207000BF00BFFFF711
:1032C0008FFD0120C3E700BFFFF78AFD8E2020702D
:1032D0000120BCE7FFF784FD872020700020B6E7BF
:1032E000FFF77EFD8D2020700020B0E710B550481C
:1032F0000068FFF738F90446204610BD08B500BF46
:103300006A4600214A480068FFF77BF8FFF787FD0F
:1033100048480068401C474908600846007800F0AB
:103320000708454800EBC8073C681AE0E6684149D1
:1033300060690968884213D1656815B12046A168A3
:10334000A8472046FFF7DDFD94F83000022804D19D
:1033500001212046FFF7ECFE02E0022084F8310054
:103360003446002CE2D1FFF73BFDC9E700B587B03A
:10337000032000214022314BCDE90132CDE9031079
:103380004FF6FD701E232D4AFC3200902C48FFF7AB
:103390005BFA06AA2BA11E20FFF7E6FA07B000BDD4
:1033A00070B54FF4D0712948FDF74FFF40212248F6
:1033B000FDF74BFF254C04F1340600250FE0642097
:1033C0002070002084F83100E6603F2084F820005F
:1033D00000212120015534343436681C85B2072D74
:1033E000EDDB64202070002084F83100E0603F2095
:1033F00084F8200000212120015500200D4908609B
:1034000013490880082013490880104812490860B1
:103410000120FEF761FF114908600020FEF75CFF04
:1034200003490860FFF7A2FF70BD00002C000020D8
:10343000640000205C000020481400204813002095
:10344000FD3200084F532D546D720000A81100206A
:103450005A00002058000020680000206000002072
:103460000020404908807047704710B50446204648
:1034700000F0E7F810BD10B50446204600F0E2F871
:1034800010BD10B500F0DFF810BD10B500F0DCF88D
:1034900010BD70B5044610464FF080750560051FDD
:1034A00028462C606FF00106051F28462E604FF05D
:1034B0001236051F28462E604FF00336051F28469A
:1034C0002E604FF00236051F28462E607610051F2D
:1034D00028462E60051F284629604FF01136051F2B
:1034E00028462E604FF01036051F28462E604FF0FC
:1034F0000936051F28462E604FF00836051F28465E
:103500002E604FF00736051F28462E604FF0063616
:10351000051F28462E604FF00536051F28462E60F1
:103520004FF00436051F28462E6070BD10B500F020
:103530008CF810BD10B50446204600F087F810BD89
:1035400010B500F084F807480088401C0549088041
:1035500008460088012803DB00200880FFF7C6FE2C
:1035600010BD00006C000020EFF3108072B67047B1
:1035700080F31088704724484FF00001017000204C
:1035800080F309881D480121017020484FF08051C7
:10359000016062B6FEE71D484FF080510160704740
:1035A0001A484FF0805101607047EFF3098028B14D
:1035B000203880E8F00F12490968086000B50A4811
:1035C00080475DF804EB0B480B490A7802700C4801
:1035D0000C490A680260106890E8F00F203080F310
:1035E00009884EF0040E70472D350008A913000815
:1035F0002C0000202E0000202F000020360000208C
:103600003C0000204400002020ED00E004ED00E03C
:1036100072B6704762B67047EFF3108072B67047AB
:1036200080F3108870470000014605E0002001E0AB
:10363000421CD0B26428FBDB0A1EA1F10101F5D1C6
:1036400070477047704770477047704770477047C2
:1036500010B501F003FA4FF4803001F01EFA01F0CA
:103660005BFA0446012C27D1102001F03DFE022018
:1036700001F024FE002001F098FA002001F0A7FAE2
:10368000A00201F09BFAE00301F0BCFA4FF4E01154
:10369000200401F06DFA012001F076FA00BF392014
:1036A00001F01EFA0028FAD0022001F070FA00BFE3
:1036B00001F076FA0828FBD101213D2001F03EFB04
:1036C0000121880301F03AFB0121480401F043FB8A
:1036D00010BD08B500214FF0006001F0CBF84FF4A9
:1036E000E06001F010F825208DF8000001208DF831
:1036F000010000208DF8020001208DF803006846CB
:1037000001F007F826208DF8000002208DF8010056
:1037100000208DF8020001208DF80300684600F0BB
:10372000F8FF08BD10B5FFF773FF10BD10B5AE4828
:1037300001F097FAAC48406810BD10B545F25550FD
:1037400000F080FF032000F080FF4FF4006000F0E5
:103750007FFF00F080FF00F083FF10BD10B500F088
:103760007AFF10BD10B50121C80201F0F4FA4F2014
:1037700001F08FFD10BD10B586B04FF4A06000F0D1
:10378000C2FF00221146994801F0B0F80322114609
:10379000974801F0ABF801A801F063FA4FF47A7191
:1037A0000298B0FBF1F4204601F044FB042001F044
:1037B0002DFB012001F042FB012001F05AFB06B075
:1037C00010BD10B5FFF7D0FE04468A480078401CB3
:1037D000884908702046FFF7CBFEFDF735FEFDF760
:1037E000E3FD10BD08B5F020ADF8000028208DF8ED
:1037F000030003208DF8020069467F4800F0F2FDC7
:103800003020ADF8000028208DF8030003208DF84B
:1038100002006946794800F0E5FD43F60340ADF843
:10382000000028208DF8030003208DF8020069466F
:10383000734800F0D7FD4FF47070ADF800004820D9
:103840008DF8030003208DF8020069466B4800F0F4
:10385000C9FD4FF47040ADF8000048208DF803001A
:1038600003208DF802006946654800F0BBFD4FF467
:10387000F840ADF8000010208DF8030001208DF80D
:10388000020069465D4800F0ADFD0420ADF800007F
:1038900010208DF8030001208DF802006946594878
:1038A00000F0A0FD4FF4F070ADF8000010208DF88E
:1038B000030001208DF802006946514800F092FD96
:1038C0004FF480614D4800F03CFE4FF400614B48DE
:1038D00000F037FE4FF48051484800F032FE0421DA
:1038E000484800F02EFE2021454800F02AFE4021E5
:1038F000434800F026FE8021414800F022FE4FF4AC
:1039000080713F4800F01DFE4FF400513B4800F02D
:1039100018FE4FF48041394800F013FE0420ADF842
:10392000000010208DF8030001208DF80200694688
:10393000324800F057FD08BD00B587B04FF4007065
:10394000ADF8180018208DF81B0003208DF81A0020
:1039500006A9294800F046FD4FF48060ADF8180034
:1039600004208DF81B0006A9234800F03BFD01212F
:10397000880301F0E3F90020ADF80000ADF8020083
:103980004FF40070ADF804000020ADF80600694661
:103990001D4801F03DFB4FF4165002900020ADF899
:1039A0000C00ADF80E00ADF81000ADF814000C20BE
:1039B000ADF8120002A9144801F0D3FA012240F236
:1039C0002551114801F047FB01210F4801F037FB59
:1039D00007B000BD10B5FFF7CEFE4FF4164000F063
:1039E0002AFAFFF7FFFE10BD881400209AC30200D8
:1039F0009C8202002C0000200008014000100140C1
:103A0000000C01400014014000380140704701E003
:103A1000FFF7A8FEFCE700BFFEE700BFFEE700BF20
:103A2000FEE77047704770477047704770477047B0
:103A300070477047704770477047704770477047CE
:103A400070477047704770477047704770477047BE
:103A500070477047704770477047704770477047AE
:103A6000704770477047704770477047704770479E
:103A700070477047704770477047002100E0491C4D
:103A80008142FCDB704770B500250026FFF76CFD16
:103A900005466A480078401C684908702846FFF7C8
:103AA00067FD40F22551664801F094FB002872D072
:103AB00040F22551624801F0B3FB614801F02BFB55
:103AC000C4B26048007800287BD15F4800780528A0
:103AD00079D2DFE800F0031A2E4261003A2C0ED1B1
:103AE000012059490870002058490870084601789B
:103AF0000078401C554A10705548445404E000209A
:103B000051490870514908705EE05B2C0BD10220CE
:103B10004D4908704D4801780078401C4B4A1070A0
:103B20004B48445404E00020474908704749087056
:103B30004AE07C2C0BD103204349087043480178AC
:103B40000078401C414A10704148445404E0002071
:103B50003D4908703D49087036E03C4801780078DE
:103B6000401C3A4A10703A484454104600780928DC
:103B700010D13748007AC043C6B23548C079B04248
:103B800003D104203049087004E000202E49087059
:103B90002E49087018E018E02C4801780078401C85
:103BA0002A4A10702A484454C0790C3011460978CA
:103BB000884205D10020244908700120214908705D
:103BC00002E00CE0FFE700BF09E04FF458711C4829
:103BD00001F0F4FA012802D1194801F09CFAFDF72E
:103BE000E3FB70BD10B50024FFF7BEFC044613488C
:103BF0000078401C114908702046FFF7B9FC40F2DC
:103C00002551144801F0E6FA50B140F2255111480F
:103C100001F006FB0F4801F07EFA0F49087009E039
:103C20004FF458710B4801F0C9FA012802D1094834
:103C300001F071FAFDF7B8FB10BD00002C00002068
:103C4000003801407D0000207A0000207B00002029
:103C50009C140020004400406E000020FEE7FEE7B8
:103C6000FEE704480047000003480449044A054BA6
:103C700070470000ED00000860160020601A002068
:103C8000601800206018002010B504462146B44892
:103C900001F03DFA00BF4021B14801F08FFA002841
:103CA000F9D010BD2DE9F04104460D4600272E46FF
:103CB00005E039467A1CD7B2605CFFF7E5FF301E9D
:103CC000A6F10101CEB2F4D1BDE8F08110B50446F1
:103CD0002146A44801F01BFA10BD2DE9F04104462D
:103CE0000D4600272E4605E039467A1CD7B2605CA7
:103CF000FFF7ECFF301EA6F10101CEB2F4D1BDE812
:103D0000F0819948007899490870704770B5054668
:103D100000260224002D52D0012D25D121E0924809
:103D2000007892490978884212D09048017800784A
:103D3000401C8E4A10708E48465C10460078322136
:103D400090FBF1F201FB120088490870304670BD0B
:103D5000601EC4B22CB10123002211461046FEF7AA
:103D600091FF002CDBD12AE0022D25D121E08148F2
:103D7000008881490988884212D07F4801880088DC
:103D8000401C7D4A10807D48465C104600883221E8
:103D900090FBF1F201FB1200774908803046D6E72C
:103DA000601EC4B22CB10123002211461046FEF75A
:103DB00069FF002CDBD102E04FF0FF30C7E74FF086
:103DC000FF30C4E770B505460E463446012D07D1D5
:103DD00003E014F8010BFFF757FF20780028F8D113
:103DE000022D07D103E014F8010BFFF76FFF2078D5
:103DF0000028F8D170BD2DE9F04105460F46164662
:103E00003C46012D09D103E014F8010BFFF73CFFFC
:103E1000301EA6F10101CEB2F6D1022D09D103E088
:103E200014F8010BFFF752FF301EA6F10101CEB2CC
:103E3000F6D1BDE8F08110B588B004464FF40070AB
:103E4000ADF8040003208DF8060018208DF8070057
:103E500001A94B4800F0C6FA4FF48060ADF80400A9
:103E600048208DF8070001A9454800F0BBFA0494EA
:103E70000020ADF81400ADF81600ADF81800ADF84C
:103E80001C000C20ADF81A000020ADF80800ADF8B9
:103E90000A004FF40070ADF80C000020ADF80E00E1
:103EA00002A92F4801F0B4F8012240F225512C4814
:103EB00001F0D1F804A92A4801F053F8012128485B
:103EC00001F0BDF808B010BD10B588B0044601215E
:103ED000480400F040FF0420ADF8040003208DF8F2
:103EE000060018208DF8070001A9254800F07AFA8D
:103EF0000820ADF8040004208DF8070001A920482F
:103F000000F070FA04940020ADF81400ADF816002B
:103F1000ADF81800ADF81C000C20ADF81A00002018
:103F2000ADF80800ADF80A004FF40070ADF80C00D1
:103F30000020ADF80E0002A90A4801F069F801223C
:103F400040F22551074801F086F804A9054801F020
:103F500008F80121034801F072F808B010BD000014
:103F600000380140004400407B0000207C0000201D
:103F70009C1400207E00002080000020CE15002030
:103F8000000801402DE9F047002400250126022702
:103F90004FF004084FF0010901F0E4FB0546D24858
:103FA00000682840D0490968884234D001F0D6FB27
:103FB0000446CD4800682843CB49086001F030FA38
:103FC0008146C9480068401C28B1C7480068C04302
:103FD00001F0E3FA814604F00700072811D004F04D
:103FE000010000B9002604F0020000B9002704F027
:103FF000040008B94FF0000842463946304601F047
:104000007EFBB9F1040F06D10121C80200F0A3FE26
:104010004F2001F03EF9BDE8F08701B5002000997E
:10402000C1F30A021AB1012202EBD12000E0C80A52
:1040300008BD10B501F063F90920AC4908600846D5
:10404000017801208840401EC043A749086001F064
:1040500089FBA54909680840A3490968884201D03D
:10406000FFF790FFA248A3490860352001F0B3FB99
:104070004FF4C840FFF7D1FF9F49086000209F49D7
:10408000086010E09B4909689C4A12684FF400637D
:1040900003FB021001F07AF999490870974800680B
:1040A000401C964908609548006893490968884211
:1040B00003D2934800780428E4D010BD2DE9F041E4
:1040C00004460F461546B4F5C84F02DB0120BDE893
:1040D000F08104EB0508B8F5C84F01D30120F6E7DD
:1040E00083482044834908608648076000261DE015
:1040F0008448006801687F48006801F0D8F9804969
:1041000008707C48006800687E4909680968884230
:1041100001D00120DBE777480068001D7549086081
:1041200078480068001D77490860361DAE4204D209
:104130007048006874498842DAD30020C7E72DE947
:10414000F04104460D461646B4F5C84F02DB012087
:10415000BDE8F08104EB0608B8F5C84F01DB01208B
:10416000F6E701F0CCF86248204462490860002775
:104170000AE060480068007828706D1C5D4800689F
:10418000401C5C4908607F1CB742F2DB01F0BDF8BF
:104190000020DDE72DE9F04105460E4617465B4855
:1041A00005EB000801F0ABF8A8F10060000B4F49E7
:1041B00008600846017801208840401EC0434A49F3
:1041C000086001F0CFFA4849096808404649096883
:1041D000884201D0FFF7D6FE4648C0F8008035205F
:1041E00001F0F9FA4FF40060FFF717FF4249086049
:1041F00000204249086010E03E4909683F4A1268C1
:104200004FF4006303FB021001F0C0F83C49087052
:104210003A480068401C3949086038480068364907
:104220000968884203D2364800780428E4D035482B
:104230000660002413E03348006801682D480068D8
:1042400001F035F92E4908702A480068001D2949F7
:1042500008602C480068001D2A490860241DBC42E3
:10426000E9D301F052F8BDE8F0812DE9F0410546AF
:104270000E46174601F043F8244828441D490860BB
:1042800000240AE01B48006800783055194800688F
:10429000401C18490860601CC4B2BC42F2DB01F04B
:1042A00034F8BDE8F0811A4A124B1A6000210BE085
:1042B000104A126812780270401C0E4A1268521C92
:1042C0000C4B1A604A1CD1B20C29F1DB704710B5B7
:1042D00001F04BFA012806D001F011F8012001F09D
:1042E000B7F900F0CEFA10BD88000020840000204D
:1042F000009400089C000020900000208C0000200A
:10430000940000209800002000F8000800C0030876
:10431000E8F7FF1F10B50446C649601A8C422FD03B
:1043200009DCC548204480B1B0F5806F16D0B0F5E7
:10433000006F4AD11BE0B0F5806F2AD0B0F5006F56
:1043400030D0B0F5406F40D135E00121042000F0BD
:104350000FFD0021042000F00BFD37E001210820B3
:1043600000F006FD0021082000F002FD2EE00121F2
:10437000102000F0FDFC0021102000F0F9FC25E0E9
:104380000121202000F0F4FC0021202000F0F0FCAE
:104390001CE00121402000F0EBFC0021402000F057
:1043A000E7FC13E00121802000F0E2FC00218020E6
:1043B00000F0DEFC0AE00121080200F0D9FC002137
:1043C0004FF4807000F0D4FC00E000BF00BF10BDCF
:1043D00010B50121084600F0CBFC0021012000F0BF
:1043E000C7FC10BD2DE9F041024600250026002043
:1043F00000230024002791F803C00CF00F0591F86A
:1044000003C00CF0100CBCF1000F03D091F802C0F7
:104410004CEA050591F800C0BCF1000F31D01468DA
:1044200000202BE04FF0010C0CFA00F3B1F800C0B3
:104430000CEA03069E4220D183004FF00F0C0CFAC9
:1044400003F7BC4305FA03FC4CEA040491F803C0EB
:10445000BCF1280F06D14FF0010C0CFA00FCC2F899
:1044600014C00AE091F803C0BCF1480F05D14FF029
:10447000010C0CFA00FCC2F810C0401C0828D1D373
:104480001460B1F800C0BCF1FF0F34DD54680020A7
:104490002EE000F1080C4FF0010808FA0CF3B1F817
:1044A00000C00CEA03069E4221D183004FF00F0C9E
:1044B0000CFA03F7BC4305FA03FC4CEA040491F838
:1044C00003C0BCF1280F05D100F1080C08FA0CF864
:1044D000C2F8148091F803C0BCF1480F07D100F175
:1044E000080C4FF0010808FA0CF8C2F81080401CC4
:1044F0000828CED35460BDE8F0814FF6FF710180EB
:10450000022181700421C170704702460020936827
:104510000B400BB1012000E0002070470146886885
:1045200080B2704702460020D3680B400BB10120D7
:1045300000E0002070470146C86880B27047016102
:104540007047416170470AB1016100E04161704705
:10455000C16070474FF480320A4382618161826199
:1045600082698269704702460020344B18684FF612
:104570008073184040EA02100843304B18607047BF
:104580002F49C8617047F0B50A4600230024002176
:1045900000252A4E7168C0F3034583B200F440162B
:1045A000B6F5401F08D121F07061244E766826F0E0
:1045B0007066224F7E6012E000F48016B6F5801F10
:1045C00006D1032606FA05F4A14341F0706106E026
:1045D000460D360103FA06F6B14341F0706122B18F
:1045E000460D360103FA06F63143144E7160F0BDF4
:1045F00030B500228B071C0F0F2303FA04F20F4B78
:1046000008338C1053F8243093430C4C08348D102D
:1046100044F8253023468C1053F824308C07240F9F
:1046200000FA04F42343054C08348D1044F8253077
:1046300030BD00000014014000F8FEBF0000014042
:10464000000020420E49086070470D4948607047DD
:104650000B49886070474AF6AA20094908607047EC
:104660004CF6CC4006490860704701460020044AD9
:10467000D2680A400AB1012000E000207047000023
:10468000003000400020411EED4A11600A09EC494B
:104690008039C1F88420411E4FF0E022C2F8801218
:1046A0000A09E8490A6000BF04E00022E64941F82F
:1046B0002020401C0F28F8D3704700204FF02061C5
:1046C000E24A11600021121D1160E149121D1160C2
:1046D0000021121D1160121D116000BF05E00022B3
:1046E000DA49143141F82020401C0328F7D3002177
:1046F000D64A20321160491E121D1160121D116030
:10470000121D11607047D2490143D04A083211602E
:104710007047F0B500210022002300250F24C67841
:10472000002E35D0C94E0836366806F4E066C6F568
:10473000E066310AC1F10405CC40467806FA05F17D
:1047400086782640314309010678B607F60EB14057
:10475000BD4E0778BF1056F827200678B607F70E2B
:10476000FF2606FA07F39A4319400A43B64E077824
:10477000BF1046F82720067806F01F070126BE4026
:1047800007787F11BF0007F1E027C7F800610BE051
:10479000067806F01F070126BE40A94F90F800C01A
:1047A0004FEA6C1C47F82C60F0BD0021017041708D
:1047B0008170C170704710B501F03DF810BD10B5A3
:1047C00001F03BF810BD10B501F039F810BD10B57F
:1047D00001F037F810BD10B50446200101F033F8A0
:1047E00010BD10B501F032F810BD98480068C0F354
:1047F0000930704710B501460020002201F01F0467
:10480000012303FA04F28E4B80334C1153F8243009
:104810001340934201D1012000E0002010BD8D49DA
:104820000860704700F01F0201219140854A121F65
:10483000431142F82310704784480068C0F3090010
:10484000704710B501460020002201F01F0401232B
:1048500003FA04F27B4B7C334C1153F824301340A1
:10486000934201D1012000E0002010BD7748001FD5
:1048700000687047784A0A400243744B1B1D1A6057
:1048800070477348001D71490831086070477048CF
:10489000401C6E4908310860704739B16B4A0C32D0
:1048A00012680243694B0C331A6006E0674A0C3207
:1048B00012688243654B0C331A60704710B50022B2
:1048C00000F01F04012303FA04F239B15F4B2033D7
:1048D0001B6813435D4C2034236006E05B4B2033A0
:1048E0001B689343594C2034236010BDF0B5034638
:1048F0000C4615460020FF2200260021534F0837A2
:104900003F6807F4E067C7F5E067390AC1F10400C2
:10491000CA4004FA00F105EA02073943090103F02D
:10492000C0008009C3F30122D700B9404FEAC20C8E
:10493000FF2707FA0CF6454F143757F82070B74396
:10494000DFF808C10CF1140C4CF82070674657F8DA
:1049500020700F434CF82070F0BD10B502460020C7
:1049600000230021910A01F00F01012404FA01F152
:10497000364C2034246804EA01038B4201D1012023
:1049800000E0002010BD002100F01F012F4A126836
:1049900001238B401A432D4B1A60704710B500213C
:1049A00000F01F01294A12684B1E01249C4022433B
:1049B000264B1A6010BD10B50246002000230021CE
:1049C000C2F38331012404FA01F1204C203424681D
:1049D00004EA01038B4201D1012000E0002010BD58
:1049E00030B50146002000220023C1F38142C1F30B
:1049F00001531AB9154C2834206811E0012A0CD152
:104A0000124C24342468DD0024FA05F0022B02D075
:104A100000F00F0004E0C0B202E00C4C2C3420681F
:104A200030BD014600200022C1F380521AB9074B65
:104A30003033186802E0054B3433186870470000C3
:104A400080E100E084E200E000E400E004ED00E04A
:104A50000000FA0500EF00E080FFFF1FE04800685B
:104A600040F00100DE49086008464068DD49084022
:104A7000DB49486008460068DB490840D8490860BF
:104A80000846006820F4802008600846406820F44A
:104A9000FE004860002088607047D149096821F411
:104AA0008031CF4A11601146096821F480211160DC
:104AB000B0F5803F03D0B0F5802F0ED106E0C84995
:104AC000096841F48031C64A116007E0C4490968A9
:104AD00041F4A021C24A116000E000BF00BF70474E
:104AE00010B501460022002300204A11012A02D1FC
:104AF000BB4C236806E0022A02D1B94C236A01E0CC
:104B0000B74C636A01F01F02012494401C400CB1B1
:104B1000012000E0002010BD10B5002400BF3120AE
:104B2000FFF7DEFFB1490870B1480068401CB0498A
:104B30000860AE48007828B90846006840F2FF11C6
:104B40008842ECD13120FFF7CBFF08B1012400E00F
:104B50000024204610BD01460020A14A106820F024
:104B6000F80040EAC10010607047A2490860704731
:104B7000024600209A4B586820F47C1042EA010358
:104B80001843974B586070479A490866704701462A
:104B90000020934A506820F003000843506070479B
:104BA0008F48406800F00C007047014600208C4A96
:104BB000506820F0F0000843506070470146002024
:104BC000874A506820F4E06008435060704701460F
:104BD0000020834A506820F4605040EAC1005060D1
:104BE000704729B17E4A527A02437D4B5A7204E0E3
:104BF0007B4A527A82437A4B5A7270477D49D83148
:104C00000860704701460020754A506820F4404013
:104C10000843506070470021714A20321170704A79
:104C200082F82010012802D004280AD104E00121D2
:104C30006B4A2032117005E00521694A203211705B
:104C400000E000BF00BF70476B49086070476449CF
:104C5000096A0143624A1162704767494439086032
:104C6000704730B500210022002400235C4D6D68A0
:104C700005F00C0121B1042905D0082923D105E054
:104C80005E4D056022E05D4D05601FE0544D6D688E
:104C900005F47012022505EB9242514D6D6805F442
:104CA00080341CB9564D554305600BE04C4D6D6882
:104CB00005F400351DB1524D5543056002E04F4DDE
:104CC0005543056002E04D4D056000BF00BF444DF7
:104CD0006D6805F0F00109094A4D6B5C0568DD401F
:104CE00045603F4D6D6805F4E061090A454D6B5C18
:104CF0004568DD4085603A4D6D6805F46051C90A2C
:104D0000404D6B5C4568DD40C560354D6D6805F410
:104D10004041890B3C4D6B5CC568B5FBF3F5056103
:104D200030BD29B12E4A526902432D4B5A6104E02D
:104D30002B4A526982432A4B5A61704729B1284A4B
:104D400092690243264B9A6104E0254A92698243A4
:104D5000234B9A61704729B1214AD2690243204B03
:104D6000DA6104E01E4AD26982431D4BDA61704762
:104D700029B11B4AD2680243194BDA6004E0184A91
:104D8000D2688243164BDA60704729B1144A12691F
:104D90000243134B1A6104E0114A12698243104B1B
:104DA0001A61704714494039086070471149C86456
:104DB00070470B49C87170470948406A40F08070DD
:104DC00007494862704701460020054A92680A4038
:104DD0000AB1012000E00020704701498872704745
:104DE000001002400000FFF8FFFFF6FEB4000020B4
:104DF000B8000020000042428004424200127A00C3
:104E000000093D003F6200084F620008042808D1F5
:104E10004FF0E021096941F004014FF0E0221161F7
:104E200007E04FF0E021096921F004014FF0E02292
:104E3000116170474FF0E02148617047012808D1A7
:104E40004FF0E021096941F001014FF0E0221161CA
:104E50000EE0811C41B94FF0E021096921F0010108
:104E60004FF0E022116103E000214FF0E022916158
:104E7000704740B14FF0E021096941F002014FF065
:104E8000E022116107E04FF0E021096921F0020101
:104E90004FF0E022116170474FF0E02080697047C9
:104EA00010B50146002200230020CB10022B03D1B5
:104EB0004FF0E024226902E04FF0E024E26901248F
:104EC0008C4014400CB1012000E0002010BD000017
:104ED00010B50446D749601A8C422BD006DCD64860
:104EE000204498B1B0F5806F38D119E0B0F5806FEB
:104EF0002AD0B0F56C4F31D101218803FFF738FF7C
:104F000000214FF48040FFF733FF28E001214804DF
:104F1000FFF73BFF00214FF40030FFF736FF1EE0A4
:104F200001218804FFF731FF00214FF48020FFF7B3
:104F30002CFF14E00121C804FFF727FF00214FF4E4
:104F40000020FFF722FF0AE001210805FFF71DFFFF
:104F500000214FF48010FFF718FF00E000BF00BFF2
:104F600010BD2DE9F04786B005460E460024A24646
:104F700000BF00BF00272F462C8A4CF6FF7004406C
:104F8000F08804432C82AC894EF6F3100440B088BC
:104F900031890843718908430443AC81AC8A4FF6D8
:104FA000FF400440B0890443AC8201A8FFF759FEDA
:104FB000A248874202D1DDF810A001E0DDF80CA084
:104FC0000AEBCA0000EB0A1031688900B0FBF1F867
:104FD0006420B8FBF0F004012009642101FB108972
:104FE000322000EB0910B0FBF1F000F00F00044399
:104FF0002C8106B0BDE8F0874FF416510160002106
:105000008180C18001810C21418100218181704713
:1050100010B502460020108A4FF2FF0318400B889B
:105020004C8823438C882343CC8823431843108225
:1050300010BD0021018041808180C180704721B175
:10504000828942F40052828104E082894DF6FF7326
:105050001A4082817047F0B50346002400260025DF
:1050600000201846C1F3421401F01F06012707FA79
:1050700006F5012C01D10C3004E0022C01D11030D6
:1050800000E014301AB107682F43076002E0076898
:10509000AF430760F0BD1AB1838A0B43838202E0FD
:1050A000838A8B4383827047028A4FF6F0731A40DB
:1050B0000282028A0A430282704782894FF2FF739A
:1050C0001A40828182890A438281704721B1828994
:1050D00042F00202828104E082894FF6FD731A4099
:1050E00082817047028A4FF6DF731A400282028A79
:1050F0000A430282704721B1028A42F4804202824E
:1051000004E0028A4BF6FF731A4002827047C1F333
:1051100008028280704701468888C0F30800704703
:10512000818941F0010181817047028BD2B20283F3
:10513000028B42EA012202837047028B02F47F4213
:105140000283028B0A430283704721B1828A42F0B4
:105150002002828204E0828A4FF6DF731A40828244
:10516000704721B1828A42F01002828204E0828A72
:105170004FF6EF731A408282704721B1828A42F063
:105180000802828204E0828A4FF6F7731A40828214
:105190007047828A4FF6FB731A408282828A0A43E2
:1051A0008282704721B1828A42F00202828204E048
:1051B000828A4FF6FD731A408282704702460020B1
:1051C00013880B400BB1012000E000207047CA4358
:1051D0000280704770B502460B460024002100256E
:1051E0000020C3F3421503F01F01012606FA01F166
:1051F000012D02D19689314006E0022D02D1168A96
:10520000314001E0968A31401C12012606FA04F46E
:105210001688344011B10CB1012000E0002070BDAF
:1052200010B5002200230A1201249440A3B2DC43EB
:10523000048010BD004C004000BCFFBF003801409E
:1052400010B50121C802FFF7A0FD00214FF4006056
:10525000FFF79BFD10BD0021164A126822F4C071B1
:105260000143144A116070470021124A126822F06B
:105270007F0100F07F0211430E4A11607047012048
:105280000D490860704700F07F010A4A121F116043
:10529000704740F08001074A121F116070470548AF
:1052A000001D0068C0B2704700200249091D086057
:1052B00070470000042C0040A4800542FD490968A5
:1052C00001F03801FB4A1160114609680143116081
:1052D0007047F849096821F00801F64A1160114643
:1052E0000968014311607047F249096821F0100113
:1052F000F04A116011460968014311607047EE4899
:10530000EC494860ED4848607047EA48006940F061
:105310008000E849086170470420E649C96801F047
:10532000010109B101200EE0E249C96801F0040160
:1053300009B1022007E0DF49C96801F0100109B195
:10534000032000E00420704708B500200090FF20F3
:10535000009002E00098401E009000980028F9D1CB
:1053600008BD70B504460425FFF7D6FF054605E0E5
:10537000FFF7EAFFFFF7D0FF0546641E012D01D1BC
:10538000002CF5D104B90525284670BD70B5054639
:10539000042440F6FF70FFF7E4FF0446042C19D103
:1053A000C448006940F00200C249086108464561EE
:1053B000006940F04000086140F6FF70FFF7D1FF40
:1053C0000446012C06D0BB48006941F6FD71084037
:1053D000B8490861204670BD10B5042440F6FF703E
:1053E000FFF7BFFF0446042C18D1B248006940F013
:1053F0000400B04908610846006940F040000861B7
:1054000040F6FF70FFF7ADFF0446012C06D0A94817
:10541000006941F6FB710840A6490861204610BDAD
:1054200010B5042440F6FF70FFF79BFF0446042CE0
:105430003BD1A1489F498860A04888600846006920
:1054400040F0200008610846006940F04000086113
:1054500040F6FF70FFF785FF0446042C1CD19548E9
:10546000006941F6DF710840924908610846006909
:1054700040F010000861A520914908800F20FFF737
:1054800070FF0446012C10D08A48006941F6EF7184
:1054900008408849086108E0012C06D08548006969
:1054A00041F6EF71084083490861204610BD70B590
:1054B00005460E4604240F20FFF753FF0446042C34
:1054C00025D17C48006940F001007A4908612E80AE
:1054D0000F20FFF746FF0446042C0FD1300C6880E4
:1054E0000F20FFF73EFF0446012C10D071480069E1
:1054F00041F6FE7108406F49086108E0012C06D0B2
:105500006C48006941F6FE7108406A49086120460E
:1055100070BD70B505460E4604240F20FFF721FF2D
:105520000446042C13D16348006940F0010061492E
:1055300008612E800F20FFF714FF0446012C06D0CF
:105540005C48006941F6FE7108405A4908612046EE
:1055500070BD70B505460E4604240F20FFF701FF0D
:105560000446042C17D15448524988605348886037
:105570000846006940F0100008612E800F20FFF7F8
:10558000F0FE0446012C06D04A48006941F6EF714E
:10559000084048490861204670BD2DE9F04704469F
:1055A0004FF6FF763746B046B1460425E443E6B2EF
:1055B000C4F30727C4F307484FEA14690F20FFF725
:1055C000D0FE0546042D40D13B483A4988603B480F
:1055D00088600846006940F010000861FF2E06D080
:1055E0003748083006800F20FFF7BBFE0546042D24
:1055F00008D1FF2F06D032480A3007800F20FFF76E
:10560000B0FE0546042D0AD1B8F1FF0F07D02C4893
:105610000C30A0F800800F20FFF7A3FE0546042DF4
:105620000AD1B9F1FF0F07D025480E30A0F800903D
:105630000F20FFF796FE0546012D06D01D48006994
:1056400041F6EF7108401B4908612846BDE8F08724
:1056500070B50546042440F6FF70FFF782FE04464D
:10566000042C4AD1144813498860144888600846BD
:10567000006940F0200008610846006940F04000E1
:10568000086140F6FF70FFF76CFE0446042C2BD136
:105690000848006941F6DF7108400649086108467C
:1056A000006940F01000086165B1002004490880DD
:1056B0000BE000000020024023016745AB89EFCDDD
:1056C00000F8FF1FA5204549088040F6FF70FFF74E
:1056D00048FE0446012C10D04148006941F6EF71A4
:1056E00008403F49086108E0012C06D03C480069A9
:1056F00041F6DF7108403A490861204670BD2DE946
:10570000F04107460D461646042436483449886061
:10571000354888600F20FFF724FE0446042C1AD178
:105720002F48006940F010002D49086147EA050044
:10573000304340F0F8002949891C08800F20FFF70A
:1057400010FE0446012C06D02548006941F6EF7191
:105750000840234908612046BDE8F0812048C0691F
:10576000800870471E48006A704700201C49C969BC
:1057700001F0020109B1012000E000207047002083
:105780001749096801F0200109B1012000E000205B
:10579000704729B1124A12690243114B1A6104E0A1
:1057A0000F4A126982430E4B1A617047014600206E
:1057B000012908D10A4AD26902F001020AB1012086
:1057C00008E0002006E0064AD2680A400AB101203B
:1057D00000E0002070470249C860704700F8FF1FD2
:1057E0000020024023016745AB89EFCD30BF7047F1
:1057F00020BF704740BF7047BFF36F8F7047BFF344
:105800004F8F7047BFF35F8F704701DF7047EFF333
:105810001480704780F31488BFF36F8F7047EFF3E5
:105820000980704780F309887047EFF3088070475C
:1058300080F30888704772B6704762B6704771B6D9
:10584000704761B6704780F311887047EFF312809C
:10585000704740BA704700BA704700000FB41CB5DB
:10586000084B06AA7B4469460090059800F0B3F9FE
:1058700004460020694600F0C1F920461CBC5DF8D2
:1058800014FB00009503000070B5044685690068AC
:10589000C10601D5302600E02026C00707D070BD24
:1058A000D4E9012130469047206A401C20626D1ED9
:1058B000F6D570BD70B5044685690078C00707D17C
:1058C00070BDD4E9012120209047206A401C20624D
:1058D0006D1EF6D570BD00002DE9F041064600248E
:1058E00010687529314616A510D0AFF30080002846
:1058F00002DA404213A507E031688A0701D512A5F4
:1059000002E0490704D511A5012401E0AFF30080AE
:1059100000210A2206F1240709E0B0FBF2FCB0FBEB
:10592000F2F302FB1C00303078541846491C002862
:10593000F3D123462A463046BDE8F04100F0ECB8EA
:10594000000000002D0000002B00000020000000DF
:105950002DE9F05F894604464FF0000ADFF824B1D4
:10596000FB44C0F820A02046E168884700287DD08D
:10597000252806D0D4E901219047206A401C2062E6
:10598000F1E700255F462046E16888472028064663
:1059900007DB312E05D2B81910F8200C08B10543E9
:1059A000F1E7A80701D525F00405C4F81CA00027DD
:1059B000C4F818A02A2E09D0304600F090F938B368
:1059C00004EB8708303EC8F8186019E059F8041B4A
:1059D000204604EB87029161E1688847012F064663
:1059E00018D1E069002820DA25F020051DE0D8F85C
:1059F000180000EB800006EB40003038C8F81800B3
:105A00002046E1688847064600F069F90028EED193
:105A1000012F0AD02E2E08D12046E16888477F1C2E
:105A20000646022F45F02005C4DBA069002803DAF2
:105A3000404245F00105A061E80701D025F01005BE
:105A4000A6B1A6F14100192802D8203645F4006518
:105A50004A463146204625604D46FAF781FB60B143
:105A6000012807D0ED1D25F0070000E007E000F158
:105A7000080978E705F1040975E730467AE7206AF6
:105A8000BDE8F09FEF080000032A40F2308010F0DC
:105A9000030C00F0158011F8013BBCF1020F6244C9
:105AA00098BF11F801CB00F8013B38BF11F8013B5A
:105AB000A2F1040298BF00F801CB38BF00F8013B07
:105AC00011F0030300F09F80083AC0F0088051F8FD
:105AD000043B083A51F804CBA0E80810F5E7121D82
