:020000040800F2
:10000000201C00201103000819030008C302000887
:100010001D0300081F030008210300080000000062
:1000200000000000000000000000000023030008A2
:1000300025030008000000004B020008DD1A00083C
:100040002B0300082B0300082B0300082B030008D8
:100050002B0300082B03000875040008C3040008E4
:10006000D5040008E7040008F90400082B03000881
:100070002B0300082B0300082B0300082B030008A8
:100080002B0300082B0300082B0300082B03000898
:100090002B0300082B0300082B0300080B050008A6
:1000A0002B0300082B0300082B0300082B03000878
:1000B0002B0300082B0300082B0300082B03000868
:1000C0002B0300082B0300082B0300082B03000858
:1000D0002B030008311E00082B0300082B03000827
:1000E000870400082B0300082B0300082B030008DB
:1000F0002B0300082B0300082B0300082B03000828
:100100002B0300082B0300082B0300082B03000817
:100110002B0300082B0300082B0300082B03000807
:100120002B0300082B0300082B0300082B030008F7
:1001300000F002F800F05AF80AA090E8000C82449F
:100140008344AAF10107DA4501D100F04FF8AFF27C
:10015000090EBAE80F0013F0010F18BFFB1A43F0A5
:1001600001031847404F0000604F00000A444FF061
:10017000000C10F8013B13F0070408BF10F8014B06
:100180001D1108BF10F8015B641E05D010F8016B4B
:10019000641E01F8016BF9D113F0080F1EBF10F8AF
:1001A000014BAD1C0C1B09D16D1E58BF01F801CBD2
:1001B000FAD505E014F8016B01F8016B6D1EF9D555
:1001C0009142D6D37047000000230024002500266A
:1001D000103A28BF78C1FBD8520728BF30C148BFAA
:1001E0000B6070471FB51FBD10B510BD00F0EDF8D6
:1001F0001146FFF7F7FF00F022F900F00BF903B406
:10020000FFF7F2FF03BC00F013F90000002804D050
:1002100090FAA0F0B0FA80F0401C7047EFF3108025
:1002200072B6704780F310887047334A1368012B09
:1002300004D04FF001031360304A1060304A11605F
:1002400030484FF0805101607047EFF3108272B672
:100250002948016891B14FF0000101602748016809
:1002600029B1EFF3098121E9F00F00680160244909
:1002700009680968B1E8F00F81F3098882F31088F2
:100280004EF0040E70471E4908601C494FF00000F4
:10029000086019494FF0010008601B484FF47F01C6
:1002A000D0F8002041EA0201016016484FF0805169
:1002B000016016480068006880F3088861B662B67D
:1002C00070471EF0040F0CBFEFF30880EFF30980B6
:1002D00020E9F00F40F804ED1EF0040F0CBF80F38E
:1002E000088880F3098800B502F026FC5DF804EB6D
:1002F0004EF0040E7047000028000020200000206F
:100300002400002004ED00E020ED00E008ED00E016
:100310000948804709480047FEE7FEE7FEE7FEE799
:10032000FEE7FEE7FEE7FEE7FEE7FEE704480549D5
:10033000054A064B70470000711B00083101000898
:1003400020160020201C002020180020201800204B
:10035000B2F120030AD5C2F1200320FA02F001FA1B
:1003600003F321FA02F140EA0300704721FA03F097
:100370004FF0000170474FF0000200B5134694465D
:100380009646203922BFA0E80C50A0E80C50B1F1ED
:100390002001BFF4F7AF090728BFA0E80C5048BF01
:1003A0000CC05DF804EB890028BF40F8042B08BF9F
:1003B000704748BF20F8022B11F0804F18BF00F89B
:1003C000012B7047704770477047754600F02CF856
:1003D000AE4605006946534620F00700854618B032
:1003E00020B5FFF7A3FFBDE820404FF000064FF017
:1003F00000074FF000084FF0000B21F00701AC465A
:10040000ACE8C009ACE8C009ACE8C009ACE8C00978
:100410008D46704710B50446AFF300802046BDE816
:100420001040FFF7ECBE000000487047BC150020EC
:1004300001491820ABBEFEE726000200704710B548
:1004400003F0C1FF002010BD30B590F840500124EA
:10045000AC40C56B6C60046863604468102C04D1C8
:100460000468A2600468E16003E00468A1600468B5
:10047000E26030BD10B502F009FD012000F0F6FA8F
:1004800002F022FD10BD10B502F000FD4FF48060B7
:1004900000F0ECFA4FF4006000F0E8FA4FF48050FE
:1004A00000F0E4FA4FF4005000F0E0FA4FF480401E
:1004B00000F0DCFA4FF4004000F0D8FA02F004FD3E
:1004C00010BD10B502F0E2FC022000F0CFFA02F0FD
:1004D000FBFC10BD10B502F0D9FC042000F0C6FAF8
:1004E00002F0F2FC10BD10B502F0D0FC082000F0C4
:1004F000BDFA02F0E9FC10BD10B502F0C7FC1020F7
:1005000000F0B4FA02F0E0FC10BD10B502F0BEFC41
:10051000202000F0ABFA402000F0A8FA802000F084
:10052000A5FA4FF4807000F0A1FA4FF4007000F0CB
:100530009DFA02F0C9FC10BD0021074AD1610749AC
:10054000096941F00401054A11611146096941F048
:100550004001116170470000581500200020024042
:100560000021074AD1610749096941F00201054AA2
:10057000116111464861096941F0400111617047FC
:1005800058150020002002400022054BDA61054A80
:10059000126942F00102034B1A61018070470000AA
:1005A000581500200020024000201E49C96801F0B3
:1005B000100139B11C49C96941F002011A4AD161DF
:1005C00040F010001749C96801F0040139B116491B
:1005D000C96941F00101144AD16140F00400114998
:1005E000C96901F0010169B10F49C96941F004010C
:1005F0000D4AD16100BF0B49C96921F00101094AC7
:10060000D16100BF00BF40F20111884206D1054907
:10061000C96921F00101034AD16101E00149C860C3
:1006200000BF7047002002405815002070B50446F6
:1006300000F0D8FB054609E0601C38B124B100F099
:10064000D1FB401BA04201D9032070BD1248C068F5
:1006500000F001000028EFD10F48C06800F0200032
:1006600020B100BF20200C49C86000BF0A48C06804
:1006700000F0100048B90848C06900F0010020B936
:100680000548C06800F0040018B1FFF78DFF012095
:10069000DBE70020D9E70000002002402DE9F0410F
:1006A00004460D4616461F464FF0000800BF94F85A
:1006B0002000012802D10220BDE8F081012084F849
:1006C000200000BF94F8210001282CD1022084F8DA
:1006D00021000020A0632068006820F0010021684C
:1006E00008603B46324629462046FFF7ADFEE06AE9
:1006F00030B12068006840F00E00216808600BE00F
:100700002068006820F00400216808602068006804
:1007100040F00A00216808602068006840F001008D
:100720002168086006E000BF002084F8200000BFB8
:100730004FF002084046BFE72DE9F04104460E465F
:100740000127002500BF2648007E012802D1022093
:10075000BDE8F08101202249087600BF2068022808
:1007600013D14CF25030FFF761FF90BB0120FFF72F
:10077000E3FE4CF25030FFF759FF07461948006975
:1007800020F004001749086123E04CF25030FFF7D5
:100790004DFFF0B94FF0FF303060A56812E02846F9
:1007A000FFF7DEFE4CF25030FFF740FF07460D48E2
:1007B000006920F002000B4908610FB1356007E0C5
:1007C00005F50065D4E9021001EBC020A842E6D887
:1007D00000BF00BF00200249087600BF3846B7E7D7
:1007E00058150020002002400348006940F08000B6
:1007F0000149086100207047002002402DE9FE4FAA
:1008000005468B4617469846012600240020029094
:1008100000BF2448007E012802D10220BDE8FE8FDF
:1008200001202049087600BF4CF25030FFF7FEFE51
:10083000064686BB012D02D10120029006E0022D62
:1008400002D10220029001E00420029000241EE068
:100850002201B946C24648465146FFF779FD80B2AB
:100860000190022000FB04B000900199FFF78CFE7C
:100870004CF25030FFF7DAFE06460B48006920F0D4
:1008800001000949086106B104E0601CC4B2029885
:100890008442DDDB00BF00BF00200249087600BFB4
:1008A0003046BBE7581500200020024000200849D0
:1008B000096901F0800151B10649054A51600649B4
:1008C00051601146096901F0800101B101207047B2
:1008D0000020024023016745AB89EFCD2DE9F041AF
:1008E00002460B4600208BE00127874007EA030100
:1008F00000297DD0464F4FEA900C57F82C408707CF
:100900004FEA177C0F2707FA0CF73C40414FBA42D9
:1009100001D1002719E0404FBA4201D1012714E06C
:100920003E4FBA4201D102270FE03D4FBA4201D1FA
:1009300003270AE03B4FBA4201D1042705E03A4FB2
:10094000BA4201D1052700E006274FEA807C4FEA32
:100950001C7C07FA0CF7A74230D187074FEA177CB7
:100960000F2707FA0CF42A4F4FEA900C57F82C7017
:10097000A743DFF89CC04FEA90084CF828702B4F33
:100980003F688F43DFF8A4C0CCF800700CF1040777
:100990003F688F430CF1040CCCF800700CF1040795
:1009A0003F688F430CF1040CCCF800700CF1040785
:1009B0003F688F430CF1040CCCF80070FF2901D87C
:1009C000174600E0171D3D46FF2901D8870002E0C9
:1009D000A0F10807BF003E462F684FF00F0C0CFA3D
:1009E00006FC27EA0C074FF0040C0CFA06FC00E0AA
:1009F00005E047EA0C072F60D7688F43D760401C9B
:100A000023FA00F7002F7FF46FAFBDE8F0810000FC
:100A10000800014000080140000C014000100140A6
:100A20000014014000180140001C01400004014076
:100A300070B50546284601F041FB044604EB44002E
:100A4000094901EB8000406858B104EB44020B46B1
:100A500003EB8202906804EB440203EB82025168CC
:100A6000884700BF70BD0000D800002010B50446C4
:100A700004480068204020B1024804602046FFF787
:100A8000D7FF10BD140401402DE9F84702460023AA
:100A90009C467BE14FF0010808FA03F4D1F800808E
:100AA00008EA0400A0427DD1DFF8F4A2D1F8048066
:100AB000A8EB0A09D0453AD014DCB8F1030F50D0A6
:100AC00009DCB8F1000F31D0B8F1010F1CD0B8F13A
:100AD000020F49D120E0B8F1110F18D0B8F1120F70
:100AE00042D11EE0B9F5881F25D006DCB9F5803F5C
:100AF00020D0B9F5801F37D11AE0B9F5001F18D002
:100B0000B9F5041F30D117E0D1F80CC02DE0D1F8B1
:100B10000C8008F1040C28E0D1F80C8008F1080CD6
:100B200023E0D1F80C8008F10C0C1EE000BF00BFE0
:100B300000BF00BF00BF00BFD1F80880B8F1000FB0
:100B400002D14FF0040C0BE0D1F80880B8F1010F8E
:100B500003D14FF0080C146102E04FF0080C54610F
:100B600003E04FF0000C00E000BF00BFFF2801D8F9
:100B7000904601E002F104084646FF2802D84FEAF9
:100B8000830803E0A3F108084FEA88084746D6F82F
:100B900000804FF00F0909FA07F928EA09080CFA52
:100BA00007F900E07AE048EA0908C6F80080D1F8C1
:100BB000048008F08058B8F1805F6FD100BFDFF883
:100BC000E481D8F8188048F00108DFF8D891C9F816
:100BD0001880C846D8F8188008F00108CDF80080C1
:100BE00000BF00BF4FEAB9384FEA930958F82950BF
:100BF0004FEA83784FEA18794FF00F0808FA09F89E
:100C000025EA0805DFF8A081424502D14FF000082F
:100C100024E0DFF89881424502D14FF001081DE041
:100C2000DFF88C81424502D14FF0020816E0DFF870
:100C30008481424502D14FF003080FE0DFF878814C
:100C4000424502D14FF0040808E0DFF870814245C8
:100C500002D14FF0050801E04FF006084FEA837912
:100C60004FEA197908FA09F848EA0505DFF85081D2
:100C70004FEA930948F82950D1F8048008F48038E5
:100C8000B8F5803F0BD1DFF83C81D8F8008048EA06
:100C90000008DFF83091C9F800800AE075E0DFF85D
:100CA0002481D8F8008028EA0008DFF81891C9F8F4
:100CB0000080D1F8048008F40038B8F5003F0ED168
:100CC000DFF8008108F10408D8F8008048EA00083D
:100CD000DFF8F09009F10409C9F800800DE0DFF8B1
:100CE000E48008F10408D8F8008028EA0008DFF85A
:100CF000D49009F10409C9F80080D1F8048008F4FF
:100D00008018B8F5801F0ED1DFF8B88008F1080808
:100D1000D8F8008048EA0008DFF8A89009F108092F
:100D2000C9F800800DE0DFF89C8008F10808D8F8C9
:100D3000008028EA0008DFF88C9009F10809C9F85A
:100D40000080D1F8048008F40018B8F5001F0ED117
:100D5000DFF8708008F10C08D8F8008048EA000835
:100D6000DFF8609009F10C09C9F800800DE0DFF8A8
:100D7000548008F10C08D8F8008028EA0008DFF851
:100D8000449009F10C09C9F800805B1CD1F800807F
:100D900028FA03F8B8F1000F7FF47CAEBDE8F887BD
:100DA000000011100010024000080140000C01403A
:100DB000001001400014014000180140001C0140D7
:100DC0000800014000040140024693680B400BB14B
:100DD000012000E0002070470AB1016101E00B042E
:100DE0000361704710B503F009F84FF47A71484376
:100DF000B0FBF1F010BD000003480068034909781A
:100E00000844014908607047B0010020B801002083
:100E100010B50848006840F010000649086003203B
:100E200000F0A8F8002000F007F800F009F8002012
:100E300010BD000000200240014600207047000065
:100E400008B500BF1148806940F001000F49886172
:100E50000846806900F00100009000BF00BF00BF9D
:100E60000846C06940F08050C8610846C06900F07B
:100E70008050009000BF00BF00BF0549486820F0C7
:100E8000E06040F00070486000BF08BD0010024004
:100E90000000014010B501460846002817DB00F0AD
:100EA0001F0301229A400B4B440943F8242000BF42
:100EB00000BF00BFBFF34F8F00BF00BF00BF00BF28
:100EC00000BF00BFBFF36F8F00BF00BF00BF00BFF8
:100ED00010BD000080E100E001460846002809DB63
:100EE00000F01F0301229A4043099B0003F1E02315
:100EF000C3F8002100BF70472DE9F05F80460D4622
:100F00001646002700F0A2FF074639462A46334618
:100F100001F00700C0F1070ABAF1040F02D94FF03F
:100F2000040A01E0C0F1070AD14600F1040ABAF14F
:100F3000070F02D24FF0000A01E0A0F1030AD446E5
:100F40004FF0010A0AFA09FAAAF1010A0AEA020AAA
:100F50000AFA0CFA4FF0010B0BFA0CFBABF1010B88
:100F60000BEA030B4AEA0B042146404600F076FFE9
:100F7000BDE8F09F00BF00F00702064B19684FF66E
:100F8000FF031940044B0B4343EA0221014B196054
:100F900000BF70470CED00E00000FA0570B5044694
:100FA0000D460CB9012070BD5A48006800F00700DA
:100FB000A8420ED25748006820F007002843554940
:100FC00008600846006800F00700A84201D0012030
:100FD000E9E7207800F0020002281DD1207800F017
:100FE0000400042805D14C48406840F4E0604A49B8
:100FF0004860207800F00800082805D1464840687D
:1010000040F46050444948604348406820F0F00094
:10101000A168084340494860207800F0010078B397
:101020006068012806D13C48006800F4003090B99F
:101030000120B8E76068022806D13748006800F050
:10104000007040B90120AEE73348006800F00200AC
:1010500008B90120A7E73048406820F00300616824
:1010600008432D494860FFF7BDFE064609E0FFF73B
:10107000B9FE801B41F28831884202D9032092E7F1
:1010800007E02548406800F00C006168B0EB810F74
:10109000EDD12048006800F00700A8420ED91D4895
:1010A000006820F0070028431A49086008460068D5
:1010B00000F00700A84201D0012074E7207800F07A
:1010C0000400042807D11448406820F4E060E16877
:1010D000084311494860207800F00800082808D12A
:1010E0000D48406820F46050216940EAC1000A4977
:1010F000486000F03FF808494968C1F30311074A06
:10110000515CC8400649086006480068FFF794FE35
:10111000002048E700200240001002409E4A0008DC
:101120001C000020B4010020014800687047000046
:101130001C00002000B5FFF7F7FF04494968C1F320
:101140000221034A515CC84000BD0000001002406B
:10115000AE4A000800B5FFF7E7FF04494968C1F34C
:10116000C221034A515CC84000BD0000001002408B
:10117000AE4A0008F0B585B00FF26C0C9CE8E010A8
:1011800001A8A0E8E0101CA52D6800950021002210
:10119000002300240020194D696801F00C05F5B109
:1011A000042D02D0082D19D101E0154819E001AD38
:1011B000C1F38346AC5D01F4803555B10F4D6D68C8
:1011C000C5F340451DF805200D4D6543B5FBF2F311
:1011D00002E00C4D04FB05F3184602E000BF08488E
:1011E00000BF00BF05B0F0BD0203040506070809F3
:1011F0000A0B0C0D0E0F101001020000001002402F
:1012000000127A0000093D00F8B504460CB901202F
:10121000F8BD207800F00100002878D0F848406838
:1012200000F00C0004280CD0F548406800F00C00D9
:10123000082811D1F248406800F48030B0F5803FB2
:101240000AD1EF48006800F4003000285FD06068E1
:1012500000285CD10120DBE700BF6068B0F5803F6B
:1012600006D1E748006840F48030E549086028E08E
:10127000606858B9E248006820F48030E0490860AE
:101280000846006820F4802008601AE06068B0F525
:10129000A02F0BD1DA48006840F48020D8490860BC
:1012A0000846006840F4803008600AE0D4480068CE
:1012B00020F48030D24908600846006820F480207D
:1012C000086000BF606888B1FFF78CFD054606E046
:1012D000FFF788FD401B642801D9032098E7C84820
:1012E000006800F400300028F2D010E0FFF77AFD2B
:1012F000054606E0FFF776FD401B642801D9032070
:1013000086E7BF48006800F400300028F2D120785A
:1013100000F00200022857D1B948406800F00C00E4
:1013200050B1B748406800F00C00082818D1B44804
:10133000406800F4803098B9B148006800F00200BD
:1013400020B12069012801D0012061E7AC48006884
:1013500020F0F800616940EAC100A949086033E063
:101360002069E8B10120A7490860FFF73BFD054669
:1013700006E0FFF737FD401B022801D9032047E7AD
:101380009F48006800F002000028F2D09C480068E6
:1013900020F0F800616940EAC1009949086013E053
:1013A000002098490860FFF71DFD054606E0FFF79D
:1013B00019FD401B022801D9032029E79048006845
:1013C00000F002000028F2D1207800F00800082880
:1013D0002DD1A069B8B101208B490860FFF702FD4B
:1013E000054606E0FFF7FEFC401B022801D903205A
:1013F0000EE78348406A00F002000028F2D0012086
:1014000000F058FB13E000207F490860FFF7EAFC7A
:10141000054606E0FFF7E6FC401B022801D9032041
:10142000F6E67748406A00F002000028F2D1207802
:1014300000F00400042873D100277148C06900F04F
:10144000805070B900BF6E48C06940F080506C4950
:10145000C8610846C06900F08050009000BF00BF1E
:1014600001276A48006800F48070B0B967480068D6
:1014700040F4807065490860FFF7B4FC054606E05B
:10148000FFF7B0FC401B642801D90320C0E65F4889
:10149000006800F480700028F2D000BFE0680128E6
:1014A00006D15748006A40F001005549086227E01C
:1014B000E06858B95248006A20F0010050490862BB
:1014C0000846006A20F00400086219E0E068052878
:1014D0000BD14B48006A40F00400494908620846B5
:1014E000006A40F0010008620AE04548006A20F006
:1014F0000100434908620846006A20F004000862BF
:1015000000BFE068A0B1FFF76DFC054609E0FFF7FA
:1015100069FC401B41F28831884202D9032077E6FA
:1015200022E03748006A00F002000028EFD012E005
:10153000FFF758FC054608E0FFF754FC401B41F25A
:101540008831884201D9032062E62D48006A00F004
:1015500002000028F0D1012F05D12948C06920F0F0
:1015600080502749C86100BFE069C8B3244840687B
:1015700000F00C00082860D0E069022848D1002063
:1015800020490866FFF72EFC054606E0FFF72AFC17
:10159000401B022801D903203AE61948006800F0F0
:1015A00000700028F2D1206AB0F5803F07D11448BE
:1015B000406820F40030A168084311494860D4E92C
:1015C000080108430E49496821F4741108430C4985
:1015D000486001200B490866FFF704FC054607E058
:1015E0003DE0FFF7FFFB401B022801D903200FE677
:1015F0000348006800F000700028F2D02FE00000DF
:10160000001002400000424280044242007000404C
:10161000002014490866FFF7E5FB054606E0FFF7E2
:10162000E1FB401B022801D90320F1E50E480068C8
:1016300000F000700028F2D111E0E069012800D12B
:10164000E6E50948466806F48031206A814204D103
:1016500006F47011606A814201D00120D8E50020B3
:10166000D6E500000000424200100240042808D1E4
:101670004FF0E021096941F004014FF0E0221161CF
:1016800007E04FF0E021096921F004014FF0E0226A
:101690001161704770B504462546681EB0F1807F21
:1016A00001D301200FE0681E4FF0E02148610F21B7
:1016B0004FF0FF3000F0D2FB00204FF0E0218861B6
:1016C00007200861002070BD704710B504460CB9B2
:1016D000012010BDA06900B100E000BF94F83900FE
:1016E00028B9002084F83800204600F027F824208C
:1016F00084F839002068C06820F400502168C86070
:10170000204600F0C5FA2068006920F49040216866
:1017100008612068406920F02A002168486120683B
:10172000C06840F400502168C8600020E0632020B9
:1017300084F8390084F83A000020CAE710B586B072
:101740000446002002900390049005901A492068F6
:1017500088422ED100BF1948806940F48040174963
:1017600088610846806900F48040019000BF00BF96
:1017700000BF0846806940F004008861084680691F
:1017800000F00400019000BF00BF48150290022045
:1017900003900320059002A90948FFF775F94FF45B
:1017A0008060029000200390049002A90448FFF793
:1017B0006BF906B010BD0000003801400010024077
:1017C00000080140F7B50446154694F83900202872
:1017D0003DD1019800B10DB90120FEBD00BF94F8C4
:1017E0003800012801D10220F7E7012084F83800F1
:1017F00000BF01982062A584E5840020E0632120D9
:1018000084F839001348216B88621348216BC86241
:101810001248216B08630020216B486301AE2368E6
:101820001A1D31682B46206BFEF738FF6FF0400021
:101830002168086000BF002084F8380000BF2068DD
:10184000406940F08000216848610020C5E702201F
:10185000C3E70000191C00084F1C0008C91B000842
:101860007047704710B588480078E0B902F0C6FAB2
:1018700086490968401A40F26C71884204D302F02C
:10188000BDFA82490860FEE002F0B8FA7F490968B3
:10189000401A642803D3012000F0FAF8F3E0002096
:1018A00000F0F6F8EFE07848007801281BD102F04C
:1018B000A5FA76490968401AB0F5617F04D302F0B1
:1018C0009DFA72490860DEE002F098FA6F490968F3
:1018D000401A642803D3012000F0DAF8D3E0002096
:1018E00000F0D6F8CFE068480078032832D102F043
:1018F00085FA66490968401AB0F57A7F04D302F088
:101900007DFA62490860BEE002F078FA5F49096832
:10191000401AB0F5967F03D3012000F0B9F8B2E089
:1019200002F06CFA59490968401AC82803D300200C
:1019300000F0AEF8A7E002F061FA54490968401AD5
:10194000642803D3012000F0A3F89CE0002000F0FD
:101950009FF898E04C48007804284AD102F04EFAEB
:101960004A490968401AB0F5FA6F04D302F046FA02
:101970004649086087E002F041FA44490968401A84
:10198000B0F5FA7F03D3012000F082F87BE002F08B
:1019900035FA3E490968401AB0F5C87F03D30020E4
:1019A00000F076F86FE002F029FA38490968401A29
:1019B000B0F5967F03D3012000F06AF863E002F0EF
:1019C0001DFA32490968401AC82803D3002000F0E4
:1019D0005FF858E002F012FA2C490968401A6428AE
:1019E00003D3012000F054F84DE0002000F050F83F
:1019F00049E02548007802281AD102F0FFF923496E
:101A00000968401AC82804D302F0F8F91F49086091
:101A100039E002F0F3F91D490968401A642803D33C
:101A2000012000F035F82EE0002000F031F82AE027
:101A30001548007805281BD102F0E0F91349096820
:101A4000401AB0F5617F04D302F0D8F90F4908605D
:101A500019E002F0D3F90D490968401A642803D34C
:101A6000002000F015F80EE0012000F011F80AE067
:101A700005480078062803D1002000F009F802E0AC
:101A8000012000F005F810BD010000200400002036
:101A900010B504462CB9002204210548FFF79CF933
:101AA00004E0012204210248FFF796F910BD00006E
:101AB0000010014008B508490968C9084FF47A7256
:101AC000B1FBF2F14143009100BF00BF00994A1EF3
:101AD00000920029F9D108BD1C00002010B501F0CA
:101AE000D5F9FFF789F902F08FF901F0EDF910BD92
:101AF00000B58FB0282105A8FEF73DFC14216846EB
:101B0000FEF739FC012005900004069000200790A4
:101B10000120099002200C90C1030D914FF4E011B7
:101B20000E9105A8FFF770FB18B11D210CA000F065
:101B30008BF90F20009002200190002002904FF4BA
:101B4000806003900020049002216846FFF726FA87
:101B500018B12A2102A000F077F90FB000BD0000F3
:101B6000626F6172645C626F6172642E6300000078
:101B70001148006840F001000F49086008464068BD
:101B80000E4908400C494860084600680C49084066
:101B9000094908600846006820F48020086008466B
:101BA000406820F4FE0048604FF41F008860C803BE
:101BB0000449086070470000001002400000FFF870
:101BC000FFFFF6FE08ED00E070B506460025746ADA
:101BD00020684069C0F3C01594F83900212805D168
:101BE00025B10020E084204600F048F820684069D4
:101BF000C0F3801594F83A00222805D125B10020C1
:101C0000E085204600F02AF8E06B40F01000E06329
:101C10002046FFF759FD70BD70B505466C6A28680F
:101C2000006800F0200070B90020E084206840695E
:101C300020F08000216848612068C06840F04000C2
:101C40002168C86002E02046FFF70AFE70BD70B54B
:101C50000446656A2846FFF704FE70BD0168C9683E
:101C600021F490710268D1600168496921F0010195
:101C700002685161202180F83A1070470168C968F4
:101C800021F0C0010268D160202180F8391070472E
:101C900070B504462168096921F44051E268114396
:101CA000226811612269A1681143626941EA020553
:101CB0002168C96841F20C62914329432268D160CE
:101CC0002168496921F44071A26911432268516178
:101CD000564A2168914254D1FFF73CFA00EBC0010B
:101CE00001EB001162689200B1FBF2F100EBC0025F
:101CF00002EB001263689B00B2FBF3F26423B2FBB9
:101D0000F3F202EBC20303EB0212A1EB82013222D7
:101D100002EB01116422B1FBF2F101F0F00100EBE2
:101D2000C00202EB001263689B00B2FBF3F2642373
:101D3000B2FBF3F201EB021200EBC00101EB001168
:101D400063689B00B1FBF3F100EBC00303EB0013EE
:101D50006668B600B3FBF6F36426B3FBF6F303EB59
:101D6000C30606EB0313A1EB8301322303EB01113E
:101D70006423B1FBF3F101F00F011144226891607B
:101D800053E0FFF7D7F900EBC00101EB00116268E7
:101D90009200B1FBF2F100EBC00202EB00126368AB
:101DA0009B00B2FBF3F26423B2FBF3F202EBC2033B
:101DB00003EB0212A1EB8201322202EB0111642239
:101DC000B1FBF2F101F0F00100EBC00202EB0012F6
:101DD00063689B00B2FBF3F26423B2FBF3F201EB06
:101DE000021200EBC00101EB001163689B00B1FB24
:101DF000F3F100EBC00303EB00136668B600B3FB1E
:101E0000F6F36426B3FBF6F303EBC30606EB03130A
:101E1000A1EB8301322303EB01116423B1FBF3F146
:101E200001F00F0111442268916070BD003801403B
:101E300010B501F02BF8034802F0B0FD01F044F8B2
:101E400010BD00000415002000BFFEE70248006836
:101E5000C0F30220704700000CED00E010B5002830
:101E600004DB0A07130E054A135406E00A07140E92
:101E7000034A00F00F031B1FD45410BD00E400E020
:101E800018ED00E070B5044606480068FEF7BEF99C
:101E9000451E054850F83500A0F11406256030466F
:101EA00070BD0000B4000020BC1300200349086886
:101EB000884201D0012070470020FCE7C4000020C8
:101EC0002DE9F041064688461446374625461DB999
:101ED0004FF0FF30BDE8F0816A882988386C0368CC
:101EE000304698470020F5E72DE9F0470746894638
:101EF00014461D46B84626460EB1042D02D00020D9
:101F0000BDE8F0873188D8F84000826838469047AD
:101F100070802846F4E72DE9F047074689461446C5
:101F20001D46B84626460EB1042D02D00020BDE85D
:101F3000F08772883188D8F840004368384698475F
:101F40002846F4E72DE9FC5F04468B4615461E46FD
:101F5000DDE90C9ADDE90E7804F1140040600060C0
:101F600000BF1C346560A660C4F80C90C4F810A0D3
:101F70002321D4E9030201F0F9F8D4E9033C6344D6
:101F80001A1F0F4BD4E9010100F0E8FE2060A7768C
:101F900067760020E061C4F82880C4F82C80606176
:101FA0002076E06520661C3C00902346054A2146C9
:101FB000019004F14C0001F0AFFF0020BDE8FC9F50
:101FC0000D3B0008993D00082DE9F04704460E46F8
:101FD00017469846DDF8209084F80990607A20F042
:101FE00001006072E66127620020A062C4F82480CC
:101FF000002506E004F1140101EBC50000F0BFFF6D
:102000006D1C012DF6DBBDE8F08710B502460020FF
:1020100001460EE002F1140303EBC100D0E90043D6
:102020006360D0E9003423604060006000BF481C5A
:1020300001460129EEDB10BD0348006810B90120FC
:102040000149086070470000BC0100202DE9F047FD
:1020500006460F461546A946F46C28E0FEF7DEF862
:102060008246E088A188884205D1A06818B9504608
:10207000FEF7D8F81DE0E188206810F80180E088BC
:10208000401CE080E188B06CC0F38F20814201DB0E
:102090000020E080A068012801D10020A060504607
:1020A000FEF7C0F887F800807F1C6D1E00BF002D72
:1020B000D4D100BFA9EB0500BDE8F087024600219E
:1020C00006E001208840904201D108467047491C33
:1020D0002029F6DB4FF0FF30F8E7000058B5044642
:1020E0000E460020009004E008480068401C0749A4
:1020F000086001236A46991E204600F053FC01281F
:10210000F2D0012001F0C0FD284658BD100000208B
:102110000146702909D201EB4102054B03EB820015
:102120000268521C12B9002000E000207047000035
:10213000D84A000800B585B00020019002900390B5
:10214000049000BF0F48806940F010000D4988617D
:102150000846806900F01000009000BF00BF042016
:10216000019001200290002003900220049001A918
:102170000548FEF789FC002204210348FEF72CFEE7
:1021800005B000BD001002400010014010B5002451
:1021900010488468FEF742F8206880F3098800BF81
:1021A000002080F3148800BF20680B490840B0F17C
:1021B000005F0DD160680949086008460068084959
:1021C0000860206880F3088800BF084600688047E0
:1021D00010BD0000C00900200000FE2F0C000020F0
:1021E00008000020002526A000F056FB044644B15C
:1021F0004FF48071204600F078FB2349204600F020
:102200000AFC3BE00520214908704FF47A6001F098
:102210003BFD1F4988692A221E4900F059F91D48D3
:10222000407D012828D102201849087000F052F89A
:10223000054675B9002015490870022015494875F2
:10224000134988692A22134900F016F9FFF79EFF07
:102250000BE007200D49087055200E4948750C49C0
:1022600088692A220B4900F007F9094988692A225E
:10227000084900F001F901E0FFF788FFC2E700001C
:102280007561727431000000DD200008010000203B
:10229000C0090020E00900204FF0006009490860F3
:1022A00000134860084888604FF4C830C860074889
:1022B00008614FF4C8304861054888614FF4C04058
:1022C000C8617047C00900200080000800100208A3
:1022D00000A0030870B586B000200590FEF7E6FA6E
:1022E000002001901948806803901948D0F809002F
:1022F000C00A04901648B0F80900C0F30A0010B1F3
:102300000498401C049005A901A8FEF715FA0F488F
:1023100006698568002410E04FF400620D493046DC
:1023200000F0D6F84FF400620A49284600F0DEF8C3
:1023300006F5006605F50065641C0498A042EBD81C
:10234000FEF752FA002006B070BD0000C009002060
:10235000E0090020C00100201CB5FFF79DFFFFF73A
:10236000E9FE0A2006214FF480730022CDE9001017
:10237000104911A001F0A1FB11490860084600684E
:1023800018B10846006801F0CDFC0A2005214FF481
:1023900000730022CDE900100A490BA001F08DFB6B
:1023A000074908600846006818B10846006801F04F
:1023B000B9FC1CBDD123000874685F6C6564000023
:1023C00018000020E521000874685F696170000052
:1023D00004E0FFF747FA0A2001F056FCF9E7FFF79F
:1023E000BBFF03E04FF4FA7001F04EFCFAE710B5C2
:1023F000044600F043FAFFF7F2FF10BD70B5024645
:102400000020002300240025A2F10066F30AC2F395
:102410000A0505B15B1C5618A6F10066F40A5618A9
:10242000C6F30A0505B1641CE61A761CB0B270BD8D
:1024300070B586B004460E4600200590B4F1006FDA
:1024400002D30C48844202D3012006B070BD0020A4
:102450000190039431462046FFF7D0FF05460495CE
:10246000FEF724FA05A901A8FEF766F9FEF7BCF904
:102470000598EAE7000004082DE9F047044689467C
:102480001546B4F1006F02D31048844202D30120F4
:10249000BDE8F08729462046FFF7CAFFFEF706FA97
:1024A000A0464F4600260BE0D7F800C06246002346
:1024B00041460220FEF7A2F908F104083F1D361D2F
:1024C000AE42F1D3FEF790F90020E1E700000408E6
:1024D00030B503461C46002004E025780D54641CEA
:1024E000451CA8B29042F8DB30BD00002DE9F04752
:1024F000044688469146B4F1006F02D30E488442E8
:1025000002D30120BDE8F087FEF7D0F92746464602
:1025100000250AE0D6F800C06246002339460220B2
:10252000FEF76CF93F1D361D2D1D4D45F2D3FEF70C
:102530005BF90020E6E700000000040830B51A4C03
:10254000436824681919884215D04B889BB9174BEA
:102550001B6899420FD0164B1B688B4201D1144B5C
:1025600018604B684360104B1B68C31A0E4D4C68D3
:102570002D682C44A3600C4C836824681A1982428D
:1025800011D053887BB90A4B1B68834201D1084B99
:102590001A6043685360044B1B68D31A024D4468A9
:1025A0002D682C44A36030BD3C000020400000207A
:1025B000440000202DE9F04F86B00D469C46DDE931
:1025C000106401960F9B04F04008B8F1000F02D090
:1025D000DFF8708101E0DFF87081CDF8008004F051
:1025E0001008B8F1000F01D024F0010404F0010834
:1025F000B8F1000F02D04FF0300801E04FF0200892
:10260000C246002704F00208B8F1000F11D0002ADA
:1026100002DA2D2752420CE004F00408B8F1000F52
:1026200001D02B2705E004F00808B8F1000F00D016
:102630002027002142B94FF0300B8846491C0DF18C
:10264000080909F808B01DE01AE0E146B9F10A0FDF
:1026500008D14FF00A0BB2FBFBFE0BFB1E28B2FBAE
:10266000FBF202E002F00F08120900BFDDF8009053
:1026700019F808B08846491C0DF1080909F808B096
:10268000002AE2D1B14200DD0E469B1B04F0110886
:10269000B8F1000F10D117B1002B00DD5B1E06E072
:1026A000A84203D24FF0200880F80080401CB3F10C
:1026B0000008A3F10103F3DC27B1A84200D20770A0
:1026C0005B1E401C04F01008B8F1000F0AD104E0B2
:1026D000A84201D280F800A0401CB3F10008A3F189
:1026E0000103F5DC06E0A84203D24FF0300880F881
:1026F0000080401CB046761E8845F4DC08E0A84205
:1027000005D20DF1080818F8018080F80080401CFF
:10271000B1F10008A1F1010104DDDDF80480B8F198
:10272000000FECD106E0A84203D24FF0200880F859
:102730000080401CB3F10008A3F10103F3DC06B0F4
:10274000BDE8F08FC74A0008B64A00081CB514203F
:102750000A214FF400630022CDE90010044905A0CE
:1027600001F0ABF90446204601F0DCFA1CBD000084
:10277000EF2300086D61696E0000000070B504462B
:102780002068012800D170BDFDF748FD05460120F5
:102790002060201D0168814201D1012100E000215B
:1027A00059B96068A0F11406304601F077FA28465E
:1027B000FDF738FD00F092FD02E02846FDF732FDFE
:1027C00000BFE0E770B50446FDF728FD0546002090
:1027D0002060201D4060006000BF2846FDF722FDFC
:1027E00070BD2DE9F3410546002601F075FA044657
:1027F000FDF714FD07462868012828D0019808B97C
:10280000B61E27E000202063204601F0A1FA281D13
:1028100004F114014268116042684A604160086036
:1028200000BF0198002809DD01AA002104F14C0035
:1028300001F046FB04F14C0001F086FB3846FDF741
:10284000F1FC00F04BFD266BFDF7E8FC074600208D
:10285000286000BF3846FDF7E5FC3046BDE8FC8146
:1028600010B5044C02E020688047241D02488442D1
:10287000F9D310BD985000089C50000810B5044CC6
:1028800002E020688047241D02488442F9D310BD2D
:102890009C500008A05000082DE9F041064601F0C8
:1028A0001BFA08B100F0BCF8092000F0CFFC054687
:1028B0006C6810E0A4F10C0708223146384601F09C
:1028C00034F838B901F008FA08B100F0B9F8384620
:1028D000BDE8F0812468281D8442EBD101F0FCF9A9
:1028E00008B100F0ADF80020F2E770B504460E46DE
:1028F0000025A07D00F0100060B9606A30B120466C
:10290000616A884705460DB1284670BDE08A40F0EF
:102910001000E082A07D00F0080030B1207E00F0C1
:10292000080010B16FF00600EFE7A06A28B1314649
:102930002046A26A9047054603E040F60F703040FB
:1029400020830DB1A81D30B9208B40F008002083F2
:10295000A07E401CA0762846D7E7000070B504464C
:102960000E46154612200B4908750020C861086202
:1029700048628862C8620848086308484863084893
:10298000886308460664C5630322214600F029F8DF
:10299000002070BD78150020E91E0008171F0008F0
:1029A000C11E00082DE9F04104460D4616461F469B
:1029B000A07E30B94FF0FF3000F088FF0020BDE866
:1029C000F081206B38B13B46324629462046D4F888
:1029D00030C0E047F3E76FF0050000F077FF00201C
:1029E000EDE770B504460D46164614B94FF0FF30BA
:1029F00070BD2846FFF750FF10B14FF0FF30F7E7EA
:102A00002A460921204600F035FCE6820020A07607
:102A1000208300BFECE70246D16100207047000030
:102A200010B5FDF7FBFB044604480088401C00B2CB
:102A3000024908802046FDF7F5FB10BDB8000020D4
:102A400010B5FDF7EBFB04460C480088401E00B2B1
:102A50000A4908800846B0F9000000280ADC002076
:102A600008802046FDF7DEFB0548006828B100F02D
:102A700035FC02E02046FDF7D5FB10BDB800002074
:102A8000BC00002070B5054605B970BD1648006849
:102A9000854203D315480068854200D3F5E7A5F1C8
:102AA0000C044FF0FF31124800F038FD0020608028
:102AB0004FF4F55020800F480068844201D20D4841
:102AC0000460094960680968611A401A0A4909687E
:102AD000081A094908602046FFF730FD044800F055
:102AE00000FD00BFD1E700003C00002040000020B6
:102AF0009C130020440000204C00002010B5FEF77D
:102B000087F9002080F3108800BFFEF7F1FF012055
:102B100080F3108800BF00F047F90549054800F030
:102B200033FF00F01BF800F053F9FFF799FE10BDDA
:102B300000C00020201C002070B50446261D064859
:102B4000006838B12046044909688847054605B938
:102B500070BD00BF00BFFEE72C00002008B500BF1D
:102B60003048806940F004002E4988610846806939
:102B700000F00400009000BF00BF00BF084680695D
:102B800040F0080088610846806900F00800009065
:102B900000BF00BF00BF0846806940F01000886198
:102BA0000846806900F01000009000BF00BF00BF21
:102BB0000846806940F0200088610846806900F07E
:102BC0002000009000BF00BF00BF0846806940F0B1
:102BD000400088610846806900F04000009000BF16
:102BE00000BF00BF0846806940F080008861084649
:102BF000806900F08000009000BF00BF00BF084661
:102C0000806940F4807088610846806900F48070B3
:102C1000009000BF00BF0022034904A0FFF79EFE02
:102C200008BD0000001002405850000870696E0096
:102C30002DE9F04705460E46F0B2012802D00228E1
:102C40005BD155E04FF0FF37EC6C2EE0286CC1688B
:102C5000284688470746781C00B927E0FDF7DEFACA
:102C60008146A28821688F54A088401CA080A1883A
:102C7000A86CC0F38F20814201DB0020A080A088D7
:102C8000E18888420ED1E088401CE0800120A060ED
:102C9000E188A86CC0F38F20814201DB0020E08036
:102CA000FFF7CAF94846FDF7BDFACFE700BFE8696C
:102CB000E8B1FDF7B3FA8146A088E188884203DBDA
:102CC000A088E188401A06E0E088A188411AA86C33
:102CD000C0F38F20401A80464846FDF7A3FAB8F1AA
:102CE000000F03D041462846EA69904700BF04E040
:102CF0002C6D2046FFF742FD00BF00BFBDE8F08706
:102D00002DE9F0470446884616461F462546002012
:102D10002875E86128620B4868620B48A8620B4876
:102D2000E8620B4828630B4868630B48A863EF63AD
:102D3000B2B241462846FFF754FE81464846BDE8F8
:102D4000F08700007F360008A5360008913500089E
:102D5000D137000833380008FD350008F0B50446C7
:102D60000D461646301D20F007004038014600226F
:102D700003E00C4F41F82270521C102AF9D30D6267
:102D80004FF0000CC1F824C0C1F828C0C1F82CC015
:102D9000C1F830C04B638C634FF0807CC1F83CC0FD
:102DA000F0BD0000EFBEADDE10B5FEF7BDF94FF48B
:102DB0007A71B0FBF1F42046FEF76CFC0420FEF7BC
:102DC00055FC00221146501EFEF796F810BD00007B
:102DD0002DE9FC410126294903C9CDE9000100255F
:102DE00001F0D4FD002444E004EB8400244901EB0D
:102DF0008000C4EBC40101EB4411224A02EB8101C3
:102E000008642149C4EBC40000EB441002EB8000CD
:102E1000C0F88810C4EBC40000EB4410114601EB6D
:102E200080004830DDE90012C0E91112C4EBC40390
:102E300003EB4413134F07EB8303B3F8443040F222
:102E4000035743EA0702C4EBC40303EB44130D4FDB
:102E500007EB83031B6C1968C4EBC40303EB441337
:102E600007EB830303F148000023FFF749FF054602
:102E7000641CB442B8D32846BDE8FC8184500008E5
:102E80009C010020BC1400207050000810B5FDF714
:102E9000C5F9044604480078401C034908702046E0
:102EA000FDF7C0F910BD00003400002070B5FDF73B
:102EB000B5F90546034804782846FDF7B3F92046DE
:102EC00070BD00003400002010B5FDF7A7F90446DE
:102ED00004480078401E034908702046FDF7A2F917
:102EE00010BD00003400002070B504462068A0F139
:102EF0001405284600F0D2FE002070BD2DE9F041F7
:102F000005460C469046204600F022FFB8F1000F1F
:102F100003D0B8F1010F23D105E004F114012846D4
:102F200000F045F81CE02E680FE0A6F1140794F8B5
:102F3000350097F83510884206DA04F1140107F1DC
:102F4000140000F034F802E03668AE42EDD100BF64
:102F5000AE4204D104F11401284600F028F800BF65
:102F600000BF0020BDE8F081014601F1140040607F
:102F7000006000BF00207047406000607047406004
:102F8000006070470268516002680A600160486032
:102F900070470268516002680A60016048607047CB
:102FA0000268516002680A600160486070474268C8
:102FB000116042684A6041600860704701460868D5
:102FC000884201D1012070470020FCE701460868D3
:102FD000884201D1012070470020FCE7D0E90021A0
:102FE0005160D0E900121160406000607047D0E984
:102FF00000215160D0E9001211604060006070470C
:103000002DE9F041054615B90020BDE8F081E81C26
:1030100020F003054E480068854201D90020F4E7FE
:103020000C2D00D20C254FF0FF314A4800F076FA03
:103030004948006849490968461A7EE047480068DF
:1030400084196088002874D106F10C006168081AA0
:10305000A8426ED306F10C006168091A05F1180048
:10306000814230D306F10C0000EB05083B480068B4
:1030700000EB08074FF4F550388000207880606836
:103080007860BE60C4F804800120608030487968B0
:1030900000680C30814205D03049786809680844DE
:1030A000C0F808802E48016805F10C0008442C493E
:1030B00008602C4800680968884219D228480068CE
:1030C0002849086014E0012060802449606809688C
:1030D000611A401A224909680844214908602148B8
:1030E00000680968884203D21D4800681D490860CD
:1030F0004FF4F550208018480068844212D107E050
:103100001548006840681549096808441249086074
:1031100011480068408828B10F48006812490968C2
:103120008842EDD10B4800F0DCF904F10C006CE7AB
:10313000FFE70A4800683044466805480068401BBD
:10314000B0423FF67BAF034800F0CBF900205CE7CC
:10315000480000209C130020440000203C00002078
:103160004C0000205000002040000020F0B50C462C
:103170000546E6B2042A15D300F0030797B90146C5
:1031800046EA062343EA034304E008C108C108C134
:1031900008C1103A102AF8D201E008C1121F042A0F
:1031A000FBD20D4601E005F8016B171EA2F10102EA
:1031B000F9D1F0BD2DE9F04106460F46304600F04A
:1031C00045F80546E868FFF71BFF044614B90020E0
:1031D000BDE8F08100212046EA68FFF7C7FF2672AC
:1031E0000020607208223946204600F0B2FBFDF74D
:1031F00015F8804604F10C01281DFFF7C3FE404678
:10320000FDF710F82046E3E770B504460020207271
:10321000FDF704F8054604F10C00FFF7DFFE284631
:10322000FDF700F82046FFF72DFC70BD70B5044691
:1032300000202072FCF7F2FF054604F10C00FFF7B6
:10324000CDFE2846FCF7EEFF70BD000002460021CF
:103250000AE0074800EB01100078904203D10448CF
:1032600000EB01107047491C0629F2DB0020F9E74A
:10327000540000202DE9F04704460D4690460026F4
:103280002846FFF7E3FF0746FFF7CAFB7E6802E028
:10329000A6F10C003668381D8642F9D1FFF7D0FB45
:1032A00045F08000207208224146204600F051FB84
:1032B000FCF7B4FF814604F10C01381DFFF762FEF4
:1032C0004846FCF7AFFFBDE8F0870146087A00F0FA
:1032D000800008B1012070470020FCE7F8B5FCF73A
:1032E0009DFF06463F480088002875D13E4800688B
:1032F000002870D000276846FEF7C4FD04463B480E
:10330000006890F8340000F00700032825D1374802
:10331000006890F835000099884202D2334804686A
:103320001BE03248006890F835000099884209D1C6
:103330002E48006890F8340000F0080010B92B48BF
:1033400004680AE02948006890F8340020F008007A
:103350002649096881F8340001272448006884421E
:1033600028D023490098087020480568046017B1E8
:10337000284600F041F8204600F076F894F8340032
:1033800020F0070040F0030084F83400194800786A
:1033900048B904F11C0105F11C00FCF746FF30465A
:1033A000FCF740FF1CE004F11C0105F11C00FCF7D8
:1033B0003CFF0FE00D48006800F056F80B4800682D
:1033C00090F8340020F0070040F003000749096836
:1033D00081F8340000BF00BF3046FCF723FF00BF78
:1033E000F8BD0000B8000020B4000020BC000020A0
:1033F000C00000203400002070B50446FCF70EFF2A
:10340000054616480068844208D194F8340020F03C
:10341000070040F0030084F834001BE014F8340F78
:1034200020F0070040F0010020706278343C0C4B23
:1034300003EBC20004F114014268116042684A6063
:103440004160086000BF0749A06B0968084305494F
:10345000086000BF2846FCF7E5FE70BDBC000020F8
:10346000BC130020B400002070B50446FCF7D6FE63
:10347000054604F11400D0E900215160D0E90012A2
:1034800011604060006000BF94F83510094A02EBFB
:10349000C1000168814201D1012100E0002129B170
:1034A0000548A16B00688843034908602846FCF77B
:1034B000B9FE70BDBC130020B40000202DE9F0411E
:1034C00004460D4616461F462A4602212046FFF7AF
:1034D000D1FE2046FFF748FDA68367720020BDE8B5
:1034E000F08170B504460025FCF798FE064604F10D
:1034F0001400FFF763FD28B904F11400FFF7F4FC92
:10350000012502E0A08B401CA0833046FCF78AFE18
:10351000012D01D1FFF7E2FE002070BD73B5054615
:10352000FCF77CFE0646A88B002806DDA88B401E13
:10353000A8833046FCF776FE28E0019828B930468B
:10354000FCF770FE6FF001007CBD00F0C5FB044687
:10355000002020636A7A214605F11400FFF7CEFCB3
:103560000198002809DD01AA002104F14C0000F0B7
:10357000A7FC04F14C0000F0E7FC3046FCF752FEDB
:10358000FFF7ACFE206B08B1206BDDE70020DBE726
:1035900070B504462546A07E012801DD002070BDDF
:1035A000208B00F4807088B1EE6C3046FFF76AFA29
:1035B0000020E864208B20F480702083286C4FF476
:1035C0008072112143682846984700BF208B00F481
:1035D000806088B12E6D3046FFF754FA00202865D0
:1035E000208B20F480602083286C4FF480621121AE
:1035F00043682846984700BF0020D0E72DE9F047F0
:1036000005460F4616464FF000092C46012F09D0FB
:10361000022F02D0032F27D109E0E88A40F02000D2
:10362000E88229E0E88A20F02000E88224E0D6B190
:10363000B046D8F80400C0F38F21A06CC0F38F20EF
:10364000814204D0A07E10B10720BDE8F087D8E900
:103650000001C4E91101A07E20B1206C314602684E
:103660002046904700BF07E0206C32463946436849
:1036700020469847814600BF00BF4846E5E770B541
:10368000054600262C460020E0642065206C00687A
:1036900030B1206C04F14401026820469047064690
:1036A000304670BD2DE9F04104460D464FF000084C
:1036B000264605F4007038B1E08A00F4007018B9AD
:1036C0006FF00700BDE8F08105F4006030B1E08ADA
:1036D00000F4006010B96FF00700F3E705F48070A4
:1036E00030B1E08A00F4807010B96FF00700E9E7AC
:1036F00005F4806030B1E08A00F4806010B96FF0AA
:103700000700DFE705F0400018B9207E00F0400018
:1037100008B14FF04008E8B22083F06C40BB05F4DC
:10372000807010B3B16CC1F38F2101F10C00FFF771
:1037300067FC074607F10C003860B16CC1F38F22BB
:1037400000213868FFF712FD0020B880F880B860CB
:10375000F764208B40F480702083306C4FF48072CB
:10376000102143683046984709E00020F06406E0E5
:1037700005F4807018B1208B40F480702083306D88
:10378000C8B905F4806098B10C20FFF739FC0746F2
:103790003846FFF717F83765208B40F480602083A8
:1037A000306C4FF48062102143683046984709E03E
:1037B0000020306506E005F4806018B1208B40F4ED
:1037C00080602083208B40EA08002083002079E776
:1037D0002DE9F84F804691461E4616B90020BDE8F7
:1037E000F88F4746B8F8180000F4807028B13246C8
:1037F00049463846FEF72AFCF1E7BA46CB4634463E
:10380000009410E0DAF84000C16850468847054649
:10381000681C00B909E08BF800500BF1010B641E25
:103820000A2D00D101E0002CECD100BF0098001B54
:10383000D5E72DE9F84F804691461E4616B900207F
:10384000BDE8F88F4746B8F8180000F48060E8B18A
:103850003D46CA463446A346286D009011E09AF8CA
:103860000010286C826828469047401C28B94FF009
:10387000FF310098FEF7B5FF03E00AF1010A641E6C
:1038800000BF002CEBD1ABEB0400D9E73C46CA46A5
:103890003546AB4615E09AF800000A2808D1207E8C
:1038A00000F0400020B1206C0D2182682046904736
:1038B0009AF80010206C8268204690470AF1010AAD
:1038C0006D1E002DE7D1ABEB0500B9E770B50446DE
:1038D000FFF7ECFA10B10648046070BD00F0FCF987
:1038E000054615B902480460F7E72C6300BFF4E70A
:1038F0003800002070470FB438B5044606A8009081
:103900002046009A059900F04BFD054600200090E6
:10391000284638BC5DF814FB01460A4600E0521CFC
:1039200010780028FBD1501A704730B503460020AC
:103930000BE011F8015B1C78641B64B2201E02D1FD
:1039400013F8015B05B902E0521E002AF1D100BF55
:1039500030BD70B50346A2B118460C4600BF14F83E
:10396000016B00F8016B3EB902E0002500F8015B35
:10397000551E2A1EF9D102E0551E2A1EEFD100BFA6
:1039800000BF184670BD00002DE9F041074688468B
:10399000F81C20F0030528F00306182E08D9A6F11C
:1039A0001800A84204D3701B18381C49086001E0B5
:1039B000BDE8F0811A48056004684FF4F550208096
:1039C000164800680C3060600020A06060801449D8
:1039D000606809680844134908604FF4F5500968A5
:1039E000088001200F49096848800C4800680C30A5
:1039F0000C4909684860094800680C3009490968A1
:103A000088600023012208A10948FFF757FD0448F8
:103A100000680849086000BFCAE7000048000020AD
:103A20003C0000204000002068656170000000003C
:103A30009C1300204400002010B500200949088094
:103A4000002405E0084901EBC400FFF795FA641C67
:103A5000202CF7DB0020054908600548FFF78CFAA9
:103A600010BD0000B8000020BC130020B4000020EE
:103A7000C400002038B56846FEF704FA044606483C
:103A800004602046FFF7F0FC032084F8340004F1C2
:103A90001C00FCF7F8FB38BDBC00002010B500246A
:103AA00005E0044901EBC400FFF769FA641C002C2F
:103AB000F7D010BDCC00002070472DE9FF5F06460F
:103AC0000F4690461D46DDE90EAB31460120FFF75B
:103AD00071FB8146B9F1000F03D1002004B0BDE8AD
:103AE000F09F2846FFF78CFA044624B94846FFF7B2
:103AF0008BFB0020F2E743463A46314648468DE8C4
:103B0000300CFEF71FFA4846E8E7000070B500F0F9
:103B1000E3F80446FCF782FB05462046FFF7A4FCC9
:103B2000042084F8340004F14C0000F0E5F920464C
:103B3000FFF7CBFB012805D1A06F18B92046FFF78E
:103B400075FB04E004F114010448FFF722FAFFF7C3
:103B5000C5FB2846FCF766FB70BD0000C4000020D2
:103B600001E000F001F8FCE770B53AE0FCF756FB25
:103B70000546FEF79BF930B31D480068A0F1140418
:103B800004F11400D0E900215160D0E90012116065
:103B90004060006000BFFEF743FFA06F10B12046F9
:103BA000A16F88472046FFF790FB012808D12046E7
:103BB000FFF73CFBFEF744FF2846FCF733FB70BDE4
:103BC000FEF73EFF03E02846FCF72CFBF7E728460C
:103BD000FCF728FBA06AFEF755FF2046FFF714FB11
:103BE00000BFFEF763F90028C0D100BFE7E700007F
:103BF000C400002010B586B000241CE0224610A1AD
:103C000004A8FFF778FE20211F22CB000E4800EB0E
:103C10000420CDE90132039100900C4901EBC4105E
:103C200000230B4A04A900F015F8084901EBC41061
:103C300000F078F8641C002CE0D006B010BD000045
:103C40007469646C652564009C1200201C120020BD
:103C5000613B00082DE9FF5F05460C4616461F46EE
:103C6000DDE910ABDDE90E89224601212846FFF788
:103C700001FB3B463246214628468DE8000FFEF701
:103C800061F904B0BDE8F09F70B50446204600F02D
:103C900098F80546284600F025F870BD70B5044632
:103CA00094F8340000F00700022802D04FF0FF30F3
:103CB00070BDFCF7B3FA054604F11400FFF797F95D
:103CC00004F14C0000F0BCF92846FCF7ABFA2046A2
:103CD000FFF792FB0020EBE7014800687047000007
:103CE000BC00002031B5FFF7F7FF0446FCF796FA59
:103CF0000546204600F02CF86A46002104F14C00ED
:103D000000F0DEF804F14C0000F01EF92846FCF744
:103D100089FAFFF7E3FA206B801C08B900202063C2
:103D2000002038BD10B504463434A0786070617846
:103D3000012088406060022004F834092046FFF723
:103D4000ADFFFFF7C9FF08B1FFF7C8FA002010BDAB
:103D500070B5044694F8340000F00705012D04D036
:103D6000032D02D04FF0FF3070BDFCF757FA064626
:103D70002046FFF779FB94F8340020F0070040F06C
:103D8000020084F8340004F14C0000F059F9304688
:103D9000FCF748FA0020E7E770B5044625466FF0C7
:103DA0000100286305F11400FFF721F92846FFF709
:103DB00023FBFFF793FA70BD10B5FFF78FFA0020D1
:103DC00010BD0146002902DA4FF0FF3014E04FF435
:103DD0007A7291FBF2F24FF47A7302FB03F01A4607
:103DE00091FBF2F302FB13124FF47A735A4302F27F
:103DF000E73292FBF3F2104470470000014800687C
:103E0000704700003000002010B50D480068401CCD
:103E10000B490860FFF760FF0446A06C401EA064D9
:103E2000A06C48B9606CA06494F8340040F00800BD
:103E300084F83400FFF7C0FF00F004F810BD000064
:103E40003000002070B5FFF7D9FF0546FCF7E6F912
:103E5000064628E019480068A0F11404A06A281A50
:103E60006FF0004188421DD22046FEF7CEF8D4E91B
:103E700007108847FFF7C2FF0546607A00F002008E
:103E800058B1607A00F0010038B1607A20F001008A
:103E90006072204600F058F805E0607A20F00100DA
:103EA000607200E004E00548FFF790F80028D1D0E8
:103EB00000BF3046FCF7B6F970BD0000CC00002012
:103EC000034649B1012904D0022908D0032910D1A1
:103ED0000AE0586A10600CE01068586209E0587AED
:103EE00020F00200587204E0587A40F00200587244
:103EF00000BF00BF0020704770B50446FCF78EF984
:103F000005462046FEF781F82846FCF78BF9204647
:103F1000FFF78CF9002070BD2DE9F84307460C46E9
:103F200015461E46DDE9088922460A213846FFF774
:103F3000A1F94346324629463846CDF80090FEF7AF
:103F400043F8BDE8F88300002DE9F8430546FCF787
:103F500065F980462846FEF758F8687A20F0010097
:103F600068724046FCF75EF9FFF748FF696A08444B
:103F7000A862FCF753F980462F4F009700242AE0EF
:103F800019E05DF824201168142202EBC402881A9B
:103F9000826AAB6AD21A00D108E0826AAB6AD21A8E
:103FA0006FF000439A4200D20CE000BF5DF824009D
:103FB00000684DF824005DF8240007EBC40149684F
:103FC0008842DED100BF2CB15DF824000830611CAE
:103FD0004DF82100641C002CD2D018480068401C09
:103FE000164908600846066805F114010098FEF7B6
:103FF000D7FF022412E006F0030060B9C4F1010308
:1040000005F1140202EBC301C4F101025DF82200C4
:10401000FEF7C6FF00E003E0B608641C012CEAD9F5
:1040200000BF687A40F0010068724046FCF7FAF879
:104030000020BDE8F8830000CC000020D400002060
:1040400070B50446607A00F0010010B94FF0FF30FF
:1040500070BDFCF7E3F805462046FDF7D6FF28467D
:10406000FCF7E0F8607A20F0010060720020EFE7D2
:104070002DE9FF4F89B0804644460A9808EB0006B8
:10408000464504D24FF0FF36A6EB08000A906FE1D8
:104090000B980078252806D0B44202D20B980078FD
:1040A0002070641C61E1002526E00B98401C0B90F9
:1040B0000B9800782D2802D145F010051CE00B98D4
:1040C00000782B2802D145F0040515E00B98007804
:1040D000202802D145F008050EE00B98007823282F
:1040E00002D145F0200507E00B980078302802D176
:1040F00045F0010500E000E0D7E700BF4FF0FF37D3
:104100000B98007830380A2804D20BA800F070F918
:1041100007460EE00B9800782A280AD10B98401C1D
:104120000B900C9880C80C90002F02DA7F4245F06B
:1041300010054FF0FF390B9800782E281CD10B98F2
:10414000401C0B900B98007830380A2804D20BA83A
:1041500000F04EF981460AE00B9800782A2806D133
:104160000B98401C0B900C9850F8049B0C90B9F1E4
:10417000000F01DA4FF00009002004900B9800783E
:10418000682803D00B9800786C2805D10B9800782C
:1041900004900B98401C0B900A2005900B98007817
:1041A0006F2875D00CDC632813D004DC252870D070
:1041B00058286FD18DE064286DD06928F9D18FE03F
:1041C00070286AD0732825D0752878D07828F0D147
:1041D00082E005F0100040B904E0B44201D2202092
:1041E0002070641C781E071EF7DC0C9810F8041B66
:1041F0000C90C8B20790B44201D207982070641C9A
:1042000004E0B44201D220202070641C781E071EF6
:10421000F7DCAAE00C98006806900C98001D0C9042
:10422000069808B95CA006900698FFF775FB8346D0
:10423000B9F1000F02DDCB4500DDCB4605F01000E3
:1042400048B904E0B44201D220202070641C3846F2
:104250007F1E5845F6DC002008900BE0B44202D2E5
:10426000069800782070641C0698401C06900898F8
:10427000401C089008985845F0DB04E0B44201D295
:1042800020202070641C38467F1E5845F6DC6CE008
:104290001CE015E028E022E0FFE7781C10B90827B1
:1042A00045F00105CDE9007902950C9804C810236A
:1042B00031460C902046FEF77DF9044655E012E0A9
:1042C000B44201D225202070641C4EE008200590E5
:1042D0001DE045F0400500BF1020059017E000BF2D
:1042E00045F0020500BF12E0B44201D22520207043
:1042F000641C0B98007830B1B44202D20B9800785D
:104300002070641C02E00B98401E0B902DE000BF53
:1043100004986C2807D10C9850F804AB0C9005F069
:104320000200B8B116E0049868280BD10C9830F858
:10433000041B1FFA81FA0C9005F0020050B10FFA2D
:104340008AFA07E00C9850F804AB0C9005F00200D4
:1043500000B100BFCDE900790295524631462046B2
:10436000059BFEF727F9044600BF0B98401C0B90F5
:104370000B98007800287FF48BAE0A9838B1B442CD
:1043800002D20020207002E0002006F8010CA4EB0D
:1043900008000DB0BDE8F08F284E554C4C290000A8
:1043A00037B505460C4622464FF0FF312846029BA2
:1043B000FFF75EFE3EBD00207047002070470020E2
:1043C00070470020704710B5FBF728FFFEF796FBFB
:1043D000FFF790FAFFF762FBFFF72EFBFEF7B6F947
:1043E000FFF76AFBFFF706FCFFF744FB002010BD58
:1043F0000146002009E00B685A1C0A601A7800EB9D
:10440000800302EB4302A2F130000A681278303ACE
:104410000A2AF0D3704770B506460D46A6F1480447
:10442000206C40682060286860600021A1610C2138
:1044300061610021E161287900F00F00082802D0B5
:10444000092807D102E00021A16006E04FF4805165
:10445000A16002E00021A16000BF00BF2879C0F385
:10446000011010B1012807D102E00021E16006E04F
:104470004FF40051E16002E00021E16000BF00BFA5
:104480002879C0F3811020B1012805D002280BD172
:1044900006E0002121610AE04FF4C061216106E0DD
:1044A0004FF48061216102E00021216100BF00BF63
:1044B0002046FDF70AF910B14FF0FF3070BD002023
:1044C000FCE70000F0B503460C46A3F14801102CB0
:1044D00026D0112C3BD10D6C95F90800002817DB74
:1044E00000F01F060125B5401A4E470946F827502F
:1044F00000BF00BF00BFBFF34F8F00BF00BF00BFB2
:1045000000BF00BF00BFBFF36F8F00BF00BF00BF81
:1045100000BF0868C06820F020000D68E86016E061
:104520000D6C95F90800002809DB00F01F06012535
:10453000B5404609B60006F1E026C6F8005100BFB6
:104540000868C06840F020000D68E86000BF00BF48
:104550000020F0BD80E100E02DE9F04105460F4666
:1045600014461E46A5F1480814B90020BDE8F081A4
:10457000022E09D1A2B239464046FDF723F908B907
:104580002046F3E70020F1E70020EFE70146A1F124
:1045900048024FF0FF3013681B68C3F3401313B198
:1045A00013685B68D8B270472DE9F05F83460D460B
:1045B00016461F46DDF828804FF0FF34E8B2FDF7BD
:1045C000A7FD8146B9F1000F02D10620BDE8F09F9A
:1045D000D9F80800FDF772FD0446002C01DB102C11
:1045E00001D30620F2E7FBF719FE824604EB4400F4
:1045F000234931F92000A84219D104EB440001EB12
:1046000080004068B84212D104EB440001EB800006
:104610004088B0420BD104EB440001EB800080687D
:10462000404504D15046FBF7FDFD0020CEE704EBEA
:104630004400134931F92000401C20B15046FBF7DB
:10464000F1FD0720C2E728B204EB44010C4A22F82E
:10465000210004EB4400114601EB8000476004EBAD
:10466000440102EB81014E8004EB4400114601EB52
:104670008000C0F808805046FBF7D4FD0020A5E775
:10468000D80000202DE9F04180460D464FF0FF3460
:10469000E8B2FDF73DFD064616B90620BDE8F081FB
:1046A000B068FDF70BFD0446002C01DB102C01D394
:1046B0000620F3E7FBF7B2FD074604EB440013497D
:1046C00031F92000401C20B93846FBF7ABFD002033
:1046D000E4E74FF0FF3004EB44010C4A22F82100DC
:1046E000002004EB440102EB8101486004EB44012B
:1046F00002EB8101488004EB440102EB81018860F8
:104700003846FBF78FFD0020C8E70000D8000020E6
:104710002DE9FF5F894617464FF0FF3609F0FF008D
:10472000FDF7F6FC05461DB9062004B0BDE8F09F74
:10473000012F53D1A868FDF7C1FC0646002E01DB0E
:10474000102E01D30620F0E7FBF768FD834606EB49
:1047500046004C4931F92000401C20B95846FBF76F
:1047600061FD0620E1E7484800EB8604A868009058
:104770000320039006EB4600424901EB800040888D
:1047800020B1012807D002280FD109E002200290B1
:104790003E48019009E0012002903D48019004E06C
:1047A000002002903B48019000BF00BF6946686846
:1047B000FCF76AF994F9020000220521FCF79CFB42
:1047C00094F90200FCF788FB208833490968084304
:1047D000314908605846FBF725FD51E0002F4CD1C8
:1047E000D5F808A05046FDF769FC8046B8F1000FE7
:1047F00002DBB8F1100F01D3002002E0224800EBE9
:10480000880004460CB906208FE7FBF707FD8346B6
:10481000D5E90101FCF762F821881F480068884348
:104820001D490860208820280DDB2088B0F5007F16
:1048300009DC0846008800F47870D0B994F90200C9
:10484000FCF728FB15E02088B0F5806F0DDB208891
:10485000B0F5004F09DC1048008800F47C4040B9F6
:1048600094F90200FCF716FB03E094F90200FCF750
:1048700011FB5846FBF7D6FC02E06FF0050054E749
:10488000002052E7D8000020185000080000111046
:104890000000211000003110980100202DE9FF4197
:1048A00007460E461446F0B2FDF732FC05460DB938
:1048B000BDE8FF81A86800900120019000200290CF
:1048C0000320039024B9012001900020029019E0F8
:1048D000012C03D100200190029013E0022C04D19E
:1048E00000200190012002900CE0032C04D1002054
:1048F00001900220029005E0042C03D111200190C8
:104900000020029069466868FCF7BEF800BFCFE758
:104910002DE9F04107460D460026E8B2FDF7F8FB09
:10492000044614B93046BDE8F081228991B260682E
:10493000FCF74AFA06463046F5E72DE9F04107460E
:104940000D461646E8B2FDF7E3FB04460CB9BDE898
:10495000F081F2B2238999B26068FCF73DFA00BF9A
:10496000F5E710B502460B46A2F148016FF0400092
:104970000C6820600868436000BF08680068C0F3E6
:1049800080100028F9D0012010BD0000002002494D
:10499000A1F8440070470000BC14002038B505465B
:1049A000A5F1480420680068C0F3401048B12068B1
:1049B000C06800F0200020B101212846FEF738F938
:1049C0006CE020680068C0F3C00050B100BF002058
:1049D000009020680068009020684068009000BF48
:1049E00000BF20680068C0F3800050B100BF002005
:1049F000009020680068009020684068009000BF28
:104A000000BF20680068C0F3400050B100BF002024
:104A1000009020680068009020684068009000BF07
:104A200000BF2068006800F0010050B100BF002006
:104A3000009020680068009020684068009000BFE7
:104A400000BF20680068C0F3002018B16FF48070C8
:104A50002168086020680068C0F3402018B16FF436
:104A600000702168086020680068C0F3C01018B1A9
:104A70006FF080002168086020680068C0F3801033
:104A800018B16FF040002168086020680068C0F32A
:104A9000401018B16FF020002168086038BD000098
:104AA00000000000000001020304060708090000DE
:104AB00000000102030430313233343536373839DF
:104AC00061626364656600303132333435363738BD
:104AD00039414243444546000000000000080140BF
:104AE0000100000001000000000801400200000079
:104AF0000200000000080140040000000300000064
:104B00000008014008000000040000000008014007
:104B10001000000005000000000801402000000017
:104B200006000000000801404000000007000000EF
:104B3000000801408000000008000000000801405B
:104B40000001000009000000000801400002000010
:104B50000A00000000080140000400000B000000F3
:104B600000080140000800000C000000000801409F
:104B7000001000000D0000000008014000200000AF
:104B80000E00000000080140004000000F0000007F
:104B9000000801400080000010000000000C0140EF
:104BA0000100000011000000000C014002000000A4
:104BB00012000000000C014004000000130000007F
:104BC000000C01400800000014000000000C01402F
:104BD0001000000015000000000C01402000000043
:104BE00016000000000C014040000000170000000B
:104BF000000C01408000000018000000000C014083
:104C00000001000019000000000C0140000200003B
:104C10001A000000000C0140000400001B0000000E
:104C2000000C0140000800001C000000000C0140C6
:104C3000001000001D000000000C014000200000DA
:104C40001E000000000C0140004000001F0000009A
:104C5000000C014000800000200000000010014016
:104C600001000000210000000010014002000000CF
:104C7000220000000010014004000000230000009A
:104C80000010014008000000240000000010014056
:104C9000100000002500000000100140200000006E
:104CA0002600000000100140400000002700000026
:104CB00000100140800000002800000000100140AA
:104CC0000001000029000000001001400002000067
:104CD0002A00000000100140000400002B0000002A
:104CE00000100140000800002C00000000100140EE
:104CF000001000002D000000001001400020000006
:104D00002E00000000100140004000002F000000B5
:104D1000001001400080000030000000001401403D
:104D200001000000310000000014014002000000FA
:104D300032000000001401400400000033000000B5
:104D4000001401400800000034000000001401407D
:104D50001000000035000000001401402000000099
:104D60003600000000140140400000003700000041
:104D700000140140800000003800000000140140D1
:104D80000001000039000000001401400002000092
:104D90003A00000000140140000400003B00000045
:104DA00000140140000800003C0000000014014015
:104DB000001000003D000000001401400020000031
:104DC0003E00000000140140004000003F000000D1
:104DD0000014014000800000400000000018014065
:104DE0000100000041000000001801400200000026
:104DF00042000000001801400400000043000000D1
:104E000000180140080000004400000000180140A4
:104E100010000000450000000018014020000000C4
:104E2000460000000018014040000000470000005C
:104E300000180140800000004800000000180140F8
:104E400000010000490000000018014000020000BD
:104E50004A00000000180140000400004B00000060
:104E600000180140000800004C000000001801403C
:104E7000001000004D00000000180140002000005C
:104E80004E00000000180140004000004F000000EC
:104E9000001801400080000050000000001C01408C
:104EA0000100000051000000001C01400200000051
:104EB00052000000001C01400400000053000000EC
:104EC000001C01400800000054000000001C0140CC
:104ED0001000000055000000001C014020000000F0
:104EE00056000000001C0140400000005700000078
:104EF000001C01408000000058000000001C014020
:104F00000001000059000000001C014000020000E8
:104F10005A000000001C0140000400005B0000007B
:104F2000001C0140000800005C000000001C014063
:104F3000001000005D000000001C01400020000087
:104F40005E000000001C0140004000005F00000007
:104F5000001C0140008000006000000000200140B3
:104F6000010000006100000000200140020000007C
:104F70006200000000200140040000006300000007
:104F800000200140080000006400000000200140F3
:104F9000100000006500000000200140200000001B
:104FA0006600000000200140400000006700000093
:104FB0000020014080000000680000000020014047
:104FC0000001000069000000002001400002000014
:104FD0006A00000000200140000400006B00000097
:104FE00000200140000800006C000000002001408B
:104FF000001000006D0000000020014000200000B3
:105000006E00000000200140004000006F00000022
:10501000002001400080000001000600020007009F
:10502000040008000800090010000A002000170012
:105030004000170080001700000117000002170051
:105040000004280000082800001028000020280084
:1050500000402800008028009D4800083B490008C7
:1050600011490008A94500088546000811470008B5
:1050700017440008C5440008634900088D4500082E
:105080005945000800C201000800200075617274D3
:1050900031000000C3430008BB430008B7430008C9
:1050A000BF430008C450000800000020C0010000F9
:1050B0006C01000818510008C0010020601A0000AF
:1050C000C8010008011D0335127A320122582A2036
:1050D00004328032021A680C2904322032031A7812
:1050E0000C2904322432041A880C2904292032099C
:1050F0001A980C29043240320A1AA80C29040227F3
:105100002C0BBCFFFF0C41138C501208F5380140EA
:085110002532107201000000BD
:0400000508000131BD
:00000001FF
