:020000040800F2
:100000001012002039010008750700086D0700086C
:10001000710700088B0100086B0900080000000050
:10002000000000000000000000000000F1070008D0
:10003000B50100080000000077070008ED0800087F
:100040005301000853010008530100085301000840
:100050005301000853010008530100085301000830
:100060005301000853010008530100085301000820
:100070005301000853010008530100085301000810
:100080005301000853010008530100085301000800
:1000900053010008530100085301000853010008F0
:1000A00053010008530100085301000853010008E0
:1000B00053010008530100085301000853010008D0
:1000C00053010008530100085301000853010008C0
:1000D00053010008530100085301000853010008B0
:1000E00053010008530100085301000853010008A0
:1000F0005301000853010008530100085301000890
:10010000530100085301000853010008530100087F
:10011000530100085301000853010008530100086F
:1001200053010008DFF80CD000F018F80048004731
:10013000510A000810120020064880470648004770
:10014000FEE7FEE7FEE7FEE7FEE7FEE7FEE7FEE787
:10015000FEE7FEE7F108000825010008064C074D00
:1001600006E0E06840F0010394E807009847103487
:10017000AC42F6D3FFF7DAFFAC0A0008DC0A00084D
:1001800040F2010CC2F2000C604700BFFEE7000025
:100190000548006810F0010F05D0044802490831F5
:1001A0000860034808607047043C0240EFCDAB890B
:1001B0000504030270470000014908607047000011
:1001C000183C024030B504460425680300F03AFAB2
:1001D0000546042D1BD10F48006840F400700D49FE
:1001E00008600846006840F00800086000202060B1
:1001F000680300F027FA05460648006820F008006A
:10020000044908600846006820F400700860284629
:1002100030BD0000043C024004200B49096811F085
:10022000010F01D001200EE00749096811F4807F19
:1002300001D0022007E00449096811F4F05F01D001
:10024000032000E004207047183C024010B5012450
:1002500041F60270FFF7B0FF00F01AF850B100F05D
:10026000DBF800F087F80446042C01D1002010BD13
:100270000120FCE70220FAE770B50446254628462F
:10028000FFF7A0FF042801D1002070BD0120FCE78A
:100290002DE9F0410025002600270024022400F06B
:1002A000B5F80746202C0AD200F0A4F80121A1409D
:1002B000491E20EA010500F0A3F8064609E000F017
:1002C0009FF8A4F12001012202FA01F1491E20EA5F
:1002D00001060DB906B917B10120BDE8F081002073
:1002E000FBE710B500F098F941F60270FFF764FFE4
:1002F00010BD2DE9F047A0B004460E4691464FF0E0
:10030000010A37466D464FF000082DE008E006EB85
:100310008900B84202D901CF01C501E0002001C522
:1003200020A88542F3D320686946FFF729FF82465B
:10033000BAF1040F03D0012020B0BDE8F0874FF0E0
:1003400000080AE0206850F828005DF8281088426C
:1003500001D00220F0E708F10108B8F1200FF1D335
:100360002068803020606D4606EB8900B842CDD809
:100370000020E1E72DE9F041042504260427A846E2
:1003800000240224202C12D20121A140491EC8437E
:10039000002100F0EBF806460021481E00F052F85C
:1003A00007460021481E00F097F880461FE0202CE9
:1003B00012D3402C10D2A4F12001012202FA01F143
:1003C000491EC843002100F03DF807460021481EA1
:1003D00000F082F880460AE0A4F14001012202FA0E
:1003E00001F1491EC843002100F076F880462846F6
:1003F000BDE8F0810148006870470000203C0240E1
:100400000148006870470000803C024001480068D5
:1004100070470000843C024000B50748006810F0B7
:10042000040F07D0FFF7B4FE0448034910310860F9
:100430000348086000BD0000043C0240C8D9EAFB44
:10044000272625242DE9F04704460F4600250026DF
:100450004FF00408A946AA464FF4004000F0F2F815
:100460008046B8F1040F31D1AFB11A48006920437A
:1004700085B21848406940EA144086B2E84345EA2C
:1004800000491448C0F81090F04346EA004A114869
:10049000C0F814A015E00F48006980B220EA0405F6
:1004A0000C484069E14300EA1146E84345EA004947
:1004B0000848C0F81090F04346EA004A0548C0F8E2
:1004C00014A04FF4004000F0BDF880464046BDE85F
:1004D000F08700000000F81F2DE9F04704460F46A2
:1004E000002500264FF00408A946AA464FF4004014
:1004F00000F0A8F88046B8F1040F31D1AFB11A4826
:100500008069204385B21848C06940EA144086B229
:10051000E84345EA00491448C0F81890F04346EA19
:10052000004A1148C0F81CA015E00F48806980B24D
:1005300020EA04050C48C069E14300EA1146E8439B
:1005400045EA00490848C0F81890F04346EA004AD6
:100550000548C0F81CA04FF4004000F073F8804636
:100560004046BDE8F08700000000F81F2DE9F04785
:1005700004460F46002500264FF00408A946AA4667
:100580004FF4004000F05EF88046B8F1040F31D11E
:10059000AFB11A488068204385B21848C06840EA65
:1005A000144086B2E84345EA00491448C0F8089070
:1005B000F04346EA004A1148C0F80CA015E00F4885
:1005C000806880B220EA04050C48C068E14300EA74
:1005D0001146E84345EA00490848C0F80890F0434E
:1005E00046EA004A0548C0F80CA04FF4004000F06D
:1005F00029F880464046BDE8F08700000000F81F5B
:10060000014600200A4612F0FF0F03D0012303EB3E
:10061000122000E0100A704700B50748006810F08B
:10062000020F07D0FFF7B4FD044803490C310860FE
:100630000348086000BD0000043C0240BFAE9D8C32
:100640001615141300B502460423FFF7E5FD034613
:1006500003E0FFF7E1FD0346521E012B01D1002A02
:10066000F7D102B90523184600BD000010B5FFF709
:1006700038FE34483449086008460068A0F100603C
:10068000000B32490860084600683E2808D2084638
:10069000017801208840401EC0432D49086003E0D6
:1006A0004FF000402A490860FFF7D0FD2548264951
:1006B00008604FF4D840FFF7A3FF264908600020E8
:1006C000254908600EE020490968234A12684FF462
:1006D000807303FB0210FFF7CFFD1F480068401C2A
:1006E0001D4908601C4800681A490968884203D2FD
:1006F0001A4800780428E6D0002019490860002430
:100700001AE01749098888B24FF48072154900F041
:100710002FF91448144908604022084601680A4825
:10072000FFF7E7FD30B90E48006800F580700C490E
:10073000086000E010BD641C064800688442E0D3F5
:1007400000BFF7E700200008F8000020E4000020C8
:10075000E8000020F0000020EC000020F400002061
:10076000000100200C010020FC00002000BFFEE77B
:1007700000BFFEE77047704729B1064A126802437E
:10078000044B1A6004E0034A12688243014B1A606A
:1007900070470000243802407FB5FFF73DFF124844
:1007A0001249086000250BE01048006800780DF839
:1007B00005000E480068401C0C490860681CC5B262
:1007C000042DF1DB9DF803409DF8020040EA04246B
:1007D0009DF8010040EA04249DF8000040EA04244A
:1007E000204604B070BD000000900008F800002012
:1007F0007047000000210020394A126842F480321C
:10080000374B1A6000BF364A126802F40030491CA8
:1008100010B9B1F5A06FF6D1314A126812F4003F59
:1008200001D0012000E00020012857D12D4A126894
:1008300042F004022B4B1A601A46126842F0020280
:100840001A601A46126842F001021A60244A2432E1
:10085000126842F08052224B24331A60C202224BAB
:100860001A6000BF204A526812F0100FFAD11C4AD9
:10087000083212681A4B08331A601A4612681A6056
:100880001A4612681A601A46126822F47D021A602B
:100890001A46126842F411021A60114A126842F0B4
:1008A00080720F4B1A6000BF0D4A126812F0007F71
:1008B000FAD00B4A0832126822F00302084B0833C0
:1008C0001A601A46126842F003021A6000BF044A16
:1008D0000832126802F00C020C2AF8D170470000AE
:1008E00000380240003C02400070004070470000A9
:1008F00010B51548006840F480701349086012482C
:1009000008300068114908400F49083108600E4856
:1009100000680F4908400C4908600846006820F448
:100920008020086008480830006820F47D000649EF
:10093000083108600020091D0860FFF75BFF4FF0D9
:1009400000600449086010BD003802400CC0FF88F8
:10095000FEFFFEEE08ED00E010B50121C802FFF732
:100960000BFF4F2000F020F810BD00BFFEE7000095
:1009700070B50346B3F5D84F01DB052070BD9E1856
:10098000B6F5D84F01DB0620F8E706481D1800240D
:1009900004E028780870491C6D1C641C9442F8DB44
:1009A0000020EBE70094000840F08001014A11604C
:1009B00070470000002C004000B589B0FFF791FCA3
:1009C0000920164908600846017801208840401E29
:1009D000C04313490860FFF739FC55208DF8040027
:1009E000AA208DF8050000208DF806008DF807007C
:1009F0000C480D49086008460068FFF73DFC01A857
:100A00000A4908600422084601680748FFF771FC9C
:100A100008B909B000BD00BFFBE70000E4000020FA
:100A2000E800002000900008F8000020FC000020F2
:100A300002E008C8121F08C1002AFAD170477047A7
:100A4000002001E001C1121F002AFBD17047000005
:100A5000FFF747FCFFF7A0FE0446012C05D1FFF786
:100A600005FEFFF7A9FFFFF777FF0C4800680C4968
:100A70000840B0F1005F0FD108484068094908609C
:100A800008460068084908600449086880F3088837
:100A900000BF05480068804700BFFEE7002000084F
:100AA0000000FE2F0801002004010020DC0A0008DD
:100AB00000000020E4000000300A0008C00B00081D
:100AC000E400002028000000300A0008E80B0008BD
:100AD0000C01002004110000400A00082DE9F0413B
:100AE00006460C46002504274FF0E020806840F0C1
:100AF00001004FF0E0218860780300F04DF80746D0
:100B0000042F21D11648006840F480601449086021
:100B10000846006840F00800086003E001CC46F891
:100B200025006D1C202DF9D34FF4004000F034F85F
:100B300007460B48006820F008000949086008468D
:100B4000006820F4806008604FF0E020806820F0AA
:100B500001004FF0E02188603846BDE8F0810000D8
:100B6000043C024004200B49096811F0010F01D038
:100B700001200EE00749096811F4807F01D00220AE
:100B800007E00449096811F4F05F01D0032000E098
:100B900004207047183C024070B504460425FFF756
:100BA000E1FF054603E0FFF7DDFF0546641E012D6A
:100BB00001D1002CF7D104B90525284670BD0000ED
:100BC0000000000000000000000000000000000025
:100BD00004000000002000080000000000000000E9
:080BE00000000000000000000D
:0400000508000125C9
:00000001FF
