:020000040800F2
:108000005045002047BB0008D1810008D3810008FB
:10801000DB810008DF810008E38100080000000028
:10802000000000000000000000000000E9810008DE
:10803000E7810008000000007BB000087FB900085D
:10804000EF810008F1810008F381000800000000C2
:10805000F5810008F7810008F9810008FB8100081C
:10806000FD810008FF8100080182000803820008EA
:108070000582000807820008098200080B820008B8
:108080000D8200080F820008118200081382000888
:108090001582000817820008198200081B82000858
:1080A0001D8200081F8200082182000800000000D5
:1080B0002582000827820008298200082B820008F8
:1080C0002D8200082F8200083182000833820008C8
:1080D000358200084B820008F182000837820008D0
:1080E000398200083B8200083D82000800F002F857
:1080F00000F05FF80AA090E8000C82448344AAF1E3
:108100000107DA4501D100F054F8AFF2090EBAE8E0
:108110000F0013F0010F18BFFB1A43F001031847BB
:1081200064600000846000000A444FF0000C10F806
:10813000013B13F0070408BF10F8014B1D1108BFE5
:1081400010F8015B641E05D010F8016B641E01F885
:10815000016BF9D113F0080F1EBF10F8014BAD1CD5
:108160000C1B09D16D1E58BF01F801CBFAD505E0F3
:1081700014F8016B01F8016B6D1EF9D59142D6D34D
:10818000704700000023002400250026103A28BF75
:1081900078C1FBD8520728BF30C148BF0B60704779
:1081A000642905F02983002070471FB51FBD10B555
:1081B00010BD05F0EAFC1146FFF7F7FF00F0B2FB37
:1081C00005F008FD03B4FFF7F2FF03BC05F010FD56
:1081D000704701E003F0A4FBFCE700BFFEE700BF2F
:1081E000FEE700BFFEE77047704770477047704773
:1081F00070477047704770477047704770477047C7
:1082000070477047704770477047704770477047B6
:1082100070477047704770477047704770477047A6
:108220007047704770477047704770477047704796
:10823000704770477047704770477047704700211C
:1082400000E0491C8142FCDB704770B5002502F05C
:10825000F3FE054646480078401C4549087028460C
:1082600002F0EEFE40F22551424804F043FF88B38D
:1082700040F225513F4804F063FF3E4804F0DBFE26
:10828000C4B23D483D49096840F821403B48008858
:10829000401CC0F30A003949086039480068401C96
:1082A0003749086035480068B0F57A7F1DD33348F8
:1082B00000683449C1F80A0000203049086031489C
:1082C000D0F80A202C49123005F06EFB01202D4910
:1082D00048700AE0FFE74FF45871264804F0FEFEAC
:1082E000012802D1234804F0A6FE00F0C5FD70BDB0
:1082F00010B5002402F0A0FE04461D480078401C82
:108300001B490870204602F09BFE40F225511E4892
:1083100004F0F0FEF8B140F225511B4804F010FFC4
:10832000194804F088FE1949087008460178114878
:1083300004F07DFE15490A78154908880988491C0A
:10834000134B1980C11700EB11610912A0EB012139
:10835000104B5A5409E04FF458710B4804F0BEFE1C
:10836000012802D1084804F066FE00F085FD10BD2A
:108370003800002000380140BC1E00201002002000
:10838000000000209A0C002000440040040000205F
:1083900018020020EE3F002010B50122FE49002007
:1083A00003F0F4FEFC48007801282BD00120FA49A4
:1083B00008700222002003F07EFEF420F7490870C6
:1083C000102048700421F548C1701020F3498870CE
:1083D00008710E22F2A1F148401D05F0E5FA1722BE
:1083E000EE494FF4006003F066FE6420F049087027
:1083F000012048700020887003224FF4805003F061
:108400005AFE0BE01722E5494FF4006003F0BEFE70
:108410000322E7494FF4805003F0B8FE10BD044634
:10842000FFF7BAFF00F0AFFB08E0204600F0D6FAF5
:10843000642300221146104602F08CF9F5E700246F
:1084400013E08021DB4803F0F0FF04462CB9012043
:10845000D94908700520D949087003F003F90123B0
:1084600000221146104602F075F9EAE700B585B022
:10847000032000214FF48072D14BCDE90132CDE9C8
:10848000031004200346CF4A0090CF4801F044FF78
:10849000032000214FF48072CC4BCDE90132CDE9AD
:1084A000031005200346CA4A0090CA4801F034FF71
:1084B00005B000BD2DE9F04104460F461546C648FB
:1084C00090F804804079C4490871084680F8058016
:1084D000A81CC8710846C079C043C1B2BE48017229
:1084E000016821604168616001892181807AA07200
:1084F0002A46394604F10B0005F056FAB648C07911
:1085000000F10901204602F0F7FD0646B248C079A5
:1085100009302654310AB048C0790A3021547E21EE
:10852000AD48C0790B302154AB48C0790C30C0B293
:10853000BDE8F08103F0E3FAFFF798FFF1E1A74807
:10854000007801287AD102F08FF9A5490860A54882
:108550000078C21EA449A04805F026FAA148007878
:10856000C01EA149085C9C4981F83D009D480078E7
:10857000801E9D49095C984880F83E109948007813
:10858000401E9949085C944981F83F0000209349B6
:1085900008709148C0781028D4D18F48807900287D
:1085A000D0D18D48407A4B2806D0512814D052287B
:1085B00021D0532878D152E08748807A302803D1DF
:1085C00000208A49087006E08348807A312802D169
:1085D0000120864908704DE17F48807A422809D100
:1085E00017226E498248FFF765FF044621468048FE
:1085F00003F0CEFA3EE17848807A4A282ED07648B9
:10860000807A4D280BD101226949491C7848FFF72F
:1086100051FF04462146764803F0BAFA1EE06E4840
:10862000807A54280BD1012261497148FFF742FF3B
:10863000044621466E4803F0ABFA0FE01BE16648A2
:10864000807A50280AD101225949891C6848FFF7CD
:1086500031FF04462146664803F09AFA0AE15E4873
:10866000807A4A2821D15248407858B95A48C07A6D
:10867000604908705848007B5F49087003205649DC
:10868000887102E00420544988715348C079801EE3
:10869000C2B251490B315648FFF70CFF0446214640
:1086A000534803F075FAE3E0E3E04B48807A412851
:1086B00019D14948C07A3949087017224FF400602F
:1086C00003F0F9FC0320444988710846C079801EF4
:1086D000C2B20B314648FFF7EDFE0446214644483E
:1086E00003F056FAC4E03C48807A4E281DD10E2291
:1086F00039490B312948401D05F056F91722274901
:108700004FF4006003F0D7FC03203349887108461A
:10871000C079801EC2B20B313548FFF7CBFE04464C
:108720002146334803F034FAA2E02B48807A4D28E2
:1087300019D12948C07A1E49487003224FF480504D
:1087400003F0B9FC0320244988710846C079801ED3
:10875000C2B20B312648FFF7ADFE0446214624483D
:1087600003F016FA84E01C48807A50284ED11A484B
:10877000C07A0F4988700322891C4FF4805003F09F
:108780009AFC0320144988710846C079801EC2B241
:108790000B31174832E0000010000020601E00205E
:1087A0004653542D323031373131323330310000BD
:1087B0007E000020000801409A0C00201C000020D0
:1087C00054040020500800203F8400085408002072
:1087D000500C00201F840008201E002017020020DB
:1087E0000C00002015020020BC3E002009000020E3
:1087F000EE3E00207C0000207D000020FFF75AFEA6
:1088000004462146574803F0C3F931E05648807AC0
:1088100054282DD15448C07A0A2819DB5248C07A0E
:108820005249087003224FF4805003F044FC0320A7
:108830004D4988710846C079801EC2B20B31494843
:10884000FFF738FE04462146464803F0A1F90FE041
:108850000420454988710846C079801EC2B20B3198
:108860004048FFF727FE044621463E4803F090F9B2
:1088700000E000BF00BF3D48807868BB3C480078FE
:10888000012848D101F0F0FF3A490968401A3749F8
:10889000097888423FD301F0E7FF36490860EA20B3
:1088A0003049087034480078487000208870334898
:1088B0000078C8700020087131480078487131484C
:1088C000007888710020C8710872EB2048720A2174
:1088D000244803F05DF91EE02448807801281AD16D
:1088E00001F0C2FF23490968401A204909788842EB
:1088F00011D341201B490870442048701E4800785D
:10890000C04388700020C870087143204871062158
:10891000144803F03DF90A2300221146104601F0E5
:1089200019FF0CE600B585B002F0B1FF02F0D8FFE8
:1089300002F06CFF03F0E3F800F06DFA0320002171
:108940008022114BCDE90310CDE90132009003469E
:108950000E4A0F4801F0E0FC00F0C6FA002005B016
:1089600000BD0000EE3E0020201E00207E00002002
:10897000090000200C0000207A0000207B0000206D
:108980007C0000207D0000205402002050040020C4
:10899000358500084FF000607D490860001348608D
:1089A0007C4888604FF4C830C8607B4808614FF449
:1089B000C8304861794888614FF4C040C861704749
:1089C00010B502F0ADFF10BD10B571498969714A4B
:1089D000881A2622724903F0D9FB10BDFFF7F4FF75
:1089E000002070490870CDE06F48007830B1012850
:1089F00022D002287ED003287DD1B8E06B480078D1
:108A0000012818D168490870002068494870C1F8E9
:108A10000A00C1F80E005E480069C1F806005C4A11
:108A20005169106903F0A2FA01F01EFF5F49C1F815
:108A30000200022008709EE05C48007802287BD18A
:108A40005A484078012828D102205649087001F080
:108A50000BFF5649C1F8020002204870D1F80A20E5
:108A6000D1F80600123103F0C8FA5048D0F80600D9
:108A70004E49D1F80A1008444C49C1F8060008468E
:108A8000D0F80E00D1F80A1008444849C1F80E0089
:108A90000020C1F80A0003204870444840780328A9
:108AA00051D101F0E1FE4149D1F80210401AB0F570
:108AB000FA6F32D93E48006878B33D483D490268B4
:108AC0003A48123004F070FF394800683749C1F85D
:108AD0000A0002204870D1F80A20D1F806001231AD
:108AE00003F08BFA3148D0F806003049D1F80A106B
:108AF000084401E028E03DE02C49C1F806000846A2
:108B0000D0F80E00D1F80A1008442849C1F80E0028
:108B10000320487001202349087001F0A5FE234975
:108B2000D1F80210401A44F6206188420BD9032084
:108B30001E49087007E0FFE71C480078032802D1AF
:108B400002201949087016E00120154908751748D8
:108B5000D0F80E0088600E4989690E4A881A2622CC
:108B60000F4903F0A8FA03200F49087003E0FFF74C
:108B700027FF00E000BF00BF64230022114610461B
:108B800001F0E8FD30E700B5FFF704FF00BD00008D
:108B9000540C0020008000080010020800A0030808
:108BA000740C00201C000020280000209A0C0020DB
:108BB00010020020BC1E00200246002005E011F833
:108BC000013B02F8013B431CD8B20B78002BF6D1D5
:108BD000137070472DE9F04105460E4614460027F4
:108BE000FE480078002804DD112020700020BDE838
:108BF000F0812878012808D0022807D0032802D065
:108C0000042804D100E000BF00BF00BF03E0012042
:108C100020700020EBE700BF02F00EFA074605F1D6
:108C200010013046FFF7C8FF8046384602F008FAC8
:108C3000002020704046DAE70146002002E0491C8F
:108C4000421CD0B20A78002AF9D170472DE9F041D0
:108C500005460F4614464FF00008E048007800280B
:108C600003DD12202070BDE8F0812878012808D0AB
:108C7000022807D0032802D0042804D100E000BF56
:108C800000BF00BF02E001202070ECE700BF02F04F
:108C9000D3F980463846FFF7CFFF0646072E05DD9D
:108CA000404602F0CDF90B202070DCE7394605F193
:108CB0001000FFF781FF404602F0C2F9002020704B
:108CC00000BFD0E7002400BF02F0B6F90446C44854
:108CD0000068401CC2490860204602F0B1F902F069
:108CE00038F9F1E700B587B0032000212022BD4B01
:108CF000CDE90132CDE903104FF6FF701346B94AB2
:108D00007C320090AFF2430001F006FB06AAB6A148
:108D1000202001F091FB07B000BD04E0002200F824
:108D2000012B4A1E91B20029F8DC704730B54FF490
:108D3000B471AF48FFF7F1FFAD4B03F11805002404
:108D40000AE0002018705D603F20187400215974FB
:108D500018331835601C84B20E2CF2DB002018701A
:108D600058603F20187400215974A148A149086037
:108D700030BD30B54FF42B719F48FFF7CEFF8421F3
:108D80009E48FFF7CAFF9C4B03F14C0500240AE004
:108D90005D613F2083F8440000214520C1544C33DD
:108DA0004C35601CC4B2082CF2D3002058613F201F
:108DB00083F8440000214520C154002090490860F8
:108DC0008D489049086030BD00228F4B1A708F4942
:108DD000002004E0002201F8012B421CD0B205283B
:108DE000F8DB00228A4B1A708A4B1A708A4B1A6081
:108DF0008A4B1A60704700208949086077490870DB
:108E0000884908708849087088490870884908604E
:108E100073490860704710B502F08AF8FFF7EBFF5E
:108E2000FFF7D2FFFFF7A5FFFFF780FF00F080FEFE
:108E300000F07CFFFFF756FF02F01AF802F07CF812
:108E400010BD7A480078012808D164480078FF28CE
:108E500004D262480078401C604908707047754928
:108E6000694A1278885C6949095C724A515C01EB75
:108E7000C001684A1170704710B500246B48007833
:108E8000012830D102F0D8F8044654480078002870
:108E900004DD52480078401E504908704F48007861
:108EA000F0B960480078D8B9FFF7D9FF5948007881
:108EB00057490978884213D050485649097850F8E4
:108EC00021005549086008460068006B401C09688D
:108ED000086357480068401C5549086002F0C8F80C
:108EE000204602F0ADF810BD10B55048007890B99A
:108EF000FFF7B5FF47480078454908703F484549A6
:108F0000097850F821004449086008460068434940
:108F1000086002F098F810BD70B5002602F078F8ED
:108F200002F08AF806463E480068401C3C4908604A
:108F3000304602F085F83D48007801287ED13E4851
:108F4000007820B1012804D0022809D103E00125CE
:108F50000BE0002509E0012501203749087004E0F5
:108F6000012500203449087000BF00BF05B970BD5D
:108F70002348046865E002F05FF80646E08C50B3D1
:108F8000E08C401E80B2E08428BB94F8280000F0FA
:108F9000370040B114F8280F20F03700207001206E
:108FA0006070283C02E0002084F8290094F8280032
:108FB00000F0080078B92C34A078134909780843E8
:108FC0001149087020781149085C6178084314F849
:108FD0002C190E4A50546469304630E038000020A5
:108FE00044000020DC1600204F532D49646C6500BE
:108FF000AC14002030000020E01700205C17002097
:10900000540000204C0000203C0000203D000020C7
:109010003A0000203B0000205000002048000020C3
:1090200060000020390000204300002042000020A2
:109030002C0000204EE000085800002005E001F060
:10904000FFFF94F82A00202895D100BF8FE74FF446
:109050008F70704710B590F82C2001F10B039B5CCA
:1090600090F82D40A34301F10B04A35423469B5CCD
:1090700023B98B7A90F82E40A3438B7210BD2DE953
:10908000F04F05460F4690469946A87AA3490E5CD4
:1090900005F10B00805D11F800B00BEBC60000F08D
:1090A000FF0A9F4850F82A4000202034E0802760C3
:1090B000207A20EA0800207284F80990207A203C67
:1090C00000F0080068B994F82E0096490978084322
:1090D000944908709448805D94F82D100843924993
:1090E000885529462046FFF7B5FF5046BDE8F08F6A
:1090F00010B58E4A1268D0618C4A126892F82C30F2
:1091000000F10B02D25C894B1B6893F82D301A4397
:10911000864B1B6893F82C4000F10B031A55827A9A
:10912000824B1B6893F82E301A4382727F4A126872
:1091300092F82C107C4A525C7C4B1B6893F82D30C3
:109140009A43794B5A541A46525C42B9774A12688C
:1091500092F82E30734A12789A43724B1A7010BDEF
:109160000023837200F10B01002204E0002301F8C8
:10917000013B531CDAB2052AF8DB704705E011F811
:10918000013B00F8013B531E9AB2002AF7DC7047FE
:1091900010B5002401F050FF044665480078F0B98E
:1091A00064480078D8B9FFF75AFE634800786349ED
:1091B0000978884213D05A485F49097850F821004D
:1091C0005F49086008460068006B401C0968086336
:1091D0005C480068401C5B49086001F044FF204681
:1091E00001F02EFF10BD7CB5002514E0694628462D
:1091F00001F0C0F9064666B9494850F8254044B127
:10920000012C06D0D4E9020100EB8100E063019853
:109210002064681CC5B2202DE8DD7CBD2DE9F84F27
:1092200005460E4617469846DDE90BABDDF828905B
:109230000020009001F000FF009043480468002CDB
:1092400067D054F8140F40490860009801F0F8FE08
:1092500044F8146CA575002020756075608244F890
:1092600010AC44F8089C44F80C7C24F804BC24F8A6
:10927000028CE810207605F00700E075217E0120C1
:109280008840A076E17D0120884060760020A060C3
:10929000E060E06160622062A062E0623F2084F8EA
:1092A0003000143C002145200155204601F0AAFE63
:1092B000204601F042FE01F0BFFE0090184840F841
:1092C00025402248006860610020A0611F480068B6
:1092D00010B11E48006884611C4804602C34A078DA
:1092E0001049097808430F49087020780E49085C36
:1092F0006178084314F82C190B4A5054144800782C
:10930000401C13490870009801F09AFE0020BDE847
:10931000F88F009801F094FE4220F8E74EE0000834
:109320005C1700203C0000203D0000204800002089
:1093300038000020390000203B0000203A000020C7
:10934000500000202C0000204C0000205400002081
:10935000430000202DE9F05F04460F4691461E466B
:109360004FF0000B2078052804D001203070002039
:10937000BDE8F09F09F0800ABAF1000F04D029F08F
:1093800080094FF0010801E04FF000080020307024
:1093900001F052FE8346B9F1000F2CD0B9F1010F54
:1093A0003BD0B9F1020F03D0B9F1030F46D111E060
:1093B000208900EA0705BD4206D1B8F1010F05D1A9
:1093C0002089A843208101E070203070584601F0C8
:1093D00037FE3AE0208900EA070535B1B8F1010F00
:1093E00005D12089A843208101E0702030705846C3
:1093F00001F026FE29E0208927EA0005BD4206D1BA
:10940000B8F1010F05D120892843208101E07020A7
:109410003070584601F014FE17E0208927EA000555
:1094200035B1B8F1010F05D120892843208101E031
:1094300070203070584601F003FE06E0584601F0F7
:10944000FFFD00256F20307000BF00BF28468FE76A
:109450002DE9F04106460D460027FB48007800281C
:1094600004DD102028700020BDE8F08101F0E4FD4B
:109470000746F648046894B100684068F3490860FC
:10948000052020702681002060603F20A07200210E
:10949000E172384601F0D4FD0020287004E038461F
:1094A00001F0CEFD722028702046DDE710B50146A0
:1094B0004A6808682AB9CB68586028B1002444601B
:1094C00002E0106000B1426010BDF0B506460F46E4
:1094D000B4680020243460802780207920F02000A8
:1094E0002071002060712079243C88B92C34A07848
:1094F000D74909780843D64908702078D549085CCF
:109500006178084314F82C19D24A5054012500E020
:1095100000253046FFF7CAFF2846F0BD2DE9F04789
:109520000446894615464FF0000AC74800780028CF
:1095300004DD0F2028702046BDE8F087207805283C
:1095400003D0012028702046F6E701F075FD824621
:10955000606808B1012700E00027B9F1000F03D0CF
:10956000B9F1010F40D11BE09FB93F20A07200214B
:10957000E17200202070B548006860600020208102
:10958000B2480460504601F05BFD002028700026C0
:1095900005E0504601F054FD4920287026462AE097
:1095A000D4F8048005E000214046FFF78EFFD8F88C
:1095B0000080B8F1000FF6D13F20A0720021E172C7
:1095C00000202070A14800686060002020819F4832
:1095D0000460504601F034FD012F01D1FFF7D8FDA2
:1095E00000202870002606E0504601F029FD0720E3
:1095F0002870264600BF00BF30469DE72DE9F041A8
:1096000005460E46144600278F480078002804DDE2
:10961000112020700020BDE8F08101F00DFD07460B
:109620002878052806D0384601F00AFD0120207070
:109630000020F0E705F10A013046FFF7BDFA804649
:10964000384601F0FDFC002020704046E3E72DE99C
:10965000F04105460F4614464FF000087A4800785E
:10966000002803DD12202070BDE8F08101F0E4FC49
:1096700080462878052805D0404601F0E1FC01200D
:109680002070F1E73846FFF7D7FA0646072E05DDCA
:10969000404601F0D5FC73202070E5E7394605F11E
:1096A0000A00FFF789FA404601F0CAFC002020704A
:1096B00000BFD9E7F0B51446059E674F3F6897F89D
:1096C000287047F02007DFF890C1DCF800C08CF864
:1096D00028700027DFF880C1DCF800C08CF8297002
:1096E0005D4F3F68FE840C828B745B4F3F688F60D8
:1096F00047680F6000274F60C860456805B1696022
:109700004160554F3F6897F82C20524FBF5CDFF8FF
:1097100048C1DCF800C09CF82DC027EA0C07DFF830
:1097200034C10CF802706746BF5C5FB94A4F3F68AE
:1097300097F82EC0464F3F7827EA0C07DFF810C194
:109740008CF80070F0BD2DE9F04F89B005460F464A
:1097500091469A46129E002002903B4800780028CD
:1097600005DD02203070002009B0BDE8F08F3B48D5
:109770000078002803DD0D2030700020F4E7287801
:10978000052803D0012030700020EDE709F0800BA0
:10979000BBF1000F04D029F080094FF0010801E06F
:1097A0004FF0000801F048FC0290B9F1000F57D0CB
:1097B000B9F1010F77D0B9F1020F03D0B9F1030F5E
:1097C00070D120E0288900EA0704BC420FD1B8F12B
:1097D000010F02D12889A04328811F480068848492
:1097E000029801F02DFC002030702046BCE74B466B
:1097F0003A4604A92846CDF800A0FFF75BFF02987F
:1098000001F01EFC77E0288900EA07047CB1B8F17A
:10981000010F02D12889A04328810F480068848461
:10982000029801F00DFC0020307020469CE74B466A
:109830003A4604A92846CDF800A0FFF73BFF02985E
:1098400001F0FEFB57E0000038000020340000204B
:109850003C0000203D00002048000020390000208E
:10986000288927EA0004BC420FD1B8F1010F02D1C8
:10987000288920432881BF4800688484029801F029
:10988000DFFB0020307020466EE74B463A4604A9C5
:109890002846CDF800A0FFF70DFF029801F0D0FB9D
:1098A00029E000E01FE0288927EA00047CB1B8F134
:1098B000010F02D1288920432881AE4800688484A2
:1098C000029801F0BDFB0020307020464CE74B466B
:1098D0003A4604A92846CDF800A0FFF7EBFE02980F
:1098E00001F0AEFB07E0029801F0AAFB00246F2014
:1098F0003070204638E700BFFFF74AFC01F09CFBC0
:1099000002909C48006890F8290020B399480068AC
:1099100090F82900039000209649096881F82900F1
:1099200004A8FFF7C3FD00209249096881F82800C8
:10993000029801F085FB00240398012805D0022835
:1099400002D10E20307003E000BF0A20307000BF4B
:1099500000BF204608E787480068848CB8F1010FF3
:109960001ED1B9F1000F0ED0B9F1010F0CD0B9F131
:10997000020F03D0B9F1030F0AD100E000BF28891C
:10998000A04328810BE000BF28892043288106E0FE
:10999000029801F055FB6F2030700020E4E600BF14
:1099A000029801F04DFB002030702046DCE670B5D7
:1099B000002501F041FB05466E480068848C28466E
:1099C00001F03EFB204670BD2DE9FC5F0446894650
:1099D00092461E46002000902078052804D00120E1
:1099E00030700020BDE8FC9F01F026FB0090BAF12A
:1099F000000F03D0BAF1010F0AD104E0208920EA58
:109A0000090020810BE0208940EA0900208106E05E
:109A1000009801F015FB712030700020E2E700BFD4
:109A20004FF0000B656855E0A87C40B3012838D0A2
:109A3000022802D0032844D111E02089298A00EAB3
:109A40000107288AB84209D139462846FFF73DFD6B
:109A50008046B8F1010F01D14FF0010B38E02089A9
:109A6000298A00EA01074FB139462846FFF72DFD44
:109A70008046B8F1010F01D14FF0010B28E0288A90
:109A8000218920EA0107288AB84209D139462846A7
:109A9000FFF71BFD8046B8F1010F01D14FF0010B1C
:109AA00016E0288A218920EA01074FB13946284665
:109AB000FFF70BFD8046B8F1010F01D14FF0010B0C
:109AC00006E0009801F0BCFA6F203070002089E7B2
:109AD00000BF2D68002DA7D1009801F0B1FABBF1AD
:109AE000010F01D1FFF754FB01F0A6FA0090208985
:109AF0000190009801F0A4FA00203070019871E7FD
:109B00002DE9F04104460D4600272078052804D0B1
:109B1000012028700020BDE8F08101F08DFA074691
:109B20002689384601F08CFA002028703046F2E78A
:109B300070B5C8211048FFF7F0F80F4C04F1140677
:109B400000250AE00020207066603F20A0720021FE
:109B5000E17214341436681C85B2092DF2DB002042
:109B6000207060603F20A0720021E172024803492A
:109B7000086070BD4800002014160020340000204A
:109B80002DE9F84F05460F4690469A460020009072
:109B900001F052FA009076480468006820B17448D9
:109BA0000068406872490860009801F049FA2CB9D1
:109BB0005A208AF800000020BDE8F88F2E4605EBF9
:109BC00008094FF0000B05E0C6F800904E46C1446E
:109BD0000BF1010B781E5845F6D800203060256047
:109BE00065602761E760C4F808808AF800002046B5
:109BF000E2E72DE9F04104460D46002701F01CFA8A
:109C00000746206968B16668306860602069401E58
:109C10002061384601F014FA002028703046BDE873
:109C2000F081384601F00CFA5D2028700020F6E73C
:109C30002DE9F04105460E46144600274D480078B0
:109C4000002804DD112020700020BDE8F08101F023
:109C5000F3F9074605F114013046FEF7ADFF8046E3
:109C6000384601F0EDF9002020704046EDE72DE97F
:109C7000F04106460F4614464FF000083D48007874
:109C8000002803DD12202070BDE8F08101F0D4F936
:109C900080463846FEF7D0FF05460F2D05DD4046CD
:109CA00001F0CEF963202070EEE7394606F114008A
:109CB000FEF782FF404601F0C3F90020207000BF8C
:109CC000E2E770B504460D46002601F0B5F90646F8
:109CD000D4E90310884204D3304601F0B1F95E2084
:109CE00070BD6068286065602069401C2061304656
:109CF00001F0A6F90020F3E770B505460C460026F2
:109D000001F09AF906462868206068686060A868D3
:109D1000A060E868E06028692061304601F090F9B1
:109D2000D4E90301401A6061002070BD70B5B42110
:109D30001148FEF7F2FF104C00250DE0681C00EB07
:109D4000C0000D4901EB800060603F2020750021BC
:109D500061752434681C85B2042DEFDB002060603F
:109D60003F2020750021617503480149086070BDDE
:109D70005C000020380000208C1A002070B50446DA
:109D800000262078032801D0002070BD01F054F98E
:109D900006462589002D02DD2089401E208130469F
:109DA00001F04EF92846F0E770B505460026DD487B
:109DB0000078002801DD002070BD01F03DF9064665
:109DC000D9480468006820B1D74800684068D6497F
:109DD0000860304601F034F95CB103202070258121
:109DE000002060603F202074002161742046FFF74E
:109DF000B7F92046E0E72DE9F047044688461546C6
:109E00004FF000092078032804D001202870204654
:109E1000BDE8F087C3480078002803DD0F202870D4
:109E20002046F5E701F008F98146A07A08B101273C
:109E300000E00027B8F1000F03D0B8F1010F3ED1C8
:109E40001BE09FB93F202074002161740020207026
:109E5000B5480068606000202081B348046048462F
:109E600001F0EEF800202870002605E0484601F0D9
:109E7000E7F849202870264628E005E00023012263
:109E800019462046FFF7FBF8A07A0028F6D13F20BC
:109E900020740021617400202070A3480068606075
:109EA00000202081A0480460484601F0C9F8012F35
:109EB00001D1FFF76DF900202870002606E0484622
:109EC00001F0BEF807202870264600BF00BF3046CC
:109ED0009EE72DE9F04105460E46144600272878F6
:109EE000032803D001202070BDE8F0818D48007860
:109EF000002802DD02202070F6E78C480078002858
:109F000002DD0D202070EFE701F096F80746288962
:109F1000002808DD2889401E2881384601F090F885
:109F200000202070E0E78248006890F8280040F0A8
:109F300001007F49096881F8280000207C490968F0
:109F400081F829007A480068C6842846FFF7D0F8CF
:109F5000384601F075F8FFF71BF901F06DF8074678
:109F60007348006890F8290020B1012809D0022820
:109F700006D102E0002020700BE00E20207008E0E7
:109F800000BF29466A480068FFF764F80A2020707D
:109F900000BF00BF00206649096881F828006449B5
:109FA000096881F8290062490968C861384601F0EA
:109FB00047F800BF98E72DE9F04104460F461546E3
:109FC0004FF000082078032804D0012028700020DA
:109FD000BDE8F08101F030F88046A07A20B3002679
:109FE0007FB1012F0CD107E002230122002120467E
:109FF000FFF745F8701CC6B2A07A0028F4D109E03A
:10A0000000BF0223012200212046FFF738F8701C10
:10A01000C6B200BF00BF404601F012F8FFF7B8F823
:10A020000E2028703046D3E7404601F009F80020A2
:10A03000287000BFCCE770B50446002520780328BF
:10A0400001D0012070BD00F0F7FF0546A07A60B195
:10A050000023012219462046FFF711F8284600F098
:10A06000EFFFFFF795F80020ECE720894FF6FF712E
:10A07000884207D22089401C2081284600F0E0FF5A
:10A080000020DFE7284600F0DBFF3220DAE72DE989
:10A09000F04704460D464FF000092078032802D00F
:10A0A0000120BDE8F08700F0C7FF8146A07AE87183
:10A0B00004F10B07AE1C4FF0000807E017F8010B86
:10A0C00006F8010B08F1010000F0FF08B8F1050FD8
:10A0D000F4DB20892880484600F0B2FF0020E0E74A
:10A0E0002DE9F04104460E46154600272078032846
:10A0F00003D001202870BDE8F08100F09DFF0746E5
:10A10000002028702089002801DD268105E0A07A42
:10A1100008B9268101E049202870384600F090FFF8
:10A1200000BFE8E7380000203000002039000020A0
:10A13000480000202DE9FF5F8146884600200090FE
:10A1400000F07AFF0090FD4850F8280030B10098E8
:10A1500000F076FF282004B0BDE8F09FB9F1FF0FB2
:10A1600003D1F748006890F82A90F44850F8294045
:10A1700024B9009800F064FF2920ECE7012C04D1F9
:10A18000009800F05DFF4320E5E74FEAE80708F09C
:10A19000070003900120B84000F0FF0A0121039856
:10A1A000814001F0FF0B0020E44941F829000846F6
:10A1B00040F8284014F82C6FA078029060782C3C6E
:10A1C0000190E048815D01980140D1B1DD48805D9A
:10A1D00001998843DB4988550846805D28B9DA48EB
:10A1E000007802998843D8490870D748007840EA37
:10A1F0000A00D5490870D348C05D40EA0B00D14938
:10A20000C855E569D5B105F10B00805D019988431A
:10A2100005F10B0188550846805D18B9A87A0299A6
:10A220008843A872A87A40EA0A00A87205F10B00D8
:10A23000C05D40EA0B0005F10B01C85584F82A8087
:10A2400084F82C70039884F82B0084F82EA084F8EE
:10A250002DB0009800F0F4FEBC480078012801D130
:10A26000FEF796FF002076E72DE9FE4F06460F46E3
:10A2700090461C464FF0000900F0DEFE8146B448CF
:10A280000078002805DD484600F0DAFE3C20BDE8F5
:10A29000FE8FAA4850F8240060BB0120A74941F86E
:10A2A0002400484600F0CCFE0023424639463046A2
:10A2B00000F057FE824600200090019003460246BF
:10A2C000514602902046FEF7A9FF054635B99F4842
:10A2D000007801280CD1FEF75BFF09E000F0ACFE2E
:10A2E00081460020954941F82400484600F0A8FE28
:10A2F0002846CCE7484600F0A3FE2820C7E702F036
:10A30000010343B102F002032BB102E0491E002316
:10A3100008C00029FAD170472DE9F04F85B0814679
:10A320008A4693461C46DDE90F78129D0020039073
:10A3300000F082FE039086480078002806DD03982E
:10A3400000F07EFE3C2005B0BDE8F08F7B4850F861
:10A35000240088BB0120794941F82400039800F0CB
:10A360006FFE2A4641463846FFF7C9FF2B465A463C
:10A370005146484600F0F5FD04901198CDE9008063
:10A3800002953A4620460E9B0499FEF747FF064683
:10A3900036B96E48007801280CD1FEF7F9FE09E0C5
:10A3A00000F04AFE03900020644941F8240003981D
:10A3B00000F046FE3046C6E7FFE7039800F040FE97
:10A3C0002820C0E72DE9F04706460F4614464FF017
:10A3D00000085F480078002804DD1120207000206C
:10A3E000BDE8F08700F028FE8046FF2E03D15448D8
:10A3F000006890F82A60514850F8265035B9404618
:10A4000000F01EFE432020700020E9E7012D06D158
:10A41000404600F015FE432020700020E0E705F1E3
:10A4200044013846FEF7C8FB8146404600F008FE6E
:10A43000002020704846D3E72DE9F04706468846BD
:10A4400014464FF0000942480078002803DD12202E
:10A450002070BDE8F08700F0EFFD8146FF2E03D1AC
:10A460003748006890F82A60344850F826502DB9D3
:10A47000484600F0E5FD43202070EAE7012D05D1B4
:10A48000484600F0DDFD43202070E2E74046FEF73D
:10A49000D3FB0746072F05DD484600F0D1FD4120DC
:10A4A0002070D6E7414605F14400FEF785FB48469B
:10A4B00000F0C6FD0020207000BFCAE770B5054659
:10A4C000002600F0B9FD06461C4850F8254024B986
:10A4D000304600F0B5FD462070BD012C04D1304659
:10A4E00000F0AEFD4320F7E794F8280000F00800E4
:10A4F00018B314F8280F20F00800207014F8280969
:10A5000040BBE08C38BB2C34A0780F490978084355
:10A510000D49087020780B49085C6178084314F8ED
:10A520002C19084A5054304600F08AFD074800783C
:10A53000012818D1FEF72CFE15E016E05C1700206C
:10A54000480000203D0000203C0000204200002088
:10A550003800002004E0FFE7304600F071FD02E023
:10A56000304600F06DFD0020B6E7304600F068FD93
:10A570004420B1E72DE9F04707460D464FF0000AA9
:10A5800000202860686000F057FD8246FF2F03D14D
:10A590005448006890F82A70534850F827402CB966
:10A5A000504600F04DFD4320BDE8F087012C04D15A
:10A5B000504600F045FD4320F6E7207C00F0010006
:10A5C00020B9504600F03CFD4520EDE70026D4F8C8
:10A5D0000C90D4F80880504600F032FD00E0761C64
:10A5E00058F8041B0029FAD0B0002860A9EB060037
:10A5F000800068600020D7E72DE9F04105464FF064
:10A60000000800F019FD8046FF2D05D1354800688F
:10A6100090F82A50012608E03248006890F82A0095
:10A62000A84201D1012600E000262F4850F825401D
:10A630002CB9404600F004FD4820BDE8F081012C13
:10A6400004D1404600F0FCFC4320F6E794F82C705F
:10A650002648C05D94F82D1088432449C855084603
:10A66000C05D30B994F82E10214800788843204905
:10A67000087094F8280040F0080084F8280040464C
:10A6800000F0DEFC012E01D1FEF782FD0020D4E7B0
:10A690002DE9F04105460E46002700F0CDFC0746A7
:10A6A000FF2D03D10F48006890F82A500E4850F84B
:10A6B00025402CB9384600F0C3FC2920BDE8F081C4
:10A6C000012C04D1384600F0BBFC4320F6E74C22B5
:10A6D00021463046FEF752FD384600F0B1FC00201E
:10A6E000ECE70000480000205C1700203D0000203F
:10A6F0003C00002070B50546002667480078002819
:10A7000000DD70BD002D23DD00F096FC0646634899
:10A71000006890F82C406248005D6049096891F833
:10A720002D1088435E4908550846005D40B95B48D6
:10A73000006890F82E105B480078884359490870EB
:10A7400056480068C584304600F07AFCFEF720FDCC
:10A7500000BFD6E72DE9F0470746884691461D46DB
:10A760004D480078002802DD5520BDE8F0874FF401
:10A770007A7068434FF47A71B0FBF1F14FF4616085
:10A780007843C8EB081200EB8200484400EB40021B
:10A79000C2EBC01001EBC004260CA4B22046FFF7A8
:10A7A000A9FF09E04FF40040FFF7A4FF4FF4004079
:10A7B000FFF7A0FF701E86B2002EF3DC0020D4E766
:10A7C00070B505460026202D01DB2A2070BD00F063
:10A7D00033FC0646344850F8254024B9304600F092
:10A7E0002FFC4320F2E7012C04D1304600F028FC76
:10A7F0004320EBE7E08C20B9304600F021FC5020EC
:10A80000E4E70020E08494F8280000F0370040B12D
:10A8100014F8280F20F03700207001206070283CC9
:10A8200002E0002084F8290094F8280000F00800D5
:10A83000A8B92C34A0781B49097808431949087035
:10A8400020781749085C6178084314F82C19144AD9
:10A850005054304600F0F4FBFEF79AFC02E030461C
:10A8600000F0EEFB0020B1E770B5002500F0E4FB3E
:10A8700005460E480468284600F0E2FB204670BDFD
:10A8800070B50446002500F0D7FB05460748046074
:10A89000284600F0D5FB70BD38000020480000209D
:10A8A0003D0000203C0000205C17002060000020DC
:10A8B00010B5FE480068FFF7BEFB10BDFC480068FD
:10A8C00008B900207047FA480168F94AC868106062
:10A8D0000020C8600861F7480088401CF54A1080D5
:10A8E000F5480088401EF44A10800846EAE708B59B
:10A8F0006A460021ED480068FFF7EBFA08BD2DE934
:10A90000F05F8046894692469B46DDE90B65EB4841
:10A910000078002804DD8B2028700020BDE8F09F1F
:10A92000FFF7E5FFFFF7CAFF04462CB9FFF7C0FFAA
:10A93000862028700020F1E7012084F83100C4F857
:10A940001880C4F81C9084F830A0C4F804B00A98A9
:10A95000A060BEB13046FEF76FF90746102F05DA4A
:10A96000314604F12000FEF727F90BE0232084F89C
:10A9700020000021212001558C202870FFF798FF2E
:10A980002046CBE7FFF794FF002028702046C5E75C
:10A99000002180F8311080F83010C16141614160C0
:10A9A00081603F2180F82010002221210A540021DB
:10A9B0000161BF490968C160BD490860BD49098896
:10A9C000491EBC4A1180BC490988491CBA4A1180F9
:10A9D000704730B5057D05F00704B94D05EBC4039C
:10A9E0001D68854205D1C168196039B100250D6126
:10A9F00004E00169C268CA6002B11161012580F8F2
:10AA000031500025C56005619D886D1E9D8030BD5B
:10AA100070B505460C462878642803D0892020703C
:10AA2000002070BDA5480078002803DD8B20207031
:10AA30000020F6E7FFF75BFF95F83100D8B1012859
:10AA40000FD002280ED003281BD12846FFF7C1FFE4
:10AA50002846FFF79DFFFFF72BFF00202070012005
:10AA6000DFE700BF2846FFF793FFFFF721FF002035
:10AA700020700120D5E7FFF71BFF87202070002002
:10AA8000CFE7FFF715FF8D2020700020C9E72DE9E3
:10AA9000F04105460E4614462878642804D08920E3
:10AAA00020700020BDE8F08184480078002803DD94
:10AAB000112020700020F5E7FFF719FF95F831000D
:10AAC00098B1012804D0022803D0032813D100BF75
:10AAD00000BF05F120013046FEF76EF80746FFF78C
:10AAE000E7FE002020703846DCE7FFF7E1FE872014
:10AAF00020700020D6E7FFF7DBFE8D2020700020BD
:10AB0000D0E770B504460D462078642803D089202C
:10AB10002870002070BD69480078002803DD8B2074
:10AB200028700020F6E7FFF7E2FE94F8310070B3DA
:10AB300001280DD0022825D003282FD16149606952
:10AB40000968461AFFF7B4FE002028703046E1E796
:10AB500094F8300001280CD0022809D1A06908B966
:10AB6000E66900E0A669FFF7A3FE0020287006E072
:10AB700000BFA669FFF79CFE0020287000BF00BF41
:10AB80003046C7E7FFF794FE00202870C2E7FFE7D2
:10AB9000FFF78EFE872028700020BBE7FFF788FEB6
:10ABA0008D2028700020B5E770B505460C46287842
:10ABB000642803D089202070002070BD3F480078B1
:10ABC000002803DD8B2020700020F6E7FFF78FFEC2
:10ABD00095F8316036B1012E05D0022E04D0032E37
:10ABE00006D102E000BF00BF00BF0020207002E0DD
:10ABF0008D20207000BF00BFFFF75AFE3046DCE713
:10AC000070B50B46032580F83150012B05D12D4E30
:10AC1000C5693668354445610CE085692DB9294E12
:10AC2000C56936683544456104E0264E8569366855
:10AC300035444561057D05F00704214D05EBC40150
:10AC40000D682DB908600025C56001258D8006E0DE
:10AC50000A680860C26010618D886D1C8D800025B7
:10AC6000056170BD70B505460C462878642803D090
:10AC700089202070002070BD10480078002803DD76
:10AC80008B2020700020F6E7FFF731FE95F83100A9
:10AC900068B3012820D002281FD003282DD12846D0
:10ACA000FFF797FE002128460EE000006C00002010
:10ACB000740000206600002064000020380000209E
:10ACC000E01D002068000020FFF79AFFFFF7F0FD6D
:10ACD000002020700120CEE700BF00212846FFF7AA
:10ACE0008FFFFFF7E5FD002020700120C3E7FFF78D
:10ACF000DFFD872020700020BDE7FFF7D9FD8D2004
:10AD000020700020B7E72DE9F04105460F46904638
:10AD10001C462878642804D0892020700020BDE8D3
:10AD2000F08176480078002803DD8B202070002019
:10AD3000F5E7FFF7DCFD95F83100002832D0012857
:10AD40002AD0022827D0032832D12846FFF741FE17
:10AD500000202070B7B1032F02D0042F13D108E0D8
:10AD60006E681EB12846A968B04701E08F202070A8
:10AD70000CE06E681EB141462846B04701E08F20C6
:10AD8000207003E002E08420207000BF00BFFFF7C6
:10AD90008FFD0120C3E700BFFFF78AFD8E202070E2
:10ADA0000120BCE7FFF784FD872020700020B6E774
:10ADB000FFF77EFD8D2020700020B0E710B55048D1
:10ADC0000068FFF738F90446204610BD08B500BFFB
:10ADD0006A4600214A480068FFF77BF8FFF787FDC5
:10ADE00048480068401C474908600846007800F061
:10ADF0000708454800EBC8073C681AE0E668414987
:10AE000060690968884213D1656815B12046A16858
:10AE1000A8472046FFF7DDFD94F83000022804D152
:10AE200001212046FFF7ECFE02E0022084F8310009
:10AE30003446002CE2D1FFF73BFDC9E700B587B0EF
:10AE4000032000214022314BCDE90132CDE903102E
:10AE50004FF6FD701E232D4AFC3200902C48FFF760
:10AE60005BFA06AA2BA11E20FFF7E6FA07B000BD89
:10AE700070B54FF4D0712948FDF74FFF40212248AB
:10AE8000FDF74BFF254C04F1340600250FE064204C
:10AE90002070002084F83100E6603F2084F8200014
:10AEA00000212120015534343436681C85B2072D29
:10AEB000EDDB64202070002084F83100E0603F204A
:10AEC00084F8200000212120015500200D49086050
:10AED0001349088008201349088010481249086067
:10AEE0000120FEF761FF114908600020FEF75CFFBA
:10AEF00003490860FFF7A2FF70BD00003800002082
:10AF00007000002068000020E01D0020E01C0020F0
:10AF1000CDAD00084F532D546D720000401B002032
:10AF20006600002064000020740000206C000020F7
:10AF30000020404908807047704710B504462046FD
:10AF400000F05DFC10BD10B50446204600F058FC32
:10AF500010BD10B500F055FC10BD10B500F052FC4E
:10AF600010BD70B5044610464FF080750560051F92
:10AF700028462C606FF00106051F28462E604FF012
:10AF80001236051F28462E604FF00336051F28464F
:10AF90002E604FF00236051F28462E607610051FE2
:10AFA00028462E60051F284629604FF01136051FE0
:10AFB00028462E604FF01036051F28462E604FF0B1
:10AFC0000936051F28462E604FF00836051F284613
:10AFD0002E604FF00736051F28462E604FF00636CC
:10AFE000051F28462E604FF00536051F28462E60A7
:10AFF0004FF00436051F28462E6070BD10B500F0D6
:10B0000002FC10BD10B50446204600F0FDFB10BD4B
:10B0100010B500F0FAFB07480088401C054908807D
:10B0200008460088012803DB00200880FFF7C6FEE1
:10B0300010BD000078000020EFF3108072B670475A
:10B0400080F31088704724484FF000010170002001
:10B0500080F309881D480121017020484FF080517C
:10B06000016062B6FEE71D484FF0805101607047F5
:10B070001A484FF0805101607047EFF3098028B102
:10B08000203880E8F00F12490968086000B50A48C6
:10B0900080475DF804EB0B480B490A7802700C48B6
:10B0A0000C490A680260106890E8F00F203080F3C5
:10B0B00009884EF0040E7047FDAF0008798E000835
:10B0C000380000203A0000203B0000204200002011
:10B0D000480000205000002020ED00E004ED00E0DA
:10B0E00072B6704762B67047EFF3108072B6704761
:10B0F00080F310887047000070B503460C464FF689
:10B10000FF71002600220FE0985C4140002508E016
:10B1100001F00106491016B14AF201004140681CD5
:10B12000C5B2082DF4DB521CA242EDDB88B270BD23
:10B13000F0B503460E461546002731460A2D05D0C8
:10B14000102D03D0002008703046F0BD33B93020F8
:10B1500001F8010B002008703046F6E70A2D18D1DF
:10B16000002B03DA2D2001F8010B5B425D4A0DE054
:10B1700093FBF2F404B937B104F1300001F8010B8C
:10B1800004FB123301270A2092FBF0F2002AEFDCC5
:10B1900010E007220CE0900043FA00F000F00F04EA
:10B1A00004B927B15048005D01F8010B0127521E78
:10B1B000002AF0DA002008703046C6E72DE9F05F7B
:10B1C00004460E4617469846404602F08DFD8346DB
:10B1D000584602F0A5FD8246414602F0B9FE81467E
:10B1E0000025002E33D0052E06D160195A463FA106
:10B1F00002F0C4FA054630E0042E06D160195A4622
:10B200003CA102F0BBFA054627E0032E06D16019E7
:10B210005A463AA102F0B2FA05461EE0022E06D1C5
:10B2200060195A4637A102F0A9FA054615E0012E29
:10B2300006D160195A4635A102F0A0FA05460CE085
:10B2400060195A4633A102F099FA054605E06019E3
:10B250005A4630A102F092FA05460021484602F013
:10B2600077FD01D289F00049002F1DDD2E222846EE
:10B270006D1C225413E02849484602F09DFD81468A
:10B28000484602F031FD0A2190FBF1F201FB120A5F
:10B2900028466D1C01190A225046FFF749FF381E47
:10B2A000A7F10101CFB2E6DC002060552046BDE8E1
:10B2B000F09F10B5024600200CE00B1EA1F1010426
:10B2C000E1B200D10CE000EB800358001378303B72
:10B2D0001844521C1378302B02DB1378392BECDD29
:10B2E00000BF10BD00CA9A3B4EE10008253035640E
:10B2F0000000000025303464000000002530336475
:10B300000000000025303264000000002530316468
:10B3100000000000256400000000204170B50546D3
:10B320000C460D2D72D2DFE805F09C0714212E3B50
:10B330004855606B77828F002CB94FF48071FE48BE
:10B3400001F08FF804E04FF48071FB4801F087F8BA
:10B3500088E02CB94FF40061F74801F082F804E06E
:10B360004FF40061F44801F07AF87BE02CB94FF417
:10B370008051F14801F075F804E04FF48051EE4837
:10B3800001F06DF86EE02CB94FF48061EB4801F0EC
:10B3900068F804E04FF48061E84801F060F861E08B
:10B3A0002CB94FF40061E54801F05BF804E04FF47C
:10B3B0000061E24801F053F854E02CB94FF4805199
:10B3C000DE4801F04EF804E04FF48051DB4801F014
:10B3D00046F847E024B90421D94801F042F803E0D7
:10B3E0000421D74801F03BF83CE024B92021D5489E
:10B3F00001F037F803E02021D24801F030F831E0C5
:10B400002CB94021CF4801F02CF804E029E040217C
:10B41000CC4801F024F825E024B98021C94801F086
:10B4200020F803E08021C74801F019F81AE02CB990
:10B430004FF48071C34801F014F804E04FF48071B8
:10B44000C04801F00CF80DE02CB94FF40071BD4874
:10B4500001F007F804E04FF40071BA4800F0FFFF74
:10B4600000E000BF00BF70BD10B504462CB94FF41A
:10B470008051B44800F0F5FF04E04FF48051B1482A
:10B4800000F0EDFF10BD10B504462CB94FF480411B
:10B49000AC4800F0E6FF04E04FF48041A94800F01A
:10B4A000DEFF10BD10B504462CB94FF40051A5487D
:10B4B00000F0D7FF04E04FF40051A24800F0CFFFA6
:10B4C00010BD10B5044624B980219C4800F0C9FF86
:10B4D00003E08021994800F0C2FF10BD10B504467A
:10B4E0002CB94FF40041974800F0BBFF04E04FF443
:10B4F0000041944800F0B3FF10BD10B5044624B9D4
:10B5000040218E4800F0ADFF03E040218B4800F061
:10B51000A6FF10BD70B5044600250FE0C4F3C0308F
:10B52000FFF7A2FF0120FFF7D9FF4FF6FF7000EAF7
:10B5300044040020FFF7D2FF681CC5B2102DEDDBDC
:10B5400070BD70B5044600250FE0C4F3C030FFF7AE
:10B550009AFF0120FFF7C2FF4FF6FF7000EA440494
:10B560000020FFF7BBFF681CC5B2102DEDDB70BDDE
:10B5700070B505460C460120FFF794FF2846FFF7FB
:10B58000C9FF2046FFF7C6FF0120FFF7B6FF0020E6
:10B59000FFF7B3FF0020FFF785FF70BD70B50546CC
:10B5A0000C460120FFF78DFF2846FFF7CAFF204613
:10B5B000FFF7C7FF0120FFF7A0FF0020FFF79DFF67
:10B5C0000020FFF77EFF70BD10B50120FFF76AFF76
:10B5D00010BD10B50120FFF774FF10BD30B5014656
:10B5E000002000BF2EE001EB4103574C04EBC303E6
:10B5F00013F810301C0101EB4103534D05EBC3055B
:10B6000043005B1CEB5C04EB2312504B23F810202F
:10B610004B1C03EB43034C4C04EBC30313F81030F7
:10B620001C014B1C03EB4303474D05EBC3054300D3
:10B630005B1CEB5C04EB2312444B183323F8102003
:10B64000431CD8B20C28CEDB30BD70B505460C4685
:10B65000FFF7BFFFFFF7B8FF3D4805702046FFF733
:10B66000BDFF70BD10B50024FFF7FEF83949096829
:10B67000401AB0F5487F0DD3FFF7F6F8354908605A
:10B6800035490978481C00EBD0714910A0EB410105
:10B69000314A117000249FE02D48007800283BD1EA
:10B6A000FFF792FF2C480078B0B92848008B40F093
:10B6B0000100264908830846C08D40F00101234857
:10B6C000C185008840F40060204908800846C08A8F
:10B6D00040F40060C88215E01C48008B20F0010097
:10B6E0001A4908830846C08D20F001011748C1851A
:10B6F000008820F40060154908800846C08A20F4BC
:10B700000060C882114A183232F81410183A32F820
:10B710001400FFF72DFF4DE0FFF75BFF0E480078A8
:10B7200048BB0A48008B40F00100084908830846DE
:10B73000C08D40F0010111E00008014000100140FF
:10B7400000140140000C014084000020781E0020FD
:10B7500004020020080200200C0200202048C185BD
:10B76000008840F400601E4908800846C08A40F402
:10B770000060C88215E01A48008B20F001001849CB
:10B7800008830846C08D20F001011548C185008856
:10B7900020F40060124908800846C08A20F4006046
:10B7A000C8820F4A183232F81410183A32F81400CE
:10B7B000FFF7F4FE611CC8B20021FFF7AFFD0123C3
:10B7C000002211461046FEF7C5FF611CC8B20121D8
:10B7D000FFF7A4FD601CC4B20C2CFFF65DAF10BDDA
:10B7E000781E0020014605E0002001E0421CD0B296
:10B7F0006428FBDB0A1EA1F10101F5D170477047F7
:10B8000070477047704770477047704710B501F038
:10B81000B5F84FF4803001F0D0F801F00DF904468E
:10B82000012C27D1102001F0EFFC022001F0D6FC02
:10B83000002001F04AF9002001F059F9A00201F0BE
:10B840004DF9E00301F06EF94FF4E011200401F02E
:10B850001FF9012001F028F900BF392001F0D0F8CC
:10B860000028FAD0022001F022F900BF01F028F9E7
:10B870000828FBD101213D2001F0F0F901218803C6
:10B8800001F0ECF90121480401F0F5F910BD08B50B
:10B890004FF40041080300F07DFF4FF4E06000F03A
:10B8A000C2FE25208DF8000001208DF80100002047
:10B8B0008DF8020001208DF80300684600F0B9FE03
:10B8C00026208DF8000002208DF8010000208DF860
:10B8D000020001208DF80300684600F0AAFE08BDB2
:10B8E00010B5FFF7FDFB10BD10B58C4801F049F90C
:10B8F0008A48406810BD10B545F2555000F032FE40
:10B90000032000F032FE4FF4006000F031FE00F042
:10B9100032FE00F035FE10BD10B500F02CFE10BD5B
:10B9200010B50121C80201F0A6F94F2001F041FC39
:10B9300010BD10B586B04FF4A06000F074FE002278
:10B940001146774800F062FF03221146754800F067
:10B950005DFF01A801F015F94FF47A710298B0FB70
:10B96000F1F4204601F0F6F9042001F0DFF901209E
:10B9700001F0F4F9012001F00CFA06B010BD10B589
:10B98000FFF75AFB044668480078401C6649087077
:10B990002046FFF755FBFDF7BFFAFDF76DFA10BD26
:10B9A00008B54FF4C850ADF8000014208DF803001E
:10B9B00003208DF8020069465C4800F0A3FC4FF4B8
:10B9C000E050ADF8000014208DF8030003208DF83E
:10B9D00002006946564800F095FC0420ADF80000CE
:10B9E00014208DF8030003208DF8020069465148A9
:10B9F00000F088FC4FF47870ADF8000014208DF84A
:10BA0000030003208DF8020069464B4800F07AFCE1
:10BA10004FF47040ADF8000014208DF803000320AF
:10BA20008DF802006946444800F06CFCC020ADF877
:10BA3000000014208DF8030003208DF802006946F1
:10BA40003B4800F05FFC8020ADF8000048208DF8F6
:10BA5000030003208DF802006946344800F052FCD0
:10BA600008BD00B587B04FF40070ADF8180018207D
:10BA70008DF81B0003208DF81A0006A92B4800F052
:10BA800041FC4FF48060ADF8180004208DF81B00D5
:10BA900006A9264800F036FC0121880301F0DEF8F3
:10BAA0000020ADF80000ADF802004FF40070ADF8D2
:10BAB00004000020ADF806006946204801F038FA7D
:10BAC0004FF4165002900020ADF80C00ADF80E00B7
:10BAD000ADF81000ADF814000C20ADF8120002A96A
:10BAE000164801F0CEF9012240F22551134801F029
:10BAF00042FA0121114801F032FA07B000BD10B539
:10BB0000FFF717FF4FF4E13000F0EDF84FF4E130AC
:10BB100000F032F9FFF744FF10BD0000A81E00201E
:10BB20009AC302009C8202003800002000080140F5
:10BB30000010014000140140000C01400038014099
:10BB4000FEE7FEE7FEE7044800470000034804491B
:10BB5000044A054B70470000ED800008504100206A
:10BB600050450020504300205043002010B50446AB
:10BB70004021A74801F0BBFA2146A54801F057FA39
:10BB800000BF4021A24801F0A9FA0028F9D010BD59
:10BB90002DE9F04104460D46002600272E4605E01B
:10BBA00039467A1CD7B2605CFFF7E0FF301EA6F181
:10BBB0000101CEB2F4D1BDE8F08170B505462C4646
:10BBC00003E014F8010BFFF7D1FF20780028F8D12B
:10BBD00070BD70B5002502241DE08E4800788E49A6
:10BBE000097888420ED08C4801780078401C8A4A37
:10BBF0001070322091FBF0F200FB121087490D5CAF
:10BC0000284670BD601EC4B22CB10123002211462B
:10BC10001046FEF79FFD002CDFD1601EF1E77D4846
:10BC200000787D490870704710B5044640217C4873
:10BC300001F05DFA21467A4801F0F9F900BF402190
:10BC4000774801F04BFA0028F9D010BD2DE9F041FA
:10BC500004460D46002600272E4605E039467A1C8C
:10BC6000D7B2605CFFF7E0FF301EA6F10101CEB253
:10BC7000F4D1BDE8F08170B505462C4603E014F818
:10BC8000010BFFF7D1FF20780028F8D170BD70B507
:10BC9000002502241EE06348008863490988884221
:10BCA0000FD0614908880988491C5F4A1180C11773
:10BCB00000EB11610912A0EB01215C4A555C28469A
:10BCC00070BD601EC4B22CB1012300221146104683
:10BCD000FEF740FD002CDED1601EF1E751480088E0
:10BCE00051490880704710B588B004464FF4007081
:10BCF000ADF8040003208DF8060018208DF8070029
:10BD000001A94B4800F0FEFA4FF48060ADF8040042
:10BD100048208DF8070001A9454800F0F3FA049483
:10BD20000020ADF81400ADF81600ADF81800ADF81D
:10BD30001C000C20ADF81A000020ADF80800ADF88A
:10BD40000A004FF40070ADF80C000020ADF80E00B2
:10BD500002A92F4801F0ECF8012240F225512C48AD
:10BD600001F009F904A92A4801F08BF801212848BB
:10BD700001F0F5F808B010BD10B588B004460121F7
:10BD8000480400F078FF0420ADF8040003208DF88B
:10BD9000060018208DF8070001A9254800F0B2FA26
:10BDA0000820ADF8040004208DF8070001A9204800
:10BDB00000F0A8FA04940020ADF81400ADF81600C5
:10BDC000ADF81800ADF81C000C20ADF81A000020EA
:10BDD000ADF80800ADF80A004FF40070ADF80C00A3
:10BDE0000020ADF80E0002A90D4801F0A1F80122D3
:10BDF00040F225510A4801F0BEF804A9084801F0B4
:10BE000040F80121064801F0AAF808B010BD000072
:10BE1000003801401502002016020020BC3E002020
:10BE200000440040180200201A020020EE3F0020CB
:10BE3000000801402DE9F0470024002501260227D3
:10BE40004FF004084FF0010901F01CFC0546EF48D3
:10BE500000682840ED490968884234D001F00EFCA2
:10BE60000446EA4800682843E849086001F068FA97
:10BE70008146E6480068401C28B1E4480068C04399
:10BE800001F01BFB814604F00700072811D004F0E5
:10BE9000010000B9002604F0020000B9002704F0F8
:10BEA000040008B94FF0000842463946304601F018
:10BEB000B6FBB9F1040F06D10121C80200F0DBFE88
:10BEC0004F2001F076F9BDE8F08701B50020009918
:10BED000C1F30A021AB1012202EBD12000E0C80A24
:10BEE00008BD10B501F09BF90920C9490860084652
:10BEF000017801208840401EC043C449086001F019
:10BF0000C1FBC24909680840C0490968884201D09C
:10BF1000FFF790FFBF48C0490860352001F0EBFBF8
:10BF20004FF4C840FFF7D1FFBC4908600020BC496E
:10BF3000086010E0B8490968B94A12684FF4006314
:10BF400003FB021001F0B2F9B6490870B44800686A
:10BF5000401CB3490860B2480068B049096888428B
:10BF600003D2B04800780428E4D010BD70B5044670
:10BF70000D4601F054F9A4F10060000BA4490860DB
:10BF80000846017801208840401EC0439F49086050
:10BF900001F078FB9D49096808409C49096888427E
:10BFA00001D0FFF747FF9C480460352001F0A3FB58
:10BFB0002846FFF78AFF99490860002098490860E1
:10BFC00010E095490968964A12684FF4006303FB34
:10BFD000021001F06BF99349087091480068401C09
:10BFE0008F4908608E4800688C490968884203D2EE
:10BFF0008C4800780428E4D070BD2DE9F041044657
:10C000000E461546844804608748066000271EE0F7
:10C010008548006801688048006801F0D8F98149C6
:10C0200008707D48006800687F490968096888428F
:10C0300002D00120BDE8F08177480068001D7649F4
:10C04000086079480068001D774908603F1DAF42CD
:10C0500004D26019704909688842D9D80020E9E7FC
:10C060002DE9F04104460D461646B4F5C84F02DBF3
:10C070000120BDE8F08104EB0608B8F5C84F01DBEC
:10C080000120F6E701F0CBF86248204462490860DD
:10C0900000270AE060480068007828706D1C5E4840
:10C0A0000068401C5C4908607F1CB742F2DB01F06D
:10C0B000BCF80020DDE72DE9F04105460E461746A5
:10C0C0005A4805EB000801F0AAF8A8F10060000B3F
:10C0D0004F4908600846017801208840401EC0434F
:10C0E0004A49086001F0CEFA4849096808404749C2
:10C0F0000968884201D0FFF79DFE4748C0F80080DC
:10C10000352001F0F8FA4FF40060FFF7DEFE4349F6
:10C11000086000204249086010E03F490968404A31
:10C1200012684FF4006303FB021001F0BFF83D49B1
:10C1300008703B480068401C39490860384800686E
:10C1400036490968884203D2364800780428E4D08A
:10C1500035480660002413E03348006801682E4823
:10C16000006801F034F92F4908702B480068001D61
:10C17000294908602C480068001D2B490860241DCF
:10C18000BC42E9D301F051F8BDE8F0812DE9F0415E
:10C1900005460E46174601F042F8244828441E4939
:10C1A000086000240AE01C480068007830551A48EE
:10C1B0000068401C18490860601CC4B2BC42F2DB35
:10C1C00001F033F8BDE8F081194A134B1A600021E1
:10C1D0000BE0114A126812780270401C0E4A126875
:10C1E000521C0D4B1A604A1CD1B20C29F1DB70476E
:10C1F00010B501F04AFA012806D001F010F801202C
:10C2000001F0B6F900F0CDFA10BD000020020020C8
:10C210001C020020009400083402002028020020A4
:10C22000240200202C0200203002002000C003085D
:10C23000E8F7FF1F10B50446C649601A8C422FD09C
:10C2400009DCC548204480B1B0F5806F16D0B0F548
:10C25000006F4AD11BE0B0F5806F2AD0B0F5006FB7
:10C2600030D0B0F5406F40D135E00121042000F01E
:10C270000FFD0021042000F00BFD37E00121082014
:10C2800000F006FD0021082000F002FD2EE0012153
:10C29000102000F0FDFC0021102000F0F9FC25E04A
:10C2A0000121202000F0F4FC0021202000F0F0FC0F
:10C2B0001CE00121402000F0EBFC0021402000F0B8
:10C2C000E7FC13E00121802000F0E2FC0021802047
:10C2D00000F0DEFC0AE00121080200F0D9FC002198
:10C2E0004FF4807000F0D4FC00E000BF00BF10BD30
:10C2F00010B50121084600F0CBFC0021012000F020
:10C30000C7FC10BD2DE9F0410246002500260020A3
:10C3100000230024002791F803C00CF00F0591F8CA
:10C3200003C00CF0100CBCF1000F03D091F802C058
:10C330004CEA050591F800C0BCF1000F31D014683B
:10C3400000202BE04FF0010C0CFA00F3B1F800C014
:10C350000CEA03069E4220D183004FF00F0C0CFA2A
:10C3600003F7BC4305FA03FC4CEA040491F803C04C
:10C37000BCF1280F06D14FF0010C0CFA00FCC2F8FA
:10C3800014C00AE091F803C0BCF1480F05D14FF08A
:10C39000010C0CFA00FCC2F810C0401C0828D1D3D4
:10C3A0001460B1F800C0BCF1FF0F34DD5468002008
:10C3B0002EE000F1080C4FF0010808FA0CF3B1F878
:10C3C00000C00CEA03069E4221D183004FF00F0CFF
:10C3D0000CFA03F7BC4305FA03FC4CEA040491F899
:10C3E00003C0BCF1280F05D100F1080C08FA0CF8C5
:10C3F000C2F8148091F803C0BCF1480F07D100F1D6
:10C40000080C4FF0010808FA0CF8C2F81080401C24
:10C410000828CED35460BDE8F0814FF6FF7101804B
:10C42000022181700421C170704702460020936888
:10C430000B400BB1012000E00020704701468868E6
:10C4400080B2704702460020D3680B400BB1012038
:10C4500000E0002070470146C86880B27047016163
:10C460007047416170470AB1016100E04161704766
:10C47000C16070474FF480320A43826181618261FA
:10C4800082698269704702460020344B18684FF673
:10C490008073184040EA02100843304B1860704720
:10C4A0002F49C8617047F0B50A46002300240021D7
:10C4B00000252A4E7168C0F3034583B200F440168C
:10C4C000B6F5401F08D121F07061244E766826F041
:10C4D0007066224F7E6012E000F48016B6F5801F71
:10C4E00006D1032606FA05F4A14341F0706106E087
:10C4F000460D360103FA06F6B14341F0706122B1F0
:10C50000460D360103FA06F63143144E7160F0BD54
:10C5100030B500228B071C0F0F2303FA04F20F4BD8
:10C5200008338C1053F8243093430C4C08348D108E
:10C5300044F8253023468C1053F824308C07240F00
:10C5400000FA04F42343054C08348D1044F82530D8
:10C5500030BD00000014014000F8FEBF00000140A3
:10C56000000020420E49086070470D49486070473E
:10C570000B49886070474AF6AA200949086070474D
:10C580004CF6CC4006490860704701460020044A3A
:10C59000D2680A400AB1012000E000207047000084
:10C5A000003000400020411EED4A11600A09EC49AC
:10C5B0008039C1F88420411E4FF0E022C2F8801279
:10C5C0000A09E8490A6000BF04E00022E64941F890
:10C5D0002020401C0F28F8D3704700204FF0206126
:10C5E000E24A11600021121D1160E149121D116023
:10C5F0000021121D1160121D116000BF05E0002214
:10C60000DA49143141F82020401C0328F7D30021D7
:10C61000D64A20321160491E121D1160121D116090
:10C62000121D11607047D2490143D04A083211608F
:10C630007047F0B500210022002300250F24C678A2
:10C64000002E35D0C94E0836366806F4E066C6F5C9
:10C65000E066310AC1F10405CC40467806FA05F1DE
:10C6600086782640314309010678B607F60EB140B8
:10C67000BD4E0778BF1056F827200678B607F70E8C
:10C68000FF2606FA07F39A4319400A43B64E077885
:10C69000BF1046F82720067806F01F070126BE4087
:10C6A00007787F11BF0007F1E027C7F800610BE0B2
:10C6B000067806F01F070126BE40A94F90F800C07B
:10C6C0004FEA6C1C47F82C60F0BD002101704170EE
:10C6D0008170C170704710B501F03DF810BD10B504
:10C6E00001F03BF810BD10B501F039F810BD10B5E0
:10C6F00001F037F810BD10B50446200101F033F801
:10C7000010BD10B501F032F810BD98480068C0F3B4
:10C710000930704710B501460020002201F01F04C7
:10C72000012303FA04F28E4B80334C1153F824306A
:10C730001340934201D1012000E0002010BD8D493B
:10C740000860704700F01F0201219140854A121FC6
:10C75000431142F82310704784480068C0F3090071
:10C76000704710B501460020002201F01F0401238C
:10C7700003FA04F27B4B7C334C1153F82430134002
:10C78000934201D1012000E0002010BD7748001F36
:10C7900000687047784A0A400243744B1B1D1A60B8
:10C7A00070477348001D7149083108607047704830
:10C7B000401C6E4908310860704739B16B4A0C3231
:10C7C00012680243694B0C331A6006E0674A0C3268
:10C7D00012688243654B0C331A60704710B5002213
:10C7E00000F01F04012303FA04F239B15F4B203338
:10C7F0001B6813435D4C2034236006E05B4B203301
:10C800001B689343594C2034236010BDF0B5034698
:10C810000C4615460020FF2200260021534F083702
:10C820003F6807F4E067C7F5E067390AC1F1040023
:10C83000CA4004FA00F105EA02073943090103F08E
:10C84000C0008009C3F30122D700B9404FEAC20CEF
:10C85000FF2707FA0CF6454F143757F82070B743F7
:10C86000DFF808C10CF1140C4CF82070674657F83B
:10C8700020700F434CF82070F0BD10B50246002028
:10C8800000230021910A01F00F01012404FA01F1B3
:10C89000364C2034246804EA01038B4201D1012084
:10C8A00000E0002010BD002100F01F012F4A126897
:10C8B00001238B401A432D4B1A60704710B500219D
:10C8C00000F01F01294A12684B1E01249C4022439C
:10C8D000264B1A6010BD10B502460020002300212F
:10C8E000C2F38331012404FA01F1204C203424687E
:10C8F00004EA01038B4201D1012000E0002010BDB9
:10C9000030B50146002000220023C1F38142C1F36B
:10C9100001531AB9154C2834206811E0012A0CD1B2
:10C92000124C24342468DD0024FA05F0022B02D0D6
:10C9300000F00F0004E0C0B202E00C4C2C34206880
:10C9400030BD014600200022C1F380521AB9074BC6
:10C950003033186802E0054B343318687047000024
:10C9600080E100E084E200E000E400E004ED00E0AB
:10C970000000FA0500EF00E080FFFF1FE0480068BC
:10C9800040F00100DE49086008464068DD49084083
:10C99000DB49486008460068DB490840D849086020
:10C9A0000846006820F4802008600846406820F4AB
:10C9B000FE004860002088607047D149096821F472
:10C9C0008031CF4A11601146096821F4802111603D
:10C9D000B0F5803F03D0B0F5802F0ED106E0C849F6
:10C9E000096841F48031C64A116007E0C44909680A
:10C9F00041F4A021C24A116000E000BF00BF7047AF
:10CA000010B501460022002300204A11012A02D15C
:10CA1000BB4C236806E0022A02D1B94C236A01E02C
:10CA2000B74C636A01F01F02012494401C400CB112
:10CA3000012000E0002010BD10B5002400BF31200F
:10CA4000FFF7DEFFB1490870B1480068401CB049EB
:10CA50000860AE48007828B90846006840F2FF1127
:10CA60008842ECD13120FFF7CBFF08B1012400E070
:10CA70000024204610BD01460020A14A106820F085
:10CA8000F80040EAC10010607047A2490860704792
:10CA9000024600209A4B586820F47C1042EA0103B9
:10CAA0001843974B586070479A490866704701468B
:10CAB0000020934A506820F00300084350607047FC
:10CAC0008F48406800F00C007047014600208C4AF7
:10CAD000506820F0F0000843506070470146002085
:10CAE000874A506820F4E060084350607047014670
:10CAF0000020834A506820F4605040EAC100506032
:10CB0000704729B17E4A527A02437D4B5A7204E043
:10CB10007B4A527A82437A4B5A7270477D49D831A8
:10CB20000860704701460020754A506820F4404074
:10CB30000843506070470021714A20321170704ADA
:10CB400082F82010012802D004280AD104E0012133
:10CB50006B4A2032117005E00521694A20321170BC
:10CB600000E000BF00BF70476B4908607047644930
:10CB7000096A0143624A1162704767494439086093
:10CB8000704730B500210022002400235C4D6D6801
:10CB900005F00C0121B1042905D0082923D105E0B5
:10CBA0005E4D056022E05D4D05601FE0544D6D68EF
:10CBB00005F47012022505EB9242514D6D6805F4A3
:10CBC00080341CB9564D554305600BE04C4D6D68E3
:10CBD00005F400351DB1524D5543056002E04F4D3F
:10CBE0005543056002E04D4D056000BF00BF444D58
:10CBF0006D6805F0F00109094A4D6B5C0568DD4080
:10CC000045603F4D6D6805F4E061090A454D6B5C78
:10CC10004568DD4085603A4D6D6805F46051C90A8C
:10CC2000404D6B5C4568DD40C560354D6D6805F471
:10CC30004041890B3C4D6B5CC568B5FBF3F5056164
:10CC400030BD29B12E4A526902432D4B5A6104E08E
:10CC50002B4A526982432A4B5A61704729B1284AAC
:10CC600092690243264B9A6104E0254A9269824305
:10CC7000234B9A61704729B1214AD2690243204B64
:10CC8000DA6104E01E4AD26982431D4BDA617047C3
:10CC900029B11B4AD2680243194BDA6004E0184AF2
:10CCA000D2688243164BDA60704729B1144A126980
:10CCB0000243134B1A6104E0114A12698243104B7C
:10CCC0001A61704714494039086070471149C864B7
:10CCD00070470B49C87170470948406A40F080703E
:10CCE00007494862704701460020054A92680A4099
:10CCF0000AB1012000E000207047014988727047A6
:10CD0000001002400000FFF8FFFFF6FE4C0200207A
:10CD100050020020000042428004424200127A0089
:10CD200000093D005FE100086FE10008042808D118
:10CD30004FF0E021096941F004014FF0E022116158
:10CD400007E04FF0E021096921F004014FF0E022F3
:10CD5000116170474FF0E02148617047012808D108
:10CD60004FF0E021096941F001014FF0E02211612B
:10CD70000EE0811C41B94FF0E021096921F0010169
:10CD80004FF0E022116103E000214FF0E0229161B9
:10CD9000704740B14FF0E021096941F002014FF0C6
:10CDA000E022116107E04FF0E021096921F0020162
:10CDB0004FF0E022116170474FF0E020806970472A
:10CDC00010B50146002200230020CB10022B03D116
:10CDD0004FF0E024226902E04FF0E024E2690124F0
:10CDE0008C4014400CB1012000E0002010BD000078
:10CDF00010B50446D749601A8C422BD006DCD648C1
:10CE0000204498B1B0F5806F38D119E0B0F5806F4B
:10CE10002AD0B0F56C4F31D101218803FFF738FFDC
:10CE200000214FF48040FFF733FF28E00121480440
:10CE3000FFF73BFF00214FF40030FFF736FF1EE005
:10CE400001218804FFF731FF00214FF48020FFF714
:10CE50002CFF14E00121C804FFF727FF00214FF445
:10CE60000020FFF722FF0AE001210805FFF71DFF60
:10CE700000214FF48010FFF718FF00E000BF00BF53
:10CE800010BD2DE9F04786B005460E460024A246A7
:10CE900000BF00BF00272F462C8A4CF6FF700440CD
:10CEA000F08804432C82AC894EF6F3100440B0881D
:10CEB00031890843718908430443AC81AC8A4FF639
:10CEC000FF400440B0890443AC8201A8FFF759FE3B
:10CED000A248874202D1DDF810A001E0DDF80CA0E5
:10CEE0000AEBCA0000EB0A1031688900B0FBF1F8C8
:10CEF0006420B8FBF0F004012009642101FB1089D3
:10CF0000322000EB0910B0FBF1F000F00F000443F9
:10CF10002C8106B0BDE8F0874FF416510160002166
:10CF20008180C18001810C21418100218181704774
:10CF300010B502460020108A4FF2FF0318400B88FC
:10CF40004C8823438C882343CC8823431843108286
:10CF500010BD0021018041808180C180704721B1D6
:10CF6000828942F40052828104E082894DF6FF7387
:10CF70001A4082817047F0B5034600240026002540
:10CF800000201846C1F3421401F01F06012707FADA
:10CF900006F5012C01D10C3004E0022C01D1103037
:10CFA00000E014301AB107682F43076002E00768F9
:10CFB000AF430760F0BD1AB1838A0B43838202E05E
:10CFC000838A8B4383827047028A4FF6F0731A403C
:10CFD0000282028A0A430282704782894FF2FF73FB
:10CFE0001A40828182890A438281704721B18289F5
:10CFF00042F00202828104E082894FF6FD731A40FA
:10D0000082817047028A4FF6DF731A400282028AD9
:10D010000A430282704721B1028A42F480420282AE
:10D0200004E0028A4BF6FF731A4002827047C1F394
:10D0300008028280704701468888C0F30800704764
:10D04000818941F0010181817047028BD2B2028354
:10D05000028B42EA012202837047028B02F47F4274
:10D060000283028B0A430283704721B1828A42F015
:10D070002002828204E0828A4FF6DF731A408282A5
:10D08000704721B1828A42F01002828204E0828AD3
:10D090004FF6EF731A408282704721B1828A42F0C4
:10D0A0000802828204E0828A4FF6F7731A40828275
:10D0B0007047828A4FF6FB731A408282828A0A4343
:10D0C0008282704721B1828A42F00202828204E0A9
:10D0D000828A4FF6FD731A40828270470246002012
:10D0E00013880B400BB1012000E000207047CA43B9
:10D0F0000280704770B502460B46002400210025CF
:10D100000020C3F3421503F01F01012606FA01F1C6
:10D11000012D02D19689314006E0022D02D1168AF6
:10D12000314001E0968A31401C12012606FA04F4CF
:10D130001688344011B10CB1012000E0002070BD10
:10D1400010B5002200230A1201249440A3B2DC434C
:10D15000048010BD004C004000BCFFBF00380140FF
:10D1600010B50121C802FFF7A0FD00214FF40060B7
:10D17000FFF79BFD10BD0021164A126822F4C07112
:10D180000143144A116070470021124A126822F0CC
:10D190007F0100F07F0211430E4A116070470120A9
:10D1A0000D490860704700F07F010A4A121F1160A4
:10D1B000704740F08001074A121F11607047054810
:10D1C000001D0068C0B2704700200249091D0860B8
:10D1D00070470000042C0040A4800542FD49096806
:10D1E00001F03801FB4A11601146096801431160E2
:10D1F0007047F849096821F00801F64A11601146A4
:10D200000968014311607047F249096821F0100173
:10D21000F04A116011460968014311607047EE48F9
:10D22000EC494860ED4848607047EA48006940F0C2
:10D230008000E849086170470420E649C96801F0A8
:10D24000010109B101200EE0E249C96801F00401C1
:10D2500009B1022007E0DF49C96801F0100109B1F6
:10D26000032000E00420704708B500200090FF2054
:10D27000009002E00098401E009000980028F9D12C
:10D2800008BD70B504460425FFF7D6FF054605E046
:10D29000FFF7EAFFFFF7D0FF0546641E012D01D11D
:10D2A000002CF5D104B90525284670BD70B505469A
:10D2B000042440F6FF70FFF7E4FF0446042C19D164
:10D2C000C448006940F00200C2490861084645614F
:10D2D000006940F04000086140F6FF70FFF7D1FFA1
:10D2E0000446012C06D0BB48006941F6FD71084098
:10D2F000B8490861204670BD10B5042440F6FF709F
:10D30000FFF7BFFF0446042C18D1B248006940F073
:10D310000400B04908610846006940F04000086117
:10D3200040F6FF70FFF7ADFF0446012C06D0A94878
:10D33000006941F6FB710840A6490861204610BD0E
:10D3400010B5042440F6FF70FFF79BFF0446042C41
:10D350003BD1A1489F498860A04888600846006981
:10D3600040F0200008610846006940F04000086174
:10D3700040F6FF70FFF785FF0446042C1CD195484A
:10D38000006941F6DF71084092490861084600696A
:10D3900040F010000861A520914908800F20FFF798
:10D3A00070FF0446012C10D08A48006941F6EF71E5
:10D3B00008408849086108E0012C06D085480069CA
:10D3C00041F6EF71084083490861204610BD70B5F1
:10D3D00005460E4604240F20FFF753FF0446042C95
:10D3E00025D17C48006940F001007A4908612E800F
:10D3F0000F20FFF746FF0446042C0FD1300C688045
:10D400000F20FFF73EFF0446012C10D07148006941
:10D4100041F6FE7108406F49086108E0012C06D012
:10D420006C48006941F6FE7108406A49086120466F
:10D4300070BD70B505460E4604240F20FFF721FF8E
:10D440000446042C13D16348006940F0010061498F
:10D4500008612E800F20FFF714FF0446012C06D030
:10D460005C48006941F6FE7108405A49086120464F
:10D4700070BD70B505460E4604240F20FFF701FF6E
:10D480000446042C17D15448524988605348886098
:10D490000846006940F0100008612E800F20FFF759
:10D4A000F0FE0446012C06D04A48006941F6EF71AF
:10D4B000084048490861204670BD2DE9F047044600
:10D4C0004FF6FF763746B046B1460425E443E6B250
:10D4D000C4F30727C4F307484FEA14690F20FFF786
:10D4E000D0FE0546042D40D13B483A4988603B4870
:10D4F00088600846006940F010000861FF2E06D0E1
:10D500003748083006800F20FFF7BBFE0546042D84
:10D5100008D1FF2F06D032480A3007800F20FFF7CE
:10D52000B0FE0546042D0AD1B8F1FF0F07D02C48F4
:10D530000C30A0F800800F20FFF7A3FE0546042D55
:10D540000AD1B9F1FF0F07D025480E30A0F800909E
:10D550000F20FFF796FE0546012D06D01D480069F5
:10D5600041F6EF7108401B4908612846BDE8F08785
:10D5700070B50546042440F6FF70FFF782FE0446AE
:10D58000042C4AD11448134988601448886008461E
:10D59000006940F0200008610846006940F0400042
:10D5A000086140F6FF70FFF76CFE0446042C2BD197
:10D5B0000848006941F6DF710840064908610846DD
:10D5C000006940F01000086165B10020044908803E
:10D5D0000BE000000020024023016745AB89EFCD3E
:10D5E00000F8FF1FA5204549088040F6FF70FFF7AF
:10D5F00048FE0446012C10D04148006941F6EF7105
:10D6000008403F49086108E0012C06D03C48006909
:10D6100041F6DF7108403A490861204670BD2DE9A6
:10D62000F04107460D4616460424364834498860C2
:10D63000354888600F20FFF724FE0446042C1AD1D9
:10D640002F48006940F010002D49086147EA0500A5
:10D65000304340F0F8002949891C08800F20FFF76B
:10D6600010FE0446012C06D02548006941F6EF71F2
:10D670000840234908612046BDE8F0812048C06980
:10D68000800870471E48006A704700201C49C9691D
:10D6900001F0020109B1012000E0002070470020E4
:10D6A0001749096801F0200109B1012000E00020BC
:10D6B000704729B1124A12690243114B1A6104E002
:10D6C0000F4A126982430E4B1A61704701460020CF
:10D6D000012908D10A4AD26902F001020AB10120E7
:10D6E00008E0002006E0064AD2680A400AB101209C
:10D6F00000E0002070470249C860704700F8FF1F33
:10D700000020024023016745AB89EFCD30BF704751
:10D7100020BF704740BF7047BFF36F8F7047BFF3A4
:10D720004F8F7047BFF35F8F704701DF7047EFF394
:10D730001480704780F31488BFF36F8F7047EFF346
:10D740000980704780F309887047EFF308807047BD
:10D7500080F30888704772B6704762B6704771B63A
:10D76000704761B6704780F311887047EFF31280FD
:10D77000704740BA704700BA704700000FB41CB53C
:10D78000084B06AA7B4469460090059800F0B3F95F
:10D7900004460020694600F0C1F920461CBC5DF833
:10D7A00014FB00009503000070B50446856900680D
:10D7B000C10601D5302600E02026C00707D070BD85
:10D7C000D4E9012130469047206A401C20626D1E3A
:10D7D000F6D570BD70B5044685690078C00707D1DD
:10D7E00070BDD4E9012120209047206A401C2062AE
:10D7F0006D1EF6D570BD00002DE9F04106460024EF
:10D8000010687529314616A510D0AFF300800028A6
:10D8100002DA404213A507E031688A0701D512A554
:10D8200002E0490704D511A5012401E0AFF300800F
:10D8300000210A2206F1240709E0B0FBF2FCB0FB4C
:10D84000F2F302FB1C00303078541846491C0028C3
:10D85000F3D123462A463046BDE8F04100F0ECB84B
:10D86000000000002D0000002B0000002000000040
:10D870002DE9F05F894604464FF0000ADFF824B135
:10D88000FB44C0F820A02046E168884700287DD0EE
:10D89000252806D0D4E901219047206A401C206247
:10D8A000F1E700255F462046E168884720280646C4
:10D8B00007DB312E05D2B81910F8200C08B105434A
:10D8C000F1E7A80701D525F00405C4F81CA000273E
:10D8D000C4F818A02A2E09D0304600F090F938B3C9
:10D8E00004EB8708303EC8F8186019E059F8041BAB
:10D8F000204604EB87029161E1688847012F0646C4
:10D9000018D1E069002820DA25F020051DE0D8F8BC
:10D91000180000EB800006EB40003038C8F8180013
:10D920002046E1688847064600F069F90028EED1F4
:10D93000012F0AD02E2E08D12046E16888477F1C8F
:10D940000646022F45F02005C4DBA069002803DA53
:10D95000404245F00105A061E80701D025F010051F
:10D96000A6B1A6F14100192802D8203645F4006579
:10D970004A463146204625604D46FAF711FC60B113
:10D98000012807D0ED1D25F0070000E007E000F1B9
:10D99000080978E705F1040975E730467AE7206A57
:10D9A000BDE8F09FEF080000032A40F2308010F03D
:10D9B000030C00F0158011F8013BBCF1020F62442A
:10D9C00098BF11F801CB00F8013B38BF11F8013BBB
:10D9D000A2F1040298BF00F801CB38BF00F8013B68
:10D9E00011F0030300F09F80083AC0F0088051F85E
:10D9F000043B083A51F804CBA0E80810F5E7121DE3
:10DA00005CBF51F8043B40F8043BAFF30080D20701
:10DA100024BF11F8013B11F801CB48BF11F8012BCD
:10DA200024BF00F8013B00F801CB48BF00F8012BF0
:10DA300070477047704770472DE9F0470D4699468B
:10DA40009246044600F124080168880604D5E0697E
:10DA500021F01001216000E00120A84201DD471BF8
:10DA600000E00027A1697A1902EB0900081AA061F9
:10DA70002078C00602D42046FFF796FE002608E074
:10DA8000D4E901211AF806009047206A401C761C50
:10DA900020624E45F4DB2078C0060AD52046FFF709
:10DAA00083FE06E0D4E9012130209047206A401C23
:10DAB0002062381EA7F10107F4DC07E0D4E9012158
:10DAC00018F805009047206A401C2062281EA5F126
:10DAD0000105F3DC2046FFF77DFE2078000602D525
