:020000040800F2
:10000000980A00200D2F000891140008951400088C
:10001000991400089D140008A114000800000000B5
:10002000000000000000000000000000A91400080B
:10003000A514000800000000AD140008B114000869
:10004000B5140008B9140008BD140008C114000854
:10005000C5140008C9140008CD140008D114000804
:10006000D5140008D9140008DD140008E1140008B4
:10007000E5140008E9140008ED140008F114000864
:10008000F5140008F9140008FD1400080115000813
:1000900005150008091500080D15000811150008C0
:1000A00015150008191500081D1500082115000870
:1000B00025150008291500082D1500083115000820
:1000C00035150008391500083D15000841150008D0
:1000D00045150008491500084D1500085115000880
:1000E00055150008591500085D1500086115000830
:1000F00065150008691500086D15000871150008E0
:1001000075150008791500087D150008811500088F
:1001100085150008891500088D150008911500083F
:1001200095150008991500089D150008A1150008EF
:1001300000F002F800F03EF80AA090E8000C8244BB
:100140008344AAF10107DA4501D100F033F8AFF298
:10015000090EBAE80F0013F0010F18BFFB1A43F0A5
:1001600001031847C4310000E4310000103A24BFF5
:1001700078C878C1FAD8520724BF30C830C144BF0C
:1001800004680C607047000000230024002500264E
:10019000103A28BF78C1FBD8520728BF30C148BFEA
:1001A0000B6070471FB50FBC00F014F80FB41FBDF3
:1001B00010B510BD02F073FF1146FFF7F3FF01F019
:1001C0000FF902F091FF03B4FFF7F2FF03BC02F056
:1001D00099FF000002F0ADBF82B00146019000918E
:1001E000FFE70198411E0191002801D0FFE7F8E7E1
:1001F00002B0704780B58AB040F20020C0F23000F3
:10020000012102F043F81020ADF8240002218DF8FE
:1002100026108DF8270040F6004EC4F2010E09AA00
:1002200008907046079111460692CDF814E001F04F
:100230005FFE0420ADF8240007998DF82610089A77
:100240008DF8272041F2004EC4F2010E0490704652
:100250000699CDF80CE001F04BFE4FF48050ADF85C
:10026000240007998DF82610089A8DF8272041F26E
:10027000000EC4F2010E029070460699CDF804E01B
:1002800001F036FE2020ADF8240048208DF827002C
:100290000598069901F02CFE0598089901F054FF85
:1002A0000398049901F050FF0198029901F04CFF66
:1002B0000AB080BD80B586B0002005900490012072
:1002C000ADF80E000221ADF80C100421ADF80A10B3
:1002D0008DF8090002F060FC0490049840F294014B
:1002E000C2F2000109680840884261D0FFE702F0CD
:1002F0004BFC0590049840F2940EC2F2000EDEF81A
:1003000000100843CEF80000CDF804E002F05AF9DE
:100310008DF8090001980168013100290BD0FFE731
:1003200040F29400C2F200000068C04302F09AFA62
:100330008DF80900FFE7059800F00700072828D08E
:10034000FFE79DF81400C007002804D1FFE7002054
:10035000ADF80E00FFE79DF814008007002804D4D4
:10036000FFE70020ADF80C00FFE79DF81400400700
:10037000002804D4FFE70020ADF80A00FFE7BDF82D
:100380000A20BDF80C10BDF80E0002F0A1FB009091
:10039000FFE79DF80900042809D1FFE74FF400604A
:1003A000012101F049FC4F2002F090FDFFE7FFE73B
:1003B00006B080BD84B001460390002002900398EF
:1003C0000190BDF8040080050028009106D0FFE7E9
:1003D0000198012101EB9020029003E00198800A2E
:1003E0000290FFE7029804B0704700BF80B582B06A
:1003F00001468DF807009DF807000028009108D0FD
:10040000FFE740F60040C4F20100102101F0AAFE0F
:1004100016E040F60040C4F20100102101F094FE05
:1004200041F20040C4F20100042101F08DFE41F2CE
:100430000000C4F201004FF4805101F085FEFFE797
:1004400002B080BD80B582B00120FFF7CFFF05204C
:1004500000F00CF800F04EF88DF807000020FFF7D0
:10046000C5FF9DF8070002B080BD00BF80B582B017
:1004700001468DF8070000208DF806000091FFE787
:100480009DF80600072832DCFFE741F20040C4F285
:100490000100042101F066FE9DF807000006002817
:1004A00009D4FFE741F20000C4F201004FF480518B
:1004B00001F058FE08E041F20000C4F201004FF4E0
:1004C000805101F041FEFFE741F20040C4F201001B
:1004D000042101F039FE9DF8070040008DF8070067
:1004E000FFE79DF8060001308DF80600C8E702B06E
:1004F00080BD00BF80B582B000208DF807008DF868
:1005000006008DF80700FFE79DF8070007282BDCA1
:10051000FFE79DF8060040008DF8060041F200401C
:10052000C4F20100042101F01DFE40F60040C4F2B7
:100530000100202101F0B8FD002807D0FFE79DF859
:10054000060040F001008DF80600FFE741F2004090
:10055000C4F20100042101F0F7FDFFE79DF8070058
:1005600001308DF80700CFE79DF8060002B080BD8E
:1005700080B582B0014601900091FFE70198411ECD
:10058000019101280BDBFFE79620FFF725FEFFF71F
:1005900059FFC007002801D1FFE700E0EEE702B0F5
:1005A00080BD00BF80B584B000200390012102907F
:1005B0000846FFF71BFF9020FFF758FF0298FFF750
:1005C00055FF0298FFF752FF0298FFF74FFFFFF722
:1005D00091FF039003980190FFF78CFF019940EA87
:1005E000012003900298FFF701FF039804B080BD3B
:1005F00080B584B000200390012102900846FFF7E7
:10060000F5FE9F20FFF732FFFFF774FF039003987A
:100610000190FFF76FFF019940EA012003900398D2
:100620000090FFF767FF009940EA012003900298CD
:10063000FFF7DCFE039804B080BD00BF80B588B032
:1006400013468C4686460790069105920120029338
:10065000CDF804C0CDF800E0FFF7C8FE03208DF808
:100660001000BDF81A008DF811000698000A8DF8E8
:10067000120006988DF813009DF81000FFF7F6FEA3
:100680009DF81100FFF7F2FE9DF81200FFF7EEFE55
:100690009DF81300FFF7EAFE00200390FFE70398A0
:1006A000059988420EDAFFE7FFF724FFDDF81CE02A
:1006B0008EF80000079801300790FFE7039801309B
:1006C0000390ECE70020FFF791FE08B080BD00BF6B
:1006D00080B58CB013468C4686460B900A91ADF8D7
:1006E0002620012006900593CDF810C0CDF80CE02F
:1006F000FFF77CFE0620FFF7B9FE00200290FFF70F
:1007000075FE0698FFF772FE02208DF82200BDF8F4
:100710002A008DF823000A98000A8DF824000A9810
:100720008DF825009DF82200FFF7A0FE9DF823001C
:10073000FFF79CFE9DF82400FFF798FE9DF825002A
:10074000FFF794FE02980790FFE70798BDF8261080
:1007500088420CDAFFE70B980078FFF787FE0B98CA
:1007600001300B90FFE7079801300790EDE700207C
:100770000190FFF73BFE4FF47A70FFF7F9FE01207E
:10078000FFF734FE0420FFF771FE0198FFF72EFEFD
:100790000CB080BD80B58AB013468C468646099061
:1007A0000891ADF81E209DF8200005900598BDF831
:1007B0001E10084404900498A0F58070ADF81A004B
:1007C000BDF81E00BDF81A10401AADF81C000498C0
:1007D000B0F5807F0393CDF808C0CDF804E017D9B9
:1007E000FFE709980899BDF81C20FFF771FF0898EA
:1007F000BDF81C10084404900998BDF81C1008446A
:10080000099009980499BDF81A20FFF761FF06E0E6
:1008100009980899BDF81E20FFF75AFFFFE70AB0B4
:1008200080BD00BF80B584B00120FFF7DFFD06204A
:10083000FFF71CFE0020FFF7D9FDFFF703FE8DF840
:100840000E009DF80E008007002804D4FFE7012069
:100850008DF80F0023E001200290FFF7C7FD0298FA
:10086000FFF704FE00200190FFF700FE0198FFF75C
:10087000BDFD41F28830FFF77BFEFFF7E3FD8DF809
:100880000E009DF80E0010F0BC0F04D1FFE7002011
:100890008DF80F0003E001208DF80F00FFE79DF8B1
:1008A0000F0004B080BD00BF80B588B0014606903F
:1008B000012003900291FFF799FD0620FFF7D6FD76
:1008C00000200190FFF792FD20208DF81300BDF865
:1008D0001A008DF814000698000A8DF81500069885
:1008E0008DF816000398FFF781FD9DF81300FFF7C0
:1008F000BDFD9DF81400FFF7B9FD9DF81500FFF749
:10090000B5FD9DF81600FFF7B1FD0198FFF76EFDEC
:1009100044F24020C0F20F00FFF75EFC41F2883045
:10092000FFF726FEFFF78EFD8DF817009DF81700E4
:100930008007002804D4FFE700208DF81F0003E0A3
:1009400001208DF81F00FFE79DF81F0008B080BD53
:1009500080B582B04DF20000C0F213000190FFF7A5
:10096000A3FF40F2980EC2F2000E55218EF800103F
:10097000AA218EF8011000218EF802108EF80310C3
:100980000422009070460199FFF7A2FE02B080BDDC
:1009900080B594B00146129005A84FF4492228234F
:1009A000039111461A46FFF749FE00208DF8130007
:1009B0001190FFE7119826280DD8FFE7119805A997
:1009C000085C9DF8131008448DF81300FFE7119898
:1009D00001301190EEE79DF81300119905AA515CC2
:1009E00088420AD1FFE7129805A9272202F0DDFA12
:1009F00000218DF84F1002901AE000201190FFE7BF
:100A00001198262809D8FFE7119805A900220A5451
:100A1000FFE7119801301190F2E7129805A92722FB
:100A200002F0C3FA0190FFE701208DF84F00FFE7C5
:100A30009DF84F0014B080BD80B582B040F29800A0
:100A4000C2F200004DF20001C0F213010422009036
:100A5000FFF7F4FD0098C17801910199827842EA8C
:100A6000012101910199427842EA01210191019904
:100A7000027842EA01210191019802B080BD00BFD5
:100A800080B592B040F20400C2F2000042F20001D0
:100A9000C0F600010160006800F17840000B40F2F0
:100AA0006801C2F2000108600868012101FA00F043
:100AB0000138C04340F29401C2F2000108600B917A
:100AC00002F06AF80B99D1F800E000EA0E007045D8
:100AD00003D0FFE7FFF7EEFBFFE740F20400C2F2AE
:100AE000000042F20001C0F60001016040F29800EF
:100AF000C2F200004FF47D214FF480720A90FFF79C
:100B00009DFD0A98016811918168109101690F910A
:100B100011990122CEF60F72914201D0FFE776E1E2
:100B200010986FF310000E900E98002801D0FFE788
:100B30006DE10F98B0F5005F05D3FFE70F98B0F5B2
:100B4000802F01D9FFE762E1352002F0BBF80F9852
:100B5000FFF730FC40F2880EC2F2000ECEF8000023
:100B600040F26C00C2F200004FF0000EC0F800E04E
:100B7000FFE740F26C00C2F20000006840F288011A
:100B8000C2F2000109680022884209920BD2FFE7F5
:100B900040F20000C2F2000000780438B0FA80F0A1
:100BA00040090990FFE70998C00700281CD0FFE71B
:100BB00040F20400C2F20000006840F26C01C2F290
:100BC0000001096800EB812001F050FC40F20001B7
:100BD000C2F200010870FFE740F26C00C2F20000B0
:100BE000016801310160C4E740F29800C2F20000E0
:100BF000143040F28C01C2F20001086014200D9004
:100C0000FFE70D980021FF28089111D8FFE740F277
:100C10000400C2F2000000680F9942F20002C0F620
:100C2000000211440022884238BF01220892FFE7E7
:100C30000898C007002833D0FFE740F20400C2F252
:100C40000000016840F28C02C2F2000213681B68C7
:100C5000079008461946069201F026FD40F2000171
:100C6000C2F200010870079801680968069A1368C3
:100C70001B68994201D0FFE7C9E040F20400C2F2CC
:100C8000000001680431016040F28C00C2F20000F3
:100C9000016804310160FFE70D9804300D90B0E762
:100CA0000F98022101EB102040F28801C2F20001EE
:100CB00008600020109001200E90FFE70E9840F28F
:100CC0008801C2F200010968884280F0A080FFE735
:100CD0000E984FF47D2101EB00200C900C9940F20E
:100CE0009800C2F200004FF480720590FFF7A6FC56
:100CF00040F28C00C2F200000599016000200D90C6
:100D0000FFE70D980021FF28049111D8FFE740F27A
:100D10000400C2F2000000680F9942F20002C0F61F
:100D2000000211440022884238BF01220492FFE7EA
:100D30000498C007002833D0FFE740F20400C2F255
:100D40000000016840F28C02C2F2000213681B68C6
:100D5000039008461946029201F0A6FC40F20001F9
:100D6000C2F200010870039801680968029A1368CA
:100D70001B68994201D0FFE749E040F20400C2F24B
:100D8000000001680431016040F28C00C2F20000F2
:100D9000016804310160FFE70D9804300D90B0E761
:100DA0000E986421484340F28801C2F200010968AC
:100DB000B0FBF1F0119010981199884222D0FFE712
:100DC0001198109010984CF6CD41CCF6CC41A0FB78
:100DD0000102302303EBD20240F29803C2F2000377
:100DE0001A70109AA2FB011C4FEADC0C0CEB8C0C65
:100DF000A2EB4C0242F030025A7000229A7001912C
:100E00000090FFE7FFE70E9801300E9056E712B012
:100E100080BD000080B584B04FF44070ADF80C0088
:100E200014208DF80F0001218DF80E1040F60042BD
:100E3000C4F2010203AB02901046019119460093DF
:100E400001F056F84FF40060ADF80C0002988DF8F0
:100E50000F0001998DF80E1041F20000C4F201005C
:100E6000009901F045F800F003F804B080BD00BF20
:100E700080B582B041F20000C4F201004FF400617D
:100E800001F062F940F60040C4F201004FF48071B5
:100E9000019001F059F94FF40071019801F054F9F3
:100EA000802000F009F840F28600C2F20000002124
:100EB000017002B080BD00BF80B584B001468DF8DE
:100EC0000F0041F20000C4F201004FF400620291F1
:100ED000114601F047F91420FFF77EF900208DF844
:100EE0000E00FFE79DF80E0007283EDCFFE740F606
:100EF0000040C4F201004FF4807101F033F91E206C
:100F0000FFF76AF99DF80F00C007002809D0FFE736
:100F100040F60040C4F201004FF4007101F014F9F2
:100F200008E040F60040C4F201004FF4007101F007
:100F300019F9FFE714200190FFF74EF940F6004041
:100F4000C4F201004FF4807101F0FEF80198FFF740
:100F500043F99DF80F0040088DF80F00FFE79DF85A
:100F60000E0001308DF80E00BCE704B080BD00BF5C
:100F700080B58AB013468C4686468DF827008DF8DA
:100F80002610089241F20000C4F201004FF4006103
:100F9000069005910493CDF80CC0CDF808E001F05F
:100FA000D3F840F60040C4F201004FF48071019084
:100FB00001F0CAF84FF40071019801F0C5F8022061
:100FC000FFF77AFF0698059901F0BEF84020FFF779
:100FD00073FF0698059901F0B7F89DF827000C21DA
:100FE00061F31F10FFF768FFFFE79DF82600411E21
:100FF0008DF8261000280FD0FFE70898411C0891B3
:1010000000788DF81F009DF81F00FFF755FF9DF831
:101010001F00FFF751FFE8E741F20000C4F20100B2
:101020004FF4006101F090F88920FFF745FF0AB006
:1010300080BD00BF80B582B041F20000C4F2010063
:101040004FF4006101F080F840F60040C4F2010066
:101050004FF48071019001F077F84FF4007101981E
:1010600001F072F88920FFF727FF40F28600C2F2F4
:1010700000000121017002B080BD00BF80B58EB0BC
:1010800001460D9000208DF82F000D9A41F2597302
:10109000CDF2B713A2FB03235B0B4CF6CD4CCCF681
:1010A000CC4CA3FB0CCE4FEADE0E0EEB8E0EA3EB68
:1010B0004E030C9340F27C03C2F2000318700C98AC
:1010C00000280A91CDF824C0089205D1FFE79DF8C9
:1010D0002F0000280FD0FFE70C9843F21831C0F61C
:1010E0000001085C40F27C01C2F20001087001209E
:1010F0008DF82F00FFE70D9844F6D351C1F262013D
:10110000A0FB010189094CF6CD42CCF6CC42A1FBF3
:101110000223DB0803EB8303A1EB43010C9140F2B4
:101120007C01C2F2000100234B700C99002907904A
:10113000069205D1FFE79DF82F0000280FD0FFE7AA
:101140000C9843F21831C0F60001085C40F27C01B3
:10115000C2F20001487001208DF82F00FFE70D98C2
:1011600044F6D351C1F26201A0FB011292094FF47F
:101170007A7302FB13000C900C9848F21F52C5F2D0
:10118000EB12A0FB020252090C9240F27C02C2F266
:101190000002002393700C9A002A0591049005D157
:1011A000FFE79DF82F0000280FD0FFE70C9843F2CF
:1011B0001831C0F60001085C40F27C01C2F2000167
:1011C000887001208DF82F00FFE70D9848F21F511D
:1011D000C5F2EB11A0FB01125209642302FB1300BC
:1011E0000C900C984CF6CD42CCF6CC42A0FB0202FF
:1011F000D2080C9240F27C02C2F200020023D370AB
:101200000C9A002A0391029005D1FFE79DF82F0068
:1012100000280FD0FFE70C9843F21831C0F6000108
:10122000085C40F27C01C2F20001C87001208DF818
:101230002F00FFE70D984CF6CD41CCF6CC41A0FB3A
:101240000112D20802EB8202A0EB42000C900C9833
:1012500043F21832C0F60002105C40F27C02C2F287
:1012600000021071019100F003F80EB080BD00BFC4
:1012700080B540F27C02C2F2000200200521FFF797
:1012800077FE80BDF0B587B001468DF81B0040F2B7
:101290007C00C2F20000402202709DF81B3048F230
:1012A0001F5CC5F2EB1CA3FB0C3E4FEA5E1E8DF8E3
:1012B0001AE09DF81AE043F21834C0F6000414F85E
:1012C0000EE080F801E09DF81BE0AEFB0CC56D0957
:1012D000642605FB16EE46F26765C6F266658EFB70
:1012E00005E5AE0806EBD5758DF81A509DF81A5035
:1012F000655D85709DF81B504CF6CD46CCF6CC460E
:10130000A5FB0667FF0807EB8707A5EB47058DF8E8
:101310001A509DF81A50645DC470027105910496CC
:10132000CDF80CE0CDF808C00193FFF7A1FF07B09E
:10133000F0BD000080B5002001F01AFD80BD00BFA7
:1013400080B54FF40060012100F076FC4F2001F0E1
:10135000BDFD80BD80B582B000F024F94FF480302F
:1013600000F048F900F076F98DF807009DF80700C5
:1013700001282DD1FFE7102001F04CF8022001F0E8
:1013800025F80020009000F06FFA009800F09CFA19
:101390004FF4806000F080FA4FF480304FF4E01199
:1013A00000F012FA012000F031FAFFE7392000F0D6
:1013B0009BF9002801D1FFE7F8E7022000F034FA9A
:1013C000FFE700F049FA082801D0FFE7F9E7FFE757
:1013D00044F23D00012100F00DFC02B080BD00BFD1
:1013E00080B584B000200390FFF7B4FFFEF702FF42
:1013F000FFF710FDFFF79EFFFFF71EFB029002981C
:10140000012819D1FFE740F27C00C2F200003E2122
:101410000170F321417080218170C1700171FFF76B
:1014200027FF01F009F8FFF72BFB01F015F8FFF794
:101430008FFAFFF785FFFFE742F20000C0F60000D9
:1014400000680021C2F6FE710840B0F1005F1CD1B7
:10145000FFE742F20400C0F60000006840F27401A9
:10146000C2F200010860086840F27801C2F200018F
:10147000086042F20000C0F600000068019101F02F
:1014800079FD019801688847FFE7FFE7FEE7000064
:10149000704700BFFFE7FEE7FFE7FEE7FFE7FEE775
:1014A000FFE7FEE7704700BF704700BF704700BF0F
:1014B000704700BF704700BF704700BF704700BF54
:1014C000704700BF704700BF704700BF704700BF44
:1014D000704700BF704700BF704700BF704700BF34
:1014E000704700BF704700BF704700BF704700BF24
:1014F000704700BF704700BF704700BF704700BF14
:10150000704700BF704700BF704700BF704700BF03
:10151000704700BF704700BF704700BF704700BFF3
:10152000704700BF704700BF704700BF704700BFE3
:10153000704700BF704700BF704700BF704700BFD3
:10154000704700BF704700BF704700BF704700BFC3
:10155000704700BF704700BF704700BF704700BFB3
:10156000704700BF704700BF704700BF704700BFA3
:10157000704700BF704700BF704700BF704700BF93
:10158000704700BF704700BF704700BF704700BF83
:10159000704700BF704700BF704700BF704700BF73
:1015A0007047000041F20000C4F20200016841F0FF
:1015B0000101016041F20401C4F202010A68002342
:1015C000CFF6FF031A400A6002684FF6FF73CFF6AA
:1015D000F6631A400260026822F480220260086802
:1015E00020F4FE00086041F20800C4F2020000216D
:1015F0000160704783B00146029041F20000C4F2DE
:101600000200026822F480320260026822F4802222
:1016100002600298B0F5803F0191009005D0FFE78D
:101620000098B0F5802F09D011E041F20000C4F21B
:101630000200016841F48031016009E041F20000DC
:10164000C4F20200016841F4A021016000E0FFE75C
:1016500003B0704780B582B000208DF80700FFE727
:10166000312000F041F840F2700EC2F2000E8EF808
:10167000000040F29000C2F20000D0F800E00EF14D
:10168000010EC0F800E0FFE740F27000C2F2000077
:1016900000780021002800910ED1FFE740F2900071
:1016A000C2F200000068A0F2FF1140F2FF12904267
:1016B00018BF01210091FFE70098C0070028CFD193
:1016C000FFE7312000F010F8002804D0FFE70120E8
:1016D0008DF8070003E000208DF80700FFE79DF874
:1016E000070002B080BD00BF85B001468DF8130031
:1016F0000020039002908DF807009DF81300400928
:10170000039003980128009107D1FFE741F2000000
:10171000C4F202000068029012E00398022807D188
:10172000FFE741F22000C4F202000068029006E0E8
:1017300041F22400C4F2020000680290FFE7FFE7D4
:101740009DF8130000F01F000390029803990122F6
:1017500002FA01F1084204D0FFE701208DF80700EA
:1017600003E000208DF80700FFE79DF8070005B0B3
:10177000704700BF83B001468DF80B000020019038
:1017800041F20000C4F2020002680192019A22F0C4
:10179000F80201929DF80B20019B43EAC2020192DC
:1017A000019A0260009103B0704700BF82B0014609
:1017B0008DF807009DF807000022C4F24222106055
:1017C000009102B0704700BF85B00A4603460490FE
:1017D00003910020029041F20400C4F2020001686B
:1017E0000291029921F47C1102910499DDF80CC058
:1017F00041EA0C01DDF808C041EA0C0102910299AE
:1018000001600192009305B0704700BF82B00146AD
:101810008DF807009DF807006022C4F24222106094
:10182000009102B0704700BF83B0014602900020D3
:10183000019041F20400C4F2020002680192019A90
:1018400022F003020192029A019B1A430192019A2B
:101850000260009103B0704741F20400C4F202003C
:10186000006800F00C00704783B001460290002031
:10187000019041F20400C4F2020002680192019A50
:1018800022F0F0020192029A019B1A430192019AFE
:101890000260009103B0704783B0014602900020BF
:1018A000019041F20400C4F2020002680192019A20
:1018B00022F4E0620192029A019B1A430192019A7A
:1018C0000260009103B0704783B00146029000208F
:1018D000019041F20400C4F2020002680192019AF0
:1018E00022F460520192029A019B43EAC2020192E1
:1018F000019A0260009103B0704700BF83B00A46AE
:1019000003468DF80B008DF80A109DF80A00002898
:10191000019200930AD0FFE79DF80B0041F2090104
:10192000C4F202010A78104308700AE09DF80B0027
:1019300041F20901C4F202010A7822EA00000870AB
:10194000FFE703B0704700BF82B0014601900198E5
:10195000D822C4F242221060009102B0704700BF4A
:1019600083B0014602900020019041F20400C4F2CD
:10197000020002680192019A22F440420192029A06
:10198000019B1A430192019A0260009103B07047D3
:1019900083B001468DF80B0041F22000C4F2020032
:1019A0000022027002709DF80B000246012801918E
:1019B000009204D0FFE70098042807D00DE041F220
:1019C0002000C4F202000121017007E041F2200072
:1019D000C4F202000521017000E0FFE703B0704788
:1019E00082B001468DF807009DF8070040F2804262
:1019F000C4F242221060009102B0704782B00146EA
:101A00000190019841F22002C4F2020213681843C7
:101A10001060009102B0704782B001468DF8070057
:101A20009DF8070040F23C42C4F24222106000914F
:101A300002B0704787B001460690002005900490E0
:101A40000390029041F20400C4F20200006800F02A
:101A50000C000590059800280191009008D0FFE740
:101A6000009804280BD0FFE7009808280ED048E023
:101A7000069841F20021C0F27A01016048E0069820
:101A800041F20021C0F27A01016041E041F204001C
:101A9000C4F20200016801F4701104910499022259
:101AA00002EB91410491006800F4803003900398A8
:101AB000002809D1FFE7049840F60011C0F23D016B
:101AC0004843069908601BE041F20400C4F202009A
:101AD000006810F4003F09D0FFE7049840F60011B9
:101AE000C0F23D0148430699086008E0049841F2BD
:101AF0000021C0F27A01484306990860FFE7FFE73A
:101B000006E0069841F20021C0F27A010160FFE789
:101B100041F20400C4F20200016801F0F0010591F5
:101B2000059909090591059943F20832C0F60002AA
:101B3000515C029106990B68DDF808C023FA0CF39A
:101B40004B60016801F4E06105910599090A05916E
:101B50000599515C029106994B68DDF808C023FA9B
:101B60000CF38B60016801F4605105910599C90A75
:101B700005910599515C029106994A68029BDA40E9
:101B8000CA60006800F4404005900598800B0590FD
:101B9000059843F20431C0F60001085C02900698F3
:101BA000C168029AB1FBF2F1016107B0704700BF52
:101BB00084B00A46034603908DF80B109DF80B0085
:101BC00000280192009309D0FFE7039841F2140125
:101BD000C4F202010A681043086009E0039841F268
:101BE0001401C4F202010A6822EA00000860FFE75B
:101BF00004B0704784B00A46034603908DF80B107A
:101C00009DF80B0000280192009309D0FFE703988C
:101C100041F21801C4F202010A681043086009E0A9
:101C2000039841F21801C4F202010A6822EA000096
:101C30000860FFE704B0704784B00A46034603908B
:101C40008DF80B109DF80B0000280192009309D02D
:101C5000FFE7039841F21C01C4F202010A68104335
:101C6000086009E0039841F21C01C4F202010A680D
:101C700022EA00000860FFE704B0704784B00A461B
:101C8000034603908DF80B109DF80B00002801927D
:101C9000009309D0FFE7039841F20C01C4F202015E
:101CA0000A681043086009E0039841F20C01C4F28D
:101CB00002010A6822EA00000860FFE704B07047EA
:101CC00084B00A46034603908DF80B109DF80B0074
:101CD00000280192009309D0FFE7039841F2100118
:101CE000C4F202010A681043086009E0039841F257
:101CF0001001C4F202010A6822EA00000860FFE74E
:101D000004B0704782B001468DF807009DF80700C7
:101D100040F24042C4F242221060009102B070478B
:101D200082B001468DF807009DF807004C22C4F2EE
:101D300042221060009102B0704700BF82B001469D
:101D40008DF807009DF8070041F20702C4F2020275
:101D50001070009102B0704741F22400C4F20200FA
:101D6000016841F080710160704700BF82B0014698
:101D70008DF8070000208DF8060041F20800C4F23B
:101D8000020000689DF807201042009104D0FFE790
:101D900001208DF8060003E000208DF80600FFE723
:101DA0009DF8060002B0704782B001468DF807002A
:101DB0009DF8070041F20A02C4F20202107000917D
:101DC00002B0704780B58AB001460990099840F684
:101DD0000002C4F2010290420891079030D0FFE760
:101DE00040F60040C4F201000799814232D0FFE77B
:101DF00041F20000C4F201000799814234D0FFE7AC
:101E000041F20040C4F201000799814236D0FFE759
:101E100041F60000C4F201000799814238D0FFE783
:101E200041F60040C4F20100079981423AD0FFE731
:101E300042F20000C4F20100079981423CD046E022
:101E4000042001210690FFF719FF00210698FFF7F3
:101E500015FF3DE0082001210590FFF70FFF00214D
:101E60000598FFF70BFF33E0102001210490FFF7E6
:101E700005FF00210498FFF701FF29E02020012140
:101E80000390FFF7FBFE00210398FFF7F7FE1FE02A
:101E9000402001210290FFF7F1FE00210298FFF798
:101EA000EDFE15E0802001210190FFF7E7FE002103
:101EB0000198FFF7E3FE0BE04FF4807001210090E2
:101EC000FFF7DCFE00210098FFF7D8FE00E0FFE7F7
:101ED0000AB080BD80B582B0012001900199FFF762
:101EE000CDFE00210198FFF7C9FE02B080BD00BF02
:101EF0008AB00A4603460990089100200790069090
:101F000005900490039002900898C07800F00F00AC
:101F100007900898C078C00600280192009306D563
:101F2000FFE708988078079908430790FFE708982B
:101F3000007800284ED0FFE7099800680390002041
:101F40000590FFE70598072840D8FFE7059801218D
:101F500001FA00F00490089800880499084006905F
:101F60000698049988422CD1FFE7059880000490D8
:101F700004980F2101FA00F002900298039921EAD7
:101F80000000039007980499884003990843039040
:101F90000898C078282807D1FFE70598012101FAA1
:101FA00000F009994861FFE70898C078482807D1F0
:101FB000FFE70598012101FA00F009990861FFE7A0
:101FC000FFE7FFE7059801300590BBE70398099903
:101FD0000860FFE708980088B0F5807F51DBFFE7D5
:101FE00009984068039000200590FFE705980728AE
:101FF00043D8FFE705980830012101FA00F004906A
:102000000898008804990840069006980499884228
:102010002ED1FFE705988000049004980F2101FA63
:1020200000F002900298039921EA000003900798BB
:10203000049988400399084303900898C078282899
:1020400008D1FFE705980830012101FA00F009994D
:102050004861FFE70898C078482808D1FFE705984D
:102060000830012101FA00F009990861FFE7FFE754
:10207000FFE7059801300590B8E703980999486093
:10208000FFE70AB0704700BF82B001460190019897
:102090004FF6FF720280019802228270019804229A
:1020A000C270009102B0704784B00A4603460390A4
:1020B000ADF80A1000208DF8090003988068BDF87B
:1020C0000A1008420192009304D0FFE701208DF826
:1020D000090003E000208DF80900FFE79DF80900E2
:1020E00004B0704782B0014601900198806880B2C8
:1020F000009102B0704700BF84B00A4603460390C7
:10210000ADF80A1000208DF809000398C068BDF8EA
:102110000A1008420192009304D0FFE701208DF8D5
:10212000090003E000208DF80900FFE79DF8090091
:1021300004B0704782B0014601900198C06880B237
:10214000009102B0704700BF84B00A460346039076
:10215000ADF80A10BDF80A000399086101920093D6
:1021600004B0704784B00A4603460390ADF80A10E5
:10217000BDF80A00039948610192009304B07047CA
:1021800080B585B013468C4686460490ADF80E1097
:102190008DF80D209DF80D0000280293CDF804C0A5
:1021A000CDF800E005D0FFE7BDF80E000499086106
:1021B00004E0BDF80E0004994861FFE705B080BD5A
:1021C00084B00A4603460390ADF80A10BDF80A0031
:1021D0000399C8600192009304B0704785B00A4625
:1021E00003460490ADF80E104FF480300290BDF815
:1021F0000E00029908430290029804998861BDF884
:102200000E00049988610298049988610498806995
:1022100002900498806902900192009305B0704783
:1022200084B00A4603468DF80F008DF80E1000208A
:1022300002900020C4F201000168029102994FF659
:10224000807C01EA0C0102919DF80F10DDF808C0B6
:102250004CEA011102919DF80E10DDF808C041EA28
:102260000C010291029901600192009304B0704741
:1022700082B001468DF807009DF807001C22C4F2C9
:1022800020221060009102B0704700BF88B00A465B
:10229000034607908DF81B100020059004900390D2
:1022A00002900420C4F20100006803900798C0F374
:1022B00003400290BDF81C000590079800F4401000
:1022C000B0F5401F019200930CD1FFE7039820F076
:1022D000706003900420C4F20100016821F0706175
:1022E000016024E00798C00200280FD5FFE702989C
:1022F000032101FA00F004900498039921EA0000F8
:102300000390039840F0706003900FE005980799E0
:1023100047F6F07202EA51418840039921EA000031
:102320000390039840F070600390FFE7FFE79DF88B
:102330001B0000280BD0FFE70598079947F6F072BD
:1023400002EA51418840039908430390FFE703984C
:102350000421C4F20101086008B0704780B584B060
:102360000A4603468DF80F008DF80E1000200290EB
:102370009DF80E0000F0030080000F2101FA00F02C
:10238000029002989DF80E1001F0FC0140F2080C3A
:10239000C4F2010C51F80CE02EEA000041F80C00E8
:1023A0009DF80F009DF80E1001F0030E4FEA8E0EFF
:1023B00000FA0EF001F0FC0151F80CE040EA0E00CA
:1023C00041F80C000192009304B080BD82B0014638
:1023D000019042F20000C4F20200026802F03802EA
:1023E0000260019A03681A430260009102B07047CC
:1023F00082B00146019042F20000C4F2020002687D
:1024000022F008020260019A03681A4302600091F8
:1024100002B0704782B00146019042F20000C4F25F
:102420000200026822F010020260019A03681A4357
:102430000260009102B0704742F20400C4F2020050
:1024400040F22311C4F26751016048F6AB11CCF69B
:10245000EF510160704700BF42F21000C4F2020069
:10246000016841F080010160704700BF80B584B011
:102470000146039004208DF80B0040F6FF70019197
:1024800000F034F88DF80B009DF80B00042828D1DB
:10249000FFE742F21000C4F20200016841F00201BD
:1024A0000160039942F21402C4F202021160016851
:1024B00041F04001016040F6FF7000F017F88DF820
:1024C0000B009DF80B0001280AD0FFE742F2100034
:1024D000C4F20200016841F6FD7211400160FFE79D
:1024E000FFE79DF80B0004B080BD00BF80B584B04D
:1024F0000146039004208DF80B00019100F0F0FBE1
:102500008DF80B00FFE79DF80B00002101280091DA
:1025100006D1FFE70398002818BF01200090FFE7CD
:102520000098C00700280AD0FFE700F00FFC00F079
:10253000D7FB8DF80B00039801380390E3E703986D
:10254000002804D1FFE705208DF80B00FFE79DF878
:102550000B0004B080BD00BF80B582B004208DF8B0
:10256000070040F6FF70FFF7C1FF8DF807009DF8E8
:102570000700042822D1FFE742F21000C4F2020053
:10258000016841F004010160016841F0400101600F
:1025900040F6FF70FFF7AAFF8DF807009DF80700CF
:1025A00001280AD0FFE742F21000C4F202000168DD
:1025B00041F6FB7211400160FFE7FFE79DF807005D
:1025C00002B080BD80B582B004208DF8070040F6CF
:1025D000FF70FFF78BFF8DF807009DF807000428B8
:1025E0005ED1FFE742F20800C4F2020040F223117C
:1025F000C4F26751016048F6AB11CCF6EF510160AF
:1026000042F21000C4F20200016841F020010160B2
:10261000016841F04001016040F6FF70FFF766FF7E
:102620008DF807009DF80700042828D1FFE742F243
:102630001000C4F20200016841F6DF72114001602F
:10264000016841F0100101604FF60000C1F6FF7013
:10265000A52101800F20FFF749FF8DF807009DF8A5
:10266000070001280AD0FFE742F21000C4F202007E
:10267000016841F6EF7211400160FFE70FE09DF83D
:10268000070001280AD0FFE742F21000C4F202005E
:10269000016841F6EF7211400160FFE7FFE7FFE7D5
:1026A0009DF8070002B080BD80B586B00A4603469B
:1026B0000590049104208DF80F000F2002920193E1
:1026C000FFF714FF8DF80F009DF80F0004283FD18D
:1026D000FFE742F21000C4F20200016841F001017C
:1026E00001600498059908800F20FFF7FFFE8DF820
:1026F0000F009DF80F00042819D1FFE7BDF8120064
:10270000059948800F20FFF7F1FE8DF80F009DF826
:102710000F0001280AD0FFE742F21000C4F20200C5
:10272000016841F6FE7211400160FFE70FE09DF87D
:102730000F0001280AD0FFE742F21000C4F20200A5
:10274000016841F6FE7211400160FFE7FFE7FFE715
:102750009DF80F0006B080BD80B584B00A460346E0
:102760000390ADF80A1004208DF809000F200192A3
:102770000093FFF7BBFE8DF809009DF809000428BF
:1027800021D1FFE742F21000C4F20200016841F0DB
:1027900001010160BDF80A00039908800F20FFF7CE
:1027A000A5FE8DF809009DF8090001280AD0FFE771
:1027B00042F21000C4F20200016841F6FE721140BC
:1027C0000160FFE7FFE79DF8090004B080BD00BF8E
:1027D00080B584B00A46034603908DF80B100420A0
:1027E0008DF80A000F2001920093FFF77FFE8DF80D
:1027F0000A009DF80A0004282FD1FFE742F20800E2
:10280000C4F2020040F22311C4F26751016048F69D
:10281000AB11CCF6EF51016042F21000C4F202009D
:10282000016841F0100101609DF80B0003990880D8
:102830000F20FFF75BFE8DF80A009DF80A000128C3
:102840000AD0FFE742F21000C4F20200016841F62C
:10285000EF7211400160FFE7FFE79DF80A0004B046
:1028600080BD00BF80B586B0014605904FF6FF7071
:10287000ADF81200ADF81000ADF80E00ADF80C0088
:1028800004208DF80B000598C04305909DF81400B6
:10289000ADF812000598C0F30720ADF810000598B8
:1028A000C0F30740ADF80E009DF81700ADF80C001E
:1028B0000F200191FFF71AFE8DF80B009DF80B0019
:1028C00004287DD1FFE742F20800C4F2020040F282
:1028D0002311C4F26751016048F6AB11CCF6EF51F9
:1028E000016042F21000C4F20200016841F01001E0
:1028F0000160BDF81200FF280DD0FFE7BDF81200FF
:102900004FF60801C1F6FF7108800F20FFF7EEFDBA
:102910008DF80B00FFE79DF80B00042812D1FFE7AC
:10292000BDF81000FF280DD0FFE7BDF810004FF6EE
:102930000A01C1F6FF7108800F20FFF7D7FD8DF85F
:102940000B00FFE79DF80B00042812D1FFE7BDF84C
:102950000E00FF280DD0FFE7BDF80E004FF60C016A
:10296000C1F6FF7108800F20FFF7C0FD8DF80B0046
:10297000FFE79DF80B00042812D1FFE7BDF80C001B
:10298000FF280DD0FFE7BDF80C004FF60E01C1F691
:10299000FF7108800F20FFF7A9FD8DF80B00FFE7FE
:1029A0009DF80B0001280AD0FFE742F21000C4F2A4
:1029B0000200016841F6EF7211400160FFE7FFE796
:1029C0009DF80B0006B080BD80B582B001468DF841
:1029D000070004208DF8060040F6FF700091FFF715
:1029E00085FD8DF806009DF8060004286CD1FFE7F0
:1029F00042F20800C4F2020040F22311C4F267510F
:102A0000016048F6AB11CCF6EF51016042F21000C4
:102A1000C4F20200016841F020010160016841F048
:102A20004001016040F6FF70FFF760FD8DF8060081
:102A30009DF80600042836D1FFE742F21000C4F2E8
:102A40000200016841F6DF7211400160016841F047
:102A5000100101609DF80700002807D0FFE74FF63E
:102A60000000C1F6FF700021018006E04FF6000073
:102A7000C1F6FF70A5210180FFE740F6FF70FFF768
:102A800035FD8DF806009DF8060001280AD0FFE705
:102A900042F21000C4F20200016841F6EF721140E8
:102AA0000160FFE70FE09DF8060001280AD0FFE76C
:102AB00042F21000C4F20200016841F6DF721140D8
:102AC0000160FFE7FFE7FFE79DF8060002B080BD69
:102AD00080B586B013468C468646ADF81600ADF834
:102AE0001410ADF8122004208DF8110042F20800F5
:102AF000C4F2020040F22311C4F26751016048F6AB
:102B0000AB11CCF6EF5101600F200393CDF808C054
:102B1000CDF804E0FFF7EAFC8DF811009DF81100F4
:102B200004282CD1FFE742F21000C4F20200016831
:102B300041F010010160BDF81600BDF81410084303
:102B4000BDF81210084340F0F8004FF60201C1F63C
:102B5000FF7108800F20FFF7C9FC8DF811009DF868
:102B6000110001280AD0FFE742F21000C4F202006F
:102B7000016841F6EF7211400160FFE7FFE79DF841
:102B8000110006B080BD00BF42F21C00C4F202007A
:102B900000688008704700BF42F22000C4F20200C3
:102BA0000068704781B000208DF8030042F21C00DD
:102BB000C4F20200006810F0020F04D0FFE7012009
:102BC0008DF8030003E000208DF80300FFE79DF877
:102BD000030001B0704700BF81B000208DF80300F2
:102BE00042F20000C4F20200006810F0200F04D08E
:102BF000FFE701208DF8030003E000208DF80300BB
:102C0000FFE79DF8030001B0704700BF83B00A469C
:102C10000346ADF80A008DF809109DF80900002858
:102C2000019200930AD0FFE7BDF80A0042F21001BA
:102C3000C4F202010A68104308600AE0BDF80A0005
:102C400042F21001C4F202010A6822EA00000860A0
:102C5000FFE703B0704700BF82B00146ADF8060041
:102C600000208DF80500BDF806000128009112D162
:102C7000FFE742F21C00C4F20200006810F0010FEE
:102C800004D0FFE701208DF8050003E000208DF857
:102C90000500FFE712E042F20C00C4F202000068F7
:102CA000BDF80610084204D0FFE701208DF80500AA
:102CB00003E000208DF80500FFE7FFE79DF8050021
:102CC00002B0704782B00146ADF80600BDF80600BC
:102CD00042F20C02C4F202021060009102B070478E
:102CE00081B004208DF8030042F20C00C4F202000F
:102CF000006810F0010F04D0FFE701208DF80300F9
:102D00001FE042F20C00C4F20200006810F0040F51
:102D100004D0FFE702208DF8030011E042F20C001E
:102D2000C4F20200006810F0100F04D0FFE7032087
:102D30008DF8030003E004208DF80300FFE7FFE7B0
:102D4000FFE79DF8030001B0704700BF81B000208D
:102D50000090FF200090FFE70098002805D0FFE7D3
:102D6000FFE7009801380090F6E701B070470000D7
:102D700082B00146ADF80600BDF8060043F200023D
:102D8000C4F200021060009102B0704782B00146A8
:102D90008DF807009DF8070043F20402C4F2000218
:102DA0001060009102B0704782B00146ADF8060095
:102DB000BDF8060043F20802C4F200021060009160
:102DC00002B0704743F20000C4F200004AF6AA21A4
:102DD0000160704743F20000C4F200004CF6CC41A1
:102DE0000160704782B00146ADF8060000208DF802
:102DF000050043F20C00C4F200000068BDF8062094
:102E00001042009104D0FFE701208DF8050003E097
:102E100000208DF80500FFE79DF8050002B070471F
:102E200080B582B04FF4006001210190FEF748FFA9
:102E300000210198FEF744FF02B080BD83B0014637
:102E400002900020019042F60440C4F200000268A3
:102E500022F4C0720192029A019B1A430192019AD4
:102E60000260009103B0704783B001468DF80B00FB
:102E70000020019042F60440C4F20000026822F0F3
:102E80007F0201929DF80B2002F07F02019B1A4302
:102E90000192019A0260009103B0704748F2A400C9
:102EA000C4F2052001210160704700BF82B00146D5
:102EB0008DF807009DF8070000F07F0042F6004201
:102EC000C4F200021060009102B0704782B0014667
:102ED0008DF807009DF8070040F0800042F60042A0
:102EE000C4F200021060009102B0704748F2001076
:102EF000C4F205200068C0B2704700BF42F6084027
:102F0000C4F2000000210160704700000348004740
:102F100003480449044A054B70470000310100088A
:102F200098020020980A00209806002098060020A9
:102F300030BF704720BF704740BF7047BFF36F8FEF
:102F40007047BFF34F8F7047BFF35F8F704701DF4C
:102F50007047EFF31480704780F31488BFF36F8FCE
:102F60007047EFF30980704780F309887047EFF3EB
:102F70000880704780F30888704762B6704772B661
:102F80007047EFF31080704771B6704761B67047B5
:102F9000EFF31380704780F311887047EFF31280CE
:102FA000704740BA704700BA7047032A40F2308039
:102FB00010F0030C00F0158011F8013BBCF1020F7A
:102FC000624498BF11F801CB00F8013B38BF11F8FB
:102FD000013BA2F1040298BF00F801CB38BF00F812
:102FE000013B11F0030300F02880083AC0F008808C
:102FF00051F8043B083A51F804CBA0E80810F5E773
:10300000121D5CBF51F8043B40F8043BAFF3008055
:10301000D20724BF11F8013B11F801CB48BF11F8CA
:10302000012B24BF00F8013B00F801CB48BF00F89A
:10303000012B704770477047704710B5203AC0F0B9
:103040000B80B1E81850A0E81850B1E81850A0E87B
:103050001850203ABFF4F5AF5FEA027C24BFB1E814
:103060001850A0E8185044BF18C918C0BDE8104057
:103070005FEA827C24BF51F8043B40F8043B08BF60
:103080007047D20728BF31F8023B48BF11F8012B27
:1030900028BF20F8023B48BF00F8012B7047754657
:1030A00000F02CF8AE4605006946534620F00700B4
:1030B000854618B020B5FFF72BFFBDE820404FF044
:1030C00000064FF000074FF000084FF0000BAC4631
:1030D000ACE8C009ACE8C009ACE8C009ACE8C0097C
:1030E00021F007018D46704710B50446AFF300800C
:1030F0002046BDE81040FDF766B800000048704764
:103100000800002001491820ABBEFEE7260002009F
:103110000246C91C21F00301D2E900031B1A8B42AD
:1031200001D2002070470144C91D21F00701116040
:1031300070472DE9F34F83B000274FF48074BA46EF
:1031400003A821468DF80070FFF7E2FF5FEA000850
:1031500001D100F083F82146404600F070F80600E7
:1031600009D04FF0010B4546C14616F8014B8FB10F
:103170005C2C16D01CE008F108004146C8F800009D
:103180000020C8F80400D8F800402070012005B0E5
:10319000BDE8F08F222C01D0272C0FD12746BA464C
:1031A0002CE03078222807D05C2805D0272803D0CF
:1031B000BC4203D1002721E0761C04464CB12FB954
:1031C000202C06D0A4F10900042802D905F8014BEF
:1031D000CBE74D4502D1BAF1000F0FD05246494618
:1031E000002005F8010B6846AFF300809DF8000051
:1031F00070B14D464FF0000A0BF1010B002CB4D119
:103200004FEA8B0103A8FFF783FF040002D004E01C
:10321000A946EFE7002000F021F800204246C4F85C
:10322000008005E012F8011B11B9401C44F8202071
:10323000AA42F7D3002144F820102146A7E71CB585
:103240000446CDE9000169461520ABBE08B1002057
:103250001CBD20461CBD70477047704710B500F07C
:1032600009F8BDE81040AFF30080002801D0FFF757
:1032700049BF704710B5012805D0002103A000F018
:1032800021F8012010BD09A1F8E700005349475279
:10329000544D454D3A204F7574206F662068656126
:1032A00070206D656D6F7279000000003A204865EE
:1032B0006170206D656D6F727920636F72727570C9
:1032C0007465640070B505460C460A2000E06D1C6C
:1032D00000F011F835B128780028F8D102E0641C1C
:1032E00000F009F814B120780028F8D1BDE870404A
:1032F0000A20AFF3008008B569468DF8000003206E
:10330000ABBE08BD02040608000000000102030471
:1033100001020304060708093F065B4F666D7D073F
:103320007F6F777C395E7971483300080000002098
:10333000080000006C01000850330008080000205D
:10334000900A000088010008040000000020000826
:0400000508000131BD
:00000001FF
