:020000040800F2
:200000000048E801000C0240000C0240000C0240000C024000000240001002400010024091
:200020000010024000100240001002400044004000480040000C024000080240000C0240D8
:200040000008024082B000200090019043F60001C4F20201086850F480300860086810F4B0
:20006000003001900098401C00900198002803D10098B0F5A06FF1D1086810F4003018BF1D
:2000800001200190019801284DD143F60040C4F20200026852F004020260026852F00202D9
:2000A0000260026852F00102026043F62400C4F20200026852F0805202605FF4006047F2EC
:2000C0000002C4F20002106047F20400C4F20000026812F01002FBD143F60802C4F20202BC
:2000E000106810601068106010681060106830F47D001060106850F49A001060086850F049
:2001000080700860086810F00070FBD0106830F003001060106850F003001060106810F02E
:0A0120000C000C28FAD102B0704761
:20012C0000B55FF440515FF0006000F0EBF9002000F040F9012000F03DF9022000F03AF9C2
:20014C00032000F037F9002000F0A8F9022000F0A5F9224800685FF47A71B0FBF1F06FF0F4
:20016C007F41884201D9012021E030F07F40401E5FF0E02148610F205FEA001010F0FF0030
:20018C005FF0FF31002908DA11F00F01091F4EF61852CEF20002505403E05FF0E02181F8D0
:2001AC00FF0300205FF0E021886107220A61002800D0FEE7012000F03DF9032000F03AF9DA
:2001CC00322000F0A9F9002000F034F9022000F031F9642000F0A0F9ECE7C04600080020A8
:2001EC002DE9F04306000A0000235FF0010E03240125032748E01EFA03F0116801408142F2
:20020C0041D15FEA430114FA01F06FEA0008306810EA080030603068D2F8049019FA01F9A6
:20022C0050EA090030605068012801D002281BD1B06810EA0800B060B068D2F8088018FA71
:20024C0001F850EA0800B060B08815FA03F830EA0800B080B6F80480D06880B210FA03F01A
:20026C0080B258EA0000B080F0685FEA430817FA08F830EA0800F060F068D2F8108018FA9B
:20028C0001F10843F0605B1C102BB4D3BDE8F0831449084714498D4600F02EF8134B002004
:2002AC001C685D689E68DF68012C02D0022C06D00AE07F1EF15DE955FBD11033F0E77F1E03
:2002CC00E855FCD11033EBE700F0C6F80848824600F005F80749FFF723FF00F037F9002098
:2002EC007047C046A1020008000800205C050008000000200000000000B543F60000C4F235
:20030C000200016851F48071016043F60801C4F202010A684CF20C03C8F6FF031A400A6091
:20032C00026832F0011232F088520260026832F480220260086830F47D000860002043F64E
:1E034C000C01C4F202010860FFF776FE43F20000C0F600005FF0E021C1F8080D00BD35
:20036C00010000080010000200040001010000001000000010000000100000001000000010
:20038C001000000001000008001000020004000100000400040004000400040000000B0002
:2003AC000C0009000A00080006002800280017002800170030B585B004000F4911EB80016B
:2003CC000868012100F05AF80C4810EB4400058800950120019000200390049003200290DA
:2003EC00074810EB840420686946FFF7F9FE2068058305B030BDC04600050008F804000832
:20040C00040800200000020000000400080000000400000008000000040000002000000462
:20042C004000000805000A0006000B000700070007000700064911EB8001096831F8142F83
:20044C00044B13EB4003188892EA00000880704704080020F804000805480649884206D039
:20046C00054A50F8043B41F8043B9142F9D1704700300008003000085031000843F61C027E
:1A048C00C4F20202002903D0116851EA000002E0116831EA0000106070474F
:2004A800044911EB80010968034A12EB400210884883704704080020F8040008030406080E
:2004C8000C101820300000000000000000000000010203040607080904480168002908BFC3
:2004E80070470168491E01607047C0464408002001000200100020000800000008000000A0
:20050800080000000800000031F0604131F07F0108435FF0E021C1F8080D7047024908608D
:1205280008680028FCD1704744080020FFF7D4BF7047F9
:02053C00FEE7D8
:02054000FEE7D4
:02054400FEE7D0
:02054800FEE7CC
:02054C007047F6
:020550007047F2
:020554007047EE
:02055800FEE7BC
:20055C00010000000008002000000008440000000200000044080020000000000400000098
:10057C00000000000000000000000000000000006F
:20300000000000209D020008390500083D0500084105000845050008490500081C3000080F
:203020002030000824300008283000084D05000851050008343000085505000835050008B4
:203040004030000844300008483000084C3000085030000854300008583000085C30000840
:203060006030000864300008683000086C3000087030000874300008783000087C30000820
:203080008030000884300008883000088C3000089030000894300008983000089C30000800
:2030A000A0300008A4300008A8300008AC300008B0300008B4300008B8300008BC300008E0
:2030C000C0300008C4300008C8300008CC300008D0300008D4300008D8300008DC300008C0
:2030E000E0300008E4300008E8300008EC300008F0300008F4300008F8300008FC300008A0
:203100000031000804310008083100080C3100081031000814310008183100081C31000877
:203120002031000824310008283100082C3100083031000834310008383100083C31000857
:103140004031000844310008483100084C31000883
:040000050800029D50
:00000001FF
