:020000040800F2
:1020000010170020F97C0008B9290008BB29000836
:10201000BD290008BF290008C129000800000000F0
:10202000000000000000000000000000C3290008BC
:10203000C529000800000000C7290008C9290008B8
:10204000137D0008352A0008137D0008572A000870
:10205000137D0008137D0008137D0008137D000820
:10206000137D0008137D0008137D0008137D000810
:10207000137D0008137D0008137D0008137D000800
:10208000137D0008137D0008137D0008137D0008F0
:10209000137D0008137D0008137D0008137D0008E0
:1020A000137D0008137D0008137D0008137D0008D0
:1020B000CB290008137D0008137D0008137D00085C
:1020C000137D0008137D0008137D0008137D0008B0
:1020D000137D0008EB290008137D0008137D00081C
:1020E000137D0008137D0008137D0008137D000890
:1020F000137D0008137D0008137D0008137D000880
:10210000137D0008137D0008137D0008137D00086F
:10211000137D0008137D0008137D0008137D00085F
:10212000137D0008DFF80CD005F03CFE00480047A6
:102130003D2800081017002010F0030F09D1FE49B8
:10214000A1FB002149096FF01802514310EB8101F6
:1021500008D14FF4C871B0FBF1F201FB120008B1D5
:10216000002070470120704710B501F03FF8F34A96
:10217000F3499078487153780B711278CA70F14A1C
:1021800093788B7053784B70D2780A7010BD01F041
:1021900059B830B583B00446EB4A00216D4610783B
:1021A0006854521C481CC1B20C29F8D30621684659
:1021B00002F046FC2070000A60700621A81D02F0A3
:1021C0003FFCA070000AE07003B030BD00B583B0E2
:1021D0000021012003F046FD00214FF4804003F070
:1021E00035FD0021072003F025FD0021012003F02B
:1021F0002DFD4FF6FF70009000208DF805000320A4
:102200008DF804006946D14803F084FB6946D04844
:1022100003F080FB6946CF4803F07CFB03B000BDB0
:10222000CD48006870472DE9F04784B004464FF46C
:102230001045207800286BD16078B5281BD00A287B
:1022400019D02079411D204602F0FAFB0146207981
:10225000621DA31D825CC05C42EA002081420AD05C
:10226000002140F20B12084600F09FFF04B04FF02F
:10227000FF30BDE8F0876078DFF8E082DFF8E092B9
:102280000027B84E04F109010D2800F0228209DC74
:1022900026D2DFE800F0254173A0DAFDFCFBFAF955
:1022A000F8F7F600142800F0658208DCA0F10F00B2
:1022B000052815D2DFE800F0F1F0EFEEED00B528CB
:1022C00000F0978206DC152800F07582162807D1E9
:1022D00000F0EEB9B62800F09082B72800F09682A0
:1022E000F77040F2FF1500212A46084600F05DFF16
:1022F000FFF796FFB060FFF793FF306105F08BFBAF
:102300000120F07098480770984807709848077047
:1023100004B028B2BDE8F087A0787178884225D152
:10232000E078B178884221D1FFF71EFF607978B953
:10233000A17903290CD8227AE37942EA032201F039
:10234000E4FD85B200212A46084600F02EFF07E092
:10235000217AE27941EA0222A17901F04AFD85B2AF
:1023600000212A46084600F020FFC1E74FF481759E
:1023700000212A46084600F018FFB9E7A0787178D6
:10238000884220D1E078B17888421CD1FFF7ECFE7A
:10239000607948B9A179032906D8002140F20712D3
:1023A000084600F002FFA3E7217AE279637A41EA66
:1023B0000222A17901F016FE85B200212A460846C4
:1023C00000F0F3FE94E74FF4817500212A46084699
:1023D00000F0EBFE8CE7A078717888422DD1E07890
:1023E000B178884229D16079A8B9A179032912D896
:1023F00004F10A020092227AE37942EA0322637A24
:1024000002F0A9F985B20023FF211A46084600957B
:1024100002F027FA0BE004F10A010091217AE27937
:10242000637A41EA0222A17901F0A2FE85B200217D
:102430002A46084600F0B9FE5AE74FF4817500219C
:102440002A46084600F0B1FE52E7637A9946B9F190
:10245000800F06D9002140F20312084600F0A5FEC5
:1024600046E76079D0B9A179032917D8CDF8008063
:10247000227A94F807C042EA0C2202F0F2F985B2FF
:1024800016E0F6E0E5E0BBE0A7E099E07DE042E0A1
:102490001EE060E14AE13BE131E125E1CDF8008059
:1024A000217AE27941EA0222A17901F0B0FE85B2F7
:1024B000B5F5104F05D000212A46084600F075FEFC
:1024C00016E74FF410424946244800F06EFE0FE72D
:1024D000A0787178884203D1E178B27891420AD02D
:1024E00008B9E07838B14FF4817500212A460846D2
:1024F00000F05BFEFCE604F108000090E379A179AE
:102500006079FF2201F0A3FE85B200212A46084629
:1025100000F04BFEECE6CDF80080237AE279A17959
:10252000607901F03BFF85B2B5F5104F25D0002151
:102530002A4608461EE000001F85EB515C00002083
:1025400020000020600000205000F81F0000024022
:102550000004024000080240780000208E010020A4
:10256000A7020020000000203D0000203E000020C7
:102570003F00002000F019FEBAE699F804104FF46D
:102580001042FE4800F011FEB2E60091237AE27993
:10259000A179607901F088FF85B2B5F5104F05D0BB
:1025A00000212A46084600F000FEA1E699F8040042
:1025B0004FF41042801CC1B2F04800F0F6FD97E6DF
:1025C000237AE279A179607902F002F885B20021DC
:1025D0002A46084600F0E9FD8AE6607930B9A1791B
:1025E000032903D802F0D8F985B203E0A17901F0FC
:1025F000E9FB85B200212A46084600F0D6FD77E6C1
:10260000042004F0D8FBDE4C207000F054FDDD48BF
:102610000068C8F80000D6F82600C8F80400D6F80C
:102620002A00C8F80800D6F82E00C8F80C00D6F822
:102630003200C8F81000207888F81400A8F8157047
:1026400088F817704FF410421821CC4800F0ADFD07
:102650004EE605F063FB706105F060FBB0617169E7
:10266000029103904FF41042082102A800F09DFD52
:102670003EE6C548D4F805100160D4F80910416061
:10268000D4F80D108160D4F81110C160BF480178F2
:10269000012906D04FF410420021B84800F085FD12
:1026A00026E60770B84A3178B64800F042FD1FE6CA
:1026B00005F034FB707088F8000005F02FFBB07057
:1026C00088F801004FF410420221AC4800F06DFD83
:1026D0000EE6A179607901F037FB00214FF410423A
:1026E000084600F062FD03E6A179607901F023FF5E
:1026F00085B22A460A21A64800F057FDF8E5FFF703
:1027000033FD4FF410420621A24800F04EFDEFE5E4
:10271000D4F805003062B4F80900B084FFF737FD43
:1027200000212A46084600F040FDE1E56079A179E4
:1027300040EA0120052806D2002140F2FF12084697
:1027400000F033FDD4E5B08000214FF4104208467C
:1027500000F02BFDCCE5022002F044F81022611DB0
:10276000002002F073FC4FF410421021601D00F0B5
:102770001CFDBDE594F809A0CDF800A0CDF80480BB
:10278000237AE279A179607901F03DFE85B2B5F551
:10279000104F05D000212A46084600F006FDA7E5A7
:1027A00099F804004FF4104200FB0AF0C1B27348DC
:1027B00000F0FBFC9CE5A0787278904211D1E078A3
:1027C000B27890420DD10091237AE279A1796079B3
:1027D00001F099FD85B200212A46084600F0E5FC8B
:1027E00086E54FF4817500212A46084600F0DDFC9D
:1027F0007EE5204600F0FBFE7AE501F0A3FF002114
:102800004FF41042084600F0D0FC71E500212A4642
:10281000084600F0CAFC6BE510B545F2555005F0CE
:10282000F1F8062005F0F1F84FF47A7005F0F0F8B1
:1028300005F0F1F8BDE8104005F0F2B882B0564C52
:1028400000256570A57003F0DBF8012003F03AF96C
:1028500000F0A0FD00F05CFD00F01EFD00F083FD27
:1028600000F07FF900F00DFC00F06BFA4548FFF72F
:1028700090FC0023FF211A460846009501F0F1FF65
:102880000121080703F0EEF9012004F065F980B298
:102890003E4EA0F52A41553902D0FFF7BDFF0EE0AC
:1028A000FFF794FC0021012004F051F900F03AFAFE
:1028B00035700121002004F020FA04F06CFA00F0D9
:1028C000B0FD05F02BFA606105F028FAA061142034
:1028D000A080FFF7A5FCA060E0606421274805F018
:1028E00048FAE5700321217001273770264A2548F0
:1028F00000F01FFC00F0DFFBDFF8A080DFF8A09005
:1029000005F089F8FFF78CFCE0612169401A322854
:1029100002D3E07800B1E570E07860B900F0D6FB52
:10292000207040B137700146174A164800F001FC8C
:10293000FFF776FCA06000F0EEF882461AF1010085
:102940000DD0FFF76DFCA06005F065F80AF0FF01FF
:102950000A48FFF768FCB8F80000A9F80000FFF784
:102960005FFCE061A168411A00D54942A08800EBF4
:10297000C00202EB0010B1EB800F13E08E010020CB
:102980008100002082000020E8000020800000205C
:102990003002002020000020000000207C000020E9
:1029A0007E000020ACDB4AF65521012004F0CFF870
:1029B00000F065FDA4E700007047FEE7FEE7FEE7D4
:1029C000FEE7704770477047704710B501218807D0
:1029D00004F049FF002807D00121880704F04EFFCA
:1029E0001D480168491C016010BD10B51B4C40F228
:1029F0002551204603F099FBA8B1204603F0E8FAE0
:102A0000174BDFF860C01A88511C89B20CF802001D
:102A10001548A0FB01200009A0EB001000EB80008E
:102A200001EB400018802046BDE8104040F22551DF
:102A300003F09FBB10B54FF4803002F09EFC0028DD
:102A400008D04FF4803002F0A4FC042004F0B3F965
:102A50000649087010BD704778000020003801401A
:102A60007C000020F8000020B5814E1B36000020BD
:102A700010B5324C0146204603F0A6FA80212046CC
:102A800003F047FB0028F9D010BD10B504462078AC
:102A9000002806D02078FFF7EBFF641C2078002880
:102AA000F8D110BD70B50546481EC4B2002908D043
:102AB00015F8010BFFF7DCFF2000A4F10101CCB2F7
:102AC000F6D170BD70B50324002821D0012801D0B3
:102AD000201F70BD1A4E1B4D30882988884210D0A7
:102AE0002888194A411C89B2105C184AA2FB01329D
:102AF0001209A2EB021202EB820201EB42012980D1
:102B000070BD601EC4B20CB100F0D5FA002CE3D148
:102B10004FF0FF3070BD70B500240D4D0120FFF760
:102B2000D1FF411C04D02146621CD4B26854F5E7A1
:102B30000CB1204670BD4FF0FF3070BD0038014031
:102B40007C0000207E000020F8000020B5814E1B94
:102B50008E010020C0EB002000E0401E0028FCD1C8
:102B6000704770B582B00121032003F063F80121A2
:102B7000084603F06BF84FF40070009001258DF8C3
:102B8000045000248DF80740FB4E6946304602F0A1
:102B9000C1FE202000908DF807408DF80450694652
:102BA000304602F0B7FE102000908DF807408DF8F7
:102BB00004506946304602F0ADFE280200908DF8C0
:102BC00007408DF804406946304602F0A3FE6902D2
:102BD000304602F0FBFE1021304602F0F7FE2021C5
:102BE000304602F0F3FE2902304602F0EFFE02B05A
:102BF00070BD0021012003F035B80121084603F023
:102C000031B810B50100DC4804D0BDE810404115D2
:102C100002F0DEBE4FF40071044602F0D7FE102130
:102C2000204602F0D3FE2046BDE81040202102F0ED
:102C3000CDBE70B500250024CF4E6006040E1021D5
:102C4000304602F0C5FE4FF48071304602F0B5FE0A
:102C500008B144F001041021304602F0B7FE681CB0
:102C6000C5B2082DE9D3204670BD70B505460024D5
:102C7000C14E1021304602F0ABFE15F0800F0ED091
:102C80002021304602F0A2FE1021304602F09EFEC6
:102C90006806050E601CC4B2082CEAD370BD202162
:102CA000304602F095FEEFE710B50120FFF7A9FFCF
:102CB0000520FFF7DAFFFFF7BCFF04460020FFF70F
:102CC000A0FF204610BD10B5441E00280DDD04F005
:102CD000A2FE5020FFF73EFFFFF7E6FF10F0010FC6
:102CE00003D0201EA4F10104F1DC10BD10B50120B9
:102CF000FFF787FF9020FFF7B8FF0020FFF7B5FF31
:102D00000020FFF7B2FF0020FFF7AFFFFFF791FFB2
:102D10000446FFF78EFF40EA04240020FFF771FF0E
:102D2000204610BD10B500240120FFF76AFFB9202E
:102D3000FFF79BFF00F0B4F90020FFF762FF204689
:102D400010BD10B500240120FFF75BFFAB20FFF79B
:102D50008CFF00F0A5F90020FFF753FF204610BDBF
:102D600010B50120FFF74DFF9F20FFF77EFFFFF713
:102D700060FF0446FFF75DFF40EA0424FFF759FFB8
:102D800040EA04240020FFF73CFF204610BD2DE957
:102D9000F04105460C461646FFF72BFF0120FFF7D2
:102DA00030FF764F03203870210C7970210AB970FA
:102DB000FC70FFF75AFF7878FFF757FFB878FFF7F6
:102DC00054FFF878FFF751FF0024002E06DDFFF7CF
:102DD00030FF28706D1C641CB442F8DB0020FFF744
:102DE00010FFBDE8F04108E72DE9F84305460C4621
:102DF000164600200090FFF7FCFE0120FFF701FFC0
:102E00000B208DF80000C4F307478DF80170C4F360
:102E100007288DF80280E4B28DF80340FFF725FF04
:102E20003846FFF722FF4046FFF71FFF2046FFF717
:102E30001CFFFFF7FEFE0024002E06DDFFF7F9FE63
:102E400028706D1C641CB442F8DB0020FFF7D9FE2B
:102E5000BDE8F843D1E62DE9F84305460C46164691
:102E6000002000900120FFF7CCFE0620FFF7FDFEBA
:102E70000020FFF7C6FE0120FFF7C3FE02208DF8F9
:102E80000000C4F307478DF80170C4F307288DF8DC
:102E90000280E4B28DF80340FFF7E7FE3846FFF703
:102EA000E4FE4046FFF7E1FE2046FFF7DEFE002489
:102EB000002E06DD2878FFF7D8FE6D1C641CB44296
:102EC000F8DB0020FFF79DFE4FF47A70FFF7FBFE62
:102ED0000120FFF796FE0420FFF7C7FEBDE8F84388
:102EE00000208EE62DE9F04180460D461646FFF79C
:102EF00080FEE9B28A19A2F5807087B2F01B84B215
:102F0000B2F5807F0BD9224629464046FFF7A3FF42
:102F1000291908EB04003A46FFF79DFF04E032460A
:102F200029464046FFF797FFBDE8F04165E610B53A
:102F30000120FFF766FE0620FFF797FE0020FFF74F
:102F400060FEFFF7B1FE10F0020F19D00120FFF76D
:102F500058FE0120FFF789FE0020FFF786FE0020C3
:102F6000FFF74FFE6420FFF7AEFEFFF79DFE10F067
:102F7000BC0F07D0012010BD000402403700002024
:102F80000120F8E70020F6E710B50120FFF739FE31
:102F90000620FFF76AFE0020FFF733FEFFF784FEEE
:102FA00010F0020F1FD00120FFF72BFEC720FFF704
:102FB0005CFE0020FFF725FE04F02DFD5020FFF7FA
:102FC000C9FD04F028FD5020FFF7C4FD04F023FDE7
:102FD0005020FFF7BFFD04F01EFD41F28830FFF7DF
:102FE00072FE002010BD012010BDF8B5044600207F
:102FF0000090FFF7FEFD0120FFF703FE0620FFF71C
:1030000034FE0020FFF7FDFD20278DF80070C4F38B
:1030100007458DF80150C4F307268DF80260E4B22D
:103020008DF803400120FFF7ECFD3846FFF71DFE49
:103030002846FFF71AFE3046FFF717FE2046FFF737
:1030400014FE0020FFF7DDFD04F0E5FC5020FFF743
:1030500081FD04F0E0FC5020FFF77CFD04F0DBFC78
:1030600041F28830FFF72FFEFFF71EFE10F0020F2F
:1030700003D0FFF7C2FD0120F8BDFFF7BEFD002021
:10308000F8BD10B5FFF753FFFFF730FE18B1A0F5FC
:103090007F41FF3901D1012010BD002010BD00008B
:1030A00000210020401C80B2C828FBD3481C81B2FC
:1030B0006429F6D3704700210020401C80B2C82844
:1030C000FBD3481C81B20029F6D0704770B50121AE
:1030D000F94802F072FC0025F84C012811D0657007
:1030E000F74E8021304602F068FC012811D0A5700F
:1030F0004021304602F061FC012812D0E57000202A
:1031000070BD6078401CC0B260706428E8D90320AC
:1031100070BDA078401CC0B2A0706428E8D902201D
:1031200070BDE078401CC0B2E0706428E7D901208F
:1031300070BD10B586B0FF238DF8003001238DF8E7
:10314000013000248DF802408DF803400D238DF8E6
:10315000043003788DF8053043788DF80630837895
:103160008DF80730C0788DF808008DF809101068C8
:10317000CDF80A005068CDF80E00ADF812408DF879
:103180001440022001F02EFB10220DF10501002059
:1031900001F05CFF90208DF815008DF81640172186
:1031A0006846FFF77FFC06B010BD70B5A4B00C46B2
:1031B000150AD6B2002C0FD00146224601A804F011
:1031C000BFFD01A8055520444670A01CC1B201A84E
:1031D000FFF768FC24B070BD8DF804508DF80560D1
:1031E000022101A8FFF75EFC24B070BD10B5B549FF
:1031F000002003F051F9BDE81040B349002003F06E
:10320000EEB9704710B50121080702F02BFD01202F
:1032100003F066FD012002F055FC412002F00FFC96
:103220000028FAD04FF4003002F0E7FCA348FF2159
:1032300081607F214160012002F0F6FCBDE8104072
:1032400002F0A2BF10B5A1499F480A78C2704A781F
:1032500042708A7882709B4AC87810700B795370DC
:10326000497991700C2802D34020D07001E00020F1
:10327000D0709549002003F03BF99249002003F0FB
:1032800091F8002807D04FF49071002003F05FFC04
:10329000BDE81040AAE710BDF0B583B001210320BE
:1032A00002F0C8FC0121084602F0D0FC012500957F
:1032B00000248DF807408DF804407F4E6946304663
:1032C00002F028FB802000908DF807408DF8044024
:1032D0007B4F6946384602F01DFB402000908DF878
:1032E00007408DF804406946384602F013FB280376
:1032F000009002208DF807008DF804506946304692
:1033000002F008FB2903304602F062FB03B0F0BD77
:1033100038B50121080702F0A5FC4FF400518803DD
:1033200001F097FF4FF4C06001F056FF25208DF8A3
:10333000000000208DF8020001248DF8034068464B
:1033400001F051FF802003F0CEFC012003F0D2FCFD
:103350001C208DF800008DF802408DF8034068466F
:1033600001F041FF38BD00B585B04FF4E130009069
:103370000020ADF80400ADF80600ADF80800ADF887
:103380000C000C20ADF80A006946002004F03CFC5B
:1033900005B000BD2DE9F04102F030FF4C4C4FF07C
:1033A0007F08C4F8048040F23116A6600027276029
:1033B000204602F07BFF002003F0CEFB3F4DA862C9
:1033C000B0F5907F0CD0FFF71DFFC4F80480A66015
:1033D0002760204602F06AFFA862FFF733FF0FE084
:1033E0005B2002F02CFB10B95A2002F028FB0121CF
:1033F000080702F037FC012003F072FC02F0C4FE63
:10340000012003F0E0FC022003F0D5FC002806D0E8
:10341000022003F0D8FCBDE8F04102F0B5BEBDE8E3
:10342000F08100B583B00121084602F01BFC4FF487
:103430007A7001902620ADF800000020ADF8080059
:10344000ADF8020069464FF0804003F0F0FE012124
:10345000880704F005FA00214FF0804003F03FFF99
:1034600001221146900704F0E7F90121880703F0D3
:1034700052FF03B000BD0A460021084695E601212F
:10348000C80202F0EFFB4F2003F0D1FCFEE710B5BD
:1034900001F014FE094C0920E0600E48206101F0A3
:1034A0007EFE0D48E0614FF4D84001F08CFEA06133
:1034B000002060611AE00000000002403C00002093
:1034C000000402405C00002060000020200000207A
:1034D0002402002000FEFFFF00940008E16901EBD8
:1034E000002001F0F4FD6069401C6061A169606921
:1034F000884202D221780429F0D010BD2DE9F04194
:103500001646B0F5D84F02DB0120BDE8F0818219E4
:10351000B2F5D84F02D30120BDE8F081C84D00F1CB
:10352000006000F51440E861E96201F0C7FD01F0B8
:1035300036FE0024C34F12E0E96A096801F0C5FFB6
:103540002870E869E96A02680B689A4202D0012093
:10355000BDE8F081001DE861081DE862241DB44249
:1035600002D2E869B842E7D30020BDE8F08170B527
:1035700088B0002400940194029403940494059468
:103580000694079401F09AFDAD4D0920E860AE481D
:103590000126286101F003FE8DF800608DF80140DE
:1035A0008DF802408DF80340A848E86101F08FFDD6
:1035B000C5F82CD001F082FD01F0F1FDA44E0FE022
:1035C000E96A096801F081FF2870E969E86A0A6818
:1035D00003689A4209D1091DE961001DE862241DB2
:1035E000102C02D2E869B042EAD308B070BD2DE9D0
:1035F000F041A0B00579C178914CEC4601290DD07D
:1036000022460229166B7DD0032900F0CD800721C8
:10361000B520FFF730FF20B0BDE8F081002626631B
:10362000802D06D00721B520FFF725FF20B0BDE88B
:10363000F0814179027A837941EA0261C279120408
:1036400042EA03220A43417B037C877B41EA036110
:10365000C37B1B0443EA07230B43417D077E90F89D
:10366000168041EA0761C77D3F0447EA08273943CE
:103670006163784FBA4206D01521B520FFF7FBFEF3
:1036800020B0BDE8F0816FF3100333B11521B520F0
:10369000FFF7F1FE20B0BDE8F081A1F50051B1F5D2
:1036A000984F06D91421B520FFF7E5FE20B0BDE8FC
:1036B000F081A66300214218537E167F43EA066319
:1036C000D67E927E360446EA02221A43A36B134446
:1036D000A363083A0CEB0103160EDE70160C9E7005
:1036E000160A5E700CF80120091D89B26C29E2D31C
:1036F000FFF7CDFEA5F114026946206BFFF7FEFE31
:1037000040B100E011E00121B520FFF7B4FE20B088
:10371000BDE8F081A5F1140020634FF41041B520FD
:10372000FFF7A9FE20B0BDE8F081802D06D007216B
:10373000B520FFF7A0FE20B0BDE8F08100214218BF
:103740005379177A43EA0763D77992793F0447EAB6
:1037500002221A43A36B1344A363083A0CEB010340
:10376000170EDF70170C9F70170A5F700CF801209E
:10377000091D89B28029E2D3802269463046FFF7CD
:10378000BDFE30B10121B520FFF775FE20B0BDE8C8
:10379000F081206B284420634FF41041B520FFF7DF
:1037A0006AFE20B0BDE8F081A18E891B8DB2942DF8
:1037B00006D90721B520FFF75EFE20B0BDE8F081F5
:1037C0000021002D1DD943185A791F7A42EA076259
:1037D000DF799B793F0447EA03231A43A36B134421
:1037E000A363A2F108030CEB01021F0ED7701F0C9C
:1037F00097701F0A57700CF80130091D89B2A94251
:10380000E1D32A4669463046FFF778FE70B10121C0
:10381000B520FFF730FEFFF7AAFE4FF41041B520A8
:10382000FFF729FEFFF73CFCFFF729FE206B284439
:1038300020634FF41041B520FFF71DFEEBE70000B9
:103840003C0000200000010800FEFFFF009000087F
:103850001090000802000FEF531E9BB2002A0AD0FE
:10386000F74A125C0A70491C401C80B21A00A3F18E
:1038700001039BB2F4D170472DE9F0410D46174684
:1038800000F1006606F5002672B601F0BBFDED48BA
:10389000016811F0010FFBD1016841F480710160F2
:1038A000781E84B257B12978304601F090FE761C1C
:1038B0006D1C2000A4F101018CB2F4D101F014FEC2
:1038C00062B6BDE8F0812DE9F0414FF470774FF416
:1038D0000074DD4D72B601F095FDDA4E306810F0DF
:1038E000010FFBD1306840F480703060641E05D356
:1038F000284601F022FE2D1D641EF9D201F0F4FDD0
:1039000062B604F088F8D14DA7F5007472B601F0E4
:1039100079FD306810F0010FFBD1306840F4807001
:103920003060641E05D3284601F007FE2D1D641E7D
:10393000F9D201F0D9FD62B6BDE8F04104F06BB8F0
:1039400000B54022C2499000FFF786FF002000BD6D
:1039500010B54022BE499000FFF78EFF002010BD39
:1039600030B500250024FFF7EBFFB94B0021185DAF
:1039700020FA01F212F0010F01D16A1C95B2491C24
:10398000C9B20829F4D3601C84B2402CEED3284677
:1039900030BD2DE9F041C0F3C70400F00700C0F1CD
:1039A0000802AB4F01268A422DDA891ACA1701EBA9
:1039B0005272C2F3C70822F00702891ACDB2082852
:1039C00008D2395D06FA00F211433955401CC0B2E5
:1039D0000828F6D3B8F1000F05D03819401CFF2293
:1039E000414604F0BFF90020002D19D904EB08016D
:1039F000394406FA00F34A781A434A70401CC0B2B0
:103A0000A842F6D30CE00144C9B2884208D23A5D1C
:103A100006FA00F31A433A55401CC0B28842F6D366
:103A2000BDE8F04194E72DE9F041C0F3C70400F090
:103A30000700C0F10802864F01268A422DDA891A52
:103A4000CA1701EB5272C2F3C70822F00702891AA3
:103A5000CDB2082808D2395D06FA00F291433955F3
:103A6000401CC0B20828F6D3B8F1000F05D03819B1
:103A7000401CFF22414604F075F90020002D19D9A1
:103A800004EB0801394406FA00F34A789A434A7075
:103A9000401CC0B2A842F6D30CE00144C9B288422F
:103AA00008D23A5D06FA00F39A433A55401CC0B278
:103AB0008842F6D3BDE8F0414AE7F0B4054600235A
:103AC0000022501E4FF0000C614E0021F45C24FADD
:103AD00001F717F0010F0DD04FF0000C0022501E1F
:103AE000491CC9B20829F2D3591C0BB2402BECDB9C
:103AF000F0BC7047BCF1000F04D101EBC30000B271
:103B00004FF0010C521C12B2AA42E9DBF0BC704724
:103B10002DE9F043074688460B224E494FF4A0702A
:103B2000FFF79AFE0024DFF82C9109F10B06D9F873
:103B30000300C4EBC40101EB04114518A8B217221D
:103B40004549FFF789FE3078B84205D17078404585
:103B500002D1B07D012807D0601CC4B2532CE6D33B
:103B60004FF0FF30BDE8F0832846BDE8F0832DE933
:103B7000F04706460F464FF0FF350B2237494FF40A
:103B80000060FFF769FE0024DFF8D09009F10B0810
:103B9000D9F8030004EB840100EB810A1FFA8AF0D4
:103BA00014222F49FFF758FE98F80000B0420AD1BE
:103BB00098F80100B84206D198F813200AB94FF0DE
:103BC000FF35012A06D0601CC4B2632CE0D328461E
:103BD000BDE8F0875046BDE8F0872DE9F047804604
:103BE00089464FF0FF370B221C494FF40060FFF766
:103BF00033FE0024DFF864A00AF10B06DAF80300B4
:103C000004EB840100EB8105A8B214221449FFF7EC
:103C100023FE307840450BD17078484508D1F07CC0
:103C2000002801D04FF0FF3702D12846BDE8F087C9
:103C300004F10100C4B2632CE0D33846BDE8F0873C
:103C400000000808043C024010000808100808089A
:103C50003A0200207A020020850200209C02002007
:103C6000A702002070B5FFF753FF0446601C0BD07D
:103C7000A0B21722F949FFF7EFFDF848817D01292D
:103C800005D040F2FF1070BD4FF4847070BD002568
:103C9000857505704570A0B21722F049FFF7ECFD5D
:103CA0000B22EF494FF4A070FFF7D6FDEC490878DE
:103CB00048B1401E08704D700B224FF4A070FFF702
:103CC000DBFDE84870BD40F2FF1070BD70B5FFF736
:103CD0004EFF0446601C0DD0A01C0BD0A0B21422D5
:103CE000E149FFF7B9FDE04DE87C012805D04FF42C
:103CF000837070BD4FF4847070BD0020E87428702C
:103D00006870A0B21422D849FFF7B6FDD5F80500B7
:103D10000121C0F30F30FFF786FE0B22D3494FF489
:103D20000060FFF799FDD148017851B14178491CF5
:103D3000417001460B224FF40060FFF79DFDC9481A
:103D400070BD4FF4837070BD70B50024FFF70FFF96
:103D50000546681C0DD0A81C0BD0A8B21422C2497D
:103D6000FFF77AFDC04EF07C012805D04FF4837038
:103D700070BD4FF4847070BD0020C6F80900A8B271
:103D8000B0F5807F02D240F2FF1070BDA8B21422BD
:103D9000B549FFF771FD307971884843050B00057F
:103DA000000D01D0681C85B2002D09D9D6F8050098
:103DB00000EB0430FFF719F9601CC4B2AC42F5D334
:103DC000A84870BD70B504460D4629462046FFF749
:103DD00049FF80B2B0F5104F09D029462046FFF7C1
:103DE00075FF80B2B0F5104F01D000B270BD9D4894
:103DF00070BD2DE9F05F82468B4615465946504608
:103E0000FFF786FE401C03D040F20710BDE8F09F8C
:103E100059465046FFF7ABFE401C03D040F2071056
:103E2000BDE8F09F2C0B2805000D01D0601C84B26A
:103E3000FFF796FDA04203D240F20310BDE8F09FC9
:103E4000E0B2FFF73AFE0646701C0BD04FEA063888
:103E50004046FFF7CAF8B5F5807F07D940F2031056
:103E6000BDE8F09F40F20910BDE8F09F0B227C49AD
:103E70004FF4A070FFF7F0FC794F4FF0010938784C
:103E800078B1D7F807101731C7F80710401CC0B237
:103E900038707978084453280DD940F20910BDE8EC
:103EA000F09F4FF4C070C7F80300C7F8070087F809
:103EB00000901720B8700B2269494FF4A070FFF7EB
:103EC000DBFC664880F800A080F801B04580C0F8AF
:103ED000048000218160C560654AA0F15501136826
:103EE000C1F865309288A1F8692080F81690B7F87B
:103EF0000700172280B25531FFF7BEFCE1B2B0B225
:103F0000FFF747FD5748BDE8F09F2DE9F041804697
:103F10000F46144639464046FFF7FAFD401C03D0D1
:103F200040F20710BDE8F08139464046FFF71FFE1A
:103F3000401C03D040F20710BDE8F081B4F5807F4B
:103F400003D940F20310BDE8F0810B2244494FF43D
:103F5000A070FFF781FC424D01262A787AB1D5F88E
:103F600007001730C5F80700501CC2B22A706878E5
:103F7000104453280CD940F20910BDE8F0814FF4E9
:103F8000C070C5F80300C5F807002E701720A87090
:103F90000B2233494FF4A070FFF76EFC2F4A82F8D2
:103FA000008057705480002050609060D460304989
:103FB000A2F155000B68C0F865308988A0F8691037
:103FC0009675D5F80700B0F5807F03D240F2FF1058
:103FD000BDE8F08180B217222049FFF74DFC21484F
:103FE000BDE8F0812DE9FF5F16461F460199009854
:103FF000FFF7BDFD401C04D004B040F20710BDE83F
:10400000F09F01990098FFF783FD401C04D004B095
:1040100040F20710BDE8F09FFF2F04D304B04FF427
:104020008270BDE8F09F42F21070864204D304B063
:1040300040F20510BDE8F09F07FB06F52C0B2805A4
:10404000000D01D0601C84B2FFF78AFCA04211D29F
:1040500040F2091004B0BDE8F09F00008502002086
:104060007A0200200090FFFFA70200209C0200209F
:1040700020000020E0B2FFF720FD804618F101008B
:1040800022D04FEA08394846FEF7AFFFFDB10B22B8
:10409000F8494FF40060FFF7DFFBDFF8D8B34FF0CB
:1040A000010A9BF80000A8B19BF8011009B3002198
:1040B0000846FFF792FD0546681C17D09BF80100E3
:1040C000401E8BF8010023E040F20910C2E74FF4D4
:1040D0008270BFE74FF40465CBF80350CBF807506C
:1040E0008BF800A014208BF8020011E040F20710BA
:1040F000B0E7DBF8071001F11405CBF80750401CBE
:10410000C0B28BF80000632802D940F20910A1E781
:104110000B22D8494FF40060FFF7AEFBD648009958
:1041200001700199417046800771C0F80590002127
:10413000C0F80910D14AA0F177011368C1F88430A2
:104140009288A1F8882080F813A0A8B2B0F5807FEB
:1041500002D240F2FF107DE7A8B21422C649FFF751
:104160008BFBE1B21FFA88F0FFF713FCC44871E73C
:104170002DE9F0410446DDF818800E4615461F462D
:104180004FF48071BF4803F0F4FD31462046FFF73D
:10419000BFFC0446601C0DD0A0B21722BA49FFF73D
:1041A0005BFBB94EE8197188884207D940F20910C3
:1041B000BDE8F0814FF48470BDE8F081B0F5805F18
:1041C00015D271684FF48072AE48FEF7E0FD70685A
:1041D000401CFEF70AFFAB483A462844414603F02C
:1041E000AFFD71684FF48072A648FEF77BFEA0B267
:1041F000B0F5807F03D240F2FF10BDE8F081A0B29D
:104200001722A149FFF738FB9D48BDE8F08170B542
:1042100014461D46049EFFF77BFC411C11D080B262
:1042200017229949FFF718FB974861194288914274
:104230000AD840682A4601193046FEF7A8FD904882
:1042400070BD4FF4847070BD40F2031070BD2DE955
:10425000F04190461D46069FFFF789FC0446601C0E
:104260000ED0A0B214228449FFF7F6FA824ED6F897
:1042700009007388984207D340F20910BDE8F08125
:104280004FF48470BDE8F081B8F1FF0F16D005EB54
:104290000821994203D340F20510BDE8F081814224
:1042A00003D240F20510BDE8F081D6F8050032795E
:1042B00002FB01013846FEF715FE0FE03279AA42F3
:1042C00005D0FF2D03D04FF48270BDE8F081D6F801
:1042D000051002FB00113846FEF704FED6F809006F
:1042E000401CC6F80900A0B2B0F5807F03D240F2AE
:1042F000FF10BDE8F081A0B214225F49FFF7BCFABD
:104300005F48BDE8F0812DE9F04115461F46DDF814
:104310001880FFF72CFC0446601C10D0A0B21422B9
:104320005549FFF799FA544E681ED6F8091072885D
:104330000844904207D340F20910BDE8F0814FF4E1
:104340008470BDE8F081307900FB05F2802A03D942
:104350004FF48270BDE8F081B84203D94FF4827007
:10436000BDE8F081D6F8053000FB01314046FEF78C
:10437000B9FDD6F809002844C6F80900A0B2B0F586
:10438000807F03D240F2FF10BDE8F081A0B214227A
:104390003949FFF771FA3A48BDE8F08170B5144623
:1043A0001D46049EFFF7E3FB411C12D080B214228D
:1043B0003149FFF751FA3049FF2C17D0FF2D15D0A6
:1043C000D1F8092005EB0420904205D340F20510F6
:1043D00070BD4FF4847070BDD1F805300A7980B299
:1043E00002FB00313046FEF7D2FC0AE0D1F80500AE
:1043F0000A79D1F80910491E02FB01013046FEF787
:10440000C6FC1F4870BD2DE9F04115461E46079FAA
:10441000069CFFF7ACFB411C15D080B21422164954
:10442000FFF71AFA1448FF2D30D0FF2E2ED006EBDE
:1044300005210A19D0F80930521E9A4207D340F2DA
:104440000510BDE8F0814FF48470BDE8F081037978
:1044500003FB04F2802A03D94FF48270BDE8F08197
:10446000D0F8050089B203FB01013846FEF78FFC46
:1044700017E000009C020020A7020020200000207E
:104480000090FFFFFB02002085020020D0F80510FD
:104490000279D0F80900401E02FB00113846FEF7F1
:1044A00076FCF948BDE8F0812DE9F04184B00F4673
:1044B0000A990546164698460024B8F10A0F03D813
:1044C000424601A803F03CFC39462846FFF74FFB63
:1044D000411C24D080B21422EC49FFF7BDF9EB4D0A
:1044E000D5F80900002815D9E94F3E44D5F8050054
:1044F0002A7902FB0401B81CFEF749FCB01C4246B5
:1045000001A903F041FC78B1601C84B2D5F8090020
:10451000A042EBD804B04FF48370BDE8F08104B042
:104520004FF48470BDE8F0813C70200A787004B0CC
:10453000D548BDE8F0812DE9F043804689464946DB
:104540004046FFF7E5FAD34ECF4F411C4FF0000530
:10455000344616D080B2172204F15501FFF77CF9DA
:104560000120307004F155004088A6F80100F57074
:10457000D4F865006060B4F8690020813846BDE871
:10458000F08349464046FFF7F2FA411C16D080B24C
:104590001422BE49FFF760F902203070BB48B0F822
:1045A0000910A6F801100079F070D4F8840060605A
:1045B000B4F8880020813846BDE8F0833570A6F84D
:1045C0000150F570656025814FF48470BDE8F0837B
:1045D0002DE9F04381B0ADF5805D04460E461546E9
:1045E0009946E8464FF48051404603F0C2FB3146FD
:1045F0002046FFF7BCFA0646701C12D0B0B2142257
:10460000A249FFF729F9A14F09EB0524D7F80900C2
:10461000844209D34FF4837001B00DF5805DBDE88D
:10462000F0834FF48470F7E7FF2D51D0B9F1FF0FFD
:104630004ED07888844202D340F20510ECE755EA68
:1046400009003BD03879D7F8051004FB00F240464A
:10465000FEF79DFB3879611C01FB00F2D7F805C01D
:10466000C2F5805201FB00C104FB0080FEF78FFB06
:10467000D7F80500FEF7B9FCD7F809003979401ED4
:104680004843C0F34725C0F308090024002D0CD986
:10469000D7F805104FF4007201EB44214046FEF7B5
:1046A00021FC601CC4B2AC42F2D3D7F805004A46E4
:1046B00000EB45214046FEF715FC37E03879D7F886
:1046C0000510C0F5805201444046FEF760FBCFE77D
:1046D0003979401E00FB01F2D7F805104046FEF77D
:1046E00056FBD7F80500FEF780FCD7F809003979AA
:1046F000401E4843C0F34725C0F308090024002D9D
:104700000CD9D7F805104FF4007201EB4421404654
:10471000FEF7E8FB601CC4B2AC42F2D3D7F8050048
:104720004A4600EB45214046FEF7DCFBD7F809007E
:10473000401EC7F80900B0B214225449FFF79CF894
:10474000514869E710B5FFF7BEF803F064F9BDE81A
:104750001040FEF719BC2DE9F0410646069F0C46B5
:104760001D46FF2E10D021463046FFF7D1F9411CDF
:1047700006D0B0F5807F07DA40F2FF10BDE8F08187
:104780004FF48470BDE8F0814EBB012C04D0022CA4
:104790000ED0032C18D022E0402D03D94FF48270A4
:1047A000BDE8F081402239461020FFF765F816E099
:1047B000102D03D94FF48270BDE8F08110223946E4
:1047C0005020FFF759F80AE0302D03D94FF48270DA
:1047D000BDE8F081302239466020FFF74DF82A48C5
:1047E000BDE8F08110B52C4C002830D001282DD028
:1047F00002282BD129484179217081796170C179D2
:10480000A170017AE170A0F110010A7A22714A7A4E
:1048100062718A7AA271C97AE17190F823102172CB
:1048200090F82410617290F82510A17290F826106B
:10483000E17290F82710217390F8280060730E2120
:10484000204600F0FDF8A073000AE07310BD144884
:1048500001682160416861608168A160C068E060B2
:1048600010BD2DE9F0410446069E0D461F46FF2C63
:1048700005D029462046FFF74BF9401C12D0ACB1B9
:10488000FF2C37D085E000000090FFFFA70200203A
:104890008E01002030020020FB030020CB0200200C
:1048A000E67D00084FF48470BDE8F081012D07D04B
:1048B000022D0BD0032D0FD040F2FF10BDE8F08188
:1048C0003A4631461020FEF7C7FF62E03A463146CD
:1048D0005020FEF7C1FF5CE054484078022803D026
:1048E0004FF48670BDE8F0813A4631466020FEF70D
:1048F000B3FF4EE010224E495020FEF7ADFF0020DE
:10490000FFF770FF10224A49012000F09FFB0E21A3
:10491000474800F095F8464CC2B2A17B914203D1C2
:10492000E17BB1EB102F03D040F20B10BDE8F0811A
:1049300040482168C0F88B106168C0F88F10A168EA
:10494000C0F89310E168C0F8971030223849602011
:10495000FEF782FF0020FFF745FF30223449012097
:1049600000F074FB2E21324800F06AF894F82E1003
:10497000C2B2914204D194F82F10B1EB102F03D0A2
:1049800040F20B10BDE8F081302229492A4803F09B
:10499000D7F92A48BDE8F08130B591B005460C46FC
:1049A000FF2D06D021462846FFF75CF9B0F5104FE1
:1049B00009D1002D37D10020012C06D0022C1AD0AD
:1049C000032C27D0401E11B030BD019002900390FF
:1049D0000490059006900790089009900A900B901B
:1049E0000C900D900E900F9010903F2201A9102076
:1049F000FEF742FF17E00F49C1F88B00C1F88F00A6
:104A0000C1F89300C1F8970010228B315020FEF7B7
:104A100033FF08E03021084803F0ABF930220649A3
:104A20006020FEF729FF11B0044830BDBB02002012
:104A30008E01002030020020CB0200200090FFFFFA
:104A400030B44FF6FF724FF0000C002912DD4AF22D
:104A5000010510F80C305A40002302F001045208FE
:104A600004B16A405B1CDBB2082BF6D30CF1010CDD
:104A70008C45EEDB100A00EB022030BC80B27047A0
:104A800000230122C2548B545B1CDBB212F0800F56
:104A900002D04FF01B0C01E04FF0000C8CEA420CEE
:104AA0008CEA0202D2B2012AECD1017880F8FF1020
:104AB000704730B44FF0000CFE4CBCF1000F07D033
:104AC0006168226811F80C10C1F1FF01515C00E02F
:104AD000002181F0630300224D0045EAD111C9B2E3
:104AE0004B40521CD2B2042AF6D300F80C300CF121
:104AF000010111F0FF0CE0D130BC7047002300220F
:104B000010F802C09C4501D1CA54FF22521C12F079
:104B1000FF02F5D15B1C13F0FF03F1D17047017860
:104B20004278027082784270C2788270C170704799
:104B30002DE9F003437890F802C0C17883EA0C02B3
:104B400082EA0105027882EA0C0484EA010682EA1C
:104B5000030484EA010784EA0C0812F0800F01D0F4
:104B60001B2400E0002484EA4202D2B2027013F057
:104B7000800F01D01B2400E0002484EA4303DBB251
:104B800043701CF0800F01D01B2400E0002484EA55
:104B90004C0C0CF0FF0C80F802C011F0800F01D01B
:104BA0001B2400E0002484EA4101CCB2C47082EAF4
:104BB00003014D4083EA0C014E408CEA04014F4052
:104BC00082EA040181EA080812F0800F01D01B215B
:104BD00000E0002181EA4201C9B2017013F0800FA8
:104BE00001D01B2200E0002282EA4302D2B24270CE
:104BF0001CF0800F01D01B2300E0002383EA4C034C
:104C0000DBB2837014F0800F02D04FF01B0C01E078
:104C10004FF0000C8CEA440C0CF0FF0C80F803C041
:104C200081EA030484EA050982EA0C056E407C40AF
:104C300085EA080711F0800F01D01B2500E0002550
:104C400085EA4101C9B2017012F0800F01D01B2525
:104C500000E0002585EA4202D2B2427013F0800FD4
:104C600001D01B2500E0002585EA4303DBB28370F9
:104C70001CF0800F01D01B2500E0002585EA4C0CBC
:104C8000514083EA0C02514081EA090281EA06039D
:104C900081EA040C79400270437080F802C0C17050
:104CA000BDE8F003704701224FF0000C0A4201D02A
:104CB0008CEA000C5206120E10F0800F01D01B235C
:104CC00000E0002383EA4000C0B2002AEED1604633
:104CD000704770B50B7802784D1C441C194610467D
:104CE000FFF7E1FF064629782078FFF7DCFF464012
:104CF00069786078FFF7D7FF4640A978A078FFF77A
:104D0000D2FF704070BD2DE9F04182B004466AA028
:104D1000416800680191009021466846FFF7D9FF7D
:104D200006466D462146E81CFFF7D3FF074621469D
:104D3000A81CFFF7CEFF80462146681CFFF7C9FF7D
:104D400001462670677084F80280E17002B0BDE809
:104D5000F081584A0378D2F808C01CF80330037079
:104D6000401C491E11F0FF01F4D1704710B4544BA0
:104D700090F800C00C7813F80CC08CEA040C80F892
:104D800000C0401C491C521E12F0FF02F0D110BCA2
:104D90007047417B427A4273427942724278427153
:104DA00041708178827A827081728179827B82718E
:104DB0008173C178C279C270C27AC271C27BC27279
:104DC000C1737047417842794270427A4271427BA6
:104DD000427241738178827A827081728179827B9A
:104DE00082718173C17BC27AC273C279C272C27886
:104DF000C271C170704710B504462046FFF798FE97
:104E0000201DFFF795FE04F10800FFF791FE04F165
:104E10000C00BDE810408BE610B504462046FFF7B5
:104E200072FF201DFFF76FFF04F10800FFF76BFF13
:104E300004F10C00BDE8104065E7037891F800C06C
:104E400083EA0C030370401C491C521E12F0FF023F
:104E5000F3D170470B780370401C491C521E12F0AE
:104E6000FF02F7D1704730B582B016A109680091F2
:104E70000021154A535C0370401C491CC9B210291B
:104E8000F8D3001F10F8011B8DF8041010F8011B57
:104E90008DF8051010F8011B8DF8061001788DF8BB
:104EA0000710441C102515F00F0F24D101A8FFF79F
:104EB00036FE0BE08800002002030101020301011D
:104EC0000B05002001000000FB030020042101A8C5
:104ED000FFF73FFF0422694601A8FFF7AEFF9DF8E8
:104EE000000010F0800F01D01B2100E0002181EABA
:104EF00040008DF800000422A4F1100101A8FFF782
:104F00009CFF9DF804002070601C9DF8051000F8BF
:104F1000011B9DF8061000F8011B9DF80710017099
:104F2000441C281DC5B2B02DBDD302B030BD70B534
:104F30000646092401F1A005102229463046FFF754
:104F40007CFF103D3046FFF724FF102229463046F3
:104F5000FFF70CFF103D3046FFF74DFF611E11F0CB
:104F6000FF04EFD13046FFF714FF29463046BDE875
:104F700070401022FAE670B506460D46092410224C
:104F800029463046FFF759FF103510213046FFF70C
:104F9000E0FE3046FFF716FF3046FFF73DFF1022D8
:104FA00029463046FFF749FF1035611E11F0FF0416
:104FB000EBD110213046FFF7CCFE3046FFF702FF61
:104FC00029463046BDE87040102236E7F0B5074666
:104FD000384C374E266006F58075656029463046A8
:104FE000FFF74EFD3846A760FFF763FD26613046A8
:104FF000FFF739FFE5602946A068BDE8F0407DE590
:1050000030B504460D46102229462046FFF722FF00
:10501000284801692046FFF78AFF21462846BDE857
:105020003040102216E770B504460D46102229467E
:105030002046FFF70FFF1F4801692046FFF79BFF3F
:1050400021462846BDE87040102203E7F0B585B040
:1050500004460E4615461848FFF7B8FF012C06D047
:1050600015F00F0F13D0012000EB151510E02F09DC
:105070000024002F08D906EB04116846FFF7C0FF93
:10508000601CC4B2BC42F6D305B02846F0BD2D0961
:105090000024002D08D906EB04116846FFF7C3FF72
:1050A000601CC4B2AC42F6D3280705B0000EF0BDB8
:1050B0000B040020880000200B06002010B500F033
:1050C000ACF9BDE8104041F6027000F011BC10B51B
:1050D00000F0DBF9042801D0012010BD002010BD34
:1050E0002DE9F043A1B005460C466B4601EB820664
:1050F000A6422FD94FF00009E84620AFBB420AD2A2
:10510000A64204D954F8040B43F8040B01E043F819
:10511000049BBB42F4D32868694601F008FF0428C9
:1051200003D021B00120BDE8F0830022286858F8A0
:10513000223050F82210994203D021B00220BDE85D
:10514000F083521C202AF2D32868803028606B46F6
:10515000A642D3D821B00020BDE8F08310B50424C6
:105160006042002100F08FFA0021481E00F0BBFAD7
:105170000021481E00F0E7FA204610BD70B500F08F
:1051800093FB054600F08AFB20F0030400F089FB46
:105190002043284301D0012070BD002070BD10B510
:1051A00041F6027000F0A4FBFFF7E8FF48B100F001
:1051B00050FAFFF7D3FF042801D0012010BD0020D2
:1051C00010BD022010BD10F0FF0F03D0012101EB34
:1051D00010207047000A70472F4940F0FD7040F0E2
:1051E00080600860704730B44FF00F0CC278012423
:1051F00001784FF0E025002A20D0274A126802F4F7
:10520000E062C2F5E062C2F30722C2F104032CFAA5
:1052100002FC42789A40837803EA0C031A43120195
:105220001E4BCA54007800F01F0104FA01F1400936
:1052300005EB8000C0F8001130BC704701F01F0082
:1052400004FA00F0490905EB8101C1F8800130BC86
:10525000704721F07F0121F0604108431049086048
:105260007047104A002903D0116808431060704746
:10527000116821EA0000106070474FF0E021042817
:1052800004D0086920F0040008617047086940F004
:1052900004000861704700000CED00E000E400E04D
:1052A00008ED00E010ED00E03B4900200860091D1A
:1052B0000860091D0860091D086038496FF07F40CB
:1052C00008607047344A83790168002B34D0136832
:1052D00023EA01011160111D0A6803689A430A60FC
:1052E000017901F1804101F582310A6803681A43AE
:1052F0000A602B4B19680268914319601A1D1168E6
:10530000D0F800C021EA0C0111604179102908D0C1
:1053100001F1804101F582310A680068104308609C
:1053200070471968D0F800C041EA0C011960116893
:105330000068084310607047007900F1804000F574
:105340008230026822EA0101016070470021016099
:1053500001710C2242718171704712490A68104331
:1053600008607047014600200C4A12680A4200D0CB
:10537000012070470949086070470021064A1268F9
:105380000240064B1B68034201D002B101210846CE
:10539000704702490860704700040140140401404E
:1053A0000804014010040140FE4A116821F0010187
:1053B000084310607047FB49002804D0086840F09B
:1053C000020008607047086820F00200086070471B
:1053D000F449002804D0086840F0040008607047D1
:1053E000086820F0040008607047EE49002804D0E7
:1053F000086840F0080008607047086820F008005E
:1054000008607047E848006810F0010F04D0E848D1
:10541000E6490160E7490160704700B5E24800686D
:1054200010F0020F06D0FFF7EDFFE448E2490160FB
:10543000E349016000BDDC48016841F00201016000
:1054400070470420DF490A6812F0010F01D00120E3
:1054500070470A6812F4807F01D002207047096803
:1054600011F4F05FFAD00320704700B50346FFF750
:10547000E8FF02E0FFF7E5FF5B1E012801D1002BEA
:10548000F8D1002B00D1052000BD30B505464FF402
:105490000040FFF7EAFF042816D1C34C206840F40F
:1054A00000702060206840F0080020600020286024
:1054B0004FF40040FFF7D9FF216821F00801216077
:1054C000216821F40071216030BD30B505460C46DD
:1054D0004FF40040FFF7C9FF042804D12C60BDE859
:1054E00030404003C1E730BDAF48016841F00101E1
:1054F00001607047AC49002804D0086840F480700F
:1055000008607047086820F480700860704710B524
:1055100004464FF40040FFF7A8FF042801D1002102
:10552000217010BD10B504464FF40040FFF79DFFF9
:10553000042801D10021218010BD10B504464FF48C
:105540000040FFF792FF042801D10021216010BD27
:1055500030B505460C464FF40040FFF786FF04289F
:105560000AD19148016821F4807202602C70BDE874
:1055700030404FF4004078E730BD30B505460C466A
:105580004FF40040FFF771FF04280AD186480168F4
:1055900021F4807202602C80BDE830404FF400405E
:1055A00063E730BD30B505460C464FF40040FFF7C9
:1055B0005CFF04280AD17C48016821F480720260F3
:1055C0002C60BDE830404FF400404EE730BD30B5B0
:1055D00004460D464FF40040FFF747FF042819D159
:1055E00025B12570BDE8304040033EE724F00300BC
:1055F0000068A107C90EFF2202FA01F120EA0105A5
:1056000024F00300FFF799FF24F003002946BDE8CA
:105610003040C7E730BD30B505460C464FF400407A
:10562000FFF723FF042804D12C80BDE8304040035D
:105630001BE730BD30B505460C464FF40040FFF780
:1056400014FF042804D12C60BDE8304040030CE76F
:1056500030BD00B55448006810F0040F06D0FFF7C5
:10566000D1FE5A48584901605949016000BD4E4871
:10567000016841F00401016070474B48016841F442
:1056800080210160704730B504460D464FF400405C
:10569000FFF7EBFE042825D14E4A7DB190682043E8
:1056A00080B2D16841EA144189B2C34340EA034061
:1056B0009060C84341EA0040D0600EE09068E1434A
:1056C0008BB21840D36803EA1141C34340EA034058
:1056D0009060C84341EA0040D060BDE830404FF4DC
:1056E0000040C2E630BD30B504460D464FF40040E0
:1056F000FFF7BBFE042825D1364A7DB1106920434F
:1057000080B2516941EA144189B2C34340EA03407F
:105710001061C84341EA004050610EE01069E14366
:105720008BB21840536903EA1141C34340EA034076
:105730001061C84341EA00405061BDE830404FF479
:10574000004092E630BD30B504460D464FF40040AF
:10575000FFF78BFE04283FD11E4A7DB1906920439C
:1057600080B2D16941EA144189B2C34340EA03409F
:105770009061C84341EA0040D0610EE09069E14386
:105780008BB21840D36903EA1141C34340EA034096
:105790009061C84341EA0040D061BDE830404FF419
:1057A000004062E6003C0240043C0240EFCDAB8981
:1057B0000C3C024005040302BFAE9D8C103C02402D
:1057C00016151413183C0240C8D9EAFB143C0240D9
:1057D000272625240000F81F30BD10B504464FF4DD
:1057E0000040FFF742FE0146E043C0B244EA0040F9
:1057F000042901D140490860BDE810404FF4004041
:1058000033E610B53D4B1B68C3F303430843104315
:105810001843C143090440EA01044FF40040FFF774
:1058200024FE042801D134484460BDE810404FF400
:1058300000401AE610B53149096801F47001090CFD
:105840000843C143090440EA01044FF40040FFF754
:105850000CFE042801D128484460BDE810404FF4F4
:10586000004002E610B525490968C1F30641084326
:10587000C143090440EA01044FF40040FFF7F5FD7D
:10588000042801D11C484460BDE810404FF400409A
:10589000EBE51A480068C0F30750704718480068E5
:1058A0007047184800687047174800687047002024
:1058B00012490968C9B2AA2900D0012070470F48CF
:1058C0000068C0F303407047104A002903D01168F4
:1058D000084310607047116821EA000010607047AB
:1058E000014600200A4A12680A4200D0012070478F
:1058F00007490860704700000000F81F1C3C024088
:10590000203C0240803C0240843C0240043C024077
:10591000183C02402DE9F00100220126032706FA77
:1059200002FC0B6803EA0C03634538D10568530099
:1059300007FA03F4A54305600D79D0F800809D4077
:1059400045EA080505600D79012D01D0022D17D11A
:105950008568A54385604D79D0F808809D4045EA6B
:1059600008058560858825EA0C0CA0F804C08588A8
:1059700091F806C00CFA02FC45EA0C0CA0F804C031
:10598000D0F80CC02CEA040CC0F80CC091F807C089
:105990000CFA03F3D0F80CC043EA0C03C360521CAA
:1059A000102ABCD3BDE8F001704741F48032C261D7
:1059B000C161C261C169C069704702460020128A94
:1059C0000A4200D001207047008A70470183704767
:1059D00041837047828A5140818270474B07DB0EBA
:1059E0009A40C90800EB8100016A4FF00F0C0CFAD5
:1059F00003F399430162016A114301627047000099
:105A0000D148016841F480710160D0490A68D04BE7
:105A10001A400A600268CF4B1A400260026822F402
:105A200080220260086820F47D0008600020091DC3
:105A300008607047C84900220A7008707047002249
:105A4000410901290BD0C549096800F01F00012355
:105A500003FA00F0084200D0012210467047BA490C
:105A60000968F2E710B500243120FFF7E8FF641C55
:105A7000B4F5A06F01D00028F6D03120FFF7DFFF8A
:105A800008B1012010BD002010BDB5490870704755
:105A9000B44A116821F46041084310607047B2496C
:105AA00008627047AF4A116821F4F85141EA0020BA
:105AB00010607047AC4908607047AC4900220A701A
:105AC00008707047AA490860704711430843A94904
:105AD00008707047A44908667047A3490867704773
:105AE000A549086070470843A44908707047974A61
:105AF000116821F003010843106070479348006863
:105B000000F00C007047914A116821F0F001084341
:105B1000106070478D4A116821F4E06108431060FD
:105B200070478A4A116821F4605141EAC000106050
:105B30007047DFF818C2DCF8001001F00C01ACF17E
:105B400004034FF40042002929D004292FD008294A
:105B500030D00C2931D01968C1F34231491C02FA06
:105B600001F10160DCF8001001F0F0010909844B3B
:105B7000595C026822FA01F14160DCF8002002F46D
:105B8000E062120A9A5C21FA02F28260DCF80020DC
:105B900002F46052D20A9A5CD140C1607047196821
:105BA000C1F34231491C02FA01F10160DAE775499B
:105BB0000160D7E774490160D4E7DCF8001001F414
:105BC0007011DCF8002002F44002704B03EB9141AD
:105BD0000978012303EB9252DCF8003003F48033A0
:105BE0002BB1694B5943B1FBF2F10160BAE7654B48
:105BF0005943B1FBF2F10160B4E74FF44031814306
:105C000007D1514A116821F0C04100F0C043194347
:105C1000116052490A6822F440320A600A6800F4AE
:105C2000403010430860704759490860704759492F
:105C300008607047584A002903D011680843106073
:105C40007047116821EA000010607047534A00292C
:105C500003D01168084310607047116821EA000002
:105C6000106070474E4A002903D011680843106045
:105C70007047116821EA000010607047494A002906
:105C800003D01168084310607047116821EA0000D2
:105C900010607047444A002903D01168084310601F
:105CA0007047116821EA0000106070473F4A0029E0
:105CB00003D01168084310607047116821EA0000A2
:105CC000106070473A4A002903D0116808431060F9
:105CD0007047116821EA000010607047354A0029BA
:105CE00003D01168084310607047116821EA000072
:105CF00010607047304A002903D0116808431060D3
:105D00007047116821EA0000106070472B4A002993
:105D100003D01178084310707047117821EA000011
:105D2000107070470D48016841F080710160704744
:105D300001460020224A12680A4200D00120704722
:105D400020490870704700000038024008380240BF
:105D50000CC0FF88FEFFFEEE0238024034380240DD
:105D600007380240043802400000474235380240FC
:105D7000800647420A380240AC0647420B380240D0
:105D8000A50000200024F40000127A009C000020EE
:105D9000D8064742DC0647421C3802402038024001
:105DA00024380240103802401438024018380240AB
:105DB000283802402C380240303802400D3802406A
:105DC0000C3802400E38024010B5A0F18041B1F508
:105DD0009C310AD101218803FFF75CFFBDE8104028
:105DE00000214FF48040FFF755BFA0F18041B1F58D
:105DF00088410AD101214804FFF758FFBDE810404F
:105E000000214FF40030FFF751BFA0F18041B1F500
:105E100090410AD101218804FFF748FFBDE81040F6
:105E200000214FF48020FFF741BFA0F18041B1F580
:105E300098410AD10121C804FFF738FFBDE810409E
:105E400000214FF40020FFF731BFA0F18041B1F5F0
:105E5000A0410AD101210805FFF728FFBDE8104045
:105E600000214FF48010FFF721BF10BD30B585B081
:105E700004460D46208A20F44050E98808432082D9
:105E8000A08920F4037020F4A050A9882A89114326
:105E90006A8910430843A081A08A20F44070A98930
:105EA0000843A0826846FFF744FEA4F18040B0F5A5
:105EB0009C3001D1039800E00298A18911F4004FB1
:105EC00008D000EBC00101EB001029684900B0FBCD
:105ED000F1F007E000EBC00101EB00102968890038
:105EE000B0FBF1F0A74AA2FB0031490909010B09F7
:105EF0006FF0180C03FB0CF300EB8300A38913F481
:105F0000004F4FF0320307D003EBC000A2FB00208C
:105F1000C0F34210084306E003EB0010A2FB002090
:105F2000C0F343100843208105B030BD4FF4165133
:105F3000016000218180C18001810C224281818128
:105F40007047028A22F470620B88B1F802C043EAFB
:105F50000C03B1F804C0C9884CEA0101194311438C
:105F6000018270470021018041808180C18070479B
:105F7000002904D0818941F40051818170478189D1
:105F800021F4005181817047028B02F47F42028329
:105F9000028B114301837047002904D0818941F4A9
:105FA0000041818170478189C1F30E018181704771
:105FB000002904D0818A41F4006181827047818A7E
:105FC00021F4006181827047C1F30801818070472C
:105FD0008088C0F308007047028A22F00F02028214
:105FE000028A114301827047002904D0818941F05F
:105FF000020181817047818921F00201818170470E
:10600000828922F4006282818289114381817047F2
:10601000028A22F020020282028A11430182704722
:10602000002904D0018A41F4804101827047018A2D
:1060300021F4804101827047818941F00101818111
:106040007047002904D0818A41F00801818270479D
:10605000818A21F0080181827047028BD2B20283CB
:10606000028B42EA012101837047002904D0818A12
:1060700041F0200181827047818A21F020018182D4
:106080007047002904D0818A41F010018182704755
:10609000818A21F0100181827047828A22F00402F5
:1060A0008282828A114381827047002904D0818ACA
:1060B00041F0020181827047818A21F002018182D0
:1060C0007047002A03D0828A114381827047828AF6
:1060D00022EA01018182704740F66A13C1F342133C
:1060E00001F01F014FF0010C0CFA01F1012B07D058
:1060F000022B07D014303AB1026811430160704797
:106100000C30F8E71030F6E7026822EA010101607E
:1061100070470246002012880A4200D001207047D2
:1061200001F40072C9430180704710B44FF0000CB5
:1061300040F66A12C1F3421301F01F02012404FA6F
:1061400002F2012B0FD0022B10D0838A1A40090AC9
:1061500004FA01F10088084012B108B14FF0010CB7
:1061600010BC6046704783891A40F0E7038A1A40E2
:10617000EDE740F66A12090A012202FA01F1C94369
:10618000018070471F85EB510020FF4BCA21196029
:1061900053211960FD4A116821F0A00111601168B6
:1061A00001F02001401CB0F5004F01D00029F6D0CD
:1061B000106810F0200F01D0012000E00020FF2126
:1061C000196070470020F14A116811F0400F01D0AA
:1061D000012070474FF0FF311160116801F040015C
:1061E000401CB0F5005F01D00029F6D0106810F017
:1061F000400F01D0012070470020704730B50023C8
:106200000024E14DCA20286053202860FFF7DAFF00
:1062100000283DD0DE4900200860DE4A42F201112C
:10622000116002F1040CDCF8001001F00701CCF859
:1062300000100CF10402116801F004015B1CB3F5BD
:10624000005F01D00029F6D0116811F0040F23D0AF
:10625000DCF80010CCF80000CF4B4FF6FF7119604E
:106260001B1FCE491960CE490860091D0860091D31
:106270000860CC490860CC490860CC490860091D19
:1062800008601060CA490860FFF77EFF30B1012442
:10629000FF202860204630BD0024F9E70024F7E7FE
:1062A000BA48016821F080010160704730B50346AB
:1062B0000024B54DCA20286053202860FFF782FFD4
:1062C00098B1BC48016821F04001016001681A687A
:1062D00011430160B8489968016001689A8841EAF1
:1062E00002410160FFF7DCFF0124FF202860204607
:1062F00030BD002101607F214160FF218160704736
:10630000A149002802D0FF2008607047CA20086019
:1063100053200860704730B5054600239A4CCA20C8
:10632000206053202060FFF74DFF68B1A14825B1E0
:10633000016841F01001016003E0016821F01001E3
:106340000160FFF7ADFF0123FF202060184630BD3C
:106350008D4ACA211160532111609649002804D04A
:10636000086840F02000086003E0086800F0DF00E3
:106370000860FF201060704700210A2805D3491CDF
:10638000C9B20A38C0B20A28F9D2090740EA116036
:106390007047010901EB8101490000F00F0008443A
:1063A000C0B270472DE9F04106460C46002500209A
:1063B000804F002E07D0396811F0400F09D02078A7
:1063C000FFF7E7FF06E0396811F0400F02D1E070F7
:1063D00000E0E0705EB1A0782178E27840EA014008
:1063E0006178090241EA024140EA01030FE02078A6
:1063F000FFF7C2FF06046078FFF7BEFF46EA0026FB
:10640000A078FFF7B9FFE178304340EA01435E4CE2
:10641000CA20206053202060FFF7D4FE50B16748A7
:106420005B4918400860FFF73BFF386810F0200F09
:1064300005D00125FF2020602846BDE8F081FFF748
:10644000A3FE0028F6D00125F4E730B5034600246A
:106450004D4DCA20286053202860FFF7B3FE58B185
:1064600056484B4918400860FFF71AFF514800682A
:1064700010F0200F04D00124FF202860204630BDFA
:10648000FFF782FE0028F7D00124F5E70021C17054
:10649000017041708170704710B502460C463C484F
:1064A000006846490140C1F305402070C1F306234E
:1064B000637001F07F03A37001F48001090CE170A7
:1064C000002A0AD1FFF765FF20706078FFF761FFAF
:1064D0006070A078FFF75DFFA07010BD2C480068C9
:1064E000364908407047364800682A4909687047AD
:1064F00070B505460C460026002D07D1607810F0D7
:10650000100F03D020F010000A3060702DB16078B9
:10651000FFF73FFFA078FFF73CFF5DB1A078E1787F
:10652000227840EA01406178090241EA423140EABA
:1065300001030FE0E078FFF71FFF05046078FFF725
:106540001BFF45EA0025A078FFF716FF21782843B6
:1065500040EA41330C4CCA20206053202060FFF7F2
:1065600031FE68B10B4923F0C00020F07F40086085
:10657000FFF796FE0F48006810F0200F22D001268A
:10658000FF202060304670BD242800400C280040C9
:10659000002800400428004014280040FF007F002D
:1065A000182800402C2800403C2800404428004087
:1065B0004028004008280040102800407F7F7F00CE
:1065C00028280040FFF7E0FD0028D9D00126D7E7B2
:1065D00001210170817041700021C170704710B5B8
:1065E00002460C46FA48006820F0C00121F07F41C5
:1065F000080CE070C1F30423637001F03F03A37043
:10660000C1F342312170002A0AD1FFF7C2FEE070C7
:106610006078FFF7BEFE6070A078FFF7BAFEA0704A
:1066200010BD70B505460E4614460020E949002D00
:1066300007D0096811F0400F09D02078FFF7A9FEB4
:1066400006E0096811F0400F07D1E07005E0E07046
:10665000A068A8B1207BFFF79CFEADB1A07821789F
:10666000E27840EA01406178090241EA02410843C8
:10667000217B40EA0160A1680843616808431CE08F
:10668000207BFFF786FEE8E72078FFF775FE05041C
:106690006078FFF771FE45EA0025A078FFF76CFEF1
:1066A000E178284340EA0145207BFFF765FEA168B9
:1066B00045EA0060084361680843C74ACA2111607F
:1066C00053211160B6F5807F04D0111F0860FF20B0
:1066D000106070BDC1490860F9E70021C170017008
:1066E000417081708160012202734160704710B572
:1066F00003461446B1F5807F29D0B9480168C1F33B
:1067000005402070C1F30622627001F07F02A27082
:1067100001F48002120CE270C1F30562227301F0F1
:106720008042A26001F080316160002B0ED1FFF742
:1067300030FE20706078FFF72CFE6070A078FFF7C5
:1067400028FEA070207BFFF724FE207310BDA34815
:106750000168D4E70022DFF880C2CA23CCF80030F9
:106760005323CCF800309B4B002904D01968084310
:106770001860012011E0196881431960994B19686C
:1067800001EA1021521CB2F5005F01D00029F6D0B9
:10679000196811EA102F04D00120FF21CCF8001055
:1067A00070470020F9E78C4B4FF0CA0CC3F800C0CB
:1067B0004FF0530CC3F800C01143B0F5807F04D0F4
:1067C00089480160FF201860704788480160F9E738
:1067D000B0F5807F04D084480068C0F30E00704795
:1067E00082480068C0F30E0070477B4ACA211160DE
:1067F0005321116077490B6823F007030B600B6886
:1068000018430860FF20106070477349CA220A606D
:1068100053220A60764A1060FF200860704774486F
:10682000006880B2704700216B4BCA221A60532265
:106830001A60684A002805D0106840F48060106033
:10684000012012E0106820F480601060654A106832
:1068500000F00400491CB1F5005F01D00028F6D01B
:10686000106810F0040F03D00120FF211960704759
:106870000020FAE7584BCA221A6053221A60554A80
:10688000D2F800C02CF4802CC2F800C0D2F800C0AE
:1068900008434CEA00001060FF20186070474D4824
:1068A000006800F4802070474B4BCA221A605322C4
:1068B0001A60484AD2F800C02CF4E00CC2F800C0BC
:1068C000D2F800C008434CEA00001060FF201860B6
:1068D000704770B505460E4600233F4CCA20206025
:1068E00053202060FFF76EFC30B1424945EA0600B4
:1068F0000860FFF7D5FC0123FF202060184670BD1B
:1069000030B505460023344CCA2020605320206057
:10691000FFF758FC68B12F4825B1016841F08001AC
:10692000016003E0016821F080010160FFF7B8FC1D
:106930000123FF202060184630BD274ACA2111607C
:10694000532111602349002804D0086840F4000056
:10695000086003E0086820F400000860FF20106071
:1069600070471D4ACA2111605321116019490B68F3
:1069700023F400230B600B6818430860FF201060AD
:10698000704730B40023144D4FF0CA0CC5F800C056
:106990004FF0530CC5F800C0DFF848C0DCF80040E9
:1069A00014F4803F01D108E05B1CDCF8004014F4D3
:1069B000803F02D0B3F5805FF6D1DCF8003013F4ED
:1069C000803F19D00020FF21296030BC70470000B3
:1069D0000428004008280040242800401C280040CB
:1069E000202800400C28004048280040442800404F
:1069F00014280040182800400843A74910430860A5
:106A00000120E0E7A54B1A6822F0080222F4006298
:106A1000002903D0104340F4006000E01043A04977
:106A2000CA220A6053220A601860FF20086070477B
:106A300070B50C4615469B4909689B4A11409B4A14
:106A4000126822F0C002C1F305432370C1F306238C
:106A5000637001F07F03A37001F48001090CE17001
:106A60000021E970C2F30421697002F03F01A970AE
:106A7000C2F342312970002817D12078FFF789FC32
:106A800020706078FFF785FC6070A078FFF781FCCC
:106A9000A0706878FFF77DFC6870A878FFF779FC34
:106AA000A8702878FFF775FC287070BD80480068D2
:106AB0007047804A002904D0116841EA4000106004
:106AC0007047116821EA400010607047794A002938
:106AD00003D01168084310607047116821EA000074
:106AE0001060704773490A6822F4C0520A600A684D
:106AF0001043086070476F490A6822F4E0620A6038
:106B00000A681043086070476A490A6822F4C04264
:106B10000A600A681043086070476649002804D07C
:106B2000086840F0800008607047086820F0800026
:106B3000086070475F49002804D0086820F40040CE
:106B400008607047086840F40040086070475A4A7F
:106B500002EB800001607047574901EB800000683C
:106B6000704754490A6822F480220A600A68104378
:106B70000860704710B50022494CCA232360532394
:106B800023604E4BD3F800C01CF0080F01D108E081
:106B9000521CD3F800C01CF0080F02D0B2F5005F01
:106BA000F6D11A6812F0080F03D00020FF212160EF
:106BB00010BD3A4A126812F0100F01D00020F5E71C
:106BC00008433F490860FFF7DFFA08B10120EDE70D
:106BD0000020EBE710B4324CCA222260532222601C
:106BE000DFF8B8C020F00402324B00F004000029A6
:106BF00008D0DCF800101143CCF8001019680843E5
:106C0000186008E0DCF800109143CCF80010196817
:106C100021EA00001860FF20206010BC7047024687
:106C2000002026490968274B1940114200D0012055
:106C30007047C0F3100040F08000C1431F48026855
:106C400002F080021143016070470021194A126866
:106C500002F00402114B1B684FEA904C20FA0CFC26
:106C6000034002EADC321A43144B1B6803EA10109B
:106C7000002A03D00004000C00D001210846704710
:106C8000000980B240F08000C1430C48026802F065
:106C900080021143016070473C28004008280040F2
:106CA00024280040302800407F7F7F0034280040A7
:106CB0003828004040280040502800400C28004060
:106CC0002C2800407FFF010010B501210807FEF7C6
:106CD000EDFFBDE8104000214FF08050FEF7E6BF09
:106CE0003C49086270473C4A116821F0E0010843C2
:106CF00010607047374908617047384A1044016096
:106D00007047344988627047324948627047324A56
:106D1000116821F4C051084320F00C001060704746
:106D20002D49002808D0086840F001000860086874
:106D300040F4804008607047086820F48040086094
:106D4000086820F0010008607047234B1A6822F0A1
:106D50000302104318602248026822F00402026015
:106D6000012901D020BF704730BF70471A4B1A6805
:106D700022F00302104318601948026842F004022E
:106D80000260012905D020BF016821F004010160E3
:106D9000704730BFF8E71048016841F00401016016
:106DA000016841F0020101600D48016841F00401F1
:106DB000016030BF704701460020074A52680A420E
:106DC00000D00120704704490A6842EA8000086048
:106DD0007047000000000E4200700040A0000E420C
:106DE00010ED00E010B50121C802FEF75FFFBDE81D
:106DF000104000214FF40060FEF758BF144A11689C
:106E000021F4C071084310607047114A116821F0E5
:106E10007F0100F07F000843106070470D4901209A
:106E2000086070470C4900F07F00086070470A490D
:106E300040F0800008607047002008490968002978
:106E400000D001207047054900200860704700000D
:106E5000042C0040A4800542002C0040082C004077
:106E600002460420A849002A0ED0A94AA74B136065
:106E7000A84B13600A6842F010020A60096811F01A
:106E8000100F00D1032070470A6822F010020A6038
:106E900070470420A0490A6812F0010F01D00120B8
:106EA00070470A6812F4807F01D002207047096899
:106EB00011F4F05FFAD00320704710B50446FFF7D5
:106EC000E8FF02E0FFF7E5FF641E012801D1002C76
:106ED000F8D1002C00D1052010BD70B505460E4636
:106EE0004FF40040FFF7E9FF04281FD18B4C2068C6
:106EF00040F400402060206840F40070206020686A
:106F000040F0080020600020286030604FF400400E
:106F1000FFF7D3FF216821F008012160216821F4E7
:106F200000712160216821F40041216070BD2DE9CC
:106F3000F04106460D4600244FF0E028D8F808003E
:106F400040F00100C8F808004FF40040FFF7B5FF1B
:106F500004281BD1714F386840F48060386038686D
:106F600040F00800386055F8040B46F82400641C13
:106F7000202CF8D34FF40040FFF79FFF396821F031
:106F800008013960396821F480613960D8F8081047
:106F900021F00101C8F80810BDE8F0812DE9F047A3
:106FA00007460E4690461D4600244FF0E02ADAF8C8
:106FB000080040F00100CAF808004FF40040FFF755
:106FC0007CFF042838D1DFF85491D9F8000040F450
:106FD0000040C9F80000D9F8000040F48060C9F80A
:106FE0000000D9F8000040F00800C9F8000056F889
:106FF000040B47F82400641C202CF8D3002055F81B
:10700000041B48F82010401C2028F8D34FF40040FF
:10701000FFF753FFD9F8001021F00801C9F800105C
:10702000D9F8001021F48061C9F80010D9F80010D7
:1070300021F40041C9F80010DAF8081021F001012C
:10704000CAF80810BDE8F08770B505464FF0E02695
:10705000B06840F00100B0604FF40040FFF72DFF32
:10706000042818D12D4C206840F40070206020685E
:1070700040F01000206000212960281D01604FF4BD
:107080000040FFF71AFF216821F400712160216898
:1070900021F010012160B16821F00101B16070BDE3
:1070A0002DE9F041074614461D464FF0E028D8F878
:1070B000080040F00100C8F808004FF40040FFF756
:1070C000FCFE042817D1154E306840F48060306013
:1070D000306840F0100030603C60381D05604FF4AF
:1070E0000040FFF7EAFE316821F4806131603168C9
:1070F00021F010013160D8F8081021F00101C8F822
:107100000810BDE8F0810000003C0240372615045D
:10711000083C0240FDFCFBFA183C0240043C0240E3
:1071200010B5B0F1804F0ED0A0F18041B1F5806173
:1071300013D101210220FEF7B9FD0021BDE8104066
:107140000220FEF7B3BD01210846FEF7AFFD002186
:10715000BDE810400120FEF7A9BDA0F18041B1F5C6
:10716000006109D101210420FEF7A0FD0021BDE846
:1071700010400420FEF79ABDA0F18041B1F54061B6
:1071800009D101210820FEF791FD0021BDE8104042
:107190000820FEF78BBDA0F18041B1F5805109D1E7
:1071A00001211020FEF782FD0021BDE810401020D3
:1071B000FEF77CBDA0F18041B1F5A05109D10121BC
:1071C0002020FEF773FD0021BDE810402020FEF7CF
:1071D0006DBDA0F18041B1F5843109D101210420B8
:1071E000FEF758FD0021BDE810400420FEF752BD17
:1071F000A0F18041B1F5863109D101210820FEF7C7
:1072000049FD0021BDE810400820FEF743BDA0F174
:107210008041B1F5883109D101211020FEF73AFDF6
:107220000021BDE810401020FEF734BD10BD0288DB
:10723000B0F1804F0AD0A0F18043B3F5806305D050
:10724000B3F5806302D0B3F5806303D122F07002FE
:107250004B881A43A0F18043B3F5805306D0B3F5B1
:10726000806303D022F440720B891A4302804A687B
:10727000C262098801850121818270474FF0FF3188
:107280004160002101800181418070470185828237
:107290007047028822F070021143018070474162FA
:1072A0007047C1627047406A7047008D704700297F
:1072B00004D0018841F0020101807047018821F06B
:1072C000020101807047002904D0018841F00401C7
:1072D00001807047018821F0040101807047002976
:1072E00004D0018841F0800101807047018821F0BD
:1072F000800101807047028822F008020280028823
:10730000114301807047028822F440720280028893
:10731000114301807047002904D0018841F0010128
:1073200001807047018821F0010101807047028CC3
:1073300022F001020284028C038B23F0700323F0FD
:107340000303B1F800C04CEA030322F00202B1F8D3
:1073500008C04CEA0202B1F802C04CEA02024968D5
:10736000416303830284704710B4028C22F0100240
:107370000284028C038B23F4E0430C784FF6FF7CED
:107380000CEA0424234322F020020C890CEA0414A2
:1073900022434C880CEA041C4CEA020249688163CF
:1073A0000383028410BC704710B4028C22F48072F4
:1073B0000284028C838B23F07003B1F800C04CEA86
:1073C000030322F400720C7A4FF6FF7C0CEA0424CB
:1073D00022438C780CEA042C4CEA02024968C1630F
:1073E0008383028410BC704710B4028C22F4805254
:1073F0000284028C838B23F4E0430C784FF6FF7CED
:107400000CEA0424234322F400520C7A0CEA0434DC
:1074100022438C780CEA043C4CEA0202496801647D
:107420008383028410BC7047002101804180416049
:107430000181704710B400F118034FF0010C0CFAF1
:1074400001FC048C24EA0C0CA0F820C0002912D006
:10745000082910D0081FC0F34E001844016821F419
:10746000E041016001684FF6FF7303EA0222114315
:10747000016010BC704703EB5100016821F07001FE
:10748000016001681143016010BC7047416370479F
:1074900081637047C163704701647047028B22F0BB
:1074A0007002114301837047028B22F4E0424FF6D1
:1074B000FF7303EA0121114301837047828B22F09D
:1074C0007002114381837047828B22F4E0424FF6B1
:1074D000FF7303EA0121114381837047028B22F07D
:1074E0000802114301837047028B22F400624FF6B9
:1074F000FF7303EA0121114301837047828B22F05D
:107500000802114381837047828B22F400624FF698
:10751000FF7303EA0121114381837047028B22F03C
:107520000402114301837047028B22F480624FF6FC
:10753000FF7303EA0121114301837047828B22F01C
:107540000402114381837047828B22F480624FF6DC
:10755000FF7303EA0121114381837047028B22F0FC
:107560008002114301837047028BC2F30E024FF673
:10757000FF7303EA0121114301837047828B22F0DC
:107580008002114381837047828BC2F30E024FF653
:10759000FF7303EA0121114381837047028C22F0BB
:1075A0000202114301847047028C22F020024FF640
:1075B000FF7303EA0111114301847047028C22F426
:1075C00000724FF6FF7303EA0121114301847047F3
:1075D000028C22F400524FF6FF7303EA013111438B
:1075E00001847047028922F0080202810289114356
:1075F0000181704701238B40B0F820C02CEA0303BF
:107600000384038C02FA01F1194301847047828BD1
:1076100022F440628283828B4FF6FF7303EA0121DA
:1076200011438183704730B4B0F820C02CF4805CE3
:10763000A0F820C0848BB0F820C04FF6FF7505EA93
:10764000013124F4734405EA0222224305EA03339C
:107650001A432CF42043194341F48051828301845E
:1076600030BC7047828B22F00C028283828B1143E4
:107670008183704730B4B0F820C02CF4807CA0F82F
:1076800020C0848BB0F820C04FF6FF7505EA0121B9
:1076900024F0F30405EA03131A4322432CF4206375
:1076A000194341F480718283018430BC7047028B9E
:1076B00022F440620283028B4FF6FF7303EA01213A
:1076C00011430183704730B4B0F820C02CF0100C87
:1076D000A0F820C0048BB0F820C04FF6FF7505EA73
:1076E000011124F4734405EA0333234305EA02221B
:1076F0001A432CF0A003194341F0100102830184C6
:1077000030BC7047028B22F00C020283028B1143C3
:107710000183704730B4B0F820C02CF0010CA0F801
:1077200020C0048BB0F820C024F0F3044FF6FF759E
:1077300005EA03131A4322432CF00A03194341F0CC
:1077400001010283018430BC704770B505460C46C8
:107750002188B4F802C0A288238900290CD004290A
:1077600013D008291AD061462846FFF75CFFE1884C
:107770002846BDE870404AE761462846FFF7CAFF41
:10778000E1882846BDE87040BCE761462846FFF71F
:107790009AFFE1882846BDE8704088E761462846A0
:1077A000FFF768FFE1882846BDE870405AE70021EE
:1077B0000180418001228280C180018170472DE9D2
:1077C000F04107460C46002501266188002900D1BA
:1077D0000225A288012A00D102262088238988B1A7
:1077E0003846FFF770FFE1883846FFF760FF2389CE
:1077F000324629463846FFF78DFFE1883846BDE816
:10780000F0417FE73846FFF785FFE1883846FFF70C
:1078100079FF2389324629463846FFF754FFE1882D
:107820003846BDE8F04142E7406B7047806B7047D7
:10783000C06B7047006C7047002A03D082891143E7
:1078400081817047828922EA0101818170478182AA
:10785000704702460020128A0A4200D00120704779
:10786000C943018270470022038A0B408089084087
:10787000002B01D000B1012210467047C94301829C
:1078800070471143A0F848107047002A03D082893E
:10789000114381817047828922EA01018181704709
:1078A000002904D0818841F00801818070478188D7
:1078B00021F0080181807047018921F007010181D1
:1078C0007047028922F0700211430181704700B5B0
:1078D00003461846FFF7F5FF188940F007001881A6
:1078E00000BD70B50D4604461146602D0CD0012236
:1078F0002046FFF70FFF29462046FFF7E2FF2089C9
:1079000040F00700208170BD01222046FFF7DBFE1A
:10791000F1E710B4B0F808C00CF0FF0C4FF6FF749C
:1079200004EA03231A43114341EA0C01018110BC0C
:10793000704710B504462046FFF7EBFF208920F082
:10794000070040F0070020F0700040F07000208138
:1079500010BD10B504462046FFF7DBFF208940F438
:107960008040208110BD828822F07002828082884F
:10797000114381807047028922F007020281028947
:10798000114301817047028922F08002028102893D
:1079900011430181704730B40589B0F818C0048CD8
:1079A00025F0070529432CF0030C2CF4407C40F211
:1079B00001154CEA050C24F022044FF6FF7505EA88
:1079C00003131A4322430181A0F818C0028430BC7B
:1079D0007047002904D0818841F080018180704780
:1079E000818821F0800181807047B0F8502002EA40
:1079F0001142A0F85020B0F850201143A0F85010C8
:107A0000704700000D49086070470C494860704796
:107A10000A498860704709494AF6AA2008607047F9
:107A200006494CF6CC400860704701460020034AE6
:107A3000D2680A4200D001207047000000300040A8
:107A40000020644A116841F480311160116801F42A
:107A50000031401C11B9B0F5A06FF7D1106810F4D7
:107A6000003F01D0012000E0002001283CD15A480D
:107A7000016841F004010160016841F00201016008
:107A8000016841F0010101605448016841F08051F2
:107A90000160C11452480160416811F0100FFBD120
:107AA0005048016801600168016001680160016877
:107AB00021F47D010160016841F411010160116848
:107AC00041F080711160116811F0007FFBD00168F6
:107AD00021F003010160016841F0030101600C2104
